{
  "contractName": "AuthController",
  "abi": [
    {
      "anonymous": false,
      "inputs": [
        {
          "indexed": true,
          "internalType": "address",
          "name": "previousOwner",
          "type": "address"
        },
        {
          "indexed": true,
          "internalType": "address",
          "name": "newOwner",
          "type": "address"
        }
      ],
      "name": "OwnershipTransferred",
      "type": "event"
    },
    {
      "constant": true,
      "inputs": [],
      "name": "isOwner",
      "outputs": [
        {
          "internalType": "bool",
          "name": "",
          "type": "bool"
        }
      ],
      "payable": false,
      "stateMutability": "view",
      "type": "function"
    },
    {
      "constant": true,
      "inputs": [],
      "name": "owner",
      "outputs": [
        {
          "internalType": "address",
          "name": "",
          "type": "address"
        }
      ],
      "payable": false,
      "stateMutability": "view",
      "type": "function"
    },
    {
      "constant": false,
      "inputs": [
        {
          "internalType": "address",
          "name": "target",
          "type": "address"
        }
      ],
      "name": "renounceMinter",
      "outputs": [],
      "payable": false,
      "stateMutability": "nonpayable",
      "type": "function"
    },
    {
      "constant": false,
      "inputs": [
        {
          "internalType": "address",
          "name": "target",
          "type": "address"
        }
      ],
      "name": "renouncePauser",
      "outputs": [],
      "payable": false,
      "stateMutability": "nonpayable",
      "type": "function"
    },
    {
      "constant": false,
      "inputs": [
        {
          "internalType": "address",
          "name": "target",
          "type": "address"
        }
      ],
      "name": "renounceOwnership",
      "outputs": [],
      "payable": false,
      "stateMutability": "nonpayable",
      "type": "function"
    },
    {
      "constant": false,
      "inputs": [],
      "name": "renounceOwnership",
      "outputs": [],
      "payable": false,
      "stateMutability": "nonpayable",
      "type": "function"
    },
    {
      "constant": false,
      "inputs": [
        {
          "internalType": "address",
          "name": "target",
          "type": "address"
        },
        {
          "internalType": "address",
          "name": "newOwner",
          "type": "address"
        }
      ],
      "name": "transferOwnership",
      "outputs": [],
      "payable": false,
      "stateMutability": "nonpayable",
      "type": "function"
    },
    {
      "constant": false,
      "inputs": [
        {
          "internalType": "address",
          "name": "newOwner",
          "type": "address"
        }
      ],
      "name": "transferOwnership",
      "outputs": [],
      "payable": false,
      "stateMutability": "nonpayable",
      "type": "function"
    }
  ],
  "bytecode": "0x608060405260006100176001600160e01b0361006616565b600080546001600160a01b0319166001600160a01b0383169081178255604051929350917f8be0079c531659141344cd1fd0a4f28419497f9722a3daafe3b4186f6b6457e0908290a35061006a565b3390565b61062f806100796000396000f3fe608060405234801561001057600080fd5b50600436106100885760003560e01c8063715018a61161005b578063715018a61461012f5780638da5cb5b146101375780638f32d59b1461015b578063f2fde38b1461017757610088565b806338bf3cfa1461008d57806341eb24bb146100b55780635f112c68146100db5780636d43542114610101575b600080fd5b6100b3600480360360208110156100a357600080fd5b50356001600160a01b031661019d565b005b6100b3600480360360208110156100cb57600080fd5b50356001600160a01b031661023a565b6100b3600480360360208110156100f157600080fd5b50356001600160a01b03166102bc565b6100b36004803603604081101561011757600080fd5b506001600160a01b038135811691602001351661033e565b6100b36103f9565b61013f61048a565b604080516001600160a01b039092168252519081900360200190f35b610163610499565b604080519115158252519081900360200190f35b6100b36004803603602081101561018d57600080fd5b50356001600160a01b03166104bd565b6101a5610499565b6101e4576040805162461bcd60e51b815260206004820181905260248201526000805160206105db833981519152604482015290519081900360640190fd5b806001600160a01b031663715018a66040518163ffffffff1660e01b8152600401600060405180830381600087803b15801561021f57600080fd5b505af1158015610233573d6000803e3d6000fd5b5050505050565b610242610499565b610281576040805162461bcd60e51b815260206004820181905260248201526000805160206105db833981519152604482015290519081900360640190fd5b806001600160a01b0316636ef8d66d6040518163ffffffff1660e01b8152600401600060405180830381600087803b15801561021f57600080fd5b6102c4610499565b610303576040805162461bcd60e51b815260206004820181905260248201526000805160206105db833981519152604482015290519081900360640190fd5b806001600160a01b031663986502756040518163ffffffff1660e01b8152600401600060405180830381600087803b15801561021f57600080fd5b610346610499565b610385576040805162461bcd60e51b815260206004820181905260248201526000805160206105db833981519152604482015290519081900360640190fd5b816001600160a01b031663f2fde38b826040518263ffffffff1660e01b815260040180826001600160a01b03166001600160a01b03168152602001915050600060405180830381600087803b1580156103dd57600080fd5b505af11580156103f1573d6000803e3d6000fd5b505050505050565b610401610499565b610440576040805162461bcd60e51b815260206004820181905260248201526000805160206105db833981519152604482015290519081900360640190fd5b600080546040516001600160a01b03909116907f8be0079c531659141344cd1fd0a4f28419497f9722a3daafe3b4186f6b6457e0908390a3600080546001600160a01b0319169055565b6000546001600160a01b031690565b600080546001600160a01b03166104ae610510565b6001600160a01b031614905090565b6104c5610499565b610504576040805162461bcd60e51b815260206004820181905260248201526000805160206105db833981519152604482015290519081900360640190fd5b61050d81610514565b50565b3390565b6001600160a01b0381166105595760405162461bcd60e51b81526004018080602001828103825260268152602001806105b56026913960400191505060405180910390fd5b600080546040516001600160a01b03808516939216917f8be0079c531659141344cd1fd0a4f28419497f9722a3daafe3b4186f6b6457e091a3600080546001600160a01b0319166001600160a01b039290921691909117905556fe4f776e61626c653a206e6577206f776e657220697320746865207a65726f20616464726573734f776e61626c653a2063616c6c6572206973206e6f7420746865206f776e6572a265627a7a72315820d6ecf1f902314acc591e19e9f871a2682715b1ba5d1f76e896a6696089b6f78d64736f6c634300050c0032",
  "source": "pragma solidity ^0.5.12;\n\nimport { Ownable } from \"../../../node_modules/openzeppelin-solidity/contracts/ownership/Ownable.sol\";\n\n\ninterface MinterRoleRenounceTarget {\n  function renounceMinter() external;\n}\n\ninterface PauserRoleRenounceTarget {\n  function renouncePauser() external;\n}\n\ninterface OwnableTarget {\n  function renounceOwnership() external;\n  function transferOwnership(address newOwner) external;\n}\n\ncontract AuthController is Ownable {\n  function renounceMinter(address target) public onlyOwner {\n    MinterRoleRenounceTarget(target).renounceMinter();\n  }\n\n  function renouncePauser(address target) public onlyOwner {\n    PauserRoleRenounceTarget(target).renouncePauser();\n  }\n\n  function renounceOwnership(address target) public onlyOwner {\n    OwnableTarget(target).renounceOwnership();\n  }\n\n  function transferOwnership(address target, address newOwner) public onlyOwner {\n    OwnableTarget(target).transferOwnership(newOwner);\n  }\n}",
  "sourcePath": "/Users/thomashin/Workspace/plasma-evm-contracts/contracts/stake/tokens/AuthController.sol",
  "compiler": {
    "name": "solc",
    "version": "0.5.12+commit.7709ece9.Emscripten.clang"
  },
  "schemaVersion": "3.0.23",
  "updatedAt": "2020-02-19T11:32:11.520Z",
  "devdoc": {
    "methods": {
      "isOwner()": {
        "details": "Returns true if the caller is the current owner."
      },
      "owner()": {
        "details": "Returns the address of the current owner."
      },
      "renounceOwnership()": {
        "details": "Leaves the contract without owner. It will not be possible to call `onlyOwner` functions anymore. Can only be called by the current owner.     * NOTE: Renouncing ownership will leave the contract without an owner, thereby removing any functionality that is only available to the owner."
      },
      "transferOwnership(address)": {
        "details": "Transfers ownership of the contract to a new account (`newOwner`). Can only be called by the current owner."
      }
    }
  },
  "userdoc": {
    "methods": {}
  }
}