{
  "contractName": "AuthController",
  "abi": [
    {
      "anonymous": false,
      "inputs": [
        {
          "indexed": true,
          "internalType": "address",
          "name": "previousOwner",
          "type": "address"
        },
        {
          "indexed": true,
          "internalType": "address",
          "name": "newOwner",
          "type": "address"
        }
      ],
      "name": "OwnershipTransferred",
      "type": "event"
    },
    {
      "constant": true,
      "inputs": [],
      "name": "isOwner",
      "outputs": [
        {
          "internalType": "bool",
          "name": "",
          "type": "bool"
        }
      ],
      "payable": false,
      "stateMutability": "view",
      "type": "function"
    },
    {
      "constant": true,
      "inputs": [],
      "name": "owner",
      "outputs": [
        {
          "internalType": "address",
          "name": "",
          "type": "address"
        }
      ],
      "payable": false,
      "stateMutability": "view",
      "type": "function"
    },
    {
      "constant": false,
      "inputs": [
        {
          "internalType": "address",
          "name": "target",
          "type": "address"
        }
      ],
      "name": "renounceMinter",
      "outputs": [],
      "payable": false,
      "stateMutability": "nonpayable",
      "type": "function"
    },
    {
      "constant": false,
      "inputs": [
        {
          "internalType": "address",
          "name": "target",
          "type": "address"
        }
      ],
      "name": "renounceOwnership",
      "outputs": [],
      "payable": false,
      "stateMutability": "nonpayable",
      "type": "function"
    },
    {
      "constant": false,
      "inputs": [],
      "name": "renounceOwnership",
      "outputs": [],
      "payable": false,
      "stateMutability": "nonpayable",
      "type": "function"
    },
    {
      "constant": false,
      "inputs": [
        {
          "internalType": "address",
          "name": "target",
          "type": "address"
        },
        {
          "internalType": "address",
          "name": "newOwner",
          "type": "address"
        }
      ],
      "name": "transferOwnership",
      "outputs": [],
      "payable": false,
      "stateMutability": "nonpayable",
      "type": "function"
    },
    {
      "constant": false,
      "inputs": [
        {
          "internalType": "address",
          "name": "newOwner",
          "type": "address"
        }
      ],
      "name": "transferOwnership",
      "outputs": [],
      "payable": false,
      "stateMutability": "nonpayable",
      "type": "function"
    }
  ],
  "bytecode": "0x608060405260006100176001600160e01b0361006616565b600080546001600160a01b0319166001600160a01b0383169081178255604051929350917f8be0079c531659141344cd1fd0a4f28419497f9722a3daafe3b4186f6b6457e0908290a35061006a565b3390565b61057c806100796000396000f3fe608060405234801561001057600080fd5b506004361061007d5760003560e01c8063715018a61161005b578063715018a6146100fe5780638da5cb5b146101065780638f32d59b1461012a578063f2fde38b146101465761007d565b806338bf3cfa146100825780635f112c68146100aa5780636d435421146100d0575b600080fd5b6100a86004803603602081101561009857600080fd5b50356001600160a01b031661016c565b005b6100a8600480360360208110156100c057600080fd5b50356001600160a01b0316610209565b6100a8600480360360408110156100e657600080fd5b506001600160a01b038135811691602001351661028b565b6100a8610346565b61010e6103d7565b604080516001600160a01b039092168252519081900360200190f35b6101326103e6565b604080519115158252519081900360200190f35b6100a86004803603602081101561015c57600080fd5b50356001600160a01b031661040a565b6101746103e6565b6101b3576040805162461bcd60e51b81526020600482018190526024820152600080516020610528833981519152604482015290519081900360640190fd5b806001600160a01b031663715018a66040518163ffffffff1660e01b8152600401600060405180830381600087803b1580156101ee57600080fd5b505af1158015610202573d6000803e3d6000fd5b5050505050565b6102116103e6565b610250576040805162461bcd60e51b81526020600482018190526024820152600080516020610528833981519152604482015290519081900360640190fd5b806001600160a01b031663986502756040518163ffffffff1660e01b8152600401600060405180830381600087803b1580156101ee57600080fd5b6102936103e6565b6102d2576040805162461bcd60e51b81526020600482018190526024820152600080516020610528833981519152604482015290519081900360640190fd5b816001600160a01b031663f2fde38b826040518263ffffffff1660e01b815260040180826001600160a01b03166001600160a01b03168152602001915050600060405180830381600087803b15801561032a57600080fd5b505af115801561033e573d6000803e3d6000fd5b505050505050565b61034e6103e6565b61038d576040805162461bcd60e51b81526020600482018190526024820152600080516020610528833981519152604482015290519081900360640190fd5b600080546040516001600160a01b03909116907f8be0079c531659141344cd1fd0a4f28419497f9722a3daafe3b4186f6b6457e0908390a3600080546001600160a01b0319169055565b6000546001600160a01b031690565b600080546001600160a01b03166103fb61045d565b6001600160a01b031614905090565b6104126103e6565b610451576040805162461bcd60e51b81526020600482018190526024820152600080516020610528833981519152604482015290519081900360640190fd5b61045a81610461565b50565b3390565b6001600160a01b0381166104a65760405162461bcd60e51b81526004018080602001828103825260268152602001806105026026913960400191505060405180910390fd5b600080546040516001600160a01b03808516939216917f8be0079c531659141344cd1fd0a4f28419497f9722a3daafe3b4186f6b6457e091a3600080546001600160a01b0319166001600160a01b039290921691909117905556fe4f776e61626c653a206e6577206f776e657220697320746865207a65726f20616464726573734f776e61626c653a2063616c6c6572206973206e6f7420746865206f776e6572a265627a7a723158208ef4ece09f329c6969ae81c7444e124ddf8230975767769339fd809adbb663fb64736f6c634300050c0032",
  "source": "pragma solidity ^0.5.12;\n\nimport { Ownable } from \"../../../node_modules/openzeppelin-solidity/contracts/ownership/Ownable.sol\";\n\n\ninterface MinterRoleRenounceTarget {\n  function renounceMinter() external;\n}\n\ninterface OwnableTarget {\n  function renounceOwnership() external;\n  function transferOwnership(address newOwner) external;\n}\n\ncontract AuthController is Ownable {\n  function renounceMinter(address target) public onlyOwner {\n    MinterRoleRenounceTarget(target).renounceMinter();\n  }\n\n  function renounceOwnership(address target) public onlyOwner {\n    OwnableTarget(target).renounceOwnership();\n  }\n\n  function transferOwnership(address target, address newOwner) public onlyOwner {\n    OwnableTarget(target).transferOwnership(newOwner);\n  }\n}",
  "sourcePath": "/Users/pjh/workspace/go/src/github.com/Onther-Tech/plasma-evm/contracts/plasma/plasma-evm-cotracts/contracts/stake/tokens/AuthController.sol",
  "compiler": {
    "name": "solc",
    "version": "0.5.12+commit.7709ece9.Emscripten.clang"
  },
  "schemaVersion": "3.0.23",
  "updatedAt": "2020-02-13T05:01:24.036Z",
  "devdoc": {
    "methods": {
      "isOwner()": {
        "details": "Returns true if the caller is the current owner."
      },
      "owner()": {
        "details": "Returns the address of the current owner."
      },
      "renounceOwnership()": {
        "details": "Leaves the contract without owner. It will not be possible to call `onlyOwner` functions anymore. Can only be called by the current owner.     * NOTE: Renouncing ownership will leave the contract without an owner, thereby removing any functionality that is only available to the owner."
      },
      "transferOwnership(address)": {
        "details": "Transfers ownership of the contract to a new account (`newOwner`). Can only be called by the current owner."
      }
    }
  },
  "userdoc": {
    "methods": {}
  }
}