{
  "contractName": "BMTMock",
  "abi": [
    {
      "constant": true,
      "inputs": [],
      "name": "MAX_LEAVES",
      "outputs": [
        {
          "internalType": "uint256",
          "name": "",
          "type": "uint256"
        }
      ],
      "payable": false,
      "stateMutability": "view",
      "type": "function"
    },
    {
      "constant": true,
      "inputs": [
        {
          "internalType": "uint256",
          "name": "",
          "type": "uint256"
        }
      ],
      "name": "leaves",
      "outputs": [
        {
          "internalType": "bytes32",
          "name": "",
          "type": "bytes32"
        }
      ],
      "payable": false,
      "stateMutability": "view",
      "type": "function"
    },
    {
      "constant": true,
      "inputs": [],
      "name": "root",
      "outputs": [
        {
          "internalType": "bytes32",
          "name": "",
          "type": "bytes32"
        }
      ],
      "payable": false,
      "stateMutability": "view",
      "type": "function"
    },
    {
      "constant": true,
      "inputs": [],
      "name": "getLeavesCount",
      "outputs": [
        {
          "internalType": "uint256",
          "name": "",
          "type": "uint256"
        }
      ],
      "payable": false,
      "stateMutability": "view",
      "type": "function"
    },
    {
      "constant": false,
      "inputs": [
        {
          "internalType": "bytes32",
          "name": "_leaf",
          "type": "bytes32"
        }
      ],
      "name": "addLeaf",
      "outputs": [],
      "payable": false,
      "stateMutability": "nonpayable",
      "type": "function"
    },
    {
      "constant": false,
      "inputs": [
        {
          "internalType": "bytes32[]",
          "name": "_leaves",
          "type": "bytes32[]"
        }
      ],
      "name": "addLeaves",
      "outputs": [],
      "payable": false,
      "stateMutability": "nonpayable",
      "type": "function"
    },
    {
      "constant": true,
      "inputs": [
        {
          "internalType": "bytes32",
          "name": "_root",
          "type": "bytes32"
        }
      ],
      "name": "checkRoot",
      "outputs": [
        {
          "internalType": "bool",
          "name": "",
          "type": "bool"
        }
      ],
      "payable": false,
      "stateMutability": "view",
      "type": "function"
    },
    {
      "constant": false,
      "inputs": [],
      "name": "setRoot",
      "outputs": [],
      "payable": false,
      "stateMutability": "nonpayable",
      "type": "function"
    },
    {
      "constant": true,
      "inputs": [],
      "name": "getRoot",
      "outputs": [
        {
          "internalType": "bytes32",
          "name": "",
          "type": "bytes32"
        }
      ],
      "payable": false,
      "stateMutability": "view",
      "type": "function"
    }
  ],
  "bytecode": "0x608060405234801561001057600080fd5b506104ec806100206000396000f3fe608060405234801561001057600080fd5b50600436106100935760003560e01c80638584f55f116100665780638584f55f146100f5578063d455a79d146100fd578063ea9493461461011a578063ebf0c71714610137578063f320e8d61461013f57610093565b806306c8442b14610098578063082febf0146100c95780633edbff79146100e35780635ca1e165146100ed575b600080fd5b6100b5600480360360208110156100ae57600080fd5b50356101e2565b604080519115158252519081900360200190f35b6100d16101f6565b60408051918252519081900360200190f35b6100eb6101fd565b005b6100d161020a565b6100d161026a565b6100d16004803603602081101561011357600080fd5b5035610270565b6100eb6004803603602081101561013057600080fd5b503561028e565b6100d16102c0565b6100eb6004803603602081101561015557600080fd5b81019060208101813564010000000081111561017057600080fd5b82018360208201111561018257600080fd5b803590602001918460208302840111640100000000831117156101a457600080fd5b9190808060200260200160405190810160405280939291908181526020018383602002808284376000920191909152509295506102c6945050505050565b6000816101ed61020a565b1490505b919050565b6201000081565b61020561020a565b600155565b6000610265600080548060200260200160405190810160405280929190818152602001828054801561025b57602002820191906000526020600020905b815481526020019060010190808311610247575b505050505061031d565b905090565b60005490565b6000818154811061027d57fe5b600091825260209091200154905081565b600080546001810182559080527f290decd9548b62a8d60345a988386fc84ba6bc95484008f6362f93160ef3e5630155565b60015481565b60008151116102d457600080fd5b60005b81518110156103195760008282815181106102ee57fe5b60209081029190910181015182546001818101855560009485529290932090920191909155016102d7565b5050565b6000815160011415610345578160008151811061033657fe5b602002602001015190506101f1565b6060600283516001018161035557fe5b0460405190808252806020026020018201604052801561037f578160200160208202803883390190505b50905060005b83518160010110156104125783818151811061039d57fe5b60200260200101518482600101815181106103b457fe5b602002602001015160405160200180838152602001828152602001925050506040516020818303038152906040528051906020012082600283816103f457fe5b04815181106103ff57fe5b6020908102919091010152600201610385565b600284518161041d57fe5b06600114156104a6578360018551038151811061043657fe5b60200260200101518460018651038151811061044e57fe5b6020026020010151604051602001808381526020018281526020019250505060405160208183030381529060405280519060200120826002838161048e57fe5b048151811061049957fe5b6020026020010181815250505b6104af8261031d565b94935050505056fea265627a7a72315820e481d2aabe8ada1ff83627ad60269ef313e959417c17668d1b7da62de7146cd364736f6c634300050c0032",
  "source": "pragma solidity ^0.5.12;\n\nimport \"../lib/BMT.sol\";\n\n\ncontract BMTMock {\n  using BMT for bytes32[];\n\n  uint constant public MAX_LEAVES = 2 ** 16;\n  bytes32[] public leaves;\n  bytes32 public root;\n\n  function getLeavesCount() public view returns (uint) {\n    return leaves.length;\n  }\n\n  function addLeaf(bytes32 _leaf) public {\n    leaves.push(_leaf);\n  }\n\n  function addLeaves(bytes32[] memory _leaves) public {\n    require(_leaves.length > 0);\n    for(uint i = 0; i < _leaves.length; i++) {\n      leaves.push(_leaves[i]);\n    }\n  }\n\n  function checkRoot(bytes32 _root) public view returns (bool) {\n    return getRoot() == _root;\n  }\n\n  function setRoot() public {\n    root = getRoot();\n  }\n\n  function getRoot() public view returns (bytes32) {\n    return leaves.getRoot();\n  }\n}\n",
  "sourcePath": "/Users/thomashin/Workspace/plasma-evm-contracts/contracts/mock/BMTMock.sol",
  "compiler": {
    "name": "solc",
    "version": "0.5.12+commit.7709ece9.Emscripten.clang"
  },
  "schemaVersion": "3.0.23",
  "updatedAt": "2020-02-17T01:27:42.244Z",
  "devdoc": {
    "methods": {}
  },
  "userdoc": {
    "methods": {}
  }
}