{
  "contractName": "Data",
  "abi": [
    {
      "constant": true,
      "inputs": [],
      "name": "APPLY_IN_CHILDCHAIN_SIGNATURE",
      "outputs": [
        {
          "internalType": "bytes4",
          "name": "",
          "type": "bytes4"
        }
      ],
      "payable": false,
      "stateMutability": "view",
      "type": "function"
    },
    {
      "constant": true,
      "inputs": [],
      "name": "APPLY_IN_ROOTCHAIN_SIGNATURE",
      "outputs": [
        {
          "internalType": "bytes4",
          "name": "",
          "type": "bytes4"
        }
      ],
      "payable": false,
      "stateMutability": "view",
      "type": "function"
    },
    {
      "constant": true,
      "inputs": [],
      "name": "NA",
      "outputs": [
        {
          "internalType": "address",
          "name": "",
          "type": "address"
        }
      ],
      "payable": false,
      "stateMutability": "view",
      "type": "function"
    },
    {
      "constant": true,
      "inputs": [],
      "name": "NA_TX_GAS_LIMIT",
      "outputs": [
        {
          "internalType": "uint256",
          "name": "",
          "type": "uint256"
        }
      ],
      "payable": false,
      "stateMutability": "view",
      "type": "function"
    },
    {
      "constant": true,
      "inputs": [],
      "name": "NA_TX_GAS_PRICE",
      "outputs": [
        {
          "internalType": "uint256",
          "name": "",
          "type": "uint256"
        }
      ],
      "payable": false,
      "stateMutability": "view",
      "type": "function"
    }
  ],
  "bytecode": "0x6101cf610026600b82828239805160001a60731461001957fe5b30600052607381538281f3fe73000000000000000000000000000000000000000030146080604052600436106100615760003560e01c80631927ac581461006657806390e84f5614610080578063a7b6ae2814610088578063a89ca766146100ad578063ab73ff05146100b5575b600080fd5b61006e6100d9565b60408051918252519081900360200190f35b61006e6100e1565b6100906100e8565b604080516001600160e01b03199092168252519081900360200190f35b610090610103565b6100bd61011e565b604080516001600160a01b039092168252519081900360200190f35b633b9aca0081565b620186a081565b60405180603b6101608239603b019050604051809103902081565b60405180603c6101248239603c019050604051809103902081565b60008156fe6170706c7952657175657374496e4368696c64436861696e28626f6f6c2c75696e743235362c616464726573732c627974657333322c6279746573296170706c7952657175657374496e526f6f74436861696e28626f6f6c2c75696e743235362c616464726573732c627974657333322c627974657329a265627a7a723158205ca2dd385812b0623a93469ac668ea7e39f0572bd885abf9ca25090a0f84e32364736f6c634300050c0032",
  "source": "pragma solidity ^0.5.12;\n\n\nimport \"./SafeMath.sol\";\nimport \"./Math.sol\";\nimport \"./RLP.sol\";\nimport \"./RLPEncode.sol\";\nimport \"./BMT.sol\";\n\n// import \"../patricia_tree/PatriciaTree.sol\"; // use binary merkle tree\nimport {RequestableI} from \"../RequestableI.sol\";\n\n\nlibrary Data {\n  using SafeMath for uint;\n  using SafeMath for uint64;\n  using Math for *;\n  using RLP for *;\n  using RLPEncode for *;\n  using BMT for *;\n\n  // solium-disable max-len\n  bytes4 public constant APPLY_IN_CHILDCHAIN_SIGNATURE = bytes4(keccak256(\"applyRequestInChildChain(bool,uint256,address,bytes32,bytes)\"));\n  bytes4 public constant APPLY_IN_ROOTCHAIN_SIGNATURE = bytes4(keccak256(\"applyRequestInRootChain(bool,uint256,address,bytes32,bytes)\"));\n  // solium-enable max-len\n\n  address public constant NA = address(0);\n  uint public constant NA_TX_GAS_PRICE = 1e9;\n  uint public constant NA_TX_GAS_LIMIT = 100000;\n\n  // How many requests can be included in a single request block\n  function MAX_REQUESTS() internal pure returns (uint) {\n    // TODO: use 100 in production mode\n    // return 1000;\n    return 20;\n  }\n\n  // Timeout for URB submission\n  function URE_TIMEOUT() internal pure returns (uint) {\n    return 1 hours;\n  }\n\n  function decodePos(uint _pos) internal pure returns (uint v1, uint v2) {\n    assembly {\n      v1 := div(_pos, exp(2, 128))\n      v2 := and(_pos, sub(exp(2, 128), 1))\n    }\n  }\n\n  /**\n   * highestFinalizedBlock\n   * firstEpochNumber\n   * blockToRenew               0 means no renew required\n   * forkedBlock                forked block number due to URB submission\n   *                            last finalized block is forkedBlockNumber - 1\n   * urbEpochNumber\n   * lastEpoch\n   * lastBlock\n   * lastFinalizedBlock\n   * timestamp\n   * firstEnterEpoch            epoch number of first enter request epoch\n   * lastEnterEpoch             epoch number of last enter request epoch\n   * nextBlockToRebase\n   * rebased                    true if all blocks are rebased\n   * epochs                     epochs in this fork\n   * blocks                     blocks in this fork\n   */\n  struct Fork {\n    // uint64 blockToRenew;\n    uint64 forkedBlock; // TODO: change to forkedEpoch\n    uint64 firstEpoch;\n    uint64 lastEpoch;\n    uint64 firstBlock;\n    uint64 lastBlock;\n    uint64 lastFinalizedEpoch;\n    uint64 lastFinalizedBlock;\n    uint64 timestamp;\n    uint64 firstEnterEpoch;\n    uint64 lastEnterEpoch;\n    uint64 nextBlockToRebase;\n    bool rebased;\n    mapping (uint => Epoch) epochs;\n    mapping (uint => PlasmaBlock) blocks;\n  }\n\n  function getForkedEpoch(Fork storage self) internal view returns (uint64) {\n    require(self.forkedBlock != 0);\n    return self.blocks[self.forkedBlock].epochNumber;\n  }\n\n  /**\n   * @notice Insert a block (ORB / NRB) into the fork.\n   */\n  function insertBlock(\n    Fork storage _f,\n    bytes32 _statesRoot,\n    bytes32 _transactionsRoot,\n    bytes32 _receiptsRoot,\n    bool _isRequest,\n    bool _userActivated,\n    bool _rebase\n  )\n    internal\n    returns (uint epochNumber, uint blockNumber)\n  {\n    epochNumber = _f.lastEpoch;\n    blockNumber = _f.lastBlock.add(1);\n\n    Data.Epoch storage epoch = _f.epochs[epochNumber];\n\n    if (blockNumber == epoch.endBlockNumber + 1) {\n      epochNumber += 1;\n      _f.lastEpoch = uint64(epochNumber);\n      epoch = _f.epochs[epochNumber];\n    }\n\n    require(epoch.startBlockNumber <= blockNumber);\n    require(_rebase || epoch.endBlockNumber >= blockNumber);\n\n    require(epoch.isRequest == _isRequest);\n    require(epoch.userActivated == _userActivated);\n\n    Data.PlasmaBlock storage b = _f.blocks[blockNumber];\n\n    b.epochNumber = uint64(epochNumber);\n    b.statesRoot = _statesRoot;\n    b.transactionsRoot = _transactionsRoot;\n    b.receiptsRoot = _receiptsRoot;\n    b.timestamp = uint64(block.timestamp);\n    b.isRequest = _isRequest;\n    b.userActivated = _userActivated;\n\n    if (_isRequest) {\n      b.requestBlockId = uint64(epoch.RE.firstRequestBlockId + blockNumber - epoch.startBlockNumber);\n    }\n\n    _f.lastBlock = uint64(blockNumber);\n    return (epochNumber, blockNumber);\n  }\n\n\n  /**\n   * TODO: implement insert rebased non-request epoch\n   * @notice Insert non-request epoch into the fork.\n   */\n  function insertNRE(\n    Fork storage _f,\n    uint _epochNumber,\n    bytes32 _epochStateRoot,\n    bytes32 _epochTransactionsRoot,\n    bytes32 _epochReceiptsRoot,\n    uint _startBlockNumber,\n    uint _endBlockNumber\n  )\n    internal\n  {\n    require(_f.lastEpoch.add(1) == _epochNumber);\n    require(_f.lastBlock.add(1) == _startBlockNumber);\n\n    Data.Epoch storage epoch = _f.epochs[_epochNumber];\n\n    require(!epoch.isRequest);\n    require(!epoch.userActivated);\n    require(!epoch.rebase);\n\n    require(epoch.startBlockNumber == _startBlockNumber);\n    require(epoch.endBlockNumber == _endBlockNumber);\n\n    epoch.NRE.epochStateRoot = _epochStateRoot;\n    epoch.NRE.epochTransactionsRoot = _epochTransactionsRoot;\n    epoch.NRE.epochReceiptsRoot = _epochReceiptsRoot;\n    epoch.NRE.submittedAt = uint64(block.timestamp);\n\n    _f.lastEpoch = uint64(_epochNumber);\n    _f.lastBlock = uint64(_endBlockNumber);\n  }\n\n  function getLastEpochNumber(Fork storage _f, bool _isRequest) internal returns (uint) {\n    if (_f.epochs[_f.lastEpoch].isRequest == _isRequest) {\n      return _f.lastEpoch;\n    }\n\n    return _f.lastEpoch - 1;\n  }\n\n  // function getFirstNotFinalizedEpochNumber(Fork storage _f, bool _isRequest) internal returns (uint) {\n  //   if (_f.epochs[_f.lastEpoch].isRequest == _isRequest) {\n  //     return _f.lastEpoch;\n  //   }\n\n  //   return _f.lastEpoch - 1;\n  // }\n\n  /**\n   * @notice Update nextBlockToRebase to next request block containing enter request.\n   *         If all ORBs are rebased, return true.\n   */\n  function checkNextORBToRebase(\n    Fork storage _cur,\n    Fork storage _pre,\n    RequestBlock[] storage _rbs\n  ) internal returns (bool finished) {\n    uint blockNumber = _cur.nextBlockToRebase;\n    uint epochNumber = _pre.blocks[_cur.nextBlockToRebase].epochNumber;\n    // uint lastEpochNumber = getLastEpochNumber(_pre, true);\n\n    while (_pre.epochs[epochNumber].initialized) {\n      // at the end of epoch\n      if (_pre.epochs[epochNumber].endBlockNumber <= blockNumber) {\n        epochNumber += 2;\n        blockNumber = _pre.epochs[epochNumber].startBlockNumber;\n      }\n\n      // skip until epoch has enter request\n      while (_pre.epochs[epochNumber].RE.numEnter == 0 && _pre.epochs[epochNumber].initialized) {\n        epochNumber += 2;\n        blockNumber = _pre.epochs[epochNumber].startBlockNumber;\n      }\n\n      // short circuit if all OREs are empty or has no enter\n      if (!_pre.epochs[epochNumber].initialized) {\n        return true;\n      }\n\n      // skip blocks without enter request\n      uint endBlockNumber = _pre.epochs[epochNumber].endBlockNumber;\n      while (blockNumber <= endBlockNumber) {\n        if (_rbs[_pre.blocks[blockNumber].requestBlockId].numEnter > 0) {\n          break;\n        }\n        blockNumber += 1;\n      }\n\n      // continue if there is no block containing enter request\n      if (blockNumber > endBlockNumber) {\n        epochNumber += 2;\n        blockNumber = _pre.epochs[epochNumber].startBlockNumber;\n        continue;\n      }\n\n      // target block number is found\n      _cur.nextBlockToRebase = uint64(blockNumber);\n      return false;\n    }\n\n    // ready to prepare NRE\n    return true;\n  }\n\n  /**\n   * @notice Update nextBlockToRebase to next non request block\n   *         If all NRBs are rebased, return true.\n   * TODO    What if no ORE' ?\n   */\n  function checkNextNRBToRebase(\n    Fork storage _cur,\n    Fork storage _pre\n  ) internal returns (bool finished) {\n    uint blockNumber = _cur.nextBlockToRebase;\n    uint epochNumber = _pre.blocks[blockNumber].epochNumber;\n\n    // at the end of epoch\n    if (_pre.epochs[epochNumber].endBlockNumber <= blockNumber) {\n      epochNumber += 2;\n      blockNumber = _pre.epochs[epochNumber].startBlockNumber;\n    } else {\n      blockNumber += 1;\n    }\n\n    // short circit if all NRE's are rebased\n    if (!_pre.epochs[epochNumber].initialized) {\n      _cur.nextBlockToRebase = 0;\n      return true;\n    }\n\n    // short circuit if block is not submitted\n    if (_pre.blocks[blockNumber].timestamp == 0) {\n      _cur.nextBlockToRebase = 0;\n      return true;\n    }\n\n    _cur.nextBlockToRebase = uint64(blockNumber);\n    return false;\n  }\n\n  /**\n   *\n   * startBlockNumber       first block number of the epoch.\n   * endBlockNumber         last block number of the epoch. 0 if the epoch is ORE' / NRE' until ORE' is filled.\n   * timestamp              timestamp when the epoch is initialized.\n   *                        required for URB / ORB\n   * epochStateRoot         merkle root of [block.stateRoot] for block in the epoch.\n   * epochTransactionsRoot  merkle root of [block.transactionsRoot] for block in the epoch.\n   * epochReceiptsRoot      merkle root of [block.receiptsRoot] for block in the epoch.\n   * isEmpty                true if request epoch has no request block\n   *                        also and requestStart == requestEnd == previousEpoch.RE.requestEnd\n   *                        and startBlockNumber == endBlockNumber == previousEpoch.endBlockNumber\n   *                        and firstRequestBlockId == previousEpoch.firstRequestBlockId\n   * initialized            true if epoch is initialized\n   * isRequest              true in case of URB / ORB\n   * userActivated          true in case of URB\n   * rebase                 true in case of ORE' or NRE'\n   */\n  struct Epoch {\n    uint64 startBlockNumber;\n    uint64 endBlockNumber;\n    uint64 timestamp;\n    bool isEmpty;\n    bool initialized;\n    bool isRequest;\n    bool userActivated;\n    bool rebase;\n    RequestEpochMeta RE;\n    NonRequestEpochMeta NRE;\n  }\n\n  struct NonRequestEpochMeta {\n    bytes32 epochStateRoot;\n    bytes32 epochTransactionsRoot;\n    bytes32 epochReceiptsRoot;\n    uint64 submittedAt;\n    uint64 finalizedAt;\n    bool finalized;\n    bool challenging;\n    bool challenged;\n  }\n\n  /**\n   * requestStart           first request id.\n   * requestEnd             last request id.\n   * firstRequestBlockId    first id of RequestBlock[]\n   *                        if epochs is ORE', copy from last request epoch in previous fork\n   * numEnter               number of enter request\n   * nextEnterEpoch         next request epoch including enter request\n   * nextEpoch              next non-empty request epoch\n   */\n  struct RequestEpochMeta {\n    uint64 requestStart;\n    uint64 requestEnd;\n    uint64 firstRequestBlockId;\n    uint64 numEnter;\n    uint64 nextEnterEpoch;\n    uint64 nextEpoch;\n  }\n\n  // function noExit(Epoch storage self) internal returns (bool) {\n  //   if (self.rebase) return true;\n  //   return self.RE.requestEnd.sub64(self.RE.requestStart).add64(1) == self.RE.firstRequestBlockId;\n  // }\n\n  function getNumBlocks(Epoch storage _e) internal view returns (uint) {\n    if (_e.isEmpty || _e.rebase && _e.endBlockNumber == 0) return 0;\n    return _e.endBlockNumber + 1 - _e.startBlockNumber;\n  }\n\n  function getNumRequests(Epoch storage _e) internal view returns (uint) {\n    if (_e.isEmpty || _e.rebase && _e.endBlockNumber == 0) return 0;\n    return _e.RE.requestEnd + 1 - _e.RE.requestStart;\n  }\n\n  function calcNumBlock(uint _rs, uint _re) internal pure returns (uint) {\n    return _re.sub(_rs).add(1).divCeil(MAX_REQUESTS());\n  }\n\n  /**\n   * epochNumber\n   * requestBlockId       id of RequestBlock[]\n   * timestamp\n   * referenceBlock       block number in previous fork\n   * statesRoot\n   * transactionsRoot\n   * receiptsRoot\n   * isRequest            true in case of URB & OR\n   * userActivated        true in case of URB\n   * challenged           true if it is challenge\n   * challenging          true if it is being challenged\n   * finalized            true if it is successfully finalize\n   */\n  struct PlasmaBlock {\n    uint64 epochNumber;\n    uint64 requestBlockId;\n    uint64 timestamp;\n    uint64 finalizedAt;\n    uint64 referenceBlock;\n    bytes32 statesRoot;\n    bytes32 transactionsRoot;\n    bytes32 receiptsRoot;\n    bool isRequest;\n    bool userActivated;\n    bool challenged;\n    bool challenging;\n    bool finalized;\n  }\n\n  /**\n   *\n   * timestamp\n   * isExit\n   * isTransfer\n   * finalized         true if request is finalized\n   * challenged\n   * value             ether amount in wei\n   * requestor\n   * to                requestable contract in root chain\n   * trieKey\n   * trieValue\n   * hash              keccak256 hash of request transaction (in plasma chain)\n   */\n  struct Request {\n    uint64 timestamp;\n    bool isExit;\n    bool isTransfer;\n    bool finalized;\n    bool challenged;\n    uint128 value;\n    address payable requestor;\n    address to;\n    bytes32 trieKey;\n    bytes32 hash;\n    bytes trieValue;\n  }\n\n  function applyRequestInRootChain(\n    Request memory self,\n    uint _requestId\n  )\n    internal\n    returns (bool)\n  {\n    require(gasleft() > NA_TX_GAS_LIMIT + 5000);\n\n    return RequestableI(self.to).applyRequestInRootChain(\n      self.isExit,\n      _requestId,\n      self.requestor,\n      self.trieKey,\n      self.trieValue\n    );\n  }\n\n  function toChildChainRequest(\n    Request memory self,\n    address _to\n  )\n    internal\n    pure\n    returns (Request memory out)\n  {\n    out.isExit = self.isExit;\n    out.isTransfer = self.isTransfer;\n    out.requestor = self.requestor;\n\n    // Enter request of EtherToken mints PETH to requestor.\n    if (!self.isExit && self.isTransfer) {\n      out.to = self.requestor;\n      bytes memory b = self.trieValue;\n      uint128 v;\n\n      assembly {\n        v := mload(add(b, 0x20))\n      }\n\n      require(v > 0);\n\n      // no trieKey and trieValue for EtherToken enter\n      out.value = uint128(v);\n    } else {\n      out.to = _to;\n      out.value = self.value;\n      out.trieKey = self.trieKey;\n      out.trieValue = self.trieValue;\n    }\n  }\n\n  /**\n   * @notice return tx.data\n   */\n  function getData(\n    Request memory self,\n    uint _requestId,\n    bool _rootchain\n  )\n    internal\n    pure\n    returns (bytes memory out)\n  {\n    if (self.isTransfer && !self.isExit) {\n      return out;\n    }\n\n    bytes4 funcSig = _rootchain ? APPLY_IN_ROOTCHAIN_SIGNATURE : APPLY_IN_CHILDCHAIN_SIGNATURE;\n\n    out = abi.encodePacked(\n      funcSig,\n      abi.encode(\n        bytes32(uint(self.isExit ? 1 : 0)),\n        _requestId,\n        uint256(uint160(self.requestor)),\n        self.trieKey,\n        self.trieValue\n      )\n    );\n  }\n\n  /**\n   * @notice convert Request to TX\n   */\n  function toTX(\n    Request memory self,\n    uint _requestId,\n    bool _rootchain\n  )\n    internal\n    pure\n    returns (TX memory out)\n  {\n    out.gasPrice = NA_TX_GAS_PRICE;\n    out.gasLimit = uint64(NA_TX_GAS_LIMIT);\n    out.to = self.to;\n    out.value = self.value;\n    out.data = getData(self, _requestId, _rootchain);\n  }\n\n  /**\n   * submitted      true if no more request can be inserted\n   *                because epoch is initialized\n   * epochNumber    non request epoch number where the request is created\n   * requestStart   first request id\n   * requestEnd     last request id\n   * trie           patricia tree contract address\n   */\n  struct RequestBlock {\n    bool submitted;\n    uint64 numEnter;\n    uint64 epochNumber;\n    uint64 requestStart;\n    uint64 requestEnd;\n    address trie;\n  }\n\n  // function noExit(RequestBlock storage self) internal returns (bool) {\n  //   return self.RE.requestEnd.sub64(self.RE.requestStart).add64(1) == self.RE.firstRequestBlockId;\n  // }\n\n  function init(RequestBlock storage self) internal {\n    /* use binary merkle tree instead of patricia tree\n    if (self.trie == address(0)) {\n      self.trie = new PatriciaTree();\n    }\n     */\n  }\n\n  function addRequest(\n    RequestBlock storage self,\n    Request storage _rootchainRequest,  // request in root chain\n    Request memory _childchainRequest,  // request in child chain\n    uint _requestId\n  ) internal {\n    _rootchainRequest.hash = hash(toTX(_childchainRequest, _requestId, false));\n\n    /* use binary merkle tree instead of patricia tree\n    require(self.trie != address(0));\n\n    uint txIndex = _requestId.sub(self.RE.requestStart);\n\n    bytes memory key = txIndex.encodeUint();\n    bytes memory value = toBytes(toTX(_request, _requestId, false));\n\n    PatriciaTree(self.trie).insert(key, value);\n    self.transactionsRoot = PatriciaTree(self.trie).getRootHash();\n     */\n  }\n\n  /*\n   * TX for Ethereum transaction\n   */\n  struct TX {\n    uint64 nonce;\n    uint256 gasPrice;\n    uint64 gasLimit;\n    address to;\n    uint256 value;\n    bytes data;\n    uint256 v;\n    uint256 r;\n    uint256 s;\n  }\n\n  function isNATX(TX memory self) internal pure returns (bool) {\n    return self.v == 0 && self.r == 0 && self.s == 0;\n  }\n\n  // function toTX(bytes memory self) internal pure returns (TX memory out) {\n  //   RLP.RLPItem[] memory packArr = self.toRLPItem().toList(9);\n\n  //   out.nonce = uint64(packArr[0].toUint());\n  //   out.gasPrice = packArr[1].toUint();\n  //   out.gasLimit = uint64(packArr[2].toUint());\n  //   out.to = packArr[3].toAddress();\n  //   out.value = packArr[4].toUint();\n  //   out.data = packArr[5].toBytes();\n  //   out.v = packArr[6].toUint();\n  //   out.r = packArr[7].toUint();\n  //   out.s = packArr[8].toUint();\n  // }\n\n  /**\n   * @notice Convert TX to RLP-encoded bytes\n   */\n  function toBytes(TX memory self) internal pure returns (bytes memory out) {\n    bytes[] memory packArr = new bytes[](9);\n\n    packArr[0] = self.nonce.encodeUint();\n    packArr[1] = self.gasPrice.encodeUint();\n    packArr[2] = self.gasLimit.encodeUint();\n    packArr[3] = self.to.encodeAddress();\n    packArr[4] = self.value.encodeUint();\n    packArr[5] = self.data.encodeBytes();\n    packArr[6] = self.v.encodeUint();\n    packArr[7] = self.r.encodeUint();\n    packArr[8] = self.s.encodeUint();\n\n    return packArr.encodeList();\n  }\n\n  function hash(TX memory self) internal pure returns (bytes32) {\n    bytes memory txBytes = toBytes(self);\n    return keccak256(txBytes);\n  }\n\n  /**\n   * Transaction Receipt\n   */\n\n  struct Log {\n    address contractAddress;\n    bytes32[] topics;\n    bytes data;\n  }\n\n  struct Receipt {\n    uint64 status;\n    uint64 cumulativeGasUsed;\n    bytes bloom; // 2048 bloom bits, byte[256]\n    Log[] logs;\n  }\n\n  function toReceipt(bytes memory self) internal pure returns (Receipt memory r) {\n    RLP.RLPItem[] memory items = self.toRLPItem().toList(4);\n\n    r.status = uint64(items[0].toUint());\n    r.cumulativeGasUsed = uint64(items[1].toUint());\n    r.bloom = items[2].toBytes();\n\n    // TODO: parse Logs\n    r.logs = new Log[](0);\n  }\n\n  function toReceiptStatus(bytes memory self) internal pure returns (uint) {\n    RLP.RLPItem[] memory items = self.toRLPItem().toList(4);\n    return items[0].toUint();\n  }\n\n\n  /**\n   * Helpers\n   */\n\n  /**\n   * @notice Checks transaction root of a request block\n   */\n  function _checkTxRoot(\n    bytes32 _transactionsRoot,\n    RequestBlock storage _rb,\n    Request[] storage _rs,\n    bool _skipExit\n  ) internal {\n    uint s = _rb.requestStart;\n    uint e = _rb.requestEnd;\n    uint n = _skipExit ? _rb.numEnter : e - s + 1;\n\n    require(n > 0);\n\n    bytes32[] memory hashes = new bytes32[](n);\n\n    // TODO: optimize to reduce gas\n    uint j = s;\n    for (uint i = s; i <= e; i++) {\n      if (!_skipExit || !_rs[i].isExit) {\n        hashes[j - s] = _rs[i].hash;\n        j++;\n      }\n    }\n\n    require(hashes.getRoot() == _transactionsRoot);\n\n    /* use binary merkle tree instead of patricia tree\n    Data.RequestBlock storage ORB = ORBs[fork.blocks[blockNumber].requestBlockId];\n    require(_transactionsRoot == ORB.transactionsRoot);\n      */\n  }\n}\n",
  "sourcePath": "/Users/pjh/workspace/go/src/github.com/Onther-Tech/plasma-evm/contracts/plasma/plasma-evm-cotracts/contracts/lib/Data.sol",
  "compiler": {
    "name": "solc",
    "version": "0.5.12+commit.7709ece9.Emscripten.clang"
  },
  "schemaVersion": "3.0.23",
  "updatedAt": "2020-02-13T05:01:23.760Z",
  "devdoc": {
    "methods": {}
  },
  "userdoc": {
    "methods": {}
  }
}