{
  "contractName": "DepositManager",
  "abi": [
    {
      "inputs": [
        {
          "internalType": "contract IERC20",
          "name": "_wton",
          "type": "address"
        },
        {
          "internalType": "contract RootChainRegistry",
          "name": "_registry",
          "type": "address"
        },
        {
          "internalType": "uint256",
          "name": "_WITHDRAWAL_DELAY",
          "type": "uint256"
        }
      ],
      "payable": false,
      "stateMutability": "nonpayable",
      "type": "constructor"
    },
    {
      "anonymous": false,
      "inputs": [
        {
          "indexed": true,
          "internalType": "address",
          "name": "rootchain",
          "type": "address"
        },
        {
          "indexed": false,
          "internalType": "address",
          "name": "depositor",
          "type": "address"
        },
        {
          "indexed": false,
          "internalType": "uint256",
          "name": "amount",
          "type": "uint256"
        }
      ],
      "name": "Deposited",
      "type": "event"
    },
    {
      "anonymous": false,
      "inputs": [
        {
          "indexed": true,
          "internalType": "address",
          "name": "previousOwner",
          "type": "address"
        },
        {
          "indexed": true,
          "internalType": "address",
          "name": "newOwner",
          "type": "address"
        }
      ],
      "name": "OwnershipTransferred",
      "type": "event"
    },
    {
      "anonymous": false,
      "inputs": [
        {
          "indexed": true,
          "internalType": "address",
          "name": "rootchain",
          "type": "address"
        },
        {
          "indexed": false,
          "internalType": "address",
          "name": "depositor",
          "type": "address"
        },
        {
          "indexed": false,
          "internalType": "uint256",
          "name": "amount",
          "type": "uint256"
        }
      ],
      "name": "WithdrawalProcessed",
      "type": "event"
    },
    {
      "anonymous": false,
      "inputs": [
        {
          "indexed": true,
          "internalType": "address",
          "name": "rootchain",
          "type": "address"
        },
        {
          "indexed": false,
          "internalType": "address",
          "name": "depositor",
          "type": "address"
        },
        {
          "indexed": false,
          "internalType": "uint256",
          "name": "amount",
          "type": "uint256"
        }
      ],
      "name": "WithdrawalRequested",
      "type": "event"
    },
    {
      "constant": true,
      "inputs": [],
      "name": "WITHDRAWAL_DELAY",
      "outputs": [
        {
          "internalType": "uint256",
          "name": "",
          "type": "uint256"
        }
      ],
      "payable": false,
      "stateMutability": "view",
      "type": "function"
    },
    {
      "constant": true,
      "inputs": [
        {
          "internalType": "address",
          "name": "",
          "type": "address"
        },
        {
          "internalType": "address",
          "name": "",
          "type": "address"
        }
      ],
      "name": "accStaked",
      "outputs": [
        {
          "internalType": "uint256",
          "name": "",
          "type": "uint256"
        }
      ],
      "payable": false,
      "stateMutability": "view",
      "type": "function"
    },
    {
      "constant": true,
      "inputs": [
        {
          "internalType": "address",
          "name": "",
          "type": "address"
        },
        {
          "internalType": "address",
          "name": "",
          "type": "address"
        }
      ],
      "name": "accUnstaked",
      "outputs": [
        {
          "internalType": "uint256",
          "name": "",
          "type": "uint256"
        }
      ],
      "payable": false,
      "stateMutability": "view",
      "type": "function"
    },
    {
      "constant": true,
      "inputs": [],
      "name": "isOwner",
      "outputs": [
        {
          "internalType": "bool",
          "name": "",
          "type": "bool"
        }
      ],
      "payable": false,
      "stateMutability": "view",
      "type": "function"
    },
    {
      "constant": true,
      "inputs": [],
      "name": "owner",
      "outputs": [
        {
          "internalType": "address",
          "name": "",
          "type": "address"
        }
      ],
      "payable": false,
      "stateMutability": "view",
      "type": "function"
    },
    {
      "constant": true,
      "inputs": [
        {
          "internalType": "address",
          "name": "",
          "type": "address"
        },
        {
          "internalType": "address",
          "name": "",
          "type": "address"
        }
      ],
      "name": "pendingUnstaked",
      "outputs": [
        {
          "internalType": "uint256",
          "name": "",
          "type": "uint256"
        }
      ],
      "payable": false,
      "stateMutability": "view",
      "type": "function"
    },
    {
      "constant": true,
      "inputs": [],
      "name": "registry",
      "outputs": [
        {
          "internalType": "contract RootChainRegistry",
          "name": "",
          "type": "address"
        }
      ],
      "payable": false,
      "stateMutability": "view",
      "type": "function"
    },
    {
      "constant": false,
      "inputs": [],
      "name": "renounceOwnership",
      "outputs": [],
      "payable": false,
      "stateMutability": "nonpayable",
      "type": "function"
    },
    {
      "constant": true,
      "inputs": [],
      "name": "seigManager",
      "outputs": [
        {
          "internalType": "contract SeigManager",
          "name": "",
          "type": "address"
        }
      ],
      "payable": false,
      "stateMutability": "view",
      "type": "function"
    },
    {
      "constant": false,
      "inputs": [
        {
          "internalType": "address",
          "name": "newOwner",
          "type": "address"
        }
      ],
      "name": "transferOwnership",
      "outputs": [],
      "payable": false,
      "stateMutability": "nonpayable",
      "type": "function"
    },
    {
      "constant": true,
      "inputs": [
        {
          "internalType": "address",
          "name": "",
          "type": "address"
        },
        {
          "internalType": "address",
          "name": "",
          "type": "address"
        },
        {
          "internalType": "uint256",
          "name": "",
          "type": "uint256"
        }
      ],
      "name": "withdrawalReqeusts",
      "outputs": [
        {
          "internalType": "uint128",
          "name": "withdrawableBlockNumber",
          "type": "uint128"
        },
        {
          "internalType": "uint128",
          "name": "amount",
          "type": "uint128"
        },
        {
          "internalType": "bool",
          "name": "processed",
          "type": "bool"
        }
      ],
      "payable": false,
      "stateMutability": "view",
      "type": "function"
    },
    {
      "constant": true,
      "inputs": [
        {
          "internalType": "address",
          "name": "",
          "type": "address"
        },
        {
          "internalType": "address",
          "name": "",
          "type": "address"
        }
      ],
      "name": "withdrawalRequestIndex",
      "outputs": [
        {
          "internalType": "uint256",
          "name": "",
          "type": "uint256"
        }
      ],
      "payable": false,
      "stateMutability": "view",
      "type": "function"
    },
    {
      "constant": true,
      "inputs": [],
      "name": "wton",
      "outputs": [
        {
          "internalType": "contract IERC20",
          "name": "",
          "type": "address"
        }
      ],
      "payable": false,
      "stateMutability": "view",
      "type": "function"
    },
    {
      "constant": false,
      "inputs": [
        {
          "internalType": "contract SeigManager",
          "name": "_seigManager",
          "type": "address"
        }
      ],
      "name": "setSeigManager",
      "outputs": [],
      "payable": false,
      "stateMutability": "nonpayable",
      "type": "function"
    },
    {
      "constant": false,
      "inputs": [
        {
          "internalType": "address",
          "name": "rootchain",
          "type": "address"
        },
        {
          "internalType": "uint256",
          "name": "amount",
          "type": "uint256"
        }
      ],
      "name": "deposit",
      "outputs": [
        {
          "internalType": "bool",
          "name": "",
          "type": "bool"
        }
      ],
      "payable": false,
      "stateMutability": "nonpayable",
      "type": "function"
    },
    {
      "constant": false,
      "inputs": [
        {
          "internalType": "address",
          "name": "rootchain",
          "type": "address"
        },
        {
          "internalType": "uint256",
          "name": "amount",
          "type": "uint256"
        }
      ],
      "name": "requestWithdrawal",
      "outputs": [
        {
          "internalType": "bool",
          "name": "",
          "type": "bool"
        }
      ],
      "payable": false,
      "stateMutability": "nonpayable",
      "type": "function"
    },
    {
      "constant": false,
      "inputs": [
        {
          "internalType": "address",
          "name": "rootchain",
          "type": "address"
        }
      ],
      "name": "processRequest",
      "outputs": [
        {
          "internalType": "bool",
          "name": "",
          "type": "bool"
        }
      ],
      "payable": false,
      "stateMutability": "nonpayable",
      "type": "function"
    },
    {
      "constant": false,
      "inputs": [
        {
          "internalType": "address",
          "name": "rootchain",
          "type": "address"
        }
      ],
      "name": "requestWithdrawalAll",
      "outputs": [
        {
          "internalType": "bool",
          "name": "",
          "type": "bool"
        }
      ],
      "payable": false,
      "stateMutability": "nonpayable",
      "type": "function"
    },
    {
      "constant": false,
      "inputs": [
        {
          "internalType": "address",
          "name": "rootchain",
          "type": "address"
        },
        {
          "internalType": "uint256",
          "name": "n",
          "type": "uint256"
        }
      ],
      "name": "processRequests",
      "outputs": [
        {
          "internalType": "bool",
          "name": "",
          "type": "bool"
        }
      ],
      "payable": false,
      "stateMutability": "nonpayable",
      "type": "function"
    },
    {
      "constant": true,
      "inputs": [
        {
          "internalType": "address",
          "name": "rootchain",
          "type": "address"
        },
        {
          "internalType": "address",
          "name": "account",
          "type": "address"
        }
      ],
      "name": "numRequests",
      "outputs": [
        {
          "internalType": "uint256",
          "name": "",
          "type": "uint256"
        }
      ],
      "payable": false,
      "stateMutability": "view",
      "type": "function"
    },
    {
      "constant": true,
      "inputs": [
        {
          "internalType": "address",
          "name": "rootchain",
          "type": "address"
        },
        {
          "internalType": "address",
          "name": "account",
          "type": "address"
        }
      ],
      "name": "numPendingRequests",
      "outputs": [
        {
          "internalType": "uint256",
          "name": "",
          "type": "uint256"
        }
      ],
      "payable": false,
      "stateMutability": "view",
      "type": "function"
    }
  ],
  "bytecode": "0x608060405234801561001057600080fd5b506040516115b23803806115b28339818101604052606081101561003357600080fd5b50805160208201516040909201519091906100556001600160e01b036100d516565b600080546001600160a01b0319166001600160a01b03928316178082556040519216917f8be0079c531659141344cd1fd0a4f28419497f9722a3daafe3b4186f6b6457e0908290a3600180546001600160a01b039485166001600160a01b03199182161790915560028054939094169216919091179091556009556100d9565b3390565b6114ca806100e86000396000f3fe608060405234801561001057600080fd5b50600436106101375760003560e01c80637657f20a116100b85780639d91b87b1161007c5780639d91b87b1461030c578063c1f3b9361461033a578063c647f26e1461039c578063da95ebf7146103ca578063f2fde38b146103f6578063f762eb571461041c57610137565b80637657f20a146102c65780637b103999146102ec5780638d62d949146102f45780638da5cb5b146102fc5780638f32d59b1461030457610137565b80635c0df46b116100ff5780635c0df46b1461021e5780635d6f7cca1461024c5780636b2160b7146102725780636fb7f55814610298578063715018a6146102bc57610137565b806306260ceb1461013c5780630ebb172a1461017c5780632638fdf5146101965780632d2fab94146101c457806347e7ef24146101f2575b600080fd5b6101686004803603604081101561015257600080fd5b506001600160a01b03813516906020013561044a565b604080519115158252519081900360200190f35b610184610474565b60408051918252519081900360200190f35b610184600480360360408110156101ac57600080fd5b506001600160a01b038135811691602001351661047a565b610184600480360360408110156101da57600080fd5b506001600160a01b0381358116916020013516610497565b6101686004803603604081101561020857600080fd5b506001600160a01b0381351690602001356104b4565b6101846004803603604081101561023457600080fd5b506001600160a01b038135811691602001351661068a565b6101686004803603602081101561026257600080fd5b50356001600160a01b03166106e0565b6101686004803603602081101561028857600080fd5b50356001600160a01b031661092f565b6102a0610a4a565b604080516001600160a01b039092168252519081900360200190f35b6102c4610a59565b005b6102c4600480360360208110156102dc57600080fd5b50356001600160a01b0316610afc565b6102a0610bbf565b6102a0610bce565b6102a0610bdd565b610168610bec565b6101846004803603604081101561032257600080fd5b506001600160a01b0381358116916020013516610c10565b6103706004803603606081101561035057600080fd5b506001600160a01b03813581169160208101359091169060400135610c2d565b604080516001600160801b03948516815292909316602083015215158183015290519081900360600190f35b610184600480360360408110156103b257600080fd5b506001600160a01b0381358116916020013516610c8c565b610168600480360360408110156103e057600080fd5b506001600160a01b038135169060200135610ca9565b6102c46004803603602081101561040c57600080fd5b50356001600160a01b0316610eb9565b6101846004803603604081101561043257600080fd5b506001600160a01b0381358116916020013516610f1e565b6000805b828110156104685761045f846106e0565b5060010161044e565b50600190505b92915050565b60095481565b600560209081526000928352604080842090915290825290205481565b600460209081526000928352604080842090915290825290205481565b600254604080516302a1529960e01b81526001600160a01b0380861660048301529151600093869316916302a15299916024808301926020929190829003018186803b15801561050357600080fd5b505afa158015610517573d6000803e3d6000fd5b505050506040513d602081101561052d57600080fd5b505161053857600080fd5b6001600160a01b038416600090815260046020908152604080832033845290915290205461056c908463ffffffff610f4916565b6001600160a01b038086166000908152600460209081526040808320338085529252909120929092556001546105ac92911690308663ffffffff610faa16565b604080513381526020810185905281516001600160a01b038716927f8752a472e571a816aea92eec8dae9baf628e840f4929fbcc2d155e6233ff68a7928290030190a2600354604080516346f023a760e11b81526001600160a01b0387811660048301523360248301526044820187905291519190921691638de0474e9160648083019260209291908290030181600087803b15801561064b57600080fd5b505af115801561065f573d6000803e3d6000fd5b505050506040513d602081101561067557600080fd5b505161068057600080fd5b5060019392505050565b6001600160a01b038083166000818152600760209081526040808320948616808452948252808320549383526008825280832094835293905291822054816106d75760009250505061046e565b90039392505050565b6001600160a01b038116600081815260086020908152604080832033808552908352818420549484526007835281842090845290915281205490919081106107595760405162461bcd60e51b815260040180806020018281038252602581526020018061141e6025913960400191505060405180910390fd5b6001600160a01b0383166000908152600760209081526040808320338452909152812080548390811061078857fe5b600091825260209091206002909102018054909150436001600160801b0390911611156107e65760405162461bcd60e51b81526004018080602001828103825260298152602001806114436029913960400191505060405180910390fd5b6001818101805460ff1916821790556001600160a01b03851660008181526008602090815260408083203380855290835281842080549096019095558554938352600582528083209483529390529190912054600160801b9091046001600160801b031690610855908261100a565b6001600160a01b0386166000818152600560209081526040808320338085529083528184209590955592825260068152828220938252929092529020546108a2908263ffffffff610f4916565b6001600160a01b038087166000908152600660209081526040808320338085529252909120929092556001546108e1929116908363ffffffff61104c16565b604080513381526020810183905281516001600160a01b038816927fcd1fce47d5ad89dd70b04c75bd6bdb8114d4d4ff7b4393f9fb5937e733ba9582928290030190a2506001949350505050565b600254604080516302a1529960e01b81526001600160a01b0380851660048301529151600093859316916302a15299916024808301926020929190829003018186803b15801561097e57600080fd5b505afa158015610992573d6000803e3d6000fd5b505050506040513d60208110156109a857600080fd5b50516109b357600080fd5b600354604080516367265c3b60e11b81526001600160a01b0386811660048301523360248301529151600093929092169163ce4cb87691604480820192602092909190829003018186803b158015610a0a57600080fd5b505afa158015610a1e573d6000803e3d6000fd5b505050506040513d6020811015610a3457600080fd5b50519050610a428482610ca9565b949350505050565b6003546001600160a01b031681565b610a61610bec565b610ab2576040805162461bcd60e51b815260206004820181905260248201527f4f776e61626c653a2063616c6c6572206973206e6f7420746865206f776e6572604482015290519081900360640190fd5b600080546040516001600160a01b03909116907f8be0079c531659141344cd1fd0a4f28419497f9722a3daafe3b4186f6b6457e0908390a3600080546001600160a01b0319169055565b610b04610bec565b610b55576040805162461bcd60e51b815260206004820181905260248201527f4f776e61626c653a2063616c6c6572206973206e6f7420746865206f776e6572604482015290519081900360640190fd5b6003546001600160a01b031615610b9d5760405162461bcd60e51b815260040180806020018281038252602a8152602001806113f4602a913960400191505060405180910390fd5b600380546001600160a01b0319166001600160a01b0392909216919091179055565b6002546001600160a01b031681565b6001546001600160a01b031681565b6000546001600160a01b031690565b600080546001600160a01b0316610c016110a3565b6001600160a01b031614905090565b600660209081526000928352604080842090915290825290205481565b60076020528260005260406000206020528160005260406000208181548110610c5257fe5b6000918252602090912060029091020180546001909101546001600160801b038083169550600160801b909204909116925060ff16905083565b600860209081526000928352604080842090915290825290205481565b600254604080516302a1529960e01b81526001600160a01b0380861660048301529151600093869316916302a15299916024808301926020929190829003018186803b158015610cf857600080fd5b505afa158015610d0c573d6000803e3d6000fd5b505050506040513d6020811015610d2257600080fd5b5051610d2d57600080fd5b6001600160a01b03841660008181526007602090815260408083203380855290835281842082516060810184526009546001600160801b0343909101811682528a8116828701908152828601888152845460018181018755958a52888a2094516002909102909401805492518416600160801b029484166fffffffffffffffffffffffffffffffff1990931692909217909216929092178255519101805491151560ff19909216919091179055938352600582528083209383529290522054610dfc908463ffffffff610f4916565b6001600160a01b038516600081815260056020908152604080832033808552908352928190209490945583519182528101869052825191927f04c56a409d50971e45c5a2d96e5d557d2b0f1d66d40f14b141e4c958b0f39b3292918290030190a26003546040805163010a7ae560e11b81526001600160a01b0387811660048301523360248301526044820187905291519190921691630214f5ca9160648083019260209291908290030181600087803b15801561064b57600080fd5b610ec1610bec565b610f12576040805162461bcd60e51b815260206004820181905260248201527f4f776e61626c653a2063616c6c6572206973206e6f7420746865206f776e6572604482015290519081900360640190fd5b610f1b816110a7565b50565b6001600160a01b03918216600090815260076020908152604080832093909416825291909152205490565b600082820183811015610fa3576040805162461bcd60e51b815260206004820152601b60248201527f536166654d6174683a206164646974696f6e206f766572666c6f770000000000604482015290519081900360640190fd5b9392505050565b604080516001600160a01b0385811660248301528416604482015260648082018490528251808303909101815260849091019091526020810180516001600160e01b03166323b872dd60e01b179052611004908590611147565b50505050565b6000610fa383836040518060400160405280601e81526020017f536166654d6174683a207375627472616374696f6e206f766572666c6f7700008152506112ff565b604080516001600160a01b038416602482015260448082018490528251808303909101815260649091019091526020810180516001600160e01b031663a9059cbb60e01b17905261109e908490611147565b505050565b3390565b6001600160a01b0381166110ec5760405162461bcd60e51b81526004018080602001828103825260268152602001806113ce6026913960400191505060405180910390fd5b600080546040516001600160a01b03808516939216917f8be0079c531659141344cd1fd0a4f28419497f9722a3daafe3b4186f6b6457e091a3600080546001600160a01b0319166001600160a01b0392909216919091179055565b611159826001600160a01b0316611396565b6111aa576040805162461bcd60e51b815260206004820152601f60248201527f5361666545524332303a2063616c6c20746f206e6f6e2d636f6e747261637400604482015290519081900360640190fd5b60006060836001600160a01b0316836040518082805190602001908083835b602083106111e85780518252601f1990920191602091820191016111c9565b6001836020036101000a0380198251168184511680821785525050505050509050019150506000604051808303816000865af19150503d806000811461124a576040519150601f19603f3d011682016040523d82523d6000602084013e61124f565b606091505b5091509150816112a6576040805162461bcd60e51b815260206004820181905260248201527f5361666545524332303a206c6f772d6c6576656c2063616c6c206661696c6564604482015290519081900360640190fd5b805115611004578080602001905160208110156112c257600080fd5b50516110045760405162461bcd60e51b815260040180806020018281038252602a81526020018061146c602a913960400191505060405180910390fd5b6000818484111561138e5760405162461bcd60e51b81526004018080602001828103825283818151815260200191508051906020019080838360005b8381101561135357818101518382015260200161133b565b50505050905090810190601f1680156113805780820380516001836020036101000a031916815260200191505b509250505060405180910390fd5b505050900390565b6000813f7fc5d2460186f7233c927e7db2dcc703c0e500b653ca82273b7bfad8045d85a4708115801590610a42575014159291505056fe4f776e61626c653a206e6577206f776e657220697320746865207a65726f20616464726573734465706f7369744d616e616765723a20536569674d616e6167657220697320616c7265616479207365744465706f7369744d616e616765723a206e6f207265717565737420746f2070726f636573734465706f7369744d616e616765723a207761697420666f72207769746864726177616c2064656c61795361666545524332303a204552433230206f7065726174696f6e20646964206e6f742073756363656564a265627a7a72315820adb6dad84624b6ec881ad0f831b85bc5b85541e830ddcf0e140832243a30bfdf64736f6c63430005100032",
  "source": "pragma solidity ^0.5.0;\n\nimport { Ownable } from \"../../node_modules/openzeppelin-solidity/contracts/ownership/OWnable.sol\";\nimport { SafeMath } from \"../../node_modules/openzeppelin-solidity/contracts/math/SafeMath.sol\";\nimport { IERC20 } from \"../../node_modules/openzeppelin-solidity/contracts/token/ERC20/IERC20.sol\";\nimport { SafeERC20 } from \"../../node_modules/openzeppelin-solidity/contracts/token/ERC20/SafeERC20.sol\";\n\nimport { RootChainI } from \"../RootChainI.sol\";\nimport { RootChainRegistry } from \"./RootChainRegistry.sol\";\nimport { SeigManager } from \"./SeigManager.sol\";\n\n// TODO: add events\n// TODO: check deposit/withdraw WTON amount (1e27)\n\n/**\n * @dev DepositManager manages WTON deposit and withdrawal from operator and WTON holders.\n */\ncontract DepositManager is Ownable {\n  using SafeMath for uint256;\n  using SafeERC20 for IERC20;\n\n  ////////////////////\n  // Storage - contracts\n  ////////////////////\n\n  IERC20 public wton;\n  RootChainRegistry public registry;\n  SeigManager public seigManager;\n\n  ////////////////////\n  // Storage - token amount\n  ////////////////////\n\n  // accumulated staked amount\n  // rootchian => msg.sender => wton amount\n  mapping (address => mapping (address => uint256)) public accStaked;\n\n  // pending unstaked amount\n  // rootchian => msg.sender => wton amount\n  mapping (address => mapping (address => uint256)) public pendingUnstaked;\n\n  // accumulated unstaked amount\n  // rootchian => msg.sender => wton amount\n  mapping (address => mapping (address => uint256)) public accUnstaked;\n\n  // rootchain => msg.sender => withdrawal requests\n  mapping (address => mapping (address => WithdrawalReqeust[])) public withdrawalReqeusts;\n\n  // rootchain => msg.sender => index\n  mapping (address => mapping (address => uint256)) public withdrawalRequestIndex;\n\n  ////////////////////\n  // Storage - configuration\n  ////////////////////\n\n  // withdrawal delay in block number\n  // @TODO: change delay unit to CYCLE?\n  uint256 public WITHDRAWAL_DELAY;\n\n  struct WithdrawalReqeust {\n    uint128 withdrawableBlockNumber;\n    uint128 amount;\n    bool processed;\n  }\n\n  ////////////////////\n  // Modifiers\n  ////////////////////\n\n  modifier onlyRootChain(address rootchain) {\n    require(registry.rootchains(rootchain));\n    _;\n  }\n\n  modifier onlySeigManager() {\n    require(msg.sender == address(seigManager));\n    _;\n  }\n\n  ////////////////////\n  // Events\n  ////////////////////\n\n  event Deposited(address indexed rootchain, address depositor, uint256 amount);\n  event WithdrawalRequested(address indexed rootchain, address depositor, uint256 amount);\n  event WithdrawalProcessed(address indexed rootchain, address depositor, uint256 amount);\n\n  ////////////////////\n  // Constructor\n  ////////////////////\n\n  constructor (\n    IERC20 _wton,\n    RootChainRegistry _registry,\n    uint256 _WITHDRAWAL_DELAY\n  ) public {\n    wton = _wton;\n    registry = _registry;\n    WITHDRAWAL_DELAY = _WITHDRAWAL_DELAY;\n  }\n\n  ////////////////////\n  // SeiManager function\n  ////////////////////\n\n  function setSeigManager(SeigManager _seigManager) external onlyOwner {\n    require(address(seigManager) == address(0), \"DepositManager: SeigManager is already set\");\n    seigManager = _seigManager;\n  }\n\n  ////////////////////\n  // Deposit function\n  ////////////////////\n\n  /**\n   * @dev deposit `amount` WTON in RAY\n   */\n  function deposit(address rootchain, uint256 amount) public onlyRootChain(rootchain) returns (bool) {\n    accStaked[rootchain][msg.sender] = accStaked[rootchain][msg.sender].add(amount);\n\n    wton.safeTransferFrom(msg.sender, address(this), amount);\n\n    emit Deposited(rootchain, msg.sender, amount);\n\n    require(seigManager.onStake(rootchain, msg.sender, amount));\n\n    return true;\n  }\n\n  ////////////////////\n  // Withdrawal functions\n  ////////////////////\n\n  function requestWithdrawal(address rootchain, uint256 amount) public onlyRootChain(rootchain) returns (bool) {\n    // TODO: check `amount` WTON can be withdrawable\n\n    withdrawalReqeusts[rootchain][msg.sender].push(WithdrawalReqeust({\n      withdrawableBlockNumber: uint128(block.number + WITHDRAWAL_DELAY),\n      amount: uint128(amount),\n      processed: false\n    }));\n\n    pendingUnstaked[rootchain][msg.sender] = pendingUnstaked[rootchain][msg.sender].add(amount);\n    emit WithdrawalRequested(rootchain, msg.sender, amount);\n\n    require(seigManager.onUnstake(rootchain, msg.sender, amount));\n\n    return true;\n  }\n\n  function processRequest(address rootchain) public returns (bool) {\n    uint256 index = withdrawalRequestIndex[rootchain][msg.sender];\n    require(withdrawalReqeusts[rootchain][msg.sender].length > index, \"DepositManager: no request to process\");\n\n    WithdrawalReqeust storage r = withdrawalReqeusts[rootchain][msg.sender][index];\n\n    require(r.withdrawableBlockNumber <= block.number, \"DepositManager: wait for withdrawal delay\");\n    r.processed = true;\n\n    withdrawalRequestIndex[rootchain][msg.sender] += 1;\n\n    uint256 amount = r.amount;\n\n    pendingUnstaked[rootchain][msg.sender] = pendingUnstaked[rootchain][msg.sender].sub(amount);\n    accUnstaked[rootchain][msg.sender] = accUnstaked[rootchain][msg.sender].add(amount);\n\n    wton.safeTransfer(msg.sender, amount);\n\n    emit WithdrawalProcessed(rootchain, msg.sender, amount);\n    return true;\n  }\n\n  function requestWithdrawalAll(address rootchain) external onlyRootChain(rootchain) returns (bool) {\n    uint256 amount = seigManager.stakeOf(rootchain, msg.sender);\n\n    return requestWithdrawal(rootchain, amount);\n  }\n\n  function processRequests(address rootchain, uint256 n) external returns (bool) {\n    for (uint256 i = 0; i < n; i++) {\n      processRequest(rootchain);\n    }\n    return true;\n  }\n\n  function numRequests(address rootchain, address account) external view returns (uint256) {\n    return withdrawalReqeusts[rootchain][account].length;\n  }\n\n  function numPendingRequests(address rootchain, address account) external view returns (uint256) {\n    uint256 numRequests = withdrawalReqeusts[rootchain][account].length;\n    uint256 index = withdrawalRequestIndex[rootchain][account];\n\n    if (numRequests == 0) return 0;\n\n    return numRequests - index;\n  }\n\n  function _isOperator(address rootchain, address operator) internal view returns (bool) {\n    return operator == RootChainI(rootchain).operator();\n  }\n}",
  "sourcePath": "/Users/pjh/workspace/go/src/github.com/Onther-Tech/plasma-evm/contracts/plasma/plasma-evm-cotracts/contracts/stake/DepositManager.sol",
  "compiler": {
    "name": "solc",
    "version": "0.5.16+commit.9c3226ce.Emscripten.clang"
  },
  "schemaVersion": "3.0.23",
  "updatedAt": "2020-02-04T07:13:16.249Z",
  "devdoc": {
    "details": "DepositManager manages WTON deposit and withdrawal from operator and WTON holders.",
    "methods": {
      "deposit(address,uint256)": {
        "details": "deposit `amount` WTON in RAY"
      },
      "isOwner()": {
        "details": "Returns true if the caller is the current owner."
      },
      "owner()": {
        "details": "Returns the address of the current owner."
      },
      "renounceOwnership()": {
        "details": "Leaves the contract without owner. It will not be possible to call `onlyOwner` functions anymore. Can only be called by the current owner.     * NOTE: Renouncing ownership will leave the contract without an owner, thereby removing any functionality that is only available to the owner."
      },
      "transferOwnership(address)": {
        "details": "Transfers ownership of the contract to a new account (`newOwner`). Can only be called by the current owner."
      }
    }
  },
  "userdoc": {
    "methods": {
      "constructor": "/////////////////",
      "requestWithdrawal(address,uint256)": {
        "notice": "/////////////////"
      },
      "setSeigManager(address)": {
        "notice": "/////////////////"
      }
    }
  }
}