{
  "contractName": "DepositManager",
  "abi": [
    {
      "inputs": [
        {
          "internalType": "contract WTON",
          "name": "wton",
          "type": "address"
        },
        {
          "internalType": "contract RootChainRegistryI",
          "name": "registry",
          "type": "address"
        },
        {
          "internalType": "uint256",
          "name": "WITHDRAWAL_DELAY",
          "type": "uint256"
        }
      ],
      "payable": false,
      "stateMutability": "nonpayable",
      "type": "constructor"
    },
    {
      "anonymous": false,
      "inputs": [
        {
          "indexed": true,
          "internalType": "address",
          "name": "rootchain",
          "type": "address"
        },
        {
          "indexed": false,
          "internalType": "address",
          "name": "depositor",
          "type": "address"
        },
        {
          "indexed": false,
          "internalType": "uint256",
          "name": "amount",
          "type": "uint256"
        }
      ],
      "name": "Deposited",
      "type": "event"
    },
    {
      "anonymous": false,
      "inputs": [
        {
          "indexed": true,
          "internalType": "address",
          "name": "previousOwner",
          "type": "address"
        },
        {
          "indexed": true,
          "internalType": "address",
          "name": "newOwner",
          "type": "address"
        }
      ],
      "name": "OwnershipTransferred",
      "type": "event"
    },
    {
      "anonymous": false,
      "inputs": [
        {
          "indexed": true,
          "internalType": "address",
          "name": "rootchain",
          "type": "address"
        },
        {
          "indexed": false,
          "internalType": "address",
          "name": "depositor",
          "type": "address"
        },
        {
          "indexed": false,
          "internalType": "uint256",
          "name": "amount",
          "type": "uint256"
        }
      ],
      "name": "WithdrawalProcessed",
      "type": "event"
    },
    {
      "anonymous": false,
      "inputs": [
        {
          "indexed": true,
          "internalType": "address",
          "name": "rootchain",
          "type": "address"
        },
        {
          "indexed": false,
          "internalType": "address",
          "name": "depositor",
          "type": "address"
        },
        {
          "indexed": false,
          "internalType": "uint256",
          "name": "amount",
          "type": "uint256"
        }
      ],
      "name": "WithdrawalRequested",
      "type": "event"
    },
    {
      "constant": true,
      "inputs": [],
      "name": "INTERFACE_ID_ON_APPROVE",
      "outputs": [
        {
          "internalType": "bytes4",
          "name": "",
          "type": "bytes4"
        }
      ],
      "payable": false,
      "stateMutability": "view",
      "type": "function"
    },
    {
      "constant": true,
      "inputs": [],
      "name": "isOwner",
      "outputs": [
        {
          "internalType": "bool",
          "name": "",
          "type": "bool"
        }
      ],
      "payable": false,
      "stateMutability": "view",
      "type": "function"
    },
    {
      "constant": true,
      "inputs": [],
      "name": "owner",
      "outputs": [
        {
          "internalType": "address",
          "name": "",
          "type": "address"
        }
      ],
      "payable": false,
      "stateMutability": "view",
      "type": "function"
    },
    {
      "constant": false,
      "inputs": [],
      "name": "renounceOwnership",
      "outputs": [],
      "payable": false,
      "stateMutability": "nonpayable",
      "type": "function"
    },
    {
      "constant": true,
      "inputs": [
        {
          "internalType": "bytes4",
          "name": "interfaceId",
          "type": "bytes4"
        }
      ],
      "name": "supportsInterface",
      "outputs": [
        {
          "internalType": "bool",
          "name": "",
          "type": "bool"
        }
      ],
      "payable": false,
      "stateMutability": "view",
      "type": "function"
    },
    {
      "constant": false,
      "inputs": [
        {
          "internalType": "address",
          "name": "newOwner",
          "type": "address"
        }
      ],
      "name": "transferOwnership",
      "outputs": [],
      "payable": false,
      "stateMutability": "nonpayable",
      "type": "function"
    },
    {
      "constant": false,
      "inputs": [
        {
          "internalType": "contract SeigManagerI",
          "name": "seigManager",
          "type": "address"
        }
      ],
      "name": "setSeigManager",
      "outputs": [],
      "payable": false,
      "stateMutability": "nonpayable",
      "type": "function"
    },
    {
      "constant": false,
      "inputs": [
        {
          "internalType": "address",
          "name": "owner",
          "type": "address"
        },
        {
          "internalType": "address",
          "name": "spender",
          "type": "address"
        },
        {
          "internalType": "uint256",
          "name": "amount",
          "type": "uint256"
        },
        {
          "internalType": "bytes",
          "name": "data",
          "type": "bytes"
        }
      ],
      "name": "onApprove",
      "outputs": [
        {
          "internalType": "bool",
          "name": "",
          "type": "bool"
        }
      ],
      "payable": false,
      "stateMutability": "nonpayable",
      "type": "function"
    },
    {
      "constant": false,
      "inputs": [
        {
          "internalType": "address",
          "name": "rootchain",
          "type": "address"
        },
        {
          "internalType": "uint256",
          "name": "amount",
          "type": "uint256"
        }
      ],
      "name": "deposit",
      "outputs": [
        {
          "internalType": "bool",
          "name": "",
          "type": "bool"
        }
      ],
      "payable": false,
      "stateMutability": "nonpayable",
      "type": "function"
    },
    {
      "constant": false,
      "inputs": [
        {
          "internalType": "address",
          "name": "rootchain",
          "type": "address"
        },
        {
          "internalType": "uint256",
          "name": "amount",
          "type": "uint256"
        }
      ],
      "name": "requestWithdrawal",
      "outputs": [
        {
          "internalType": "bool",
          "name": "",
          "type": "bool"
        }
      ],
      "payable": false,
      "stateMutability": "nonpayable",
      "type": "function"
    },
    {
      "constant": false,
      "inputs": [
        {
          "internalType": "address",
          "name": "rootchain",
          "type": "address"
        },
        {
          "internalType": "bool",
          "name": "receiveTON",
          "type": "bool"
        }
      ],
      "name": "processRequest",
      "outputs": [
        {
          "internalType": "bool",
          "name": "",
          "type": "bool"
        }
      ],
      "payable": false,
      "stateMutability": "nonpayable",
      "type": "function"
    },
    {
      "constant": false,
      "inputs": [
        {
          "internalType": "address",
          "name": "rootchain",
          "type": "address"
        }
      ],
      "name": "requestWithdrawalAll",
      "outputs": [
        {
          "internalType": "bool",
          "name": "",
          "type": "bool"
        }
      ],
      "payable": false,
      "stateMutability": "nonpayable",
      "type": "function"
    },
    {
      "constant": false,
      "inputs": [
        {
          "internalType": "address",
          "name": "rootchain",
          "type": "address"
        },
        {
          "internalType": "uint256",
          "name": "n",
          "type": "uint256"
        },
        {
          "internalType": "bool",
          "name": "receiveTON",
          "type": "bool"
        }
      ],
      "name": "processRequests",
      "outputs": [
        {
          "internalType": "bool",
          "name": "",
          "type": "bool"
        }
      ],
      "payable": false,
      "stateMutability": "nonpayable",
      "type": "function"
    },
    {
      "constant": true,
      "inputs": [
        {
          "internalType": "address",
          "name": "rootchain",
          "type": "address"
        },
        {
          "internalType": "address",
          "name": "account",
          "type": "address"
        }
      ],
      "name": "numRequests",
      "outputs": [
        {
          "internalType": "uint256",
          "name": "",
          "type": "uint256"
        }
      ],
      "payable": false,
      "stateMutability": "view",
      "type": "function"
    },
    {
      "constant": true,
      "inputs": [
        {
          "internalType": "address",
          "name": "rootchain",
          "type": "address"
        },
        {
          "internalType": "address",
          "name": "account",
          "type": "address"
        }
      ],
      "name": "numPendingRequests",
      "outputs": [
        {
          "internalType": "uint256",
          "name": "",
          "type": "uint256"
        }
      ],
      "payable": false,
      "stateMutability": "view",
      "type": "function"
    },
    {
      "constant": true,
      "inputs": [],
      "name": "wton",
      "outputs": [
        {
          "internalType": "contract WTON",
          "name": "",
          "type": "address"
        }
      ],
      "payable": false,
      "stateMutability": "view",
      "type": "function"
    },
    {
      "constant": true,
      "inputs": [],
      "name": "registry",
      "outputs": [
        {
          "internalType": "contract RootChainRegistryI",
          "name": "",
          "type": "address"
        }
      ],
      "payable": false,
      "stateMutability": "view",
      "type": "function"
    },
    {
      "constant": true,
      "inputs": [],
      "name": "seigManager",
      "outputs": [
        {
          "internalType": "contract SeigManagerI",
          "name": "",
          "type": "address"
        }
      ],
      "payable": false,
      "stateMutability": "view",
      "type": "function"
    },
    {
      "constant": true,
      "inputs": [
        {
          "internalType": "address",
          "name": "rootchain",
          "type": "address"
        },
        {
          "internalType": "address",
          "name": "account",
          "type": "address"
        }
      ],
      "name": "accStaked",
      "outputs": [
        {
          "internalType": "uint256",
          "name": "wtonAmount",
          "type": "uint256"
        }
      ],
      "payable": false,
      "stateMutability": "view",
      "type": "function"
    },
    {
      "constant": true,
      "inputs": [
        {
          "internalType": "address",
          "name": "rootchain",
          "type": "address"
        }
      ],
      "name": "accStakedRootChain",
      "outputs": [
        {
          "internalType": "uint256",
          "name": "wtonAmount",
          "type": "uint256"
        }
      ],
      "payable": false,
      "stateMutability": "view",
      "type": "function"
    },
    {
      "constant": true,
      "inputs": [
        {
          "internalType": "address",
          "name": "rootchain",
          "type": "address"
        },
        {
          "internalType": "address",
          "name": "account",
          "type": "address"
        }
      ],
      "name": "pendingUnstaked",
      "outputs": [
        {
          "internalType": "uint256",
          "name": "wtonAmount",
          "type": "uint256"
        }
      ],
      "payable": false,
      "stateMutability": "view",
      "type": "function"
    },
    {
      "constant": true,
      "inputs": [
        {
          "internalType": "address",
          "name": "rootchain",
          "type": "address"
        }
      ],
      "name": "pendingUnstakedRootChain",
      "outputs": [
        {
          "internalType": "uint256",
          "name": "wtonAmount",
          "type": "uint256"
        }
      ],
      "payable": false,
      "stateMutability": "view",
      "type": "function"
    },
    {
      "constant": true,
      "inputs": [
        {
          "internalType": "address",
          "name": "rootchain",
          "type": "address"
        },
        {
          "internalType": "address",
          "name": "account",
          "type": "address"
        }
      ],
      "name": "accUnstaked",
      "outputs": [
        {
          "internalType": "uint256",
          "name": "wtonAmount",
          "type": "uint256"
        }
      ],
      "payable": false,
      "stateMutability": "view",
      "type": "function"
    },
    {
      "constant": true,
      "inputs": [
        {
          "internalType": "address",
          "name": "rootchain",
          "type": "address"
        }
      ],
      "name": "accUnstakedRootChain",
      "outputs": [
        {
          "internalType": "uint256",
          "name": "wtonAmount",
          "type": "uint256"
        }
      ],
      "payable": false,
      "stateMutability": "view",
      "type": "function"
    },
    {
      "constant": true,
      "inputs": [
        {
          "internalType": "address",
          "name": "rootchain",
          "type": "address"
        },
        {
          "internalType": "address",
          "name": "account",
          "type": "address"
        }
      ],
      "name": "withdrawalRequestIndex",
      "outputs": [
        {
          "internalType": "uint256",
          "name": "index",
          "type": "uint256"
        }
      ],
      "payable": false,
      "stateMutability": "view",
      "type": "function"
    },
    {
      "constant": true,
      "inputs": [
        {
          "internalType": "address",
          "name": "rootchain",
          "type": "address"
        },
        {
          "internalType": "address",
          "name": "account",
          "type": "address"
        },
        {
          "internalType": "uint256",
          "name": "index",
          "type": "uint256"
        }
      ],
      "name": "withdrawalReqeust",
      "outputs": [
        {
          "internalType": "uint128",
          "name": "withdrawableBlockNumber",
          "type": "uint128"
        },
        {
          "internalType": "uint128",
          "name": "amount",
          "type": "uint128"
        },
        {
          "internalType": "bool",
          "name": "processed",
          "type": "bool"
        }
      ],
      "payable": false,
      "stateMutability": "view",
      "type": "function"
    },
    {
      "constant": true,
      "inputs": [],
      "name": "WITHDRAWAL_DELAY",
      "outputs": [
        {
          "internalType": "uint256",
          "name": "",
          "type": "uint256"
        }
      ],
      "payable": false,
      "stateMutability": "view",
      "type": "function"
    }
  ],
  "bytecode": "0x60806040523480156200001157600080fd5b5060405162001d5738038062001d57833981810160405260608110156200003757600080fd5b508051602082015160409092015190919060006200005d6001600160e01b036200014216565b600080546001600160a01b0319166001600160a01b0383169081178255604051929350917f8be0079c531659141344cd1fd0a4f28419497f9722a3daafe3b4186f6b6457e0908290a350620000db7f01ffc9a7000000000000000000000000000000000000000000000000000000006001600160e01b036200014616565b62000109604051808062001d2f6028913960405190819003602801902090506001600160e01b036200014616565b600280546001600160a01b039485166001600160a01b0319918216179091556003805493909416921691909117909155600d5562000218565b3390565b7fffffffff000000000000000000000000000000000000000000000000000000008082161415620001d857604080517f08c379a000000000000000000000000000000000000000000000000000000000815260206004820152601c60248201527f4552433136353a20696e76616c696420696e7465726661636520696400000000604482015290519081900360640190fd5b7fffffffff00000000000000000000000000000000000000000000000000000000166000908152600160208190526040909120805460ff19169091179055565b611b0780620002286000396000f3fe608060405234801561001057600080fd5b50600436106101a85760003560e01c80637657f20a116100f9578063c20a44c611610097578063e8035ec911610071578063e8035ec91461056b578063f2fde38b14610591578063f762eb57146105b7578063fb0713b1146105e5576101a8565b8063c20a44c6146104e3578063c647f26e14610511578063da95ebf71461053f576101a8565b80638da5cb5b116100d35780638da5cb5b1461047f5780638f32d59b146104875780639d91b87b1461048f578063a8f3fb98146104bd576101a8565b80637657f20a146104495780637b1039991461046f5780638d62d94914610477576101a8565b80634273ca16116101665780636b2160b7116101405780636b2160b7146103d05780636cd28f9a146103f65780636fb7f5581461041b578063715018a61461043f576101a8565b80634273ca16146102e657806347e7ef24146103765780635c0df46b146103a2576101a8565b806231b71e146101ad57806301ffc9a71461020f57806303dc65101461024a5780630ebb172a146102825780632638fdf51461028a5780632d2fab94146102b8575b600080fd5b6101e3600480360360608110156101c357600080fd5b506001600160a01b03813581169160208101359091169060400135610619565b604080516001600160801b03948516815292909316602083015215158183015290519081900360600190f35b6102366004803603602081101561022557600080fd5b50356001600160e01b031916610714565b604080519115158252519081900360200190f35b6102706004803603602081101561026057600080fd5b50356001600160a01b0316610733565b60408051918252519081900360200190f35b61027061074e565b610270600480360360408110156102a057600080fd5b506001600160a01b0381358116916020013516610754565b610270600480360360408110156102ce57600080fd5b506001600160a01b0381358116916020013516610781565b610236600480360360808110156102fc57600080fd5b6001600160a01b0382358116926020810135909116916040820135919081019060808101606082013564010000000081111561033757600080fd5b82018360208201111561034957600080fd5b8035906020019184600183028401116401000000008311171561036b57600080fd5b5090925090506107ac565b6102366004803603604081101561038c57600080fd5b506001600160a01b038135169060200135610859565b610270600480360360408110156103b857600080fd5b506001600160a01b038135811691602001351661086f565b610236600480360360208110156103e657600080fd5b50356001600160a01b03166108c5565b6103fe6109e2565b604080516001600160e01b03199092168252519081900360200190f35b6104236109fd565b604080516001600160a01b039092168252519081900360200190f35b610447610a0c565b005b6104476004803603602081101561045f57600080fd5b50356001600160a01b0316610aaf565b610423610b72565b610423610b81565b610423610b90565b610236610b9f565b610270600480360360408110156104a557600080fd5b506001600160a01b0381358116916020013516610bc3565b610270600480360360208110156104d357600080fd5b50356001600160a01b0316610bee565b610236600480360360408110156104f957600080fd5b506001600160a01b0381351690602001351515610c09565b6102706004803603604081101561052757600080fd5b506001600160a01b0381358116916020013516610c1c565b6102366004803603604081101561055557600080fd5b506001600160a01b038135169060200135610c47565b6102706004803603602081101561058157600080fd5b50356001600160a01b0316610c53565b610447600480360360208110156105a757600080fd5b50356001600160a01b0316610c6e565b610270600480360360408110156105cd57600080fd5b506001600160a01b0381358116916020013516610cd3565b610236600480360360608110156105fb57600080fd5b506001600160a01b0381351690602081013590604001351515610cfe565b6001600160a01b038084166000908152600b6020908152604080832093861683529290529081208054829182918590811061065057fe5b600091825260208083206002909202909101546001600160a01b03808a168452600b83526040808520918a1685529252912080546001600160801b039092169450908590811061069c57fe5b60009182526020808320600292909202909101546001600160a01b038981168452600b83526040808520918a168552925291208054600160801b9092046001600160801b0316935090859081106106ef57fe5b600091825260209091206001600290920201015492969195505060ff90911692509050565b6001600160e01b03191660009081526001602052604090205460ff1690565b6001600160a01b03166000908152600a602052604090205490565b600d5490565b6001600160a01b038083166000908152600760209081526040808320938516835292905220545b92915050565b6001600160a01b03918216600090815260056020908152604080832093909416825291909152205490565b6002546000906001600160a01b031633146107f85760405162461bcd60e51b8152600401808060200182810382526031815260200180611a786031913960400191505060405180910390fd5b600061083984848080601f016020809104026020016040519081016040528093929190818152602001838380828437600092019190915250610d3092505050565b9050610846818887610d48565b61084f57600080fd5b5095945050505050565b6000610866833384610d48565b61077b57600080fd5b6001600160a01b038083166000818152600b6020908152604080832094861680845294825280832054938352600c825280832094835293905291822054816108bc5760009250505061077b565b90039392505050565b600354604080516302a1529960e01b81526001600160a01b0380851660048301529151600093859316916302a15299916024808301926020929190829003018186803b15801561091457600080fd5b505afa158015610928573d6000803e3d6000fd5b505050506040513d602081101561093e57600080fd5b505161094957600080fd5b60048054604080516367265c3b60e11b81526001600160a01b038781169482019490945233602482015290516000939092169163ce4cb87691604480820192602092909190829003018186803b1580156109a257600080fd5b505afa1580156109b6573d6000803e3d6000fd5b505050506040513d60208110156109cc57600080fd5b505190506109da8482610f58565b949350505050565b6040518060286119d882396028019050604051809103902081565b6004546001600160a01b031690565b610a14610b9f565b610a65576040805162461bcd60e51b815260206004820181905260248201527f4f776e61626c653a2063616c6c6572206973206e6f7420746865206f776e6572604482015290519081900360640190fd5b600080546040516001600160a01b03909116907f8be0079c531659141344cd1fd0a4f28419497f9722a3daafe3b4186f6b6457e0908390a3600080546001600160a01b0319169055565b610ab7610b9f565b610b08576040805162461bcd60e51b815260206004820181905260248201527f4f776e61626c653a2063616c6c6572206973206e6f7420746865206f776e6572604482015290519081900360640190fd5b6004546001600160a01b031615610b505760405162461bcd60e51b815260040180806020018281038252602a815260200180611a00602a913960400191505060405180910390fd5b600480546001600160a01b0319166001600160a01b0392909216919091179055565b6003546001600160a01b031690565b6002546001600160a01b031690565b6000546001600160a01b031690565b600080546001600160a01b0316610bb46111e5565b6001600160a01b031614905090565b6001600160a01b03918216600090815260096020908152604080832093909416825291909152205490565b6001600160a01b031660009081526008602052604090205490565b6000610c1583836111e9565b9392505050565b6001600160a01b039182166000908152600c6020908152604080832093909416825291909152205490565b6000610c158383610f58565b6001600160a01b031660009081526006602052604090205490565b610c76610b9f565b610cc7576040805162461bcd60e51b815260206004820181905260248201527f4f776e61626c653a2063616c6c6572206973206e6f7420746865206f776e6572604482015290519081900360640190fd5b610cd081611536565b50565b6001600160a01b039182166000908152600b6020908152604080832093909416825291909152205490565b6000805b83811015610d2557610d1485846111e9565b610d1d57600080fd5b600101610d02565b506001949350505050565b60008151602014610d4057600080fd5b506020015190565b600354604080516302a1529960e01b81526001600160a01b0380871660048301529151600093879316916302a15299916024808301926020929190829003018186803b158015610d9757600080fd5b505afa158015610dab573d6000803e3d6000fd5b505050506040513d6020811015610dc157600080fd5b5051610dcc57600080fd5b6001600160a01b03808616600090815260056020908152604080832093881683529290522054610e02908463ffffffff6115d616565b6001600160a01b038087166000818152600560209081526040808320948a168352938152838220949094559081526006909252902054610e48908463ffffffff6115d616565b6001600160a01b03808716600090815260066020526040902091909155600254610e7b911685308663ffffffff61163016565b604080516001600160a01b038681168252602082018690528251908816927f8752a472e571a816aea92eec8dae9baf628e840f4929fbcc2d155e6233ff68a7928290030190a260048054604080516346f023a760e11b81526001600160a01b038981169482019490945287841660248201526044810187905290519290911691638de0474e916064808201926020929091908290030181600087803b158015610f2357600080fd5b505af1158015610f37573d6000803e3d6000fd5b505050506040513d6020811015610f4d57600080fd5b5051610d2557600080fd5b600354604080516302a1529960e01b81526001600160a01b0380861660048301529151600093869316916302a15299916024808301926020929190829003018186803b158015610fa757600080fd5b505afa158015610fbb573d6000803e3d6000fd5b505050506040513d6020811015610fd157600080fd5b5051610fdc57600080fd5b6001600160a01b0384166000818152600b60209081526040808320338085529083528184208251606081018452600d546001600160801b0343909101811682528a8116828701908152828601888152845460018181018755958a52888a2094516002909102909401805492518416600160801b029484166fffffffffffffffffffffffffffffffff1990931692909217909216929092178255519101805491151560ff199092169190911790559383526007825280832093835292905220546110ab908463ffffffff6115d616565b6001600160a01b0385166000818152600760209081526040808320338452825280832094909455918152600890915220546110ec908463ffffffff6115d616565b6001600160a01b038516600081815260086020908152604091829020939093558051338152928301869052805191927f04c56a409d50971e45c5a2d96e5d557d2b0f1d66d40f14b141e4c958b0f39b32929081900390910190a2600480546040805163010a7ae560e11b81526001600160a01b03888116948201949094523360248201526044810187905290519290911691630214f5ca916064808201926020929091908290030181600087803b1580156111a657600080fd5b505af11580156111ba573d6000803e3d6000fd5b505050506040513d60208110156111d057600080fd5b50516111db57600080fd5b5060019392505050565b3390565b6001600160a01b0382166000818152600c602090815260408083203380855290835281842054948452600b835281842090845290915281205490919081106112625760405162461bcd60e51b8152600401808060200182810382526025815260200180611a2a6025913960400191505060405180910390fd5b6001600160a01b0384166000908152600b60209081526040808320338452909152812080548390811061129157fe5b600091825260209091206002909102018054909150436001600160801b0390911611156112ef5760405162461bcd60e51b8152600401808060200182810382526029815260200180611a4f6029913960400191505060405180910390fd5b6001818101805460ff1916821790556001600160a01b0386166000818152600c602090815260408083203380855290835281842080549096019095558554938352600782528083209483529390529190912054600160801b9091046001600160801b03169061135e9082611690565b6001600160a01b03871660008181526007602090815260408083203384528252808320949094559181526008909152205461139f908263ffffffff61169016565b6001600160a01b03871660009081526008602090815260408083209390935560098152828220338352905220546113dc908263ffffffff6115d616565b6001600160a01b0387166000818152600960209081526040808320338452825280832094909455918152600a909152205461141d908263ffffffff6115d616565b6001600160a01b0387166000908152600a602052604090205584156114ca576002546040805163e3b99e8560e01b81523360048201526024810184905290516001600160a01b039092169163e3b99e85916044808201926020929091908290030181600087803b15801561149057600080fd5b505af11580156114a4573d6000803e3d6000fd5b505050506040513d60208110156114ba57600080fd5b50516114c557600080fd5b6114e7565b6002546114e7906001600160a01b0316338363ffffffff6116d216565b604080513381526020810183905281516001600160a01b038916927fcd1fce47d5ad89dd70b04c75bd6bdb8114d4d4ff7b4393f9fb5937e733ba9582928290030190a250600195945050505050565b6001600160a01b03811661157b5760405162461bcd60e51b81526004018080602001828103825260268152602001806119b26026913960400191505060405180910390fd5b600080546040516001600160a01b03808516939216917f8be0079c531659141344cd1fd0a4f28419497f9722a3daafe3b4186f6b6457e091a3600080546001600160a01b0319166001600160a01b0392909216919091179055565b600082820183811015610c15576040805162461bcd60e51b815260206004820152601b60248201527f536166654d6174683a206164646974696f6e206f766572666c6f770000000000604482015290519081900360640190fd5b604080516001600160a01b0385811660248301528416604482015260648082018490528251808303909101815260849091019091526020810180516001600160e01b03166323b872dd60e01b17905261168a908590611729565b50505050565b6000610c1583836040518060400160405280601e81526020017f536166654d6174683a207375627472616374696f6e206f766572666c6f7700008152506118e1565b604080516001600160a01b038416602482015260448082018490528251808303909101815260649091019091526020810180516001600160e01b031663a9059cbb60e01b179052611724908490611729565b505050565b61173b826001600160a01b0316611978565b61178c576040805162461bcd60e51b815260206004820152601f60248201527f5361666545524332303a2063616c6c20746f206e6f6e2d636f6e747261637400604482015290519081900360640190fd5b60006060836001600160a01b0316836040518082805190602001908083835b602083106117ca5780518252601f1990920191602091820191016117ab565b6001836020036101000a0380198251168184511680821785525050505050509050019150506000604051808303816000865af19150503d806000811461182c576040519150601f19603f3d011682016040523d82523d6000602084013e611831565b606091505b509150915081611888576040805162461bcd60e51b815260206004820181905260248201527f5361666545524332303a206c6f772d6c6576656c2063616c6c206661696c6564604482015290519081900360640190fd5b80511561168a578080602001905160208110156118a457600080fd5b505161168a5760405162461bcd60e51b815260040180806020018281038252602a815260200180611aa9602a913960400191505060405180910390fd5b600081848411156119705760405162461bcd60e51b81526004018080602001828103825283818151815260200191508051906020019080838360005b8381101561193557818101518382015260200161191d565b50505050905090810190601f1680156119625780820380516001836020036101000a031916815260200191505b509250505060405180910390fd5b505050900390565b6000813f7fc5d2460186f7233c927e7db2dcc703c0e500b653ca82273b7bfad8045d85a4708181148015906109da57505015159291505056fe4f776e61626c653a206e6577206f776e657220697320746865207a65726f20616464726573736f6e417070726f766528616464726573732c616464726573732c75696e743235362c6279746573294465706f7369744d616e616765723a20536569674d616e6167657220697320616c7265616479207365744465706f7369744d616e616765723a206e6f207265717565737420746f2070726f636573734465706f7369744d616e616765723a207761697420666f72207769746864726177616c2064656c61794465706f7369744d616e616765723a206f6e6c79206163636570742057544f4e20617070726f76652063616c6c6261636b5361666545524332303a204552433230206f7065726174696f6e20646964206e6f742073756363656564a265627a7a7231582036f48e353bbd8811a12e0b4f3c14961dec2c9e88360438d451dc9eddf708000864736f6c634300050c00326f6e417070726f766528616464726573732c616464726573732c75696e743235362c627974657329",
  "source": "pragma solidity ^0.5.12;\n\nimport { Ownable } from \"../../../node_modules/openzeppelin-solidity/contracts/ownership/OWnable.sol\";\nimport { SafeMath } from \"../../../node_modules/openzeppelin-solidity/contracts/math/SafeMath.sol\";\nimport { IERC20 } from \"../../../node_modules/openzeppelin-solidity/contracts/token/ERC20/IERC20.sol\";\nimport { SafeERC20 } from \"../../../node_modules/openzeppelin-solidity/contracts/token/ERC20/SafeERC20.sol\";\nimport { ERC165 } from \"../../../node_modules/openzeppelin-solidity/contracts/introspection/ERC165.sol\";\n\nimport { RootChainI } from \"../../RootChainI.sol\";\n\nimport { DepositManagerI } from \"../interfaces/DepositManagerI.sol\";\nimport { RootChainRegistryI } from \"../interfaces/RootChainRegistryI.sol\";\nimport { SeigManagerI } from \"../interfaces/SeigManagerI.sol\";\nimport { WTON } from \"../tokens/WTON.sol\";\nimport { OnApprove } from \"../tokens/OnApprove.sol\";\n\n// TODO: add events\n// TODO: check deposit/withdraw WTON amount (1e27)\n\n/**\n * @dev DepositManager manages WTON deposit and withdrawal from operator and WTON holders.\n */\ncontract DepositManager is Ownable, ERC165, OnApprove {\n  using SafeMath for uint256;\n  using SafeERC20 for WTON;\n\n  ////////////////////\n  // Storage - contracts\n  ////////////////////\n\n  WTON internal _wton;\n  RootChainRegistryI internal _registry;\n  SeigManagerI internal _seigManager;\n\n  ////////////////////\n  // Storage - token amount\n  ////////////////////\n\n  // accumulated staked amount\n  // rootchian => msg.sender => wton amount\n  mapping (address => mapping (address => uint256)) internal _accStaked;\n  // rootchian => wton amount\n  mapping (address => uint256) internal _accStakedRootChain;\n\n  // pending unstaked amount\n  // rootchian => msg.sender => wton amount\n  mapping (address => mapping (address => uint256)) internal _pendingUnstaked;\n  // rootchian => wton amount\n  mapping (address => uint256) internal _pendingUnstakedRootChain;\n\n  // accumulated unstaked amount\n  // rootchian => msg.sender => wton amount\n  mapping (address => mapping (address => uint256)) internal _accUnstaked;\n  // rootchian => wton amount\n  mapping (address => uint256) internal _accUnstakedRootChain;\n\n  // rootchain => msg.sender => withdrawal requests\n  mapping (address => mapping (address => WithdrawalReqeust[])) internal _withdrawalReqeusts;\n\n  // rootchain => msg.sender => index\n  mapping (address => mapping (address => uint256)) internal _withdrawalRequestIndex;\n\n  ////////////////////\n  // Storage - configuration / ERC165 interfaces\n  ////////////////////\n\n  // withdrawal delay in block number\n  // @TODO: change delay unit to CYCLE?\n  uint256 internal _WITHDRAWAL_DELAY;\n\n  struct WithdrawalReqeust {\n    uint128 withdrawableBlockNumber;\n    uint128 amount;\n    bool processed;\n  }\n\n  ////////////////////\n  // Modifiers\n  ////////////////////\n\n  modifier onlyRootChain(address rootchain) {\n    require(_registry.rootchains(rootchain));\n    _;\n  }\n\n  modifier onlySeigManager() {\n    require(msg.sender == address(_seigManager));\n    _;\n  }\n\n  ////////////////////\n  // Events\n  ////////////////////\n\n  event Deposited(address indexed rootchain, address depositor, uint256 amount);\n  event WithdrawalRequested(address indexed rootchain, address depositor, uint256 amount);\n  event WithdrawalProcessed(address indexed rootchain, address depositor, uint256 amount);\n\n  ////////////////////\n  // Constructor\n  ////////////////////\n\n  constructor (\n    WTON wton,\n    RootChainRegistryI registry,\n    uint256 WITHDRAWAL_DELAY\n  ) public {\n    _wton = wton;\n    _registry = registry;\n    _WITHDRAWAL_DELAY = WITHDRAWAL_DELAY;\n  }\n\n  ////////////////////\n  // SeiManager function\n  ////////////////////\n\n  function setSeigManager(SeigManagerI seigManager) external onlyOwner {\n    require(address(_seigManager) == address(0), \"DepositManager: SeigManager is already set\");\n    _seigManager = seigManager;\n  }\n\n  ////////////////////\n  // ERC20 Approve callback\n  ////////////////////\n\n  function onApprove(\n    address owner,\n    address spender,\n    uint256 amount,\n    bytes calldata data\n  ) external returns (bool) {\n    require(msg.sender == address(_wton), \"DepositManager: only accept WTON approve callback\");\n\n    address rootchain = _decodeDepositManagerOnApproveData(data);\n    require(_deposit(rootchain, owner, amount));\n  }\n\n  function _decodeDepositManagerOnApproveData(\n    bytes memory data\n  ) internal pure returns (address rootchain) {\n    require(data.length == 0x20);\n\n    assembly {\n      rootchain := mload(add(data, 0x20))\n    }\n  }\n\n  ////////////////////\n  // Deposit function\n  ////////////////////\n\n  /**\n   * @dev deposit `amount` WTON in RAY\n   */\n\n  function deposit(address rootchain, uint256 amount) external returns (bool) {\n    require(_deposit(rootchain, msg.sender, amount));\n  }\n\n  function _deposit(address rootchain, address account, uint256 amount) internal onlyRootChain(rootchain) returns (bool) {\n    _accStaked[rootchain][account] = _accStaked[rootchain][account].add(amount);\n    _accStakedRootChain[rootchain] = _accStakedRootChain[rootchain].add(amount);\n\n    _wton.safeTransferFrom(account, address(this), amount);\n\n    emit Deposited(rootchain, account, amount);\n\n    require(_seigManager.onStake(rootchain, account, amount));\n\n    return true;\n  }\n\n  ////////////////////\n  // Withdrawal functions\n  ////////////////////\n\n  function requestWithdrawal(address rootchain, uint256 amount) external returns (bool) {\n    return _requestWithdrawal(rootchain, amount);\n  }\n\n  function _requestWithdrawal(address rootchain, uint256 amount) internal onlyRootChain(rootchain) returns (bool) {\n    // TODO: check `amount` WTON can be withdrawable\n\n    _withdrawalReqeusts[rootchain][msg.sender].push(WithdrawalReqeust({\n      withdrawableBlockNumber: uint128(block.number + _WITHDRAWAL_DELAY),\n      amount: uint128(amount),\n      processed: false\n    }));\n\n    _pendingUnstaked[rootchain][msg.sender] = _pendingUnstaked[rootchain][msg.sender].add(amount);\n    _pendingUnstakedRootChain[rootchain] = _pendingUnstakedRootChain[rootchain].add(amount);\n    emit WithdrawalRequested(rootchain, msg.sender, amount);\n\n    require(_seigManager.onUnstake(rootchain, msg.sender, amount));\n\n    return true;\n  }\n\n  function processRequest(address rootchain, bool receiveTON) external returns (bool) {\n    return _processRequest(rootchain, receiveTON);\n  }\n\n  function _processRequest(address rootchain, bool receiveTON) internal returns (bool) {\n    uint256 index = _withdrawalRequestIndex[rootchain][msg.sender];\n    require(_withdrawalReqeusts[rootchain][msg.sender].length > index, \"DepositManager: no request to process\");\n\n    WithdrawalReqeust storage r = _withdrawalReqeusts[rootchain][msg.sender][index];\n\n    require(r.withdrawableBlockNumber <= block.number, \"DepositManager: wait for withdrawal delay\");\n    r.processed = true;\n\n    _withdrawalRequestIndex[rootchain][msg.sender] += 1;\n\n    uint256 amount = r.amount;\n\n    _pendingUnstaked[rootchain][msg.sender] = _pendingUnstaked[rootchain][msg.sender].sub(amount);\n    _pendingUnstakedRootChain[rootchain] = _pendingUnstakedRootChain[rootchain].sub(amount);\n\n    _accUnstaked[rootchain][msg.sender] = _accUnstaked[rootchain][msg.sender].add(amount);\n    _accUnstakedRootChain[rootchain] = _accUnstakedRootChain[rootchain].add(amount);\n\n    if (receiveTON) {\n      require(_wton.swapToTONAndTransfer(msg.sender, amount));\n    } else {\n      _wton.safeTransfer(msg.sender, amount);\n    }\n\n    emit WithdrawalProcessed(rootchain, msg.sender, amount);\n    return true;\n  }\n\n  function requestWithdrawalAll(address rootchain) external onlyRootChain(rootchain) returns (bool) {\n    uint256 amount = _seigManager.stakeOf(rootchain, msg.sender);\n\n    return _requestWithdrawal(rootchain, amount);\n  }\n\n  function processRequests(address rootchain, uint256 n, bool receiveTON) external returns (bool) {\n    for (uint256 i = 0; i < n; i++) {\n      require(_processRequest(rootchain, receiveTON));\n    }\n    return true;\n  }\n\n  function numRequests(address rootchain, address account) external view returns (uint256) {\n    return _withdrawalReqeusts[rootchain][account].length;\n  }\n\n  function numPendingRequests(address rootchain, address account) external view returns (uint256) {\n    uint256 numRequests = _withdrawalReqeusts[rootchain][account].length;\n    uint256 index = _withdrawalRequestIndex[rootchain][account];\n\n    if (numRequests == 0) return 0;\n\n    return numRequests - index;\n  }\n\n  function _isOperator(address rootchain, address operator) internal view returns (bool) {\n    return operator == RootChainI(rootchain).operator();\n  }\n\n\n  ////////////////////\n  // Storage getters\n  ////////////////////\n\n  function wton() external view returns (WTON) { return _wton; }\n  function registry() external view returns (RootChainRegistryI) { return _registry; }\n  function seigManager() external view returns (SeigManagerI) { return _seigManager; }\n\n  function accStaked(address rootchain, address account) external view returns (uint256 wtonAmount) { return _accStaked[rootchain][account]; }\n  function accStakedRootChain(address rootchain) external view returns (uint256 wtonAmount) { return _accStakedRootChain[rootchain]; }\n\n  function pendingUnstaked(address rootchain, address account) external view returns (uint256 wtonAmount) { return _pendingUnstaked[rootchain][account]; }\n  function pendingUnstakedRootChain(address rootchain) external view returns (uint256 wtonAmount) { return _pendingUnstakedRootChain[rootchain]; }\n\n  function accUnstaked(address rootchain, address account) external view returns (uint256 wtonAmount) { return _accUnstaked[rootchain][account]; }\n  function accUnstakedRootChain(address rootchain) external view returns (uint256 wtonAmount) { return _accUnstakedRootChain[rootchain]; }\n\n  function withdrawalRequestIndex(address rootchain, address account) external view returns (uint256 index) { return _withdrawalRequestIndex[rootchain][account]; }\n  function withdrawalReqeust(address rootchain, address account, uint256 index) external view returns (uint128 withdrawableBlockNumber, uint128 amount, bool processed ) {\n    withdrawableBlockNumber = _withdrawalReqeusts[rootchain][account][index].withdrawableBlockNumber;\n    amount = _withdrawalReqeusts[rootchain][account][index].amount;\n    processed = _withdrawalReqeusts[rootchain][account][index].processed;\n  }\n\n  function WITHDRAWAL_DELAY() external view returns (uint256) { return _WITHDRAWAL_DELAY; }\n}",
  "sourcePath": "/Users/thomashin/Workspace/plasma-evm-contracts/contracts/stake/managers/DepositManager.sol",
  "compiler": {
    "name": "solc",
    "version": "0.5.12+commit.7709ece9.Emscripten.clang"
  },
  "schemaVersion": "3.0.23",
  "updatedAt": "2020-02-13T12:53:41.973Z",
  "devdoc": {
    "details": "DepositManager manages WTON deposit and withdrawal from operator and WTON holders.",
    "methods": {
      "deposit(address,uint256)": {
        "details": "deposit `amount` WTON in RAY"
      },
      "isOwner()": {
        "details": "Returns true if the caller is the current owner."
      },
      "owner()": {
        "details": "Returns the address of the current owner."
      },
      "renounceOwnership()": {
        "details": "Leaves the contract without owner. It will not be possible to call `onlyOwner` functions anymore. Can only be called by the current owner.     * NOTE: Renouncing ownership will leave the contract without an owner, thereby removing any functionality that is only available to the owner."
      },
      "supportsInterface(bytes4)": {
        "details": "See {IERC165-supportsInterface}.     * Time complexity O(1), guaranteed to always use less than 30 000 gas."
      },
      "transferOwnership(address)": {
        "details": "Transfers ownership of the contract to a new account (`newOwner`). Can only be called by the current owner."
      }
    }
  },
  "userdoc": {
    "methods": {
      "constructor": "/////////////////",
      "onApprove(address,address,uint256,bytes)": {
        "notice": "/////////////////"
      },
      "requestWithdrawal(address,uint256)": {
        "notice": "/////////////////"
      },
      "setSeigManager(address)": {
        "notice": "/////////////////"
      },
      "wton()": {
        "notice": "/////////////////"
      }
    }
  }
}