{
  "contractName": "DepositManager",
  "abi": [
    {
      "inputs": [
        {
          "internalType": "contract WTON",
          "name": "wton",
          "type": "address"
        },
        {
          "internalType": "contract RootChainRegistryI",
          "name": "registry",
          "type": "address"
        },
        {
          "internalType": "uint256",
          "name": "WITHDRAWAL_DELAY",
          "type": "uint256"
        }
      ],
      "payable": false,
      "stateMutability": "nonpayable",
      "type": "constructor"
    },
    {
      "anonymous": false,
      "inputs": [
        {
          "indexed": true,
          "internalType": "address",
          "name": "rootchain",
          "type": "address"
        },
        {
          "indexed": false,
          "internalType": "address",
          "name": "depositor",
          "type": "address"
        },
        {
          "indexed": false,
          "internalType": "uint256",
          "name": "amount",
          "type": "uint256"
        }
      ],
      "name": "Deposited",
      "type": "event"
    },
    {
      "anonymous": false,
      "inputs": [
        {
          "indexed": true,
          "internalType": "address",
          "name": "previousOwner",
          "type": "address"
        },
        {
          "indexed": true,
          "internalType": "address",
          "name": "newOwner",
          "type": "address"
        }
      ],
      "name": "OwnershipTransferred",
      "type": "event"
    },
    {
      "anonymous": false,
      "inputs": [
        {
          "indexed": true,
          "internalType": "address",
          "name": "rootchain",
          "type": "address"
        },
        {
          "indexed": false,
          "internalType": "address",
          "name": "depositor",
          "type": "address"
        },
        {
          "indexed": false,
          "internalType": "uint256",
          "name": "amount",
          "type": "uint256"
        }
      ],
      "name": "WithdrawalProcessed",
      "type": "event"
    },
    {
      "anonymous": false,
      "inputs": [
        {
          "indexed": true,
          "internalType": "address",
          "name": "rootchain",
          "type": "address"
        },
        {
          "indexed": false,
          "internalType": "address",
          "name": "depositor",
          "type": "address"
        },
        {
          "indexed": false,
          "internalType": "uint256",
          "name": "amount",
          "type": "uint256"
        }
      ],
      "name": "WithdrawalRequested",
      "type": "event"
    },
    {
      "constant": true,
      "inputs": [],
      "name": "INTERFACE_ID_ON_APPROVE",
      "outputs": [
        {
          "internalType": "bytes4",
          "name": "",
          "type": "bytes4"
        }
      ],
      "payable": false,
      "stateMutability": "view",
      "type": "function"
    },
    {
      "constant": true,
      "inputs": [],
      "name": "isOwner",
      "outputs": [
        {
          "internalType": "bool",
          "name": "",
          "type": "bool"
        }
      ],
      "payable": false,
      "stateMutability": "view",
      "type": "function"
    },
    {
      "constant": true,
      "inputs": [],
      "name": "owner",
      "outputs": [
        {
          "internalType": "address",
          "name": "",
          "type": "address"
        }
      ],
      "payable": false,
      "stateMutability": "view",
      "type": "function"
    },
    {
      "constant": false,
      "inputs": [],
      "name": "renounceOwnership",
      "outputs": [],
      "payable": false,
      "stateMutability": "nonpayable",
      "type": "function"
    },
    {
      "constant": true,
      "inputs": [
        {
          "internalType": "bytes4",
          "name": "interfaceId",
          "type": "bytes4"
        }
      ],
      "name": "supportsInterface",
      "outputs": [
        {
          "internalType": "bool",
          "name": "",
          "type": "bool"
        }
      ],
      "payable": false,
      "stateMutability": "view",
      "type": "function"
    },
    {
      "constant": false,
      "inputs": [
        {
          "internalType": "address",
          "name": "newOwner",
          "type": "address"
        }
      ],
      "name": "transferOwnership",
      "outputs": [],
      "payable": false,
      "stateMutability": "nonpayable",
      "type": "function"
    },
    {
      "constant": false,
      "inputs": [
        {
          "internalType": "contract SeigManagerI",
          "name": "seigManager",
          "type": "address"
        }
      ],
      "name": "setSeigManager",
      "outputs": [],
      "payable": false,
      "stateMutability": "nonpayable",
      "type": "function"
    },
    {
      "constant": false,
      "inputs": [
        {
          "internalType": "address",
          "name": "owner",
          "type": "address"
        },
        {
          "internalType": "address",
          "name": "spender",
          "type": "address"
        },
        {
          "internalType": "uint256",
          "name": "amount",
          "type": "uint256"
        },
        {
          "internalType": "bytes",
          "name": "data",
          "type": "bytes"
        }
      ],
      "name": "onApprove",
      "outputs": [
        {
          "internalType": "bool",
          "name": "",
          "type": "bool"
        }
      ],
      "payable": false,
      "stateMutability": "nonpayable",
      "type": "function"
    },
    {
      "constant": false,
      "inputs": [
        {
          "internalType": "address",
          "name": "rootchain",
          "type": "address"
        },
        {
          "internalType": "uint256",
          "name": "amount",
          "type": "uint256"
        }
      ],
      "name": "deposit",
      "outputs": [
        {
          "internalType": "bool",
          "name": "",
          "type": "bool"
        }
      ],
      "payable": false,
      "stateMutability": "nonpayable",
      "type": "function"
    },
    {
      "constant": false,
      "inputs": [
        {
          "internalType": "address",
          "name": "rootchain",
          "type": "address"
        },
        {
          "internalType": "uint256",
          "name": "amount",
          "type": "uint256"
        }
      ],
      "name": "requestWithdrawal",
      "outputs": [
        {
          "internalType": "bool",
          "name": "",
          "type": "bool"
        }
      ],
      "payable": false,
      "stateMutability": "nonpayable",
      "type": "function"
    },
    {
      "constant": false,
      "inputs": [
        {
          "internalType": "address",
          "name": "rootchain",
          "type": "address"
        },
        {
          "internalType": "bool",
          "name": "receiveTON",
          "type": "bool"
        }
      ],
      "name": "processRequest",
      "outputs": [
        {
          "internalType": "bool",
          "name": "",
          "type": "bool"
        }
      ],
      "payable": false,
      "stateMutability": "nonpayable",
      "type": "function"
    },
    {
      "constant": false,
      "inputs": [
        {
          "internalType": "address",
          "name": "rootchain",
          "type": "address"
        }
      ],
      "name": "requestWithdrawalAll",
      "outputs": [
        {
          "internalType": "bool",
          "name": "",
          "type": "bool"
        }
      ],
      "payable": false,
      "stateMutability": "nonpayable",
      "type": "function"
    },
    {
      "constant": false,
      "inputs": [
        {
          "internalType": "address",
          "name": "rootchain",
          "type": "address"
        },
        {
          "internalType": "uint256",
          "name": "n",
          "type": "uint256"
        },
        {
          "internalType": "bool",
          "name": "receiveTON",
          "type": "bool"
        }
      ],
      "name": "processRequests",
      "outputs": [
        {
          "internalType": "bool",
          "name": "",
          "type": "bool"
        }
      ],
      "payable": false,
      "stateMutability": "nonpayable",
      "type": "function"
    },
    {
      "constant": true,
      "inputs": [
        {
          "internalType": "address",
          "name": "rootchain",
          "type": "address"
        },
        {
          "internalType": "address",
          "name": "account",
          "type": "address"
        }
      ],
      "name": "numRequests",
      "outputs": [
        {
          "internalType": "uint256",
          "name": "",
          "type": "uint256"
        }
      ],
      "payable": false,
      "stateMutability": "view",
      "type": "function"
    },
    {
      "constant": true,
      "inputs": [
        {
          "internalType": "address",
          "name": "rootchain",
          "type": "address"
        },
        {
          "internalType": "address",
          "name": "account",
          "type": "address"
        }
      ],
      "name": "numPendingRequests",
      "outputs": [
        {
          "internalType": "uint256",
          "name": "",
          "type": "uint256"
        }
      ],
      "payable": false,
      "stateMutability": "view",
      "type": "function"
    },
    {
      "constant": true,
      "inputs": [],
      "name": "wton",
      "outputs": [
        {
          "internalType": "contract WTON",
          "name": "",
          "type": "address"
        }
      ],
      "payable": false,
      "stateMutability": "view",
      "type": "function"
    },
    {
      "constant": true,
      "inputs": [],
      "name": "registry",
      "outputs": [
        {
          "internalType": "contract RootChainRegistryI",
          "name": "",
          "type": "address"
        }
      ],
      "payable": false,
      "stateMutability": "view",
      "type": "function"
    },
    {
      "constant": true,
      "inputs": [],
      "name": "seigManager",
      "outputs": [
        {
          "internalType": "contract SeigManagerI",
          "name": "",
          "type": "address"
        }
      ],
      "payable": false,
      "stateMutability": "view",
      "type": "function"
    },
    {
      "constant": true,
      "inputs": [
        {
          "internalType": "address",
          "name": "rootchain",
          "type": "address"
        },
        {
          "internalType": "address",
          "name": "account",
          "type": "address"
        }
      ],
      "name": "accStaked",
      "outputs": [
        {
          "internalType": "uint256",
          "name": "wtonAmount",
          "type": "uint256"
        }
      ],
      "payable": false,
      "stateMutability": "view",
      "type": "function"
    },
    {
      "constant": true,
      "inputs": [
        {
          "internalType": "address",
          "name": "rootchain",
          "type": "address"
        }
      ],
      "name": "accStakedRootChain",
      "outputs": [
        {
          "internalType": "uint256",
          "name": "wtonAmount",
          "type": "uint256"
        }
      ],
      "payable": false,
      "stateMutability": "view",
      "type": "function"
    },
    {
      "constant": true,
      "inputs": [
        {
          "internalType": "address",
          "name": "rootchain",
          "type": "address"
        },
        {
          "internalType": "address",
          "name": "account",
          "type": "address"
        }
      ],
      "name": "pendingUnstaked",
      "outputs": [
        {
          "internalType": "uint256",
          "name": "wtonAmount",
          "type": "uint256"
        }
      ],
      "payable": false,
      "stateMutability": "view",
      "type": "function"
    },
    {
      "constant": true,
      "inputs": [
        {
          "internalType": "address",
          "name": "rootchain",
          "type": "address"
        }
      ],
      "name": "pendingUnstakedRootChain",
      "outputs": [
        {
          "internalType": "uint256",
          "name": "wtonAmount",
          "type": "uint256"
        }
      ],
      "payable": false,
      "stateMutability": "view",
      "type": "function"
    },
    {
      "constant": true,
      "inputs": [
        {
          "internalType": "address",
          "name": "rootchain",
          "type": "address"
        },
        {
          "internalType": "address",
          "name": "account",
          "type": "address"
        }
      ],
      "name": "accUnstaked",
      "outputs": [
        {
          "internalType": "uint256",
          "name": "wtonAmount",
          "type": "uint256"
        }
      ],
      "payable": false,
      "stateMutability": "view",
      "type": "function"
    },
    {
      "constant": true,
      "inputs": [
        {
          "internalType": "address",
          "name": "rootchain",
          "type": "address"
        }
      ],
      "name": "accUnstakedRootChain",
      "outputs": [
        {
          "internalType": "uint256",
          "name": "wtonAmount",
          "type": "uint256"
        }
      ],
      "payable": false,
      "stateMutability": "view",
      "type": "function"
    },
    {
      "constant": true,
      "inputs": [
        {
          "internalType": "address",
          "name": "rootchain",
          "type": "address"
        },
        {
          "internalType": "address",
          "name": "account",
          "type": "address"
        }
      ],
      "name": "withdrawalRequestIndex",
      "outputs": [
        {
          "internalType": "uint256",
          "name": "index",
          "type": "uint256"
        }
      ],
      "payable": false,
      "stateMutability": "view",
      "type": "function"
    },
    {
      "constant": true,
      "inputs": [],
      "name": "WITHDRAWAL_DELAY",
      "outputs": [
        {
          "internalType": "uint256",
          "name": "",
          "type": "uint256"
        }
      ],
      "payable": false,
      "stateMutability": "view",
      "type": "function"
    }
  ],
  "bytecode": "0x60806040523480156200001157600080fd5b5060405162001bdd38038062001bdd833981810160405260608110156200003757600080fd5b508051602082015160409092015190919060006200005d6001600160e01b036200014216565b600080546001600160a01b0319166001600160a01b0383169081178255604051929350917f8be0079c531659141344cd1fd0a4f28419497f9722a3daafe3b4186f6b6457e0908290a350620000db7f01ffc9a7000000000000000000000000000000000000000000000000000000006001600160e01b036200014616565b62000109604051808062001bb56028913960405190819003602801902090506001600160e01b036200014616565b600280546001600160a01b039485166001600160a01b0319918216179091556003805493909416921691909117909155600d5562000218565b3390565b7fffffffff000000000000000000000000000000000000000000000000000000008082161415620001d857604080517f08c379a000000000000000000000000000000000000000000000000000000000815260206004820152601c60248201527f4552433136353a20696e76616c696420696e7465726661636520696400000000604482015290519081900360640190fd5b7fffffffff00000000000000000000000000000000000000000000000000000000166000908152600160208190526040909120805460ff19169091179055565b61198d80620002286000396000f3fe608060405234801561001057600080fd5b506004361061018e5760003560e01c80637b103999116100de578063c20a44c611610097578063e8035ec911610071578063e8035ec9146104ef578063f2fde38b14610515578063f762eb571461053b578063fb0713b1146105695761018e565b8063c20a44c614610467578063c647f26e14610495578063da95ebf7146104c35761018e565b80637b103999146103f35780638d62d949146103fb5780638da5cb5b146104035780638f32d59b1461040b5780639d91b87b14610413578063a8f3fb98146104415761018e565b806347e7ef241161014b5780636cd28f9a116101255780636cd28f9a1461037a5780636fb7f5581461039f578063715018a6146103c35780637657f20a146103cd5761018e565b806347e7ef24146102fa5780635c0df46b146103265780636b2160b7146103545761018e565b806301ffc9a71461019357806303dc6510146101ce5780630ebb172a146102065780632638fdf51461020e5780632d2fab941461023c5780634273ca161461026a575b600080fd5b6101ba600480360360208110156101a957600080fd5b50356001600160e01b03191661059d565b604080519115158252519081900360200190f35b6101f4600480360360208110156101e457600080fd5b50356001600160a01b03166105bc565b60408051918252519081900360200190f35b6101f46105d7565b6101f46004803603604081101561022457600080fd5b506001600160a01b03813581169160200135166105dd565b6101f46004803603604081101561025257600080fd5b506001600160a01b038135811691602001351661060a565b6101ba6004803603608081101561028057600080fd5b6001600160a01b038235811692602081013590911691604082013591908101906080810160608201356401000000008111156102bb57600080fd5b8201836020820111156102cd57600080fd5b803590602001918460018302840111640100000000831117156102ef57600080fd5b509092509050610635565b6101ba6004803603604081101561031057600080fd5b506001600160a01b0381351690602001356106e2565b6101f46004803603604081101561033c57600080fd5b506001600160a01b03813581169160200135166106f8565b6101ba6004803603602081101561036a57600080fd5b50356001600160a01b031661074e565b61038261086b565b604080516001600160e01b03199092168252519081900360200190f35b6103a7610886565b604080516001600160a01b039092168252519081900360200190f35b6103cb610895565b005b6103cb600480360360208110156103e357600080fd5b50356001600160a01b0316610938565b6103a76109fb565b6103a7610a0a565b6103a7610a19565b6101ba610a28565b6101f46004803603604081101561042957600080fd5b506001600160a01b0381358116916020013516610a4c565b6101f46004803603602081101561045757600080fd5b50356001600160a01b0316610a77565b6101ba6004803603604081101561047d57600080fd5b506001600160a01b0381351690602001351515610a92565b6101f4600480360360408110156104ab57600080fd5b506001600160a01b0381358116916020013516610aa5565b6101ba600480360360408110156104d957600080fd5b506001600160a01b038135169060200135610ad0565b6101f46004803603602081101561050557600080fd5b50356001600160a01b0316610adc565b6103cb6004803603602081101561052b57600080fd5b50356001600160a01b0316610af7565b6101f46004803603604081101561055157600080fd5b506001600160a01b0381358116916020013516610b5c565b6101ba6004803603606081101561057f57600080fd5b506001600160a01b0381351690602081013590604001351515610b87565b6001600160e01b03191660009081526001602052604090205460ff1690565b6001600160a01b03166000908152600a602052604090205490565b600d5490565b6001600160a01b038083166000908152600760209081526040808320938516835292905220545b92915050565b6001600160a01b03918216600090815260056020908152604080832093909416825291909152205490565b6002546000906001600160a01b031633146106815760405162461bcd60e51b81526004018080602001828103825260318152602001806118fe6031913960400191505060405180910390fd5b60006106c284848080601f016020809104026020016040519081016040528093929190818152602001838380828437600092019190915250610bb992505050565b90506106cf818887610bd1565b6106d857600080fd5b5095945050505050565b60006106ef833384610bd1565b61060457600080fd5b6001600160a01b038083166000818152600b6020908152604080832094861680845294825280832054938352600c8252808320948352939052918220548161074557600092505050610604565b90039392505050565b600354604080516302a1529960e01b81526001600160a01b0380851660048301529151600093859316916302a15299916024808301926020929190829003018186803b15801561079d57600080fd5b505afa1580156107b1573d6000803e3d6000fd5b505050506040513d60208110156107c757600080fd5b50516107d257600080fd5b60048054604080516367265c3b60e11b81526001600160a01b038781169482019490945233602482015290516000939092169163ce4cb87691604480820192602092909190829003018186803b15801561082b57600080fd5b505afa15801561083f573d6000803e3d6000fd5b505050506040513d602081101561085557600080fd5b505190506108638482610de1565b949350505050565b60405180602861185e82396028019050604051809103902081565b6004546001600160a01b031690565b61089d610a28565b6108ee576040805162461bcd60e51b815260206004820181905260248201527f4f776e61626c653a2063616c6c6572206973206e6f7420746865206f776e6572604482015290519081900360640190fd5b600080546040516001600160a01b03909116907f8be0079c531659141344cd1fd0a4f28419497f9722a3daafe3b4186f6b6457e0908390a3600080546001600160a01b0319169055565b610940610a28565b610991576040805162461bcd60e51b815260206004820181905260248201527f4f776e61626c653a2063616c6c6572206973206e6f7420746865206f776e6572604482015290519081900360640190fd5b6004546001600160a01b0316156109d95760405162461bcd60e51b815260040180806020018281038252602a815260200180611886602a913960400191505060405180910390fd5b600480546001600160a01b0319166001600160a01b0392909216919091179055565b6003546001600160a01b031690565b6002546001600160a01b031690565b6000546001600160a01b031690565b600080546001600160a01b0316610a3d61106e565b6001600160a01b031614905090565b6001600160a01b03918216600090815260096020908152604080832093909416825291909152205490565b6001600160a01b031660009081526008602052604090205490565b6000610a9e8383611072565b9392505050565b6001600160a01b039182166000908152600c6020908152604080832093909416825291909152205490565b6000610a9e8383610de1565b6001600160a01b031660009081526006602052604090205490565b610aff610a28565b610b50576040805162461bcd60e51b815260206004820181905260248201527f4f776e61626c653a2063616c6c6572206973206e6f7420746865206f776e6572604482015290519081900360640190fd5b610b59816113bf565b50565b6001600160a01b039182166000908152600b6020908152604080832093909416825291909152205490565b6000805b83811015610bae57610b9d8584611072565b610ba657600080fd5b600101610b8b565b506001949350505050565b60008151602014610bc957600080fd5b506020015190565b600354604080516302a1529960e01b81526001600160a01b0380871660048301529151600093879316916302a15299916024808301926020929190829003018186803b158015610c2057600080fd5b505afa158015610c34573d6000803e3d6000fd5b505050506040513d6020811015610c4a57600080fd5b5051610c5557600080fd5b6001600160a01b03808616600090815260056020908152604080832093881683529290522054610c8b908463ffffffff61145f16565b6001600160a01b038087166000818152600560209081526040808320948a168352938152838220949094559081526006909252902054610cd1908463ffffffff61145f16565b6001600160a01b03808716600090815260066020526040902091909155600254610d04911685308663ffffffff6114b916565b604080516001600160a01b038681168252602082018690528251908816927f8752a472e571a816aea92eec8dae9baf628e840f4929fbcc2d155e6233ff68a7928290030190a260048054604080516346f023a760e11b81526001600160a01b038981169482019490945287841660248201526044810187905290519290911691638de0474e916064808201926020929091908290030181600087803b158015610dac57600080fd5b505af1158015610dc0573d6000803e3d6000fd5b505050506040513d6020811015610dd657600080fd5b5051610bae57600080fd5b600354604080516302a1529960e01b81526001600160a01b0380861660048301529151600093869316916302a15299916024808301926020929190829003018186803b158015610e3057600080fd5b505afa158015610e44573d6000803e3d6000fd5b505050506040513d6020811015610e5a57600080fd5b5051610e6557600080fd5b6001600160a01b0384166000818152600b60209081526040808320338085529083528184208251606081018452600d546001600160801b0343909101811682528a8116828701908152828601888152845460018181018755958a52888a2094516002909102909401805492518416600160801b029484166fffffffffffffffffffffffffffffffff1990931692909217909216929092178255519101805491151560ff19909216919091179055938352600782528083209383529290522054610f34908463ffffffff61145f16565b6001600160a01b038516600081815260076020908152604080832033845282528083209490945591815260089091522054610f75908463ffffffff61145f16565b6001600160a01b038516600081815260086020908152604091829020939093558051338152928301869052805191927f04c56a409d50971e45c5a2d96e5d557d2b0f1d66d40f14b141e4c958b0f39b32929081900390910190a2600480546040805163010a7ae560e11b81526001600160a01b03888116948201949094523360248201526044810187905290519290911691630214f5ca916064808201926020929091908290030181600087803b15801561102f57600080fd5b505af1158015611043573d6000803e3d6000fd5b505050506040513d602081101561105957600080fd5b505161106457600080fd5b5060019392505050565b3390565b6001600160a01b0382166000818152600c602090815260408083203380855290835281842054948452600b835281842090845290915281205490919081106110eb5760405162461bcd60e51b81526004018080602001828103825260258152602001806118b06025913960400191505060405180910390fd5b6001600160a01b0384166000908152600b60209081526040808320338452909152812080548390811061111a57fe5b600091825260209091206002909102018054909150436001600160801b0390911611156111785760405162461bcd60e51b81526004018080602001828103825260298152602001806118d56029913960400191505060405180910390fd5b6001818101805460ff1916821790556001600160a01b0386166000818152600c602090815260408083203380855290835281842080549096019095558554938352600782528083209483529390529190912054600160801b9091046001600160801b0316906111e79082611519565b6001600160a01b038716600081815260076020908152604080832033845282528083209490945591815260089091522054611228908263ffffffff61151916565b6001600160a01b0387166000908152600860209081526040808320939093556009815282822033835290522054611265908263ffffffff61145f16565b6001600160a01b0387166000818152600960209081526040808320338452825280832094909455918152600a90915220546112a6908263ffffffff61145f16565b6001600160a01b0387166000908152600a60205260409020558415611353576002546040805163e3b99e8560e01b81523360048201526024810184905290516001600160a01b039092169163e3b99e85916044808201926020929091908290030181600087803b15801561131957600080fd5b505af115801561132d573d6000803e3d6000fd5b505050506040513d602081101561134357600080fd5b505161134e57600080fd5b611370565b600254611370906001600160a01b0316338363ffffffff61155b16565b604080513381526020810183905281516001600160a01b038916927fcd1fce47d5ad89dd70b04c75bd6bdb8114d4d4ff7b4393f9fb5937e733ba9582928290030190a250600195945050505050565b6001600160a01b0381166114045760405162461bcd60e51b81526004018080602001828103825260268152602001806118386026913960400191505060405180910390fd5b600080546040516001600160a01b03808516939216917f8be0079c531659141344cd1fd0a4f28419497f9722a3daafe3b4186f6b6457e091a3600080546001600160a01b0319166001600160a01b0392909216919091179055565b600082820183811015610a9e576040805162461bcd60e51b815260206004820152601b60248201527f536166654d6174683a206164646974696f6e206f766572666c6f770000000000604482015290519081900360640190fd5b604080516001600160a01b0385811660248301528416604482015260648082018490528251808303909101815260849091019091526020810180516001600160e01b03166323b872dd60e01b1790526115139085906115b2565b50505050565b6000610a9e83836040518060400160405280601e81526020017f536166654d6174683a207375627472616374696f6e206f766572666c6f7700008152506117a4565b604080516001600160a01b038416602482015260448082018490528251808303909101815260649091019091526020810180516001600160e01b031663a9059cbb60e01b1790526115ad9084906115b2565b505050565b6115c4826001600160a01b03166117fe565b611615576040805162461bcd60e51b815260206004820152601f60248201527f5361666545524332303a2063616c6c20746f206e6f6e2d636f6e747261637400604482015290519081900360640190fd5b60006060836001600160a01b0316836040518082805190602001908083835b602083106116535780518252601f199092019160209182019101611634565b6001836020036101000a0380198251168184511680821785525050505050509050019150506000604051808303816000865af19150503d80600081146116b5576040519150601f19603f3d011682016040523d82523d6000602084013e6116ba565b606091505b509150915081819061174a5760405162461bcd60e51b81526004018080602001828103825283818151815260200191508051906020019080838360005b8381101561170f5781810151838201526020016116f7565b50505050905090810190601f16801561173c5780820380516001836020036101000a031916815260200191505b509250505060405180910390fd5b508051156115135780806020019051602081101561176757600080fd5b50516115135760405162461bcd60e51b815260040180806020018281038252602a81526020018061192f602a913960400191505060405180910390fd5b600081848411156117f65760405162461bcd60e51b815260206004820181815283516024840152835190928392604490910191908501908083836000831561170f5781810151838201526020016116f7565b505050900390565b6000813f7fc5d2460186f7233c927e7db2dcc703c0e500b653ca82273b7bfad8045d85a47081811480159061086357505015159291505056fe4f776e61626c653a206e6577206f776e657220697320746865207a65726f20616464726573736f6e417070726f766528616464726573732c616464726573732c75696e743235362c6279746573294465706f7369744d616e616765723a20536569674d616e6167657220697320616c7265616479207365744465706f7369744d616e616765723a206e6f207265717565737420746f2070726f636573734465706f7369744d616e616765723a207761697420666f72207769746864726177616c2064656c61794465706f7369744d616e616765723a206f6e6c79206163636570742057544f4e20617070726f76652063616c6c6261636b5361666545524332303a204552433230206f7065726174696f6e20646964206e6f742073756363656564a265627a7a723158200c475da7559c8e01778bdccbd5f84d46c781488d9feabdbb16aaac436c4f881564736f6c634300050c00326f6e417070726f766528616464726573732c616464726573732c75696e743235362c627974657329",
  "source": "pragma solidity ^0.5.12;\n\nimport { Ownable } from \"../../../node_modules/openzeppelin-solidity/contracts/ownership/OWnable.sol\";\nimport { SafeMath } from \"../../../node_modules/openzeppelin-solidity/contracts/math/SafeMath.sol\";\nimport { IERC20 } from \"../../../node_modules/openzeppelin-solidity/contracts/token/ERC20/IERC20.sol\";\nimport { SafeERC20 } from \"../../../node_modules/openzeppelin-solidity/contracts/token/ERC20/SafeERC20.sol\";\nimport { ERC165 } from \"../../../node_modules/openzeppelin-solidity/contracts/introspection/ERC165.sol\";\n\nimport { RootChainI } from \"../../RootChainI.sol\";\n\nimport { DepositManagerI } from \"../interfaces/DepositManagerI.sol\";\nimport { RootChainRegistryI } from \"../interfaces/RootChainRegistryI.sol\";\nimport { SeigManagerI } from \"../interfaces/SeigManagerI.sol\";\nimport { WTON } from \"../tokens/WTON.sol\";\nimport { OnApprove } from \"../tokens/OnApprove.sol\";\n\n// TODO: add events\n// TODO: check deposit/withdraw WTON amount (1e27)\n\n/**\n * @dev DepositManager manages WTON deposit and withdrawal from operator and WTON holders.\n */\ncontract DepositManager is Ownable, ERC165, OnApprove {\n  using SafeMath for uint256;\n  using SafeERC20 for WTON;\n\n  ////////////////////\n  // Storage - contracts\n  ////////////////////\n\n  WTON internal _wton;\n  RootChainRegistryI internal _registry;\n  SeigManagerI internal _seigManager;\n\n  ////////////////////\n  // Storage - token amount\n  ////////////////////\n\n  // accumulated staked amount\n  // rootchian => msg.sender => wton amount\n  mapping (address => mapping (address => uint256)) internal _accStaked;\n  // rootchian => wton amount\n  mapping (address => uint256) internal _accStakedRootChain;\n\n  // pending unstaked amount\n  // rootchian => msg.sender => wton amount\n  mapping (address => mapping (address => uint256)) internal _pendingUnstaked;\n  // rootchian => wton amount\n  mapping (address => uint256) internal _pendingUnstakedRootChain;\n\n  // accumulated unstaked amount\n  // rootchian => msg.sender => wton amount\n  mapping (address => mapping (address => uint256)) internal _accUnstaked;\n  // rootchian => wton amount\n  mapping (address => uint256) internal _accUnstakedRootChain;\n\n  // rootchain => msg.sender => withdrawal requests\n  mapping (address => mapping (address => WithdrawalReqeust[])) internal _withdrawalReqeusts;\n\n  // rootchain => msg.sender => index\n  mapping (address => mapping (address => uint256)) internal _withdrawalRequestIndex;\n\n  ////////////////////\n  // Storage - configuration / ERC165 interfaces\n  ////////////////////\n\n  // withdrawal delay in block number\n  // @TODO: change delay unit to CYCLE?\n  uint256 internal _WITHDRAWAL_DELAY;\n\n  struct WithdrawalReqeust {\n    uint128 withdrawableBlockNumber;\n    uint128 amount;\n    bool processed;\n  }\n\n  ////////////////////\n  // Modifiers\n  ////////////////////\n\n  modifier onlyRootChain(address rootchain) {\n    require(_registry.rootchains(rootchain));\n    _;\n  }\n\n  modifier onlySeigManager() {\n    require(msg.sender == address(_seigManager));\n    _;\n  }\n\n  ////////////////////\n  // Events\n  ////////////////////\n\n  event Deposited(address indexed rootchain, address depositor, uint256 amount);\n  event WithdrawalRequested(address indexed rootchain, address depositor, uint256 amount);\n  event WithdrawalProcessed(address indexed rootchain, address depositor, uint256 amount);\n\n  ////////////////////\n  // Constructor\n  ////////////////////\n\n  constructor (\n    WTON wton,\n    RootChainRegistryI registry,\n    uint256 WITHDRAWAL_DELAY\n  ) public {\n    _wton = wton;\n    _registry = registry;\n    _WITHDRAWAL_DELAY = WITHDRAWAL_DELAY;\n  }\n\n  ////////////////////\n  // SeiManager function\n  ////////////////////\n\n  function setSeigManager(SeigManagerI seigManager) external onlyOwner {\n    require(address(_seigManager) == address(0), \"DepositManager: SeigManager is already set\");\n    _seigManager = seigManager;\n  }\n\n  ////////////////////\n  // ERC20 Approve callback\n  ////////////////////\n\n  function onApprove(\n    address owner,\n    address spender,\n    uint256 amount,\n    bytes calldata data\n  ) external returns (bool) {\n    require(msg.sender == address(_wton), \"DepositManager: only accept WTON approve callback\");\n\n    address rootchain = _decodeDepositManagerOnApproveData(data);\n    require(_deposit(rootchain, owner, amount));\n  }\n\n  function _decodeDepositManagerOnApproveData(\n    bytes memory data\n  ) internal pure returns (address rootchain) {\n    require(data.length == 0x20);\n\n    assembly {\n      rootchain := mload(add(data, 0x20))\n    }\n  }\n\n  ////////////////////\n  // Deposit function\n  ////////////////////\n\n  /**\n   * @dev deposit `amount` WTON in RAY\n   */\n\n  function deposit(address rootchain, uint256 amount) external returns (bool) {\n    require(_deposit(rootchain, msg.sender, amount));\n  }\n\n  function _deposit(address rootchain, address account, uint256 amount) internal onlyRootChain(rootchain) returns (bool) {\n    _accStaked[rootchain][account] = _accStaked[rootchain][account].add(amount);\n    _accStakedRootChain[rootchain] = _accStakedRootChain[rootchain].add(amount);\n\n    _wton.safeTransferFrom(account, address(this), amount);\n\n    emit Deposited(rootchain, account, amount);\n\n    require(_seigManager.onStake(rootchain, account, amount));\n\n    return true;\n  }\n\n  ////////////////////\n  // Withdrawal functions\n  ////////////////////\n\n  function requestWithdrawal(address rootchain, uint256 amount) external returns (bool) {\n    return _requestWithdrawal(rootchain, amount);\n  }\n\n  function _requestWithdrawal(address rootchain, uint256 amount) internal onlyRootChain(rootchain) returns (bool) {\n    // TODO: check `amount` WTON can be withdrawable\n\n    _withdrawalReqeusts[rootchain][msg.sender].push(WithdrawalReqeust({\n      withdrawableBlockNumber: uint128(block.number + _WITHDRAWAL_DELAY),\n      amount: uint128(amount),\n      processed: false\n    }));\n\n    _pendingUnstaked[rootchain][msg.sender] = _pendingUnstaked[rootchain][msg.sender].add(amount);\n    _pendingUnstakedRootChain[rootchain] = _pendingUnstakedRootChain[rootchain].add(amount);\n    emit WithdrawalRequested(rootchain, msg.sender, amount);\n\n    require(_seigManager.onUnstake(rootchain, msg.sender, amount));\n\n    return true;\n  }\n\n  function processRequest(address rootchain, bool receiveTON) external returns (bool) {\n    return _processRequest(rootchain, receiveTON);\n  }\n\n  function _processRequest(address rootchain, bool receiveTON) internal returns (bool) {\n    uint256 index = _withdrawalRequestIndex[rootchain][msg.sender];\n    require(_withdrawalReqeusts[rootchain][msg.sender].length > index, \"DepositManager: no request to process\");\n\n    WithdrawalReqeust storage r = _withdrawalReqeusts[rootchain][msg.sender][index];\n\n    require(r.withdrawableBlockNumber <= block.number, \"DepositManager: wait for withdrawal delay\");\n    r.processed = true;\n\n    _withdrawalRequestIndex[rootchain][msg.sender] += 1;\n\n    uint256 amount = r.amount;\n\n    _pendingUnstaked[rootchain][msg.sender] = _pendingUnstaked[rootchain][msg.sender].sub(amount);\n    _pendingUnstakedRootChain[rootchain] = _pendingUnstakedRootChain[rootchain].sub(amount);\n\n    _accUnstaked[rootchain][msg.sender] = _accUnstaked[rootchain][msg.sender].add(amount);\n    _accUnstakedRootChain[rootchain] = _accUnstakedRootChain[rootchain].add(amount);\n\n    if (receiveTON) {\n      require(_wton.swapToTONAndTransfer(msg.sender, amount));\n    } else {\n      _wton.safeTransfer(msg.sender, amount);\n    }\n\n    emit WithdrawalProcessed(rootchain, msg.sender, amount);\n    return true;\n  }\n\n  function requestWithdrawalAll(address rootchain) external onlyRootChain(rootchain) returns (bool) {\n    uint256 amount = _seigManager.stakeOf(rootchain, msg.sender);\n\n    return _requestWithdrawal(rootchain, amount);\n  }\n\n  function processRequests(address rootchain, uint256 n, bool receiveTON) external returns (bool) {\n    for (uint256 i = 0; i < n; i++) {\n      require(_processRequest(rootchain, receiveTON));\n    }\n    return true;\n  }\n\n  function numRequests(address rootchain, address account) external view returns (uint256) {\n    return _withdrawalReqeusts[rootchain][account].length;\n  }\n\n  function numPendingRequests(address rootchain, address account) external view returns (uint256) {\n    uint256 numRequests = _withdrawalReqeusts[rootchain][account].length;\n    uint256 index = _withdrawalRequestIndex[rootchain][account];\n\n    if (numRequests == 0) return 0;\n\n    return numRequests - index;\n  }\n\n  function _isOperator(address rootchain, address operator) internal view returns (bool) {\n    return operator == RootChainI(rootchain).operator();\n  }\n\n\n  ////////////////////\n  // Storage getters\n  ////////////////////\n\n  function wton() external view returns (WTON) { return _wton; }\n  function registry() external view returns (RootChainRegistryI) { return _registry; }\n  function seigManager() external view returns (SeigManagerI) { return _seigManager; }\n\n  function accStaked(address rootchain, address account) external view returns (uint256 wtonAmount) { return _accStaked[rootchain][account]; }\n  function accStakedRootChain(address rootchain) external view returns (uint256 wtonAmount) { return _accStakedRootChain[rootchain]; }\n\n  function pendingUnstaked(address rootchain, address account) external view returns (uint256 wtonAmount) { return _pendingUnstaked[rootchain][account]; }\n  function pendingUnstakedRootChain(address rootchain) external view returns (uint256 wtonAmount) { return _pendingUnstakedRootChain[rootchain]; }\n\n  function accUnstaked(address rootchain, address account) external view returns (uint256 wtonAmount) { return _accUnstaked[rootchain][account]; }\n  function accUnstakedRootChain(address rootchain) external view returns (uint256 wtonAmount) { return _accUnstakedRootChain[rootchain]; }\n\n  function withdrawalRequestIndex(address rootchain, address account) external view returns (uint256 index) { return _withdrawalRequestIndex[rootchain][account]; }\n\n  function WITHDRAWAL_DELAY() external view returns (uint256) { return _WITHDRAWAL_DELAY; }\n}",
  "sourcePath": "/Users/pjh/workspace/go/src/github.com/Onther-Tech/plasma-evm/contracts/plasma/plasma-evm-cotracts/contracts/stake/managers/DepositManager.sol",
  "compiler": {
    "name": "solc",
    "version": "0.5.12+commit.7709ece9.Emscripten.clang"
  },
  "schemaVersion": "3.0.23",
  "updatedAt": "2020-02-13T05:01:24.010Z",
  "devdoc": {
    "details": "DepositManager manages WTON deposit and withdrawal from operator and WTON holders.",
    "methods": {
      "deposit(address,uint256)": {
        "details": "deposit `amount` WTON in RAY"
      },
      "isOwner()": {
        "details": "Returns true if the caller is the current owner."
      },
      "owner()": {
        "details": "Returns the address of the current owner."
      },
      "renounceOwnership()": {
        "details": "Leaves the contract without owner. It will not be possible to call `onlyOwner` functions anymore. Can only be called by the current owner.     * NOTE: Renouncing ownership will leave the contract without an owner, thereby removing any functionality that is only available to the owner."
      },
      "supportsInterface(bytes4)": {
        "details": "See {IERC165-supportsInterface}.     * Time complexity O(1), guaranteed to always use less than 30 000 gas."
      },
      "transferOwnership(address)": {
        "details": "Transfers ownership of the contract to a new account (`newOwner`). Can only be called by the current owner."
      }
    }
  },
  "userdoc": {
    "methods": {
      "constructor": "/////////////////",
      "onApprove(address,address,uint256,bytes)": {
        "notice": "/////////////////"
      },
      "requestWithdrawal(address,uint256)": {
        "notice": "/////////////////"
      },
      "setSeigManager(address)": {
        "notice": "/////////////////"
      },
      "wton()": {
        "notice": "/////////////////"
      }
    }
  }
}