{
  "contractName": "EpochHandler",
  "abi": [
    {
      "inputs": [],
      "payable": false,
      "stateMutability": "nonpayable",
      "type": "constructor"
    },
    {
      "anonymous": false,
      "inputs": [
        {
          "indexed": false,
          "internalType": "uint256",
          "name": "forkNumber",
          "type": "uint256"
        },
        {
          "indexed": false,
          "internalType": "uint256",
          "name": "blockNumber",
          "type": "uint256"
        }
      ],
      "name": "BlockFinalized",
      "type": "event"
    },
    {
      "anonymous": false,
      "inputs": [
        {
          "indexed": false,
          "internalType": "uint256",
          "name": "fork",
          "type": "uint256"
        },
        {
          "indexed": false,
          "internalType": "uint256",
          "name": "epochNumber",
          "type": "uint256"
        },
        {
          "indexed": false,
          "internalType": "uint256",
          "name": "blockNumber",
          "type": "uint256"
        },
        {
          "indexed": false,
          "internalType": "bool",
          "name": "isRequest",
          "type": "bool"
        },
        {
          "indexed": false,
          "internalType": "bool",
          "name": "userActivated",
          "type": "bool"
        }
      ],
      "name": "BlockSubmitted",
      "type": "event"
    },
    {
      "anonymous": false,
      "inputs": [
        {
          "indexed": false,
          "internalType": "uint256",
          "name": "requestId",
          "type": "uint256"
        },
        {
          "indexed": false,
          "internalType": "address",
          "name": "requestor",
          "type": "address"
        },
        {
          "indexed": false,
          "internalType": "address",
          "name": "to",
          "type": "address"
        },
        {
          "indexed": false,
          "internalType": "bytes",
          "name": "trieKey",
          "type": "bytes"
        },
        {
          "indexed": false,
          "internalType": "bytes32",
          "name": "trieValue",
          "type": "bytes32"
        }
      ],
      "name": "ERUCreated",
      "type": "event"
    },
    {
      "anonymous": false,
      "inputs": [
        {
          "indexed": false,
          "internalType": "uint256",
          "name": "forkNumber",
          "type": "uint256"
        },
        {
          "indexed": false,
          "internalType": "uint256",
          "name": "epochNumber",
          "type": "uint256"
        }
      ],
      "name": "EpochFilled",
      "type": "event"
    },
    {
      "anonymous": false,
      "inputs": [
        {
          "indexed": false,
          "internalType": "uint256",
          "name": "forkNumber",
          "type": "uint256"
        },
        {
          "indexed": false,
          "internalType": "uint256",
          "name": "epochNumber",
          "type": "uint256"
        }
      ],
      "name": "EpochFilling",
      "type": "event"
    },
    {
      "anonymous": false,
      "inputs": [
        {
          "indexed": false,
          "internalType": "uint256",
          "name": "forkNumber",
          "type": "uint256"
        },
        {
          "indexed": false,
          "internalType": "uint256",
          "name": "epochNumber",
          "type": "uint256"
        },
        {
          "indexed": false,
          "internalType": "uint256",
          "name": "startBlockNumber",
          "type": "uint256"
        },
        {
          "indexed": false,
          "internalType": "uint256",
          "name": "endBlockNumber",
          "type": "uint256"
        }
      ],
      "name": "EpochFinalized",
      "type": "event"
    },
    {
      "anonymous": false,
      "inputs": [
        {
          "indexed": false,
          "internalType": "uint256",
          "name": "forkNumber",
          "type": "uint256"
        },
        {
          "indexed": false,
          "internalType": "uint256",
          "name": "epochNumber",
          "type": "uint256"
        },
        {
          "indexed": false,
          "internalType": "uint256",
          "name": "startBlockNumber",
          "type": "uint256"
        },
        {
          "indexed": false,
          "internalType": "uint256",
          "name": "endBlockNumber",
          "type": "uint256"
        },
        {
          "indexed": false,
          "internalType": "uint256",
          "name": "requestStart",
          "type": "uint256"
        },
        {
          "indexed": false,
          "internalType": "uint256",
          "name": "requestEnd",
          "type": "uint256"
        },
        {
          "indexed": false,
          "internalType": "bool",
          "name": "epochIsEmpty",
          "type": "bool"
        },
        {
          "indexed": false,
          "internalType": "bool",
          "name": "isRequest",
          "type": "bool"
        },
        {
          "indexed": false,
          "internalType": "bool",
          "name": "userActivated",
          "type": "bool"
        },
        {
          "indexed": false,
          "internalType": "bool",
          "name": "rebase",
          "type": "bool"
        }
      ],
      "name": "EpochPrepared",
      "type": "event"
    },
    {
      "anonymous": false,
      "inputs": [
        {
          "indexed": false,
          "internalType": "uint256",
          "name": "forkNumber",
          "type": "uint256"
        },
        {
          "indexed": false,
          "internalType": "uint256",
          "name": "epochNumber",
          "type": "uint256"
        },
        {
          "indexed": false,
          "internalType": "uint256",
          "name": "startBlockNumber",
          "type": "uint256"
        },
        {
          "indexed": false,
          "internalType": "uint256",
          "name": "endBlockNumber",
          "type": "uint256"
        },
        {
          "indexed": false,
          "internalType": "uint256",
          "name": "requestStart",
          "type": "uint256"
        },
        {
          "indexed": false,
          "internalType": "uint256",
          "name": "requestEnd",
          "type": "uint256"
        },
        {
          "indexed": false,
          "internalType": "bool",
          "name": "epochIsEmpty",
          "type": "bool"
        },
        {
          "indexed": false,
          "internalType": "bool",
          "name": "isRequest",
          "type": "bool"
        },
        {
          "indexed": false,
          "internalType": "bool",
          "name": "userActivated",
          "type": "bool"
        }
      ],
      "name": "EpochRebased",
      "type": "event"
    },
    {
      "anonymous": false,
      "inputs": [
        {
          "indexed": false,
          "internalType": "uint256",
          "name": "newFork",
          "type": "uint256"
        },
        {
          "indexed": false,
          "internalType": "uint256",
          "name": "epochNumber",
          "type": "uint256"
        },
        {
          "indexed": false,
          "internalType": "uint256",
          "name": "forkedBlockNumber",
          "type": "uint256"
        }
      ],
      "name": "Forked",
      "type": "event"
    },
    {
      "anonymous": false,
      "inputs": [
        {
          "indexed": false,
          "internalType": "address",
          "name": "_newOperator",
          "type": "address"
        }
      ],
      "name": "OperatorChanged",
      "type": "event"
    },
    {
      "anonymous": false,
      "inputs": [
        {
          "indexed": false,
          "internalType": "uint256",
          "name": "requestId",
          "type": "uint256"
        },
        {
          "indexed": false,
          "internalType": "bool",
          "name": "userActivated",
          "type": "bool"
        }
      ],
      "name": "RequestApplied",
      "type": "event"
    },
    {
      "anonymous": false,
      "inputs": [
        {
          "indexed": false,
          "internalType": "uint256",
          "name": "requestId",
          "type": "uint256"
        },
        {
          "indexed": false,
          "internalType": "bool",
          "name": "userActivated",
          "type": "bool"
        }
      ],
      "name": "RequestChallenged",
      "type": "event"
    },
    {
      "anonymous": false,
      "inputs": [
        {
          "indexed": false,
          "internalType": "uint256",
          "name": "requestId",
          "type": "uint256"
        },
        {
          "indexed": false,
          "internalType": "address",
          "name": "requestor",
          "type": "address"
        },
        {
          "indexed": false,
          "internalType": "address",
          "name": "to",
          "type": "address"
        },
        {
          "indexed": false,
          "internalType": "uint256",
          "name": "weiAmount",
          "type": "uint256"
        },
        {
          "indexed": false,
          "internalType": "bytes32",
          "name": "trieKey",
          "type": "bytes32"
        },
        {
          "indexed": false,
          "internalType": "bytes",
          "name": "trieValue",
          "type": "bytes"
        },
        {
          "indexed": false,
          "internalType": "bool",
          "name": "isExit",
          "type": "bool"
        },
        {
          "indexed": false,
          "internalType": "bool",
          "name": "userActivated",
          "type": "bool"
        }
      ],
      "name": "RequestCreated",
      "type": "event"
    },
    {
      "anonymous": false,
      "inputs": [
        {
          "indexed": false,
          "internalType": "uint256",
          "name": "requestId",
          "type": "uint256"
        },
        {
          "indexed": false,
          "internalType": "bool",
          "name": "userActivated",
          "type": "bool"
        }
      ],
      "name": "RequestFinalized",
      "type": "event"
    },
    {
      "anonymous": false,
      "inputs": [
        {
          "indexed": false,
          "internalType": "address",
          "name": "contractInRootchain",
          "type": "address"
        },
        {
          "indexed": false,
          "internalType": "address",
          "name": "contractInChildchain",
          "type": "address"
        }
      ],
      "name": "RequestableContractMapped",
      "type": "event"
    },
    {
      "anonymous": false,
      "inputs": [
        {
          "indexed": false,
          "internalType": "bool",
          "name": "userActivated",
          "type": "bool"
        }
      ],
      "name": "SessionTimeout",
      "type": "event"
    },
    {
      "constant": true,
      "inputs": [],
      "name": "COST_ERO",
      "outputs": [
        {
          "internalType": "uint256",
          "name": "",
          "type": "uint256"
        }
      ],
      "payable": false,
      "stateMutability": "view",
      "type": "function"
    },
    {
      "constant": true,
      "inputs": [],
      "name": "COST_ERU",
      "outputs": [
        {
          "internalType": "uint256",
          "name": "",
          "type": "uint256"
        }
      ],
      "payable": false,
      "stateMutability": "view",
      "type": "function"
    },
    {
      "constant": true,
      "inputs": [],
      "name": "COST_NRB",
      "outputs": [
        {
          "internalType": "uint256",
          "name": "",
          "type": "uint256"
        }
      ],
      "payable": false,
      "stateMutability": "view",
      "type": "function"
    },
    {
      "constant": true,
      "inputs": [],
      "name": "COST_ORB",
      "outputs": [
        {
          "internalType": "uint256",
          "name": "",
          "type": "uint256"
        }
      ],
      "payable": false,
      "stateMutability": "view",
      "type": "function"
    },
    {
      "constant": true,
      "inputs": [],
      "name": "COST_URB",
      "outputs": [
        {
          "internalType": "uint256",
          "name": "",
          "type": "uint256"
        }
      ],
      "payable": false,
      "stateMutability": "view",
      "type": "function"
    },
    {
      "constant": true,
      "inputs": [],
      "name": "COST_URB_PREPARE",
      "outputs": [
        {
          "internalType": "uint256",
          "name": "",
          "type": "uint256"
        }
      ],
      "payable": false,
      "stateMutability": "view",
      "type": "function"
    },
    {
      "constant": true,
      "inputs": [],
      "name": "CP_COMPUTATION",
      "outputs": [
        {
          "internalType": "uint256",
          "name": "",
          "type": "uint256"
        }
      ],
      "payable": false,
      "stateMutability": "view",
      "type": "function"
    },
    {
      "constant": true,
      "inputs": [],
      "name": "CP_EXIT",
      "outputs": [
        {
          "internalType": "uint256",
          "name": "",
          "type": "uint256"
        }
      ],
      "payable": false,
      "stateMutability": "view",
      "type": "function"
    },
    {
      "constant": true,
      "inputs": [],
      "name": "CP_WITHHOLDING",
      "outputs": [
        {
          "internalType": "uint256",
          "name": "",
          "type": "uint256"
        }
      ],
      "payable": false,
      "stateMutability": "view",
      "type": "function"
    },
    {
      "constant": true,
      "inputs": [],
      "name": "EROIdToFinalize",
      "outputs": [
        {
          "internalType": "uint256",
          "name": "",
          "type": "uint256"
        }
      ],
      "payable": false,
      "stateMutability": "view",
      "type": "function"
    },
    {
      "constant": true,
      "inputs": [
        {
          "internalType": "uint256",
          "name": "",
          "type": "uint256"
        }
      ],
      "name": "EROs",
      "outputs": [
        {
          "internalType": "uint64",
          "name": "timestamp",
          "type": "uint64"
        },
        {
          "internalType": "bool",
          "name": "isExit",
          "type": "bool"
        },
        {
          "internalType": "bool",
          "name": "isTransfer",
          "type": "bool"
        },
        {
          "internalType": "bool",
          "name": "finalized",
          "type": "bool"
        },
        {
          "internalType": "bool",
          "name": "challenged",
          "type": "bool"
        },
        {
          "internalType": "uint128",
          "name": "value",
          "type": "uint128"
        },
        {
          "internalType": "address payable",
          "name": "requestor",
          "type": "address"
        },
        {
          "internalType": "address",
          "name": "to",
          "type": "address"
        },
        {
          "internalType": "bytes32",
          "name": "trieKey",
          "type": "bytes32"
        },
        {
          "internalType": "bytes32",
          "name": "hash",
          "type": "bytes32"
        },
        {
          "internalType": "bytes",
          "name": "trieValue",
          "type": "bytes"
        }
      ],
      "payable": false,
      "stateMutability": "view",
      "type": "function"
    },
    {
      "constant": true,
      "inputs": [],
      "name": "ERUIdToFinalize",
      "outputs": [
        {
          "internalType": "uint256",
          "name": "",
          "type": "uint256"
        }
      ],
      "payable": false,
      "stateMutability": "view",
      "type": "function"
    },
    {
      "constant": true,
      "inputs": [
        {
          "internalType": "uint256",
          "name": "",
          "type": "uint256"
        }
      ],
      "name": "ERUs",
      "outputs": [
        {
          "internalType": "uint64",
          "name": "timestamp",
          "type": "uint64"
        },
        {
          "internalType": "bool",
          "name": "isExit",
          "type": "bool"
        },
        {
          "internalType": "bool",
          "name": "isTransfer",
          "type": "bool"
        },
        {
          "internalType": "bool",
          "name": "finalized",
          "type": "bool"
        },
        {
          "internalType": "bool",
          "name": "challenged",
          "type": "bool"
        },
        {
          "internalType": "uint128",
          "name": "value",
          "type": "uint128"
        },
        {
          "internalType": "address payable",
          "name": "requestor",
          "type": "address"
        },
        {
          "internalType": "address",
          "name": "to",
          "type": "address"
        },
        {
          "internalType": "bytes32",
          "name": "trieKey",
          "type": "bytes32"
        },
        {
          "internalType": "bytes32",
          "name": "hash",
          "type": "bytes32"
        },
        {
          "internalType": "bytes",
          "name": "trieValue",
          "type": "bytes"
        }
      ],
      "payable": false,
      "stateMutability": "view",
      "type": "function"
    },
    {
      "constant": true,
      "inputs": [],
      "name": "NRELength",
      "outputs": [
        {
          "internalType": "uint256",
          "name": "",
          "type": "uint256"
        }
      ],
      "payable": false,
      "stateMutability": "view",
      "type": "function"
    },
    {
      "constant": true,
      "inputs": [],
      "name": "NULL_ADDRESS",
      "outputs": [
        {
          "internalType": "address",
          "name": "",
          "type": "address"
        }
      ],
      "payable": false,
      "stateMutability": "view",
      "type": "function"
    },
    {
      "constant": true,
      "inputs": [
        {
          "internalType": "uint256",
          "name": "",
          "type": "uint256"
        }
      ],
      "name": "ORBs",
      "outputs": [
        {
          "internalType": "bool",
          "name": "submitted",
          "type": "bool"
        },
        {
          "internalType": "uint64",
          "name": "numEnter",
          "type": "uint64"
        },
        {
          "internalType": "uint64",
          "name": "epochNumber",
          "type": "uint64"
        },
        {
          "internalType": "uint64",
          "name": "requestStart",
          "type": "uint64"
        },
        {
          "internalType": "uint64",
          "name": "requestEnd",
          "type": "uint64"
        },
        {
          "internalType": "address",
          "name": "trie",
          "type": "address"
        }
      ],
      "payable": false,
      "stateMutability": "view",
      "type": "function"
    },
    {
      "constant": true,
      "inputs": [],
      "name": "PREPARE_TIMEOUT",
      "outputs": [
        {
          "internalType": "uint256",
          "name": "",
          "type": "uint256"
        }
      ],
      "payable": false,
      "stateMutability": "view",
      "type": "function"
    },
    {
      "constant": true,
      "inputs": [],
      "name": "REQUEST_GAS",
      "outputs": [
        {
          "internalType": "uint256",
          "name": "",
          "type": "uint256"
        }
      ],
      "payable": false,
      "stateMutability": "view",
      "type": "function"
    },
    {
      "constant": true,
      "inputs": [
        {
          "internalType": "uint256",
          "name": "",
          "type": "uint256"
        }
      ],
      "name": "URBs",
      "outputs": [
        {
          "internalType": "bool",
          "name": "submitted",
          "type": "bool"
        },
        {
          "internalType": "uint64",
          "name": "numEnter",
          "type": "uint64"
        },
        {
          "internalType": "uint64",
          "name": "epochNumber",
          "type": "uint64"
        },
        {
          "internalType": "uint64",
          "name": "requestStart",
          "type": "uint64"
        },
        {
          "internalType": "uint64",
          "name": "requestEnd",
          "type": "uint64"
        },
        {
          "internalType": "address",
          "name": "trie",
          "type": "address"
        }
      ],
      "payable": false,
      "stateMutability": "view",
      "type": "function"
    },
    {
      "constant": true,
      "inputs": [],
      "name": "currentFork",
      "outputs": [
        {
          "internalType": "uint256",
          "name": "",
          "type": "uint256"
        }
      ],
      "payable": false,
      "stateMutability": "view",
      "type": "function"
    },
    {
      "constant": true,
      "inputs": [],
      "name": "development",
      "outputs": [
        {
          "internalType": "bool",
          "name": "",
          "type": "bool"
        }
      ],
      "payable": false,
      "stateMutability": "view",
      "type": "function"
    },
    {
      "constant": true,
      "inputs": [],
      "name": "epochHandler",
      "outputs": [
        {
          "internalType": "address",
          "name": "",
          "type": "address"
        }
      ],
      "payable": false,
      "stateMutability": "view",
      "type": "function"
    },
    {
      "constant": true,
      "inputs": [],
      "name": "etherToken",
      "outputs": [
        {
          "internalType": "address",
          "name": "",
          "type": "address"
        }
      ],
      "payable": false,
      "stateMutability": "view",
      "type": "function"
    },
    {
      "constant": true,
      "inputs": [
        {
          "internalType": "uint256",
          "name": "",
          "type": "uint256"
        }
      ],
      "name": "firstFilledORENumber",
      "outputs": [
        {
          "internalType": "uint256",
          "name": "",
          "type": "uint256"
        }
      ],
      "payable": false,
      "stateMutability": "view",
      "type": "function"
    },
    {
      "constant": true,
      "inputs": [
        {
          "internalType": "uint256",
          "name": "",
          "type": "uint256"
        }
      ],
      "name": "firstNonEmptyRequestEpoch",
      "outputs": [
        {
          "internalType": "uint256",
          "name": "",
          "type": "uint256"
        }
      ],
      "payable": false,
      "stateMutability": "view",
      "type": "function"
    },
    {
      "constant": true,
      "inputs": [
        {
          "internalType": "uint256",
          "name": "",
          "type": "uint256"
        }
      ],
      "name": "forks",
      "outputs": [
        {
          "internalType": "uint64",
          "name": "forkedBlock",
          "type": "uint64"
        },
        {
          "internalType": "uint64",
          "name": "firstEpoch",
          "type": "uint64"
        },
        {
          "internalType": "uint64",
          "name": "lastEpoch",
          "type": "uint64"
        },
        {
          "internalType": "uint64",
          "name": "firstBlock",
          "type": "uint64"
        },
        {
          "internalType": "uint64",
          "name": "lastBlock",
          "type": "uint64"
        },
        {
          "internalType": "uint64",
          "name": "lastFinalizedEpoch",
          "type": "uint64"
        },
        {
          "internalType": "uint64",
          "name": "lastFinalizedBlock",
          "type": "uint64"
        },
        {
          "internalType": "uint64",
          "name": "timestamp",
          "type": "uint64"
        },
        {
          "internalType": "uint64",
          "name": "firstEnterEpoch",
          "type": "uint64"
        },
        {
          "internalType": "uint64",
          "name": "lastEnterEpoch",
          "type": "uint64"
        },
        {
          "internalType": "uint64",
          "name": "nextBlockToRebase",
          "type": "uint64"
        },
        {
          "internalType": "bool",
          "name": "rebased",
          "type": "bool"
        }
      ],
      "payable": false,
      "stateMutability": "view",
      "type": "function"
    },
    {
      "constant": true,
      "inputs": [],
      "name": "isRootChain",
      "outputs": [
        {
          "internalType": "bool",
          "name": "",
          "type": "bool"
        }
      ],
      "payable": false,
      "stateMutability": "view",
      "type": "function"
    },
    {
      "constant": true,
      "inputs": [],
      "name": "lastAppliedBlockNumber",
      "outputs": [
        {
          "internalType": "uint256",
          "name": "",
          "type": "uint256"
        }
      ],
      "payable": false,
      "stateMutability": "view",
      "type": "function"
    },
    {
      "constant": true,
      "inputs": [],
      "name": "lastAppliedEpochNumber",
      "outputs": [
        {
          "internalType": "uint256",
          "name": "",
          "type": "uint256"
        }
      ],
      "payable": false,
      "stateMutability": "view",
      "type": "function"
    },
    {
      "constant": true,
      "inputs": [],
      "name": "lastAppliedForkNumber",
      "outputs": [
        {
          "internalType": "uint256",
          "name": "",
          "type": "uint256"
        }
      ],
      "payable": false,
      "stateMutability": "view",
      "type": "function"
    },
    {
      "constant": true,
      "inputs": [
        {
          "internalType": "uint256",
          "name": "",
          "type": "uint256"
        }
      ],
      "name": "lastNonEmptyRequestEpoch",
      "outputs": [
        {
          "internalType": "uint256",
          "name": "",
          "type": "uint256"
        }
      ],
      "payable": false,
      "stateMutability": "view",
      "type": "function"
    },
    {
      "constant": true,
      "inputs": [],
      "name": "numEnterForORB",
      "outputs": [
        {
          "internalType": "uint256",
          "name": "",
          "type": "uint256"
        }
      ],
      "payable": false,
      "stateMutability": "view",
      "type": "function"
    },
    {
      "constant": true,
      "inputs": [],
      "name": "operator",
      "outputs": [
        {
          "internalType": "address",
          "name": "",
          "type": "address"
        }
      ],
      "payable": false,
      "stateMutability": "view",
      "type": "function"
    },
    {
      "constant": true,
      "inputs": [
        {
          "internalType": "address",
          "name": "",
          "type": "address"
        }
      ],
      "name": "requestableContracts",
      "outputs": [
        {
          "internalType": "address",
          "name": "",
          "type": "address"
        }
      ],
      "payable": false,
      "stateMutability": "view",
      "type": "function"
    },
    {
      "constant": true,
      "inputs": [],
      "name": "seigManager",
      "outputs": [
        {
          "internalType": "address",
          "name": "",
          "type": "address"
        }
      ],
      "payable": false,
      "stateMutability": "view",
      "type": "function"
    },
    {
      "constant": true,
      "inputs": [],
      "name": "submitHandler",
      "outputs": [
        {
          "internalType": "address",
          "name": "",
          "type": "address"
        }
      ],
      "payable": false,
      "stateMutability": "view",
      "type": "function"
    },
    {
      "constant": false,
      "inputs": [],
      "name": "prepareToSubmitURB",
      "outputs": [],
      "payable": true,
      "stateMutability": "payable",
      "type": "function"
    },
    {
      "constant": false,
      "inputs": [],
      "name": "prepareORE",
      "outputs": [],
      "payable": true,
      "stateMutability": "payable",
      "type": "function"
    },
    {
      "constant": false,
      "inputs": [],
      "name": "prepareNRE",
      "outputs": [],
      "payable": true,
      "stateMutability": "payable",
      "type": "function"
    },
    {
      "constant": false,
      "inputs": [],
      "name": "prepareOREAfterURE",
      "outputs": [],
      "payable": true,
      "stateMutability": "payable",
      "type": "function"
    },
    {
      "constant": false,
      "inputs": [],
      "name": "prepareNREAfterURE",
      "outputs": [],
      "payable": true,
      "stateMutability": "payable",
      "type": "function"
    }
  ],
  "bytecode": "0x608060405234801561001057600080fd5b50600180546001600160a01b031916301790556127da806100326000396000f3fe6080604052600436106102465760003560e01c806394be3aa511610139578063c8ad329f116100b6578063e259faf71161007a578063e259faf71461074a578063e6925d081461075f578063e7b88b8014610767578063ea7f22a81461077c578063f4f31de4146107a6578063fb788a27146107d057610246565b8063c8ad329f146106c3578063ca6f6380146106d8578063d691acd81461024b578063da0185f814610702578063de0ce17d1461073557610246565b8063b6715647116100fd578063b6715647146105e5578063b8066bcb1461060f578063c0e8606414610624578063c2bc88fa14610699578063c54626cc146106ae57610246565b806394be3aa51461024b578063ab96da2d1461049f578063b17fa6e9146104b4578063b2ae9ba81461024b578063b443f3cc146104c957610246565b80634ba3a126116101c757806372ecb9a81161018b57806372ecb9a8146104215780637b929c271461044b5780638155717d146104605780638b5172d0146104755780638eb288ca1461048a57610246565b80634ba3a1261461032b5780635656225b146103cb578063570ca735146103d35780635e9ef4f3146104045780636fb7f5581461040c57610246565b8063183d2d1c1161020e578063183d2d1c146102ae578063192adc5b146102c357806323691566146102d85780632dc6bb7b146102ed578063420bb4b81461030257610246565b8063033cfbed1461024b57806303787fa21461027257806308c4fff01461027c57806312d87f0714610291578063164bc2ae14610299575b600080fd5b34801561025757600080fd5b506102606107e5565b60408051918252519081900360200190f35b61027a6107ef565b005b34801561028857600080fd5b50610260610972565b61027a610977565b3480156102a557600080fd5b50610260611173565b3480156102ba57600080fd5b50610260611179565b3480156102cf57600080fd5b5061026061117f565b3480156102e457600080fd5b50610260611189565b3480156102f957600080fd5b5061026061118f565b34801561030e57600080fd5b50610317611195565b604080519115158252519081900360200190f35b34801561033757600080fd5b506103556004803603602081101561034e57600080fd5b503561119a565b604080516001600160401b039d8e1681529b8d1660208d0152998c168b8b0152978b1660608b0152958a1660808a015293891660a089015291881660c0880152871660e0870152861661010086015285166101208501529093166101408301529115156101608201529051908190036101800190f35b61027a611211565b3480156103df57600080fd5b506103e86113eb565b604080516001600160a01b039092168252519081900360200190f35b61027a6113ff565b34801561041857600080fd5b506103e86115f6565b34801561042d57600080fd5b506102606004803603602081101561044457600080fd5b5035611605565b34801561045757600080fd5b50610317611617565b34801561046c57600080fd5b50610260611620565b34801561048157600080fd5b50610260611625565b34801561049657600080fd5b5061026061162f565b3480156104ab57600080fd5b50610260611636565b3480156104c057600080fd5b5061026061163c565b3480156104d557600080fd5b506104f3600480360360208110156104ec57600080fd5b5035611641565b604080516001600160401b038d1681528b15156020808301919091528b151592820192909252891515606082015288151560808201526001600160801b03881660a08201526001600160a01b0380881660c0830152861660e082015261010081018590526101208101849052610160610140820181815284519183019190915283519192909161018084019185019080838360005b838110156105a0578181015183820152602001610588565b50505050905090810190601f1680156105cd5780820380516001836020036101000a031916815260200191505b509c5050505050505050505050505060405180910390f35b3480156105f157600080fd5b506102606004803603602081101561060857600080fd5b5035611762565b34801561061b57600080fd5b506103e8611774565b34801561063057600080fd5b5061064e6004803603602081101561064757600080fd5b5035611783565b6040805196151587526001600160401b03958616602088015293851686850152918416606086015290921660808401526001600160a01b0390911660a0830152519081900360c00190f35b3480156106a557600080fd5b506102606117ea565b3480156106ba57600080fd5b506102606117ef565b3480156106cf57600080fd5b506102606117f5565b3480156106e457600080fd5b50610260600480360360208110156106fb57600080fd5b50356117fb565b34801561070e57600080fd5b506103e86004803603602081101561072557600080fd5b50356001600160a01b031661180d565b34801561074157600080fd5b506103e8611828565b34801561075657600080fd5b506103e861182d565b61027a61183c565b34801561077357600080fd5b506103e8611d45565b34801561078857600080fd5b5061064e6004803603602081101561079f57600080fd5b5035611d54565b3480156107b257600080fd5b506104f3600480360360208110156107c957600080fd5b5035611d61565b3480156107dc57600080fd5b50610260611d6e565b6509184e72a00081565b600654600081815260086020526040902090158061081857506002810154600160c01b900460ff165b61082157600080fd5b805460016001600160401b03600160801b90920482168101918216600081815260038501602052604090209190811461088857508254600160801b90046001600160401b039081166000908152600385016020526040902054600160401b90048116600101165b8154600160c81b60ff60c81b1990911617600160801b600160c01b031916600160801b426001600160401b0390811691909102919091176001600160401b03191682821617808455600554600160401b600160801b0319909116600160401b91840160001901831682021780855560065460408051918252878516602083015282851682820152928204909316606084015260006080840181905260a0840181905260c0840181905260e0840181905261010084015260ff600160e01b9091041615156101208301525160008051602061278683398151915291610140908290030190a150505050565b600f81565b60065460008181526008602052604090209015806109a057506002810154600160c01b900460ff165b6109a957600080fd5b8054600160801b908190046001600160401b03908116600181810180841660009081526003808801602052604080832091909501861682529381208454600160c81b60ff60c81b1990911617600160801b600160c01b0319164287169097029690961784558554600160d01b60ff60d01b19909116178655600d805487850180546001600160c01b0316600160c01b928916830217905591905591830154909492939190041615610af05760028401546001600160401b0316610a88576002840180546001600160401b0319166001600160401b038516179055610ac9565b600284810154600160401b90046001600160401b039081166000908152600387016020526040902090910180546001600160401b0319169185169190911790555b600284018054600160401b600160801b031916600160401b6001600160401b038616021790555b600654600090815260076020526040902054158015610b1857508154600160c01b900460ff16155b15610b3b5760065460009081526007602052604090206001600160401b03841690555b8154600090600160c01b900460ff16610b8557600180840154610b80916001600160401b03808316600160401b9093048116929092030116610b7b611d74565b611d79565b610b88565b60005b8354909150600160c01b900460ff1615610bef576001600160401b0360001985018116600090815260038701602052604090205484546001600160401b031916600160401b9182900483161791821602600160401b600160801b0319909116178355610c68565b6001600160401b03600019850181166000908152600387016020526040902054610c2991600160401b90910416600163ffffffff611db016565b8354600160401b600160801b03196001600160401b03199091166001600160401b0392831617908116600160401b918316840160001901909216021783555b6009541580610c9357506001830154600954600160401b9091046001600160401b0316600019909101145b15610caa57815460ff60c01b1916600160c01b1782555b8154600160c01b900460ff16610e89576006546000908152600760205260409020546001600160401b038516148015610ceb57508254600160e01b900460ff165b15610d4f576001808401805484830180546001600160401b03600160401b9093048316850183166001600160401b0319909116178082559254600160801b908190048316909401909116909202600160801b600160c01b0319909116179055610e84565b600654600090815260076020526040902054610db9576001808401805491840180546001600160401b0319166001600160401b03600160401b9094048416178082559154600160801b90819004909316909202600160801b600160c01b0319909116179055610e84565b8254600160c01b900460ff16610e29576001808401805484830180546001600160401b03600160401b909304831690940182166001600160401b0319909416939093178084559154600160801b908190048216850190911602600160801b600160c01b0319909116179055610e84565b6001808401805484830180546001600160401b03600160401b9093048316850183166001600160401b0319909116178082559254600160801b908190048316909401909116909202600160801b600160c01b03199091161790555b610f3c565b6001838101549083018054600160401b9092046001600160401b03166001600160401b03199092169190911790558254600160c01b900460ff16610f08576001838101549083018054600160801b600160c01b031916600160801b928390046001600160401b0390811685016000190116909202919091179055610f3c565b6001838101549083018054600160801b600160c01b031916600160801b928390046001600160401b03169092029190911790555b8254600160c01b900460ff16610fed576006546000908152600f6020526040902054610f80576006546000908152600f602052604090206001600160401b03851690555b6006546000908152600e60205260409020548015610fce57600081815260038701602052604090206002018054600160401b600160801b031916600160401b6001600160401b038816021790555b506006546000908152600e602052604090206001600160401b03851690555b8154600160c01b900460ff161561102b57600182018054600160401b6001600160401b03821602600160401b600160801b0319909116179055611099565b60095460018381018054600160401b600160801b031916600160401b6000199094016001600160401b03169390930292909217909155600b805461106f9083611dce565b8154811061107957fe5b60009182526020909120600290910201805460ff19169115159190911790555b6006548354600180860154604080519485526001600160401b03808a16602087015280851686830152600160401b80860482166060880152838216608088015290920490911660a085015260ff600160c01b84048116151560c086015260e08501929092526000610100850152600160e01b90920416151561012083015251600080516020612786833981519152918190036101400190a18254600160c01b900460ff161561116c578454600160801b600160c01b031916600160801b6001600160401b0386160217855561116c6107ef565b5050505050565b60105481565b60065481565b6551dac207a00081565b600d5481565b60135481565b600181565b6008602052600090815260409020805460018201546002909201546001600160401b0380831693600160401b808504831694600160801b808204851695600160c01b92839004861695858116958581048216958482048316959182900483169484841694918204841693908204169160ff9104168c565b6006546000818152600860208190526040822092611251918491849061123e90600163ffffffff611dce16565b8152602001908152602001600020611de3565b825460065460016001600160401b03600160801b90930483168101808416600081815260038901602090815260408083205481519788529187019390935290951684820152606084018590526080840185905260a0840185905285151560c085015260e0840185905261010084019490945261012083019190915291519293509091600080516020612786833981519152918190036101400190a181156113e6576001808401546001600160401b03838116600081815260038801602090815260408083208054600160401b9787168802600160401b600160801b03199091161781558a54600160801b8602600160801b600160c01b0319909116178b5560028b01805460ff60c01b1916600160c01b1790556006548154918901548351918252938101959095528086168583015286900485166060850152818516608085015294900490921660a082015260c081019390935260e08301819052610100830152517f030c1c69405c93021f28f57557240dee939a320b826a1fd0d39bf6e629ecab47918190036101200190a16113e66107ef565b505050565b60005461010090046001600160a01b031681565b6006546000818152600860208190526040822092611441918491849061142c90600163ffffffff611dce16565b8152602001908152602001600020600b6120a5565b8254909150600160801b90046001600160401b03166001018161147c5760065460009081526007602052604090206001600160401b03821690555b6006546001600160401b0380831660008181526003870160209081526040808320805460019182015483519889529388019590955284861687830152600160401b948590048616606088015282861660808801529390910490931660a085015285151560c085015260e0840182905261010084015261012083015251600080516020612786833981519152918190036101400190a181156113e6576001808401546001600160401b03838116600081815260038801602090815260408083208054600160401b9787168802600160401b600160801b03199091161781558a54600160801b8602600160801b600160c01b0319909116178b556006548154918901548351918252938101959095528086168583015286900485166060850152818516608085015294900490921660a082015260c0810184905260e0810193909352610100830152517f030c1c69405c93021f28f57557240dee939a320b826a1fd0d39bf6e629ecab47918190036101200190a16113e6611211565b6004546001600160a01b031681565b60076020526000908152604090205481565b60005460ff1681565b600a81565b6512309ce5400081565b620186a081565b60055481565b601481565b6009818154811061164e57fe5b6000918252602091829020600691909102018054600180830154600280850154600386015460048701546005880180546040805161010099831615999099026000190190911695909504601f81018b90048b0288018b019095528487526001600160401b0388169a50600160401b880460ff9081169a600160481b8a0482169a600160501b8b0483169a600160581b810490931699600160601b9093046001600160801b0316986001600160a01b03908116989716969093918301828280156117585780601f1061172d57610100808354040283529160200191611758565b820191906000526020600020905b81548152906001019060200180831161173b57829003601f168201915b505050505090508b565b600e6020526000908152604090205481565b6003546001600160a01b031681565b600c818154811061179057fe5b60009182526020909120600290910201805460019091015460ff821692506001600160401b036101008304811692600160481b8104821692600160881b9091048216918116906001600160a01b03600160401b9091041686565b603c81565b60145481565b60115481565b600f6020526000908152604090205481565b6015602052600090815260409020546001600160a01b031681565b600081565b6002546001600160a01b031681565b600654600081815260086020908152604080832060018086018552828520818301805484546001600160401b03600160801b928390048116860181166001600160401b0319909216919091178087558454600160c01b91831682026001600160c01b039182161780875582810484168c52600489018b52898c2054600160401b9085168102600160401b600160801b03199092169190911781810485168602600160801b600160c01b031991821617808955965498880180544287169586029a8890048716880290831617909316989098179091559093041688526003830190965293909520805460ff60d81b1960ff60d01b199590960260ff60c81b19909116600160c81b179092169190911792909216600160d01b1792909216600160d81b178155909215908161199f5783546001600160401b03600160401b918290048116600090815260038701602052604090206001908101549290920416016119a2565b60005b6001820180546001600160401b0319166001600160401b0392831617808255600a54600160401b600160801b0319909116600160401b60001990920184168202179182905581048216911611156119f557fe5b6001810154600090611a1a906001600160401b0380821691600160401b90041661249b565b845483546001600160401b0319166001600160401b03600160c01b909204821617808555919250611a6e91600191611a5991168463ffffffff611db016565b6001600160401b03169063ffffffff6124d516565b82546001600160401b0391909116600160401b02600160401b600160801b031990911617825582611b355784546001600160401b03600160401b9182900481166000908152600388016020526040902054611b3092611af492600192611adf9281048216911663ffffffff6124d516565b6001600160401b03169063ffffffff611db016565b86546001600160401b03600160401b90910481166000908152600389016020526040902060010154600160801b9004169063ffffffff611db016565b611b38565b60005b6001830180546001600160401b0392909216600160801b02600160801b600160c01b031990921691909117905560005b816001600160401b0316816001600160401b03161015611c945782546001906004870190600090611ba8906001600160401b03168563ffffffff611db016565b6001600160401b03908116825260208201929092526040016000908120600501805460ff191693151593909317909255845460019260048901929091611bef911685611db0565b6001600160401b0390811682526020820192909252604001600090812060050180549315156101000261ff00199094169390931790925560018501548554600160801b909104821684019260048901929091611c5291168563ffffffff611db016565b6001600160401b03908116825260208201929092526040016000208054600160401b600160801b031916600160401b9390921692909202179055600101611b68565b5060065484548354600185810154604080519290950182526001600160401b03600160401b94859004811660208401528381168387015284840481166060840152818116608084015293900490921660a0830152600060c083015260ff600160d01b82048116151560e0840152600160d81b820481161515610100840152600160e01b9091041615156101208201529051600080516020612786833981519152918190036101400190a15050505050565b6001546001600160a01b031681565b600b818154811061179057fe5b600a818154811061164e57fe5b60125481565b601490565b6000818381611d8457fe5b0615611d9c57818381611d9357fe5b04600101611da7565b818381611da557fe5b045b90505b92915050565b60008282016001600160401b038085169082161015611da757600080fd5b600082821115611ddd57600080fd5b50900390565b6002820154600090600160c01b900460ff1615611dff57600080fd5b8254600160801b90046001600160401b0316600090815260038401602052604090208054600160e01b900460ff168015611e4157508054600160d01b900460ff165b8015611e5657508054600160d81b900460ff16155b611e5f57600080fd5b5060018381015484546001600160401b03600160801b91829004811660009081526003808901602081815260408085208054600160401b600160801b031916988716600160401b02989098179097558a548a548616855260048b0182528785205490879004861690980180861685529181528684208054600160e01b600160c81b60ff60c81b199092169190911760ff60e01b191617600160801b600160c01b031916428716909702969096178655969093168083529088019095529283205491939092909160ff600160d01b9091041615611f3e5781600101611f40565b815b6000818152600388016020526040902054909150600160c81b900460ff16611fca575050506001848101805483546001600160401b039182166001600160401b0319909116178085559154600160c01b600160401b600160801b03199093169116600160401b021760ff60c01b199081168217909355600286018054909316179091559050611daa565b6000818152600387016020526040902054600160d01b900460ff1615611fec57fe5b60018781015461200d916001600160401b039091169063ffffffff611db016565b84546001600160401b0319166001600160401b039190911617845581811461204e5760008181526003870160205260409020546001600160401b031661205a565b85546001600160401b03165b600288018054600160801b600160c01b031916600160801b6001600160401b0393841681029190911791829055885483169104909116101561209857fe5b5060009695505050505050565b6002830154600090600160c01b900460ff16156120c157600080fd5b8354600160801b90046001600160401b0316600090815260038501602052604090208054600160d01b900460ff16801561210357508054600160d81b900460ff165b61210c57600080fd5b50835483546001600160401b039081166000908152600486016020908152604080832054600160801b95869004851660010180861685526003808c0185528386208054600160e01b600160d01b600160c81b60ff60c81b199093169290921760ff60d01b1916821760ff60e01b191617600160801b600160c01b031916428a16909a0299909917815592909616808652958a019093529083205490949193929160ff9104166121be57816001016121c0565b815b90506121ca6124f6565b600187018054600160401b600160801b031916600160401b6001600160401b0393841602176001600160401b03191692821692909217600160801b600160c01b031916600160801b93909116929092029190911790556000818152600388016020526040902054600160c81b900460ff166122a0575050815460ff60c01b1916600160c01b17808355600187810180546001600160401b03199093166001600160401b03938416178086559054600160401b931692909202600160401b600160801b031990921691909117909255509050612494565b6000818152600388016020526040902054600160d01b900460ff166122c157fe5b60028701548454600160c01b6001600160401b03600160401b909304929092168411820260ff60c01b19909116178086550460ff1615612344575050506001808601805483546001600160401b0319166001600160401b03918216178085559154600160401b911602600160401b600160801b0319909116179091559050612494565b805b6000828152600389016020526040902060010154600160c01b90046001600160401b031661237657600201612346565b600189810154612397916001600160401b039091169063ffffffff611db016565b85546001600160401b0319166001600160401b03918216178655600082815260038a016020908152604080832054841680845260048d019092528220548a5491938b92600160401b909204169081106123ec57fe5b906000526020600020906002020190505b805461010090046001600160401b031661245d57600191909101600081815260048b01602052604090205489549192918a91600160401b90046001600160401b031690811061244857fe5b906000526020600020906002020190506123fd565b5060028a0180546001600160401b03909216600160801b02600160801b600160c01b03199092169190911790555060009450505050505b9392505050565b6000611da76124a8611d74565b6124c960016124bd868863ffffffff611dce16565b9063ffffffff61273716565b9063ffffffff611d7916565b6000826001600160401b0316826001600160401b03161115611ddd57600080fd5b6000806000806125126001600654611dce90919063ffffffff16565b90505b60008181526008602052604081209061252d82612749565b82546001600160401b03600160801b90910481166001018116600090815260038501602052604081205492909116925090600160d01b900460ff16612583578254600160801b90046001600160401b0316612599565b8254600160801b90046001600160401b03166001015b6001600160401b031690505b80821115612653576125be84600163ffffffff611dce16565b600081815260086020526040902090945092506125da83612749565b83546001600160401b03600160801b90910481166001018116600090815260038601602052604090205491169250600160d01b900460ff1661262d578254600160801b90046001600160401b0316612643565b8254600160801b90046001600160401b03166001015b6001600160401b031690506125a5565b6000818152600384016020526040902054600160c81b900460ff16156127175782546001600160401b0390811660009081526004850160209081526040808320549093168083526003870190915291902054600160d01b900460ff166126b7576001015b6000908152600384016020908152604080832093835280832080546001600160401b0390811685526004909701909252909120546001928301549290910154600160401b9182900485169850918416965090049091169250612732915050565b61272884600163ffffffff611dce16565b9350505050612515565b909192565b600082820183811015611da757600080fd5b80546000906001600160401b031661276057600080fd5b5080546001600160401b0390811660009081526004830160205260409020541691905056fe1a69c0760aa329b76f72579129869013ebd3d41594db019c0e997b939fcb32e3a265627a7a72315820c48bb213926e3607de047bdbbe91134dc7b74fa76fefa48324c472743cd03b0364736f6c634300050c0032",
  "source": "pragma solidity ^0.5.12;\n\nimport \"../lib/SafeMath.sol\";\nimport \"../lib/Math.sol\";\nimport \"../lib/Data.sol\";\nimport \"../lib/Address.sol\";\nimport \"../lib/BMT.sol\";\n\nimport \"../RootChainStorage.sol\";\nimport \"../RootChainEvent.sol\";\n\n\ncontract EpochHandler is RootChainStorage, RootChainEvent {\n  using SafeMath for uint;\n  using SafeMath for uint64;\n  using Math for *;\n  using Data for *;\n  using Address for address;\n  using BMT for *;\n\n  constructor() public {\n    epochHandler = address(this);\n  }\n\n  /**\n   * @notice Declare to submit URB.\n   */\n  function prepareToSubmitURB() public payable {\n    Data.Fork storage cur = forks[currentFork];\n    Data.Fork storage next = forks[currentFork + 1];\n\n    bool firstUAF = currentFork == 0;\n\n    cur.forkedBlock = cur.lastFinalizedBlock + 1;\n    next.firstBlock = cur.forkedBlock;\n    next.firstEpoch = cur.blocks[next.firstBlock].epochNumber;\n\n    next.lastEpoch = next.firstEpoch;\n    next.lastFinalizedBlock = cur.lastFinalizedBlock;\n    next.timestamp = uint64(block.timestamp);\n\n    // prepare URE\n    Data.Epoch storage epoch = next.epochs[next.firstEpoch];\n\n    epoch.initialized = true;\n    epoch.timestamp = uint64(block.timestamp);\n    epoch.isRequest = true;\n    epoch.userActivated = true;\n\n    epoch.RE.requestStart = firstUAF ? 0 : cur.epochs[cur.firstEpoch].RE.requestEnd + 1;\n    epoch.RE.requestEnd = uint64(ERUs.length - 1);\n\n    assert(epoch.RE.requestStart <= epoch.RE.requestEnd);\n\n    uint64 numBlocks = uint64(Data.calcNumBlock(epoch.RE.requestStart, epoch.RE.requestEnd));\n    epoch.startBlockNumber = next.firstBlock;\n    epoch.endBlockNumber = epoch.startBlockNumber\n      .add64(numBlocks)\n      .sub64(1);\n\n    epoch.RE.firstRequestBlockId = firstUAF ? 0 :\n      cur.epochs[cur.firstEpoch].RE.firstRequestBlockId\n        .add64(\n          cur.epochs[cur.firstEpoch].endBlockNumber\n            .sub64(cur.epochs[cur.firstEpoch].startBlockNumber)\n            .add64(1)\n        ); // solium-disable-line indentation\n\n    // TODO: It would be better to store the data in RequestBlock, reducing 3 SSTORE to 1 SSTORE\n    for (uint64 i = 0; i < numBlocks; i++) {\n      next.blocks[epoch.startBlockNumber.add64(i)].isRequest = true;\n      next.blocks[epoch.startBlockNumber.add64(i)].userActivated = true;\n      next.blocks[epoch.startBlockNumber.add64(i)].requestBlockId = epoch.RE.firstRequestBlockId + i;\n    }\n\n    emit EpochPrepared(\n      currentFork + 1,\n      next.firstEpoch,\n      epoch.startBlockNumber,\n      epoch.endBlockNumber,\n      epoch.RE.requestStart,\n      epoch.RE.requestEnd,\n      false,\n      epoch.isRequest,\n      epoch.userActivated,\n      epoch.rebase\n    );\n\n    return;\n  }\n\n  /**\n   * @notice prepare to submit ORB. It prevents further new requests from\n   * being included in the ORB epoch.\n   */\n  function prepareORE() public payable {\n    Data.Fork storage fork = forks[currentFork];\n\n    require(currentFork == 0 || fork.rebased);\n\n    uint64 epochNumber = fork.lastEpoch + 1;\n    Data.Epoch storage epoch = fork.epochs[epochNumber];\n    Data.Epoch storage nextRequestEpoch = fork.epochs[epochNumber + 2];\n\n    epoch.initialized = true;\n    epoch.timestamp = uint64(block.timestamp);\n\n    nextRequestEpoch.isRequest = true;\n    nextRequestEpoch.RE.numEnter = uint64(numEnterForORB);\n    numEnterForORB = 0;\n\n    // link first enter epoch and last enter epoch\n    if (epoch.RE.numEnter > 0) {\n      if (fork.firstEnterEpoch == 0) {\n        // NOTE: If chain is forked before the first block of the epoch is submitted,\n        //       then fork.firstEnterEpoch > fork.lastEpoch\n        fork.firstEnterEpoch = epochNumber;\n      } else {\n        fork.epochs[fork.lastEnterEpoch].RE.nextEnterEpoch = epochNumber;\n      }\n      fork.lastEnterEpoch = epochNumber;\n    }\n\n    // set if this epoch is the first ORE.\n    if (firstFilledORENumber[currentFork] == 0 && !epoch.isEmpty) {\n      firstFilledORENumber[currentFork] = epochNumber;\n    }\n\n    uint64 numBlocks = epoch.isEmpty\n      ? 0\n      : uint64(Math.divCeil(epoch.RE.requestEnd - epoch.RE.requestStart + 1, Data.MAX_REQUESTS()));\n\n    // set epoch's start and end block number\n    if (epoch.isEmpty) {\n      epoch.startBlockNumber = fork.epochs[epochNumber - 1].endBlockNumber;\n      epoch.endBlockNumber = epoch.startBlockNumber;\n    } else {\n      epoch.startBlockNumber = fork.epochs[epochNumber - 1].endBlockNumber.add64(1);\n      epoch.endBlockNumber = uint64(epoch.startBlockNumber + numBlocks - 1);\n    }\n\n    // check if next request epoch is empty\n    if (EROs.length == 0 || EROs.length - 1 == uint(epoch.RE.requestEnd)) {\n      nextRequestEpoch.isEmpty = true;\n    }\n\n    // set next request epoch's  start and end request id\n    if (!nextRequestEpoch.isEmpty) {\n      if (firstFilledORENumber[currentFork] == epochNumber && epoch.rebase) {\n        nextRequestEpoch.RE.requestStart = epoch.RE.requestEnd + 1;\n        nextRequestEpoch.RE.firstRequestBlockId = epoch.RE.firstRequestBlockId + 1;\n      } else if (firstFilledORENumber[currentFork] == 0) {\n        nextRequestEpoch.RE.requestStart = epoch.RE.requestEnd;\n        nextRequestEpoch.RE.firstRequestBlockId = epoch.RE.firstRequestBlockId;\n      } else if (!epoch.isEmpty) {\n        nextRequestEpoch.RE.requestStart = epoch.RE.requestEnd + 1;\n        nextRequestEpoch.RE.firstRequestBlockId = epoch.RE.firstRequestBlockId + numBlocks;\n      } else {\n        nextRequestEpoch.RE.requestStart = epoch.RE.requestEnd + 1;\n        nextRequestEpoch.RE.firstRequestBlockId = epoch.RE.firstRequestBlockId + 1;\n      }\n    } else {\n      nextRequestEpoch.RE.requestStart = epoch.RE.requestEnd;\n\n      if (!epoch.isEmpty) {\n        nextRequestEpoch.RE.firstRequestBlockId = epoch.RE.firstRequestBlockId + numBlocks - 1;\n      } else {\n        nextRequestEpoch.RE.firstRequestBlockId = epoch.RE.firstRequestBlockId;\n      }\n    }\n\n    if (!epoch.isEmpty) {\n      if (firstNonEmptyRequestEpoch[currentFork] == 0) {\n        firstNonEmptyRequestEpoch[currentFork] = epochNumber;\n      }\n\n      uint lastEpochNumber = lastNonEmptyRequestEpoch[currentFork];\n      if (lastEpochNumber != 0) {\n        fork.epochs[lastEpochNumber].RE.nextEpoch = epochNumber;\n      }\n      lastNonEmptyRequestEpoch[currentFork] = epochNumber;\n    }\n\n    // check next request block is empty\n    if (nextRequestEpoch.isEmpty) {\n      nextRequestEpoch.RE.requestEnd = nextRequestEpoch.RE.requestStart;\n    } else {\n      nextRequestEpoch.RE.requestEnd = uint64(EROs.length - 1);\n\n      // seal last ORB for next request epoch\n      ORBs[ORBs.length.sub(1)].submitted = true;\n    }\n\n    emit EpochPrepared(\n      currentFork,\n      epochNumber,\n      epoch.startBlockNumber,\n      epoch.endBlockNumber,\n      epoch.RE.requestStart,\n      epoch.RE.requestEnd,\n      epoch.isEmpty,\n      true,\n      false,\n      epoch.rebase\n    );\n\n    // no ORB to submit\n    if (epoch.isEmpty) {\n      fork.lastEpoch = epochNumber;\n      prepareNRE();\n    }\n  }\n\n  function prepareNRE() public payable {\n    Data.Fork storage fork = forks[currentFork];\n\n    require(currentFork == 0 || fork.rebased);\n\n    uint64 epochNumber = fork.lastEpoch + 1;\n    Data.Epoch storage epoch = fork.epochs[epochNumber];\n\n    uint startBlockNumber = 1;\n\n    if (epochNumber != 1) {\n      startBlockNumber = fork.epochs[fork.lastEpoch].endBlockNumber + 1;\n    }\n\n    epoch.initialized = true;\n    epoch.timestamp = uint64(block.timestamp);\n\n    epoch.startBlockNumber = uint64(startBlockNumber);\n    epoch.endBlockNumber = uint64(startBlockNumber + NRELength - 1);\n\n    emit EpochPrepared(\n      currentFork,\n      epochNumber,\n      epoch.startBlockNumber,\n      epoch.endBlockNumber,\n      0,\n      0,\n      false,\n      false,\n      false,\n      epoch.rebase\n    );\n  }\n\n  function prepareOREAfterURE() public payable  {\n    Data.Fork storage _f = forks[currentFork];\n    bool isOREEmpty = _prepareOREAfterURE(_f, forks[currentFork.sub(1)], ORBs);\n    uint64 epochNumber = _f.lastEpoch + 1;\n    if (!isOREEmpty) {\n      firstFilledORENumber[currentFork] = epochNumber;\n    }\n\n    emit EpochPrepared(\n      currentFork,\n      epochNumber,\n      _f.epochs[epochNumber].startBlockNumber,\n      _f.epochs[epochNumber].endBlockNumber,\n      _f.epochs[epochNumber].RE.requestStart,\n      _f.epochs[epochNumber].RE.requestEnd,\n      isOREEmpty,\n      true,\n      false,\n      true\n    );\n\n    if (isOREEmpty) {\n      // set end block number of ORE' because it is 0. see EpochPrepared event.\n      _f.epochs[epochNumber].endBlockNumber = _f.lastBlock;\n      _f.lastEpoch = epochNumber;\n\n      emit EpochRebased(\n        currentFork,\n        epochNumber,\n        _f.epochs[epochNumber].startBlockNumber,\n        _f.epochs[epochNumber].endBlockNumber,\n        _f.epochs[epochNumber].RE.requestStart,\n        _f.epochs[epochNumber].RE.requestEnd,\n        true,\n        true,\n        false\n      );\n\n      prepareNREAfterURE();\n    }\n  }\n\n  /**\n   * @notice get latest ORE, ORE' info\n   */\n  function _getLatestRequestInfo()\n    internal\n    returns (\n      uint64 requestBlockId,\n      uint64 requestStart,\n      uint64 requestEnd\n    )\n  {\n    uint forkNumber = currentFork.sub(1);\n\n    while (true) {\n      Data.Fork storage fork = forks[forkNumber];\n\n      uint forkedEpochNumber = fork.getForkedEpoch();\n      uint latestRequestEpochNumber = fork.epochs[fork.lastEpoch + 1].isRequest ?\n        fork.lastEpoch + 1 :\n        fork.lastEpoch;\n\n      while (forkedEpochNumber > latestRequestEpochNumber) {\n        forkNumber = forkNumber.sub(1);\n        fork = forks[forkNumber];\n        forkedEpochNumber = fork.getForkedEpoch();\n        latestRequestEpochNumber = fork.epochs[fork.lastEpoch + 1].isRequest ?\n        fork.lastEpoch + 1 :\n        fork.lastEpoch;\n      }\n\n      if (fork.epochs[latestRequestEpochNumber].initialized) {\n        uint firstRequestEpochNumber = fork.blocks[fork.forkedBlock].epochNumber;\n\n        if (!fork.epochs[firstRequestEpochNumber].isRequest) {\n          firstRequestEpochNumber += 1;\n        }\n\n        Data.Epoch storage firstRequestEpoch = fork.epochs[firstRequestEpochNumber];\n        Data.Epoch storage latestRequestEpoch = fork.epochs[latestRequestEpochNumber];\n\n        return (\n          fork.blocks[latestRequestEpoch.startBlockNumber].requestBlockId,\n          firstRequestEpoch.RE.requestStart,\n          latestRequestEpoch.RE.requestEnd\n        );\n      }\n\n      forkNumber = forkNumber.sub(1);\n    }\n  }\n\n  function prepareNREAfterURE() public payable  {\n    Data.Fork storage _f = forks[currentFork];\n    bool isNREEmpty = _prepareNREAfterURE(_f, forks[currentFork.sub(1)]);\n    uint64 epochNumber = _f.lastEpoch + 1;\n\n    emit EpochPrepared(\n      currentFork,\n      epochNumber,\n      _f.epochs[epochNumber].startBlockNumber,\n      0,\n      0,\n      0,\n      isNREEmpty,\n      false,\n      false,\n      true\n    );\n\n    if (isNREEmpty) {\n      // set end block number of NRE' because it is 0. see EpochPrepared event.\n      _f.epochs[epochNumber].endBlockNumber = _f.lastBlock;\n      _f.lastEpoch = epochNumber;\n      _f.rebased = true;\n\n      emit EpochRebased(\n        currentFork,\n        epochNumber,\n        _f.epochs[epochNumber].startBlockNumber,\n        _f.epochs[epochNumber].endBlockNumber,\n        _f.epochs[epochNumber].RE.requestStart,\n        _f.epochs[epochNumber].RE.requestEnd,\n        true,\n        false,\n        false\n      );\n      prepareNRE();\n    }\n  }\n\n  /**\n   * @notice Prepare ORE'. return true if ORE' is empty\n   */\n  function _prepareOREAfterURE(\n    Data.Fork storage _cur,\n    Data.Fork storage _pre,\n    Data.RequestBlock[] storage _rbs\n  ) internal returns (bool isEmpty) {\n    require(!_cur.rebased);\n\n    Data.Epoch storage epoch = _cur.epochs[_cur.lastEpoch];\n\n    // check preivous URE\n    require(epoch.isRequest && epoch.userActivated);\n\n    uint64 epochNumber = _cur.lastEpoch + 1;\n\n    uint forkedEpochNumber = _pre.blocks[_pre.forkedBlock].epochNumber;\n\n    // prepare ORE' which covers all ORBs in previous fork but excludes exit requests.\n    epoch = _cur.epochs[epochNumber];\n\n    epoch.initialized = true;\n    epoch.isRequest = true;\n    epoch.rebase = true;\n    epoch.timestamp = uint64(block.timestamp);\n\n    uint firstEpochNumber = _pre.epochs[forkedEpochNumber].isRequest ?\n      forkedEpochNumber :\n      forkedEpochNumber + 1;\n\n    // find requestBlockId, start, end\n    (epoch.RE.firstRequestBlockId, epoch.RE.requestStart, epoch.RE.requestEnd) = _getLatestRequestInfo();\n\n    // short circuit if there is no ORE at all.\n    if (!_pre.epochs[firstEpochNumber].initialized) {\n      epoch.isEmpty = true;\n      epoch.startBlockNumber = _cur.lastBlock;\n      epoch.endBlockNumber = _cur.lastBlock;\n      return true;\n    }\n\n    assert(_pre.epochs[firstEpochNumber].isRequest);\n\n    epoch.isEmpty = forkedEpochNumber > _pre.lastEnterEpoch;\n\n    // short circut if the epoch is empty\n    if (epoch.isEmpty) {\n      // get ready to prepare NRE'\n      epoch.startBlockNumber = _cur.lastBlock;\n      epoch.endBlockNumber = _cur.lastBlock;\n      return true;\n    }\n\n    // find next ORB to include into forked chain if ORE' is not empty\n    uint firstEnterEpoch = firstEpochNumber;\n    while (_pre.epochs[firstEpochNumber].RE.numEnter == 0) {\n      firstEnterEpoch += 2;\n    }\n\n    epoch.startBlockNumber = _cur.lastBlock.add64(1);\n\n    uint preBlockNumber = _pre.epochs[firstEnterEpoch].startBlockNumber;\n\n    Data.RequestBlock storage preRB = _rbs[_pre.blocks[preBlockNumber].requestBlockId];\n\n    while (preRB.numEnter == 0) {\n      preBlockNumber += 1;\n      preRB = _rbs[_pre.blocks[preBlockNumber].requestBlockId];\n    }\n\n    _cur.nextBlockToRebase = uint64(preBlockNumber);\n\n    return false;\n  }\n\n  /**\n   * @notice Prepare NRE'. return true if NRE' is empty\n   */\n  function _prepareNREAfterURE(\n    Data.Fork storage _cur,\n    Data.Fork storage _pre\n  ) internal returns (bool isEmpty) {\n    require(!_cur.rebased);\n    Data.Epoch storage epoch = _cur.epochs[_cur.lastEpoch];\n\n    require(epoch.rebase && epoch.isRequest && !epoch.userActivated);\n\n    // set end block number of ORE' because it is 0. see EpochPrepared event.\n    _cur.epochs[_cur.lastEpoch].endBlockNumber = _cur.lastBlock;\n\n    uint64 epochNumber = _cur.lastEpoch + 1;\n\n    uint forkedEpochNumber = _pre.blocks[_pre.forkedBlock].epochNumber;\n\n    // prepare NRE'\n    epoch = _cur.epochs[epochNumber];\n\n    epoch.initialized = true;\n    epoch.rebase = true;\n    epoch.timestamp = uint64(block.timestamp);\n\n    uint previousNRENumber = !_pre.epochs[forkedEpochNumber].isRequest ?\n      forkedEpochNumber :\n      forkedEpochNumber + 1;\n\n    // short circuit if there is no NRE to rebase at all.\n    if (!_pre.epochs[previousNRENumber].initialized) {\n      epoch.startBlockNumber = _cur.lastBlock;\n      epoch.endBlockNumber = _cur.lastBlock;\n      epoch.isEmpty = true;\n      _cur.rebased = true;\n      return true;\n    }\n\n    assert(!_pre.epochs[previousNRENumber].isRequest);\n\n    epoch.startBlockNumber = _cur.lastBlock.add64(1);\n    _cur.nextBlockToRebase = previousNRENumber == forkedEpochNumber ?\n      _pre.forkedBlock :\n      _pre.epochs[previousNRENumber].startBlockNumber;\n\n    assert(_cur.nextBlockToRebase >= _pre.forkedBlock);\n    return false;\n  }\n}",
  "sourcePath": "/Users/pjh/workspace/go/src/github.com/Onther-Tech/plasma-evm/contracts/plasma/plasma-evm-cotracts/contracts/handlers/EpochHandler.sol",
  "compiler": {
    "name": "solc",
    "version": "0.5.12+commit.7709ece9.Emscripten.clang"
  },
  "schemaVersion": "3.0.23",
  "updatedAt": "2020-02-13T05:01:23.668Z",
  "devdoc": {
    "methods": {}
  },
  "userdoc": {
    "methods": {
      "prepareORE()": {
        "notice": "prepare to submit ORB. It prevents further new requests from being included in the ORB epoch."
      },
      "prepareToSubmitURB()": {
        "notice": "Declare to submit URB."
      }
    }
  }
}