{
  "contractName": "ReceiptMock",
  "abi": [
    {
      "constant": true,
      "inputs": [],
      "name": "receipt",
      "outputs": [
        {
          "internalType": "uint64",
          "name": "status",
          "type": "uint64"
        },
        {
          "internalType": "uint64",
          "name": "cumulativeGasUsed",
          "type": "uint64"
        },
        {
          "internalType": "bytes",
          "name": "bloom",
          "type": "bytes"
        }
      ],
      "payable": false,
      "stateMutability": "view",
      "type": "function"
    },
    {
      "constant": true,
      "inputs": [],
      "name": "get",
      "outputs": [
        {
          "internalType": "uint64",
          "name": "status",
          "type": "uint64"
        },
        {
          "internalType": "uint64",
          "name": "cumulativeGasUsed",
          "type": "uint64"
        },
        {
          "internalType": "bytes",
          "name": "bloom",
          "type": "bytes"
        }
      ],
      "payable": false,
      "stateMutability": "view",
      "type": "function"
    },
    {
      "constant": false,
      "inputs": [
        {
          "internalType": "bytes",
          "name": "receiptData",
          "type": "bytes"
        }
      ],
      "name": "set",
      "outputs": [],
      "payable": false,
      "stateMutability": "nonpayable",
      "type": "function"
    },
    {
      "constant": true,
      "inputs": [
        {
          "internalType": "bytes",
          "name": "receiptData",
          "type": "bytes"
        }
      ],
      "name": "toReceiptStatus",
      "outputs": [
        {
          "internalType": "uint256",
          "name": "",
          "type": "uint256"
        }
      ],
      "payable": false,
      "stateMutability": "view",
      "type": "function"
    }
  ],
  "bytecode": "0x608060405234801561001057600080fd5b5061098e806100206000396000f3fe608060405234801561001057600080fd5b506004361061004c5760003560e01c80630399321e14610051578063552b2945146100665780636d4ce63c1461008f578063e1e6b898146100a6575b600080fd5b61006461005f3660046107c5565b6100ae565b005b6100796100743660046107c5565b610128565b6040516100869190610852565b60405180910390f35b61009761013b565b60405161008693929190610866565b6100976101ea565b6100b661064c565b6100bf82610298565b80516000805460208085015167ffffffffffffffff1990921667ffffffffffffffff948516176fffffffffffffffff00000000000000001916600160401b949092169390930217905560408201518051929350610123926001929190910190610672565b505050565b60006101338261036d565b90505b919050565b60005460018054604080516020600261010085871615026000190190941693909304601f810184900484028201840190925281815267ffffffffffffffff80861695600160401b90041693606093919290918301828280156101de5780601f106101b3576101008083540402835291602001916101de565b820191906000526020600020905b8154815290600101906020018083116101c157829003601f168201915b50505050509050909192565b6000805460018054604080516020601f60026000198688161561010002019095169490940493840181900481028201810190925282815267ffffffffffffffff80861696600160401b9096041694939092909183018282801561028e5780601f106102635761010080835404028352916020019161028e565b820191906000526020600020905b81548152906001019060200180831161027157829003601f168201915b5050505050905083565b6102a061064c565b60606102bc60046102b085610398565b9063ffffffff6103bb16565b90506102db816000815181106102ce57fe5b6020026020010151610448565b67ffffffffffffffff16825280516102fa90829060019081106102ce57fe5b67ffffffffffffffff1660208301528051610329908290600290811061031c57fe5b602002602001015161046c565b604080840191909152805160008082526020820190925290610361565b61034e6106f0565b8152602001906001900390816103465790505b50606083015250919050565b6000606061037f60046102b085610398565b9050610391816000815181106102ce57fe5b9392505050565b6103a061071a565b50805160408051808201909152602092830181529182015290565b6060816040519080825280602002602001820160405280156103f757816020015b6103e461071a565b8152602001906001900390816103dc5790505b509050610402610734565b61040b846104c2565b905060005b8381101561044057610421826104e7565b83828151811061042d57fe5b6020908102919091010152600101610410565b505092915050565b600080600061045684610519565b90516020919091036101000a9004949350505050565b60208101516060908061047f5750610136565b806040519080825280601f01601f1916602001820160405280156104aa576020820181803883390190505b5091506104bc83600001518383610578565b50919050565b6104ca610734565b60006104d5836105b6565b83519383529092016020820152919050565b6104ef61071a565b602082015160006104ff82610620565b828452602080850182905292019390910192909252919050565b805180516000918291821a90608082101561053b579250600191506105739050565b60b88210156105595760018560200151039250806001019350610570565b602085015182820160b51901945082900360b60192505b50505b915091565b6020601f820104836020840160005b838110156105a357602081028381015190830152600101610587565b5060008551602001860152505050505050565b8051805160009190821a9060808210156105d557600092505050610136565b60b88210806105f0575060c082101580156105f0575060f882105b1561060057600192505050610136565b60c0821015610615575060b519019050610136565b5060f5190192915050565b8051600090811a608081101561063957600191506104bc565b60b88110156104bc57607e190192915050565b604080516080810182526000808252602082015260609181018290528181019190915290565b828054600181600116156101000203166002900490600052602060002090601f016020900481019282601f106106b357805160ff19168380011785556106e0565b828001600101855582156106e0579182015b828111156106e05782518255916020019190600101906106c5565b506106ec929150610754565b5090565b604051806060016040528060006001600160a01b0316815260200160608152602001606081525090565b604051806040016040528060008152602001600081525090565b604051806040016040528061074761071a565b8152602001600081525090565b61076e91905b808211156106ec576000815560010161075a565b90565b600082601f83011261078257600080fd5b8135610795610790826108c3565b61089c565b915080825260208301602083018583830111156107b157600080fd5b6107bc838284610905565b50505092915050565b6000602082840312156107d757600080fd5b813567ffffffffffffffff8111156107ee57600080fd5b6107fa84828501610771565b949350505050565b600061080d826108eb565b61081781856108ef565b9350610827818560208601610911565b61083081610941565b9093019392505050565b6108438161076e565b82525050565b610843816108f8565b60208101610860828461083a565b92915050565b606081016108748286610849565b6108816020830185610849565b81810360408301526108938184610802565b95945050505050565b60405181810167ffffffffffffffff811182821017156108bb57600080fd5b604052919050565b600067ffffffffffffffff8211156108da57600080fd5b506020601f91909101601f19160190565b5190565b90815260200190565b67ffffffffffffffff1690565b82818337506000910152565b60005b8381101561092c578181015183820152602001610914565b8381111561093b576000848401525b50505050565b601f01601f19169056fea365627a7a7231582045e4385d13df30cb3ced908048a10b2bf53ac828cfd7f910a09667f14f3c0c706c6578706572696d656e74616cf564736f6c634300050c0040",
  "source": "pragma solidity ^0.5.12;\npragma experimental ABIEncoderV2;\n\nimport \"../lib/Data.sol\";\n\ncontract ReceiptMock {\n  Data.Receipt public receipt;\n\n  function get() public view returns (uint64 status, uint64 cumulativeGasUsed, bytes memory bloom) {\n    status = receipt.status;\n    cumulativeGasUsed = receipt.cumulativeGasUsed;\n    bloom = receipt.bloom;\n    // logs = receipt.logs;\n  }\n\n  function set(bytes memory receiptData) public {\n    Data.Receipt memory r = Data.toReceipt(receiptData);\n    receipt.status = r.status;\n    receipt.cumulativeGasUsed = r.cumulativeGasUsed;\n    receipt.bloom = r.bloom;\n  }\n\n  function toReceiptStatus(bytes memory receiptData) public view returns (uint) {\n      return Data.toReceiptStatus(receiptData);\n  }\n}\n",
  "sourcePath": "/Users/pjh/workspace/go/src/github.com/Onther-Tech/plasma-evm/contracts/plasma/plasma-evm-cotracts/contracts/mock/ReceiptMock.sol",
  "compiler": {
    "name": "solc",
    "version": "0.5.12+commit.7709ece9.Emscripten.clang"
  },
  "schemaVersion": "3.0.23",
  "updatedAt": "2020-02-13T05:01:23.998Z",
  "devdoc": {
    "methods": {}
  },
  "userdoc": {
    "methods": {}
  }
}