{
  "contractName": "RootChain",
  "abi": [
    {
      "inputs": [
        {
          "internalType": "address",
          "name": "_epochHandler",
          "type": "address"
        },
        {
          "internalType": "address",
          "name": "_submitHandler",
          "type": "address"
        },
        {
          "internalType": "address",
          "name": "_etherToken",
          "type": "address"
        },
        {
          "internalType": "bool",
          "name": "_development",
          "type": "bool"
        },
        {
          "internalType": "uint256",
          "name": "_NRELength",
          "type": "uint256"
        },
        {
          "internalType": "bytes32",
          "name": "_statesRoot",
          "type": "bytes32"
        },
        {
          "internalType": "bytes32",
          "name": "_transactionsRoot",
          "type": "bytes32"
        },
        {
          "internalType": "bytes32",
          "name": "_receiptsRoot",
          "type": "bytes32"
        }
      ],
      "payable": false,
      "stateMutability": "nonpayable",
      "type": "constructor"
    },
    {
      "anonymous": false,
      "inputs": [
        {
          "indexed": false,
          "internalType": "uint256",
          "name": "forkNumber",
          "type": "uint256"
        },
        {
          "indexed": false,
          "internalType": "uint256",
          "name": "blockNumber",
          "type": "uint256"
        }
      ],
      "name": "BlockFinalized",
      "type": "event"
    },
    {
      "anonymous": false,
      "inputs": [
        {
          "indexed": false,
          "internalType": "uint256",
          "name": "fork",
          "type": "uint256"
        },
        {
          "indexed": false,
          "internalType": "uint256",
          "name": "epochNumber",
          "type": "uint256"
        },
        {
          "indexed": false,
          "internalType": "uint256",
          "name": "blockNumber",
          "type": "uint256"
        },
        {
          "indexed": false,
          "internalType": "bool",
          "name": "isRequest",
          "type": "bool"
        },
        {
          "indexed": false,
          "internalType": "bool",
          "name": "userActivated",
          "type": "bool"
        }
      ],
      "name": "BlockSubmitted",
      "type": "event"
    },
    {
      "anonymous": false,
      "inputs": [
        {
          "indexed": false,
          "internalType": "uint256",
          "name": "requestId",
          "type": "uint256"
        },
        {
          "indexed": false,
          "internalType": "address",
          "name": "requestor",
          "type": "address"
        },
        {
          "indexed": false,
          "internalType": "address",
          "name": "to",
          "type": "address"
        },
        {
          "indexed": false,
          "internalType": "bytes",
          "name": "trieKey",
          "type": "bytes"
        },
        {
          "indexed": false,
          "internalType": "bytes32",
          "name": "trieValue",
          "type": "bytes32"
        }
      ],
      "name": "ERUCreated",
      "type": "event"
    },
    {
      "anonymous": false,
      "inputs": [
        {
          "indexed": false,
          "internalType": "uint256",
          "name": "forkNumber",
          "type": "uint256"
        },
        {
          "indexed": false,
          "internalType": "uint256",
          "name": "epochNumber",
          "type": "uint256"
        }
      ],
      "name": "EpochFilled",
      "type": "event"
    },
    {
      "anonymous": false,
      "inputs": [
        {
          "indexed": false,
          "internalType": "uint256",
          "name": "forkNumber",
          "type": "uint256"
        },
        {
          "indexed": false,
          "internalType": "uint256",
          "name": "epochNumber",
          "type": "uint256"
        }
      ],
      "name": "EpochFilling",
      "type": "event"
    },
    {
      "anonymous": false,
      "inputs": [
        {
          "indexed": false,
          "internalType": "uint256",
          "name": "forkNumber",
          "type": "uint256"
        },
        {
          "indexed": false,
          "internalType": "uint256",
          "name": "epochNumber",
          "type": "uint256"
        },
        {
          "indexed": false,
          "internalType": "uint256",
          "name": "startBlockNumber",
          "type": "uint256"
        },
        {
          "indexed": false,
          "internalType": "uint256",
          "name": "endBlockNumber",
          "type": "uint256"
        }
      ],
      "name": "EpochFinalized",
      "type": "event"
    },
    {
      "anonymous": false,
      "inputs": [
        {
          "indexed": false,
          "internalType": "uint256",
          "name": "forkNumber",
          "type": "uint256"
        },
        {
          "indexed": false,
          "internalType": "uint256",
          "name": "epochNumber",
          "type": "uint256"
        },
        {
          "indexed": false,
          "internalType": "uint256",
          "name": "startBlockNumber",
          "type": "uint256"
        },
        {
          "indexed": false,
          "internalType": "uint256",
          "name": "endBlockNumber",
          "type": "uint256"
        },
        {
          "indexed": false,
          "internalType": "uint256",
          "name": "requestStart",
          "type": "uint256"
        },
        {
          "indexed": false,
          "internalType": "uint256",
          "name": "requestEnd",
          "type": "uint256"
        },
        {
          "indexed": false,
          "internalType": "bool",
          "name": "epochIsEmpty",
          "type": "bool"
        },
        {
          "indexed": false,
          "internalType": "bool",
          "name": "isRequest",
          "type": "bool"
        },
        {
          "indexed": false,
          "internalType": "bool",
          "name": "userActivated",
          "type": "bool"
        },
        {
          "indexed": false,
          "internalType": "bool",
          "name": "rebase",
          "type": "bool"
        }
      ],
      "name": "EpochPrepared",
      "type": "event"
    },
    {
      "anonymous": false,
      "inputs": [
        {
          "indexed": false,
          "internalType": "uint256",
          "name": "forkNumber",
          "type": "uint256"
        },
        {
          "indexed": false,
          "internalType": "uint256",
          "name": "epochNumber",
          "type": "uint256"
        },
        {
          "indexed": false,
          "internalType": "uint256",
          "name": "startBlockNumber",
          "type": "uint256"
        },
        {
          "indexed": false,
          "internalType": "uint256",
          "name": "endBlockNumber",
          "type": "uint256"
        },
        {
          "indexed": false,
          "internalType": "uint256",
          "name": "requestStart",
          "type": "uint256"
        },
        {
          "indexed": false,
          "internalType": "uint256",
          "name": "requestEnd",
          "type": "uint256"
        },
        {
          "indexed": false,
          "internalType": "bool",
          "name": "epochIsEmpty",
          "type": "bool"
        },
        {
          "indexed": false,
          "internalType": "bool",
          "name": "isRequest",
          "type": "bool"
        },
        {
          "indexed": false,
          "internalType": "bool",
          "name": "userActivated",
          "type": "bool"
        }
      ],
      "name": "EpochRebased",
      "type": "event"
    },
    {
      "anonymous": false,
      "inputs": [
        {
          "indexed": false,
          "internalType": "uint256",
          "name": "newFork",
          "type": "uint256"
        },
        {
          "indexed": false,
          "internalType": "uint256",
          "name": "epochNumber",
          "type": "uint256"
        },
        {
          "indexed": false,
          "internalType": "uint256",
          "name": "forkedBlockNumber",
          "type": "uint256"
        }
      ],
      "name": "Forked",
      "type": "event"
    },
    {
      "anonymous": false,
      "inputs": [
        {
          "indexed": true,
          "internalType": "address",
          "name": "account",
          "type": "address"
        }
      ],
      "name": "MapperAdded",
      "type": "event"
    },
    {
      "anonymous": false,
      "inputs": [
        {
          "indexed": true,
          "internalType": "address",
          "name": "account",
          "type": "address"
        }
      ],
      "name": "MapperRemoved",
      "type": "event"
    },
    {
      "anonymous": false,
      "inputs": [
        {
          "indexed": false,
          "internalType": "address",
          "name": "_newOperator",
          "type": "address"
        }
      ],
      "name": "OperatorChanged",
      "type": "event"
    },
    {
      "anonymous": false,
      "inputs": [
        {
          "indexed": false,
          "internalType": "uint256",
          "name": "requestId",
          "type": "uint256"
        },
        {
          "indexed": false,
          "internalType": "bool",
          "name": "userActivated",
          "type": "bool"
        }
      ],
      "name": "RequestApplied",
      "type": "event"
    },
    {
      "anonymous": false,
      "inputs": [
        {
          "indexed": false,
          "internalType": "uint256",
          "name": "requestId",
          "type": "uint256"
        },
        {
          "indexed": false,
          "internalType": "bool",
          "name": "userActivated",
          "type": "bool"
        }
      ],
      "name": "RequestChallenged",
      "type": "event"
    },
    {
      "anonymous": false,
      "inputs": [
        {
          "indexed": false,
          "internalType": "uint256",
          "name": "requestId",
          "type": "uint256"
        },
        {
          "indexed": false,
          "internalType": "address",
          "name": "requestor",
          "type": "address"
        },
        {
          "indexed": false,
          "internalType": "address",
          "name": "to",
          "type": "address"
        },
        {
          "indexed": false,
          "internalType": "uint256",
          "name": "weiAmount",
          "type": "uint256"
        },
        {
          "indexed": false,
          "internalType": "bytes32",
          "name": "trieKey",
          "type": "bytes32"
        },
        {
          "indexed": false,
          "internalType": "bytes",
          "name": "trieValue",
          "type": "bytes"
        },
        {
          "indexed": false,
          "internalType": "bool",
          "name": "isExit",
          "type": "bool"
        },
        {
          "indexed": false,
          "internalType": "bool",
          "name": "userActivated",
          "type": "bool"
        }
      ],
      "name": "RequestCreated",
      "type": "event"
    },
    {
      "anonymous": false,
      "inputs": [
        {
          "indexed": false,
          "internalType": "uint256",
          "name": "requestId",
          "type": "uint256"
        },
        {
          "indexed": false,
          "internalType": "bool",
          "name": "userActivated",
          "type": "bool"
        }
      ],
      "name": "RequestFinalized",
      "type": "event"
    },
    {
      "anonymous": false,
      "inputs": [
        {
          "indexed": false,
          "internalType": "address",
          "name": "contractInRootchain",
          "type": "address"
        },
        {
          "indexed": false,
          "internalType": "address",
          "name": "contractInChildchain",
          "type": "address"
        }
      ],
      "name": "RequestableContractMapped",
      "type": "event"
    },
    {
      "anonymous": false,
      "inputs": [
        {
          "indexed": false,
          "internalType": "bool",
          "name": "userActivated",
          "type": "bool"
        }
      ],
      "name": "SessionTimeout",
      "type": "event"
    },
    {
      "anonymous": false,
      "inputs": [
        {
          "indexed": true,
          "internalType": "address",
          "name": "account",
          "type": "address"
        }
      ],
      "name": "SubmitterAdded",
      "type": "event"
    },
    {
      "anonymous": false,
      "inputs": [
        {
          "indexed": true,
          "internalType": "address",
          "name": "account",
          "type": "address"
        }
      ],
      "name": "SubmitterRemoved",
      "type": "event"
    },
    {
      "constant": true,
      "inputs": [],
      "name": "COST_ERO",
      "outputs": [
        {
          "internalType": "uint256",
          "name": "",
          "type": "uint256"
        }
      ],
      "payable": false,
      "stateMutability": "view",
      "type": "function"
    },
    {
      "constant": true,
      "inputs": [],
      "name": "COST_ERU",
      "outputs": [
        {
          "internalType": "uint256",
          "name": "",
          "type": "uint256"
        }
      ],
      "payable": false,
      "stateMutability": "view",
      "type": "function"
    },
    {
      "constant": true,
      "inputs": [],
      "name": "COST_NRB",
      "outputs": [
        {
          "internalType": "uint256",
          "name": "",
          "type": "uint256"
        }
      ],
      "payable": false,
      "stateMutability": "view",
      "type": "function"
    },
    {
      "constant": true,
      "inputs": [],
      "name": "COST_ORB",
      "outputs": [
        {
          "internalType": "uint256",
          "name": "",
          "type": "uint256"
        }
      ],
      "payable": false,
      "stateMutability": "view",
      "type": "function"
    },
    {
      "constant": true,
      "inputs": [],
      "name": "COST_URB",
      "outputs": [
        {
          "internalType": "uint256",
          "name": "",
          "type": "uint256"
        }
      ],
      "payable": false,
      "stateMutability": "view",
      "type": "function"
    },
    {
      "constant": true,
      "inputs": [],
      "name": "COST_URB_PREPARE",
      "outputs": [
        {
          "internalType": "uint256",
          "name": "",
          "type": "uint256"
        }
      ],
      "payable": false,
      "stateMutability": "view",
      "type": "function"
    },
    {
      "constant": true,
      "inputs": [],
      "name": "CP_COMPUTATION",
      "outputs": [
        {
          "internalType": "uint256",
          "name": "",
          "type": "uint256"
        }
      ],
      "payable": false,
      "stateMutability": "view",
      "type": "function"
    },
    {
      "constant": true,
      "inputs": [],
      "name": "CP_EXIT",
      "outputs": [
        {
          "internalType": "uint256",
          "name": "",
          "type": "uint256"
        }
      ],
      "payable": false,
      "stateMutability": "view",
      "type": "function"
    },
    {
      "constant": true,
      "inputs": [],
      "name": "CP_WITHHOLDING",
      "outputs": [
        {
          "internalType": "uint256",
          "name": "",
          "type": "uint256"
        }
      ],
      "payable": false,
      "stateMutability": "view",
      "type": "function"
    },
    {
      "constant": true,
      "inputs": [],
      "name": "EROIdToFinalize",
      "outputs": [
        {
          "internalType": "uint256",
          "name": "",
          "type": "uint256"
        }
      ],
      "payable": false,
      "stateMutability": "view",
      "type": "function"
    },
    {
      "constant": true,
      "inputs": [
        {
          "internalType": "uint256",
          "name": "",
          "type": "uint256"
        }
      ],
      "name": "EROs",
      "outputs": [
        {
          "internalType": "uint64",
          "name": "timestamp",
          "type": "uint64"
        },
        {
          "internalType": "bool",
          "name": "isExit",
          "type": "bool"
        },
        {
          "internalType": "bool",
          "name": "isTransfer",
          "type": "bool"
        },
        {
          "internalType": "bool",
          "name": "finalized",
          "type": "bool"
        },
        {
          "internalType": "bool",
          "name": "challenged",
          "type": "bool"
        },
        {
          "internalType": "uint128",
          "name": "value",
          "type": "uint128"
        },
        {
          "internalType": "address payable",
          "name": "requestor",
          "type": "address"
        },
        {
          "internalType": "address",
          "name": "to",
          "type": "address"
        },
        {
          "internalType": "bytes32",
          "name": "trieKey",
          "type": "bytes32"
        },
        {
          "internalType": "bytes32",
          "name": "hash",
          "type": "bytes32"
        },
        {
          "internalType": "bytes",
          "name": "trieValue",
          "type": "bytes"
        }
      ],
      "payable": false,
      "stateMutability": "view",
      "type": "function"
    },
    {
      "constant": true,
      "inputs": [],
      "name": "ERUIdToFinalize",
      "outputs": [
        {
          "internalType": "uint256",
          "name": "",
          "type": "uint256"
        }
      ],
      "payable": false,
      "stateMutability": "view",
      "type": "function"
    },
    {
      "constant": true,
      "inputs": [
        {
          "internalType": "uint256",
          "name": "",
          "type": "uint256"
        }
      ],
      "name": "ERUs",
      "outputs": [
        {
          "internalType": "uint64",
          "name": "timestamp",
          "type": "uint64"
        },
        {
          "internalType": "bool",
          "name": "isExit",
          "type": "bool"
        },
        {
          "internalType": "bool",
          "name": "isTransfer",
          "type": "bool"
        },
        {
          "internalType": "bool",
          "name": "finalized",
          "type": "bool"
        },
        {
          "internalType": "bool",
          "name": "challenged",
          "type": "bool"
        },
        {
          "internalType": "uint128",
          "name": "value",
          "type": "uint128"
        },
        {
          "internalType": "address payable",
          "name": "requestor",
          "type": "address"
        },
        {
          "internalType": "address",
          "name": "to",
          "type": "address"
        },
        {
          "internalType": "bytes32",
          "name": "trieKey",
          "type": "bytes32"
        },
        {
          "internalType": "bytes32",
          "name": "hash",
          "type": "bytes32"
        },
        {
          "internalType": "bytes",
          "name": "trieValue",
          "type": "bytes"
        }
      ],
      "payable": false,
      "stateMutability": "view",
      "type": "function"
    },
    {
      "constant": true,
      "inputs": [],
      "name": "NRELength",
      "outputs": [
        {
          "internalType": "uint256",
          "name": "",
          "type": "uint256"
        }
      ],
      "payable": false,
      "stateMutability": "view",
      "type": "function"
    },
    {
      "constant": true,
      "inputs": [],
      "name": "NULL_ADDRESS",
      "outputs": [
        {
          "internalType": "address",
          "name": "",
          "type": "address"
        }
      ],
      "payable": false,
      "stateMutability": "view",
      "type": "function"
    },
    {
      "constant": true,
      "inputs": [
        {
          "internalType": "uint256",
          "name": "",
          "type": "uint256"
        }
      ],
      "name": "ORBs",
      "outputs": [
        {
          "internalType": "bool",
          "name": "submitted",
          "type": "bool"
        },
        {
          "internalType": "uint64",
          "name": "numEnter",
          "type": "uint64"
        },
        {
          "internalType": "uint64",
          "name": "epochNumber",
          "type": "uint64"
        },
        {
          "internalType": "uint64",
          "name": "requestStart",
          "type": "uint64"
        },
        {
          "internalType": "uint64",
          "name": "requestEnd",
          "type": "uint64"
        },
        {
          "internalType": "address",
          "name": "trie",
          "type": "address"
        }
      ],
      "payable": false,
      "stateMutability": "view",
      "type": "function"
    },
    {
      "constant": true,
      "inputs": [],
      "name": "PREPARE_TIMEOUT",
      "outputs": [
        {
          "internalType": "uint256",
          "name": "",
          "type": "uint256"
        }
      ],
      "payable": false,
      "stateMutability": "view",
      "type": "function"
    },
    {
      "constant": true,
      "inputs": [],
      "name": "REQUEST_GAS",
      "outputs": [
        {
          "internalType": "uint256",
          "name": "",
          "type": "uint256"
        }
      ],
      "payable": false,
      "stateMutability": "view",
      "type": "function"
    },
    {
      "constant": true,
      "inputs": [
        {
          "internalType": "uint256",
          "name": "",
          "type": "uint256"
        }
      ],
      "name": "URBs",
      "outputs": [
        {
          "internalType": "bool",
          "name": "submitted",
          "type": "bool"
        },
        {
          "internalType": "uint64",
          "name": "numEnter",
          "type": "uint64"
        },
        {
          "internalType": "uint64",
          "name": "epochNumber",
          "type": "uint64"
        },
        {
          "internalType": "uint64",
          "name": "requestStart",
          "type": "uint64"
        },
        {
          "internalType": "uint64",
          "name": "requestEnd",
          "type": "uint64"
        },
        {
          "internalType": "address",
          "name": "trie",
          "type": "address"
        }
      ],
      "payable": false,
      "stateMutability": "view",
      "type": "function"
    },
    {
      "constant": true,
      "inputs": [],
      "name": "currentFork",
      "outputs": [
        {
          "internalType": "uint256",
          "name": "",
          "type": "uint256"
        }
      ],
      "payable": false,
      "stateMutability": "view",
      "type": "function"
    },
    {
      "constant": true,
      "inputs": [],
      "name": "development",
      "outputs": [
        {
          "internalType": "bool",
          "name": "",
          "type": "bool"
        }
      ],
      "payable": false,
      "stateMutability": "view",
      "type": "function"
    },
    {
      "constant": true,
      "inputs": [],
      "name": "epochHandler",
      "outputs": [
        {
          "internalType": "address",
          "name": "",
          "type": "address"
        }
      ],
      "payable": false,
      "stateMutability": "view",
      "type": "function"
    },
    {
      "constant": true,
      "inputs": [],
      "name": "etherToken",
      "outputs": [
        {
          "internalType": "address",
          "name": "",
          "type": "address"
        }
      ],
      "payable": false,
      "stateMutability": "view",
      "type": "function"
    },
    {
      "constant": true,
      "inputs": [
        {
          "internalType": "uint256",
          "name": "",
          "type": "uint256"
        }
      ],
      "name": "firstFilledORENumber",
      "outputs": [
        {
          "internalType": "uint256",
          "name": "",
          "type": "uint256"
        }
      ],
      "payable": false,
      "stateMutability": "view",
      "type": "function"
    },
    {
      "constant": true,
      "inputs": [
        {
          "internalType": "uint256",
          "name": "",
          "type": "uint256"
        }
      ],
      "name": "firstNonEmptyRequestEpoch",
      "outputs": [
        {
          "internalType": "uint256",
          "name": "",
          "type": "uint256"
        }
      ],
      "payable": false,
      "stateMutability": "view",
      "type": "function"
    },
    {
      "constant": true,
      "inputs": [
        {
          "internalType": "uint256",
          "name": "",
          "type": "uint256"
        }
      ],
      "name": "forks",
      "outputs": [
        {
          "internalType": "uint64",
          "name": "forkedBlock",
          "type": "uint64"
        },
        {
          "internalType": "uint64",
          "name": "firstEpoch",
          "type": "uint64"
        },
        {
          "internalType": "uint64",
          "name": "lastEpoch",
          "type": "uint64"
        },
        {
          "internalType": "uint64",
          "name": "firstBlock",
          "type": "uint64"
        },
        {
          "internalType": "uint64",
          "name": "lastBlock",
          "type": "uint64"
        },
        {
          "internalType": "uint64",
          "name": "lastFinalizedEpoch",
          "type": "uint64"
        },
        {
          "internalType": "uint64",
          "name": "lastFinalizedBlock",
          "type": "uint64"
        },
        {
          "internalType": "uint64",
          "name": "timestamp",
          "type": "uint64"
        },
        {
          "internalType": "uint64",
          "name": "firstEnterEpoch",
          "type": "uint64"
        },
        {
          "internalType": "uint64",
          "name": "lastEnterEpoch",
          "type": "uint64"
        },
        {
          "internalType": "uint64",
          "name": "nextBlockToRebase",
          "type": "uint64"
        },
        {
          "internalType": "bool",
          "name": "rebased",
          "type": "bool"
        }
      ],
      "payable": false,
      "stateMutability": "view",
      "type": "function"
    },
    {
      "constant": true,
      "inputs": [
        {
          "internalType": "address",
          "name": "account",
          "type": "address"
        }
      ],
      "name": "isMapper",
      "outputs": [
        {
          "internalType": "bool",
          "name": "",
          "type": "bool"
        }
      ],
      "payable": false,
      "stateMutability": "view",
      "type": "function"
    },
    {
      "constant": true,
      "inputs": [],
      "name": "isRootChain",
      "outputs": [
        {
          "internalType": "bool",
          "name": "",
          "type": "bool"
        }
      ],
      "payable": false,
      "stateMutability": "view",
      "type": "function"
    },
    {
      "constant": true,
      "inputs": [
        {
          "internalType": "address",
          "name": "account",
          "type": "address"
        }
      ],
      "name": "isSubmitter",
      "outputs": [
        {
          "internalType": "bool",
          "name": "",
          "type": "bool"
        }
      ],
      "payable": false,
      "stateMutability": "view",
      "type": "function"
    },
    {
      "constant": true,
      "inputs": [],
      "name": "lastAppliedBlockNumber",
      "outputs": [
        {
          "internalType": "uint256",
          "name": "",
          "type": "uint256"
        }
      ],
      "payable": false,
      "stateMutability": "view",
      "type": "function"
    },
    {
      "constant": true,
      "inputs": [],
      "name": "lastAppliedEpochNumber",
      "outputs": [
        {
          "internalType": "uint256",
          "name": "",
          "type": "uint256"
        }
      ],
      "payable": false,
      "stateMutability": "view",
      "type": "function"
    },
    {
      "constant": true,
      "inputs": [],
      "name": "lastAppliedForkNumber",
      "outputs": [
        {
          "internalType": "uint256",
          "name": "",
          "type": "uint256"
        }
      ],
      "payable": false,
      "stateMutability": "view",
      "type": "function"
    },
    {
      "constant": true,
      "inputs": [
        {
          "internalType": "uint256",
          "name": "",
          "type": "uint256"
        }
      ],
      "name": "lastNonEmptyRequestEpoch",
      "outputs": [
        {
          "internalType": "uint256",
          "name": "",
          "type": "uint256"
        }
      ],
      "payable": false,
      "stateMutability": "view",
      "type": "function"
    },
    {
      "constant": true,
      "inputs": [],
      "name": "numEnterForORB",
      "outputs": [
        {
          "internalType": "uint256",
          "name": "",
          "type": "uint256"
        }
      ],
      "payable": false,
      "stateMutability": "view",
      "type": "function"
    },
    {
      "constant": true,
      "inputs": [],
      "name": "operator",
      "outputs": [
        {
          "internalType": "address",
          "name": "",
          "type": "address"
        }
      ],
      "payable": false,
      "stateMutability": "view",
      "type": "function"
    },
    {
      "constant": false,
      "inputs": [],
      "name": "renounceMapper",
      "outputs": [],
      "payable": false,
      "stateMutability": "nonpayable",
      "type": "function"
    },
    {
      "constant": false,
      "inputs": [],
      "name": "renounceSubmitter",
      "outputs": [],
      "payable": false,
      "stateMutability": "nonpayable",
      "type": "function"
    },
    {
      "constant": true,
      "inputs": [
        {
          "internalType": "address",
          "name": "",
          "type": "address"
        }
      ],
      "name": "requestableContracts",
      "outputs": [
        {
          "internalType": "address",
          "name": "",
          "type": "address"
        }
      ],
      "payable": false,
      "stateMutability": "view",
      "type": "function"
    },
    {
      "constant": true,
      "inputs": [],
      "name": "seigManager",
      "outputs": [
        {
          "internalType": "address",
          "name": "",
          "type": "address"
        }
      ],
      "payable": false,
      "stateMutability": "view",
      "type": "function"
    },
    {
      "constant": true,
      "inputs": [],
      "name": "submitHandler",
      "outputs": [
        {
          "internalType": "address",
          "name": "",
          "type": "address"
        }
      ],
      "payable": false,
      "stateMutability": "view",
      "type": "function"
    },
    {
      "constant": false,
      "inputs": [
        {
          "internalType": "address",
          "name": "_operator",
          "type": "address"
        }
      ],
      "name": "changeOperator",
      "outputs": [],
      "payable": false,
      "stateMutability": "nonpayable",
      "type": "function"
    },
    {
      "constant": false,
      "inputs": [
        {
          "internalType": "address",
          "name": "account",
          "type": "address"
        }
      ],
      "name": "addSubmitter",
      "outputs": [],
      "payable": false,
      "stateMutability": "nonpayable",
      "type": "function"
    },
    {
      "constant": false,
      "inputs": [
        {
          "internalType": "address",
          "name": "account",
          "type": "address"
        }
      ],
      "name": "addMapper",
      "outputs": [],
      "payable": false,
      "stateMutability": "nonpayable",
      "type": "function"
    },
    {
      "constant": false,
      "inputs": [
        {
          "internalType": "address",
          "name": "account",
          "type": "address"
        }
      ],
      "name": "setSeigManager",
      "outputs": [],
      "payable": false,
      "stateMutability": "nonpayable",
      "type": "function"
    },
    {
      "constant": false,
      "inputs": [
        {
          "internalType": "address",
          "name": "_rootchain",
          "type": "address"
        },
        {
          "internalType": "address",
          "name": "_childchain",
          "type": "address"
        }
      ],
      "name": "mapRequestableContractByOperator",
      "outputs": [
        {
          "internalType": "bool",
          "name": "success",
          "type": "bool"
        }
      ],
      "payable": false,
      "stateMutability": "nonpayable",
      "type": "function"
    },
    {
      "constant": true,
      "inputs": [],
      "name": "getNumEROs",
      "outputs": [
        {
          "internalType": "uint256",
          "name": "",
          "type": "uint256"
        }
      ],
      "payable": false,
      "stateMutability": "view",
      "type": "function"
    },
    {
      "constant": true,
      "inputs": [],
      "name": "getNumORBs",
      "outputs": [
        {
          "internalType": "uint256",
          "name": "",
          "type": "uint256"
        }
      ],
      "payable": false,
      "stateMutability": "view",
      "type": "function"
    },
    {
      "constant": true,
      "inputs": [
        {
          "internalType": "uint256",
          "name": "_requestId",
          "type": "uint256"
        }
      ],
      "name": "getEROBytes",
      "outputs": [
        {
          "internalType": "bytes",
          "name": "out",
          "type": "bytes"
        }
      ],
      "payable": false,
      "stateMutability": "view",
      "type": "function"
    },
    {
      "constant": false,
      "inputs": [],
      "name": "prepareToSubmitURB",
      "outputs": [],
      "payable": true,
      "stateMutability": "payable",
      "type": "function"
    },
    {
      "constant": false,
      "inputs": [
        {
          "internalType": "uint256",
          "name": "_pos1",
          "type": "uint256"
        },
        {
          "internalType": "uint256",
          "name": "_pos2",
          "type": "uint256"
        },
        {
          "internalType": "bytes32",
          "name": "_epochStateRoot",
          "type": "bytes32"
        },
        {
          "internalType": "bytes32",
          "name": "_epochTransactionsRoot",
          "type": "bytes32"
        },
        {
          "internalType": "bytes32",
          "name": "_epochReceiptsRoot",
          "type": "bytes32"
        }
      ],
      "name": "submitNRE",
      "outputs": [
        {
          "internalType": "bool",
          "name": "success",
          "type": "bool"
        }
      ],
      "payable": true,
      "stateMutability": "payable",
      "type": "function"
    },
    {
      "constant": false,
      "inputs": [
        {
          "internalType": "uint256",
          "name": "_pos",
          "type": "uint256"
        },
        {
          "internalType": "bytes32",
          "name": "_statesRoot",
          "type": "bytes32"
        },
        {
          "internalType": "bytes32",
          "name": "_transactionsRoot",
          "type": "bytes32"
        },
        {
          "internalType": "bytes32",
          "name": "_receiptsRoot",
          "type": "bytes32"
        }
      ],
      "name": "submitORB",
      "outputs": [
        {
          "internalType": "bool",
          "name": "success",
          "type": "bool"
        }
      ],
      "payable": true,
      "stateMutability": "payable",
      "type": "function"
    },
    {
      "constant": false,
      "inputs": [
        {
          "internalType": "uint256",
          "name": "_pos",
          "type": "uint256"
        },
        {
          "internalType": "bytes32",
          "name": "_statesRoot",
          "type": "bytes32"
        },
        {
          "internalType": "bytes32",
          "name": "_transactionsRoot",
          "type": "bytes32"
        },
        {
          "internalType": "bytes32",
          "name": "_receiptsRoot",
          "type": "bytes32"
        }
      ],
      "name": "submitURB",
      "outputs": [
        {
          "internalType": "bool",
          "name": "success",
          "type": "bool"
        }
      ],
      "payable": true,
      "stateMutability": "payable",
      "type": "function"
    },
    {
      "constant": false,
      "inputs": [],
      "name": "finalizeBlock",
      "outputs": [
        {
          "internalType": "bool",
          "name": "success",
          "type": "bool"
        }
      ],
      "payable": false,
      "stateMutability": "nonpayable",
      "type": "function"
    },
    {
      "constant": false,
      "inputs": [
        {
          "internalType": "uint256",
          "name": "_forkNumber",
          "type": "uint256"
        },
        {
          "internalType": "uint256",
          "name": "_blockNumber",
          "type": "uint256"
        },
        {
          "internalType": "uint256",
          "name": "_index",
          "type": "uint256"
        },
        {
          "internalType": "bytes",
          "name": "_receiptData",
          "type": "bytes"
        },
        {
          "internalType": "bytes",
          "name": "_proof",
          "type": "bytes"
        }
      ],
      "name": "challengeExit",
      "outputs": [],
      "payable": false,
      "stateMutability": "nonpayable",
      "type": "function"
    },
    {
      "constant": false,
      "inputs": [
        {
          "internalType": "uint256",
          "name": "_blockNumber",
          "type": "uint256"
        },
        {
          "internalType": "bytes",
          "name": "_key",
          "type": "bytes"
        },
        {
          "internalType": "bytes",
          "name": "_txByte",
          "type": "bytes"
        },
        {
          "internalType": "uint256",
          "name": "_branchMask",
          "type": "uint256"
        },
        {
          "internalType": "bytes32[]",
          "name": "_siblings",
          "type": "bytes32[]"
        }
      ],
      "name": "challengeNullAddress",
      "outputs": [],
      "payable": false,
      "stateMutability": "nonpayable",
      "type": "function"
    },
    {
      "constant": false,
      "inputs": [
        {
          "internalType": "address",
          "name": "_to",
          "type": "address"
        },
        {
          "internalType": "bytes32",
          "name": "_trieKey",
          "type": "bytes32"
        },
        {
          "internalType": "bytes",
          "name": "_trieValue",
          "type": "bytes"
        }
      ],
      "name": "startExit",
      "outputs": [
        {
          "internalType": "bool",
          "name": "success",
          "type": "bool"
        }
      ],
      "payable": true,
      "stateMutability": "payable",
      "type": "function"
    },
    {
      "constant": false,
      "inputs": [
        {
          "internalType": "address",
          "name": "_to",
          "type": "address"
        },
        {
          "internalType": "bytes32",
          "name": "_trieKey",
          "type": "bytes32"
        },
        {
          "internalType": "bytes",
          "name": "_trieValue",
          "type": "bytes"
        }
      ],
      "name": "startEnter",
      "outputs": [
        {
          "internalType": "bool",
          "name": "success",
          "type": "bool"
        }
      ],
      "payable": true,
      "stateMutability": "payable",
      "type": "function"
    },
    {
      "constant": false,
      "inputs": [
        {
          "internalType": "address",
          "name": "_to",
          "type": "address"
        },
        {
          "internalType": "bytes32",
          "name": "_trieKey",
          "type": "bytes32"
        },
        {
          "internalType": "bytes",
          "name": "_trieValue",
          "type": "bytes"
        }
      ],
      "name": "makeERU",
      "outputs": [
        {
          "internalType": "bool",
          "name": "success",
          "type": "bool"
        }
      ],
      "payable": true,
      "stateMutability": "payable",
      "type": "function"
    },
    {
      "constant": false,
      "inputs": [],
      "name": "finalizeRequest",
      "outputs": [
        {
          "internalType": "bool",
          "name": "success",
          "type": "bool"
        }
      ],
      "payable": false,
      "stateMutability": "nonpayable",
      "type": "function"
    },
    {
      "constant": false,
      "inputs": [
        {
          "internalType": "uint256",
          "name": "n",
          "type": "uint256"
        }
      ],
      "name": "finalizeRequests",
      "outputs": [
        {
          "internalType": "bool",
          "name": "success",
          "type": "bool"
        }
      ],
      "payable": false,
      "stateMutability": "nonpayable",
      "type": "function"
    },
    {
      "constant": true,
      "inputs": [],
      "name": "MAX_REQUESTS",
      "outputs": [
        {
          "internalType": "uint256",
          "name": "maxRequests",
          "type": "uint256"
        }
      ],
      "payable": false,
      "stateMutability": "pure",
      "type": "function"
    },
    {
      "constant": true,
      "inputs": [
        {
          "internalType": "uint256",
          "name": "forkNumber",
          "type": "uint256"
        }
      ],
      "name": "lastBlock",
      "outputs": [
        {
          "internalType": "uint256",
          "name": "lastBlock",
          "type": "uint256"
        }
      ],
      "payable": false,
      "stateMutability": "view",
      "type": "function"
    },
    {
      "constant": true,
      "inputs": [
        {
          "internalType": "uint256",
          "name": "forkNumber",
          "type": "uint256"
        }
      ],
      "name": "lastEpoch",
      "outputs": [
        {
          "internalType": "uint256",
          "name": "lastBlock",
          "type": "uint256"
        }
      ],
      "payable": false,
      "stateMutability": "view",
      "type": "function"
    },
    {
      "constant": true,
      "inputs": [
        {
          "internalType": "uint256",
          "name": "forkNumber",
          "type": "uint256"
        },
        {
          "internalType": "uint256",
          "name": "epochNumber",
          "type": "uint256"
        }
      ],
      "name": "getEpoch",
      "outputs": [
        {
          "components": [
            {
              "internalType": "uint64",
              "name": "startBlockNumber",
              "type": "uint64"
            },
            {
              "internalType": "uint64",
              "name": "endBlockNumber",
              "type": "uint64"
            },
            {
              "internalType": "uint64",
              "name": "timestamp",
              "type": "uint64"
            },
            {
              "internalType": "bool",
              "name": "isEmpty",
              "type": "bool"
            },
            {
              "internalType": "bool",
              "name": "initialized",
              "type": "bool"
            },
            {
              "internalType": "bool",
              "name": "isRequest",
              "type": "bool"
            },
            {
              "internalType": "bool",
              "name": "userActivated",
              "type": "bool"
            },
            {
              "internalType": "bool",
              "name": "rebase",
              "type": "bool"
            },
            {
              "components": [
                {
                  "internalType": "uint64",
                  "name": "requestStart",
                  "type": "uint64"
                },
                {
                  "internalType": "uint64",
                  "name": "requestEnd",
                  "type": "uint64"
                },
                {
                  "internalType": "uint64",
                  "name": "firstRequestBlockId",
                  "type": "uint64"
                },
                {
                  "internalType": "uint64",
                  "name": "numEnter",
                  "type": "uint64"
                },
                {
                  "internalType": "uint64",
                  "name": "nextEnterEpoch",
                  "type": "uint64"
                },
                {
                  "internalType": "uint64",
                  "name": "nextEpoch",
                  "type": "uint64"
                }
              ],
              "internalType": "struct Data.RequestEpochMeta",
              "name": "RE",
              "type": "tuple"
            },
            {
              "components": [
                {
                  "internalType": "bytes32",
                  "name": "epochStateRoot",
                  "type": "bytes32"
                },
                {
                  "internalType": "bytes32",
                  "name": "epochTransactionsRoot",
                  "type": "bytes32"
                },
                {
                  "internalType": "bytes32",
                  "name": "epochReceiptsRoot",
                  "type": "bytes32"
                },
                {
                  "internalType": "uint64",
                  "name": "submittedAt",
                  "type": "uint64"
                },
                {
                  "internalType": "uint64",
                  "name": "finalizedAt",
                  "type": "uint64"
                },
                {
                  "internalType": "bool",
                  "name": "finalized",
                  "type": "bool"
                },
                {
                  "internalType": "bool",
                  "name": "challenging",
                  "type": "bool"
                },
                {
                  "internalType": "bool",
                  "name": "challenged",
                  "type": "bool"
                }
              ],
              "internalType": "struct Data.NonRequestEpochMeta",
              "name": "NRE",
              "type": "tuple"
            }
          ],
          "internalType": "struct Data.Epoch",
          "name": "epoch",
          "type": "tuple"
        }
      ],
      "payable": false,
      "stateMutability": "view",
      "type": "function"
    },
    {
      "constant": true,
      "inputs": [],
      "name": "getLastEpoch",
      "outputs": [
        {
          "components": [
            {
              "internalType": "uint64",
              "name": "startBlockNumber",
              "type": "uint64"
            },
            {
              "internalType": "uint64",
              "name": "endBlockNumber",
              "type": "uint64"
            },
            {
              "internalType": "uint64",
              "name": "timestamp",
              "type": "uint64"
            },
            {
              "internalType": "bool",
              "name": "isEmpty",
              "type": "bool"
            },
            {
              "internalType": "bool",
              "name": "initialized",
              "type": "bool"
            },
            {
              "internalType": "bool",
              "name": "isRequest",
              "type": "bool"
            },
            {
              "internalType": "bool",
              "name": "userActivated",
              "type": "bool"
            },
            {
              "internalType": "bool",
              "name": "rebase",
              "type": "bool"
            },
            {
              "components": [
                {
                  "internalType": "uint64",
                  "name": "requestStart",
                  "type": "uint64"
                },
                {
                  "internalType": "uint64",
                  "name": "requestEnd",
                  "type": "uint64"
                },
                {
                  "internalType": "uint64",
                  "name": "firstRequestBlockId",
                  "type": "uint64"
                },
                {
                  "internalType": "uint64",
                  "name": "numEnter",
                  "type": "uint64"
                },
                {
                  "internalType": "uint64",
                  "name": "nextEnterEpoch",
                  "type": "uint64"
                },
                {
                  "internalType": "uint64",
                  "name": "nextEpoch",
                  "type": "uint64"
                }
              ],
              "internalType": "struct Data.RequestEpochMeta",
              "name": "RE",
              "type": "tuple"
            },
            {
              "components": [
                {
                  "internalType": "bytes32",
                  "name": "epochStateRoot",
                  "type": "bytes32"
                },
                {
                  "internalType": "bytes32",
                  "name": "epochTransactionsRoot",
                  "type": "bytes32"
                },
                {
                  "internalType": "bytes32",
                  "name": "epochReceiptsRoot",
                  "type": "bytes32"
                },
                {
                  "internalType": "uint64",
                  "name": "submittedAt",
                  "type": "uint64"
                },
                {
                  "internalType": "uint64",
                  "name": "finalizedAt",
                  "type": "uint64"
                },
                {
                  "internalType": "bool",
                  "name": "finalized",
                  "type": "bool"
                },
                {
                  "internalType": "bool",
                  "name": "challenging",
                  "type": "bool"
                },
                {
                  "internalType": "bool",
                  "name": "challenged",
                  "type": "bool"
                }
              ],
              "internalType": "struct Data.NonRequestEpochMeta",
              "name": "NRE",
              "type": "tuple"
            }
          ],
          "internalType": "struct Data.Epoch",
          "name": "",
          "type": "tuple"
        }
      ],
      "payable": false,
      "stateMutability": "view",
      "type": "function"
    },
    {
      "constant": true,
      "inputs": [
        {
          "internalType": "uint256",
          "name": "forkNumber",
          "type": "uint256"
        },
        {
          "internalType": "uint256",
          "name": "blockNumber",
          "type": "uint256"
        }
      ],
      "name": "getBlock",
      "outputs": [
        {
          "components": [
            {
              "internalType": "uint64",
              "name": "epochNumber",
              "type": "uint64"
            },
            {
              "internalType": "uint64",
              "name": "requestBlockId",
              "type": "uint64"
            },
            {
              "internalType": "uint64",
              "name": "timestamp",
              "type": "uint64"
            },
            {
              "internalType": "uint64",
              "name": "finalizedAt",
              "type": "uint64"
            },
            {
              "internalType": "uint64",
              "name": "referenceBlock",
              "type": "uint64"
            },
            {
              "internalType": "bytes32",
              "name": "statesRoot",
              "type": "bytes32"
            },
            {
              "internalType": "bytes32",
              "name": "transactionsRoot",
              "type": "bytes32"
            },
            {
              "internalType": "bytes32",
              "name": "receiptsRoot",
              "type": "bytes32"
            },
            {
              "internalType": "bool",
              "name": "isRequest",
              "type": "bool"
            },
            {
              "internalType": "bool",
              "name": "userActivated",
              "type": "bool"
            },
            {
              "internalType": "bool",
              "name": "challenged",
              "type": "bool"
            },
            {
              "internalType": "bool",
              "name": "challenging",
              "type": "bool"
            },
            {
              "internalType": "bool",
              "name": "finalized",
              "type": "bool"
            }
          ],
          "internalType": "struct Data.PlasmaBlock",
          "name": "",
          "type": "tuple"
        }
      ],
      "payable": false,
      "stateMutability": "view",
      "type": "function"
    },
    {
      "constant": true,
      "inputs": [
        {
          "internalType": "uint256",
          "name": "forkNumber",
          "type": "uint256"
        },
        {
          "internalType": "uint256",
          "name": "blockNumber",
          "type": "uint256"
        }
      ],
      "name": "getBlockFinalizedAt",
      "outputs": [
        {
          "internalType": "uint256",
          "name": "",
          "type": "uint256"
        }
      ],
      "payable": false,
      "stateMutability": "view",
      "type": "function"
    },
    {
      "constant": true,
      "inputs": [
        {
          "internalType": "uint256",
          "name": "forkNumber",
          "type": "uint256"
        }
      ],
      "name": "getLastFinalizedBlock",
      "outputs": [
        {
          "internalType": "uint256",
          "name": "",
          "type": "uint256"
        }
      ],
      "payable": false,
      "stateMutability": "view",
      "type": "function"
    },
    {
      "constant": true,
      "inputs": [
        {
          "internalType": "uint256",
          "name": "forkNumber",
          "type": "uint256"
        }
      ],
      "name": "getLastFinalizedEpoch",
      "outputs": [
        {
          "internalType": "uint256",
          "name": "",
          "type": "uint256"
        }
      ],
      "payable": false,
      "stateMutability": "view",
      "type": "function"
    },
    {
      "constant": true,
      "inputs": [
        {
          "internalType": "uint256",
          "name": "_forkNumber",
          "type": "uint256"
        }
      ],
      "name": "forked",
      "outputs": [
        {
          "internalType": "bool",
          "name": "result",
          "type": "bool"
        }
      ],
      "payable": false,
      "stateMutability": "view",
      "type": "function"
    },
    {
      "constant": true,
      "inputs": [
        {
          "internalType": "uint256",
          "name": "_requestId",
          "type": "uint256"
        },
        {
          "internalType": "bool",
          "name": "_userActivated",
          "type": "bool"
        }
      ],
      "name": "getRequestFinalized",
      "outputs": [
        {
          "internalType": "bool",
          "name": "finalized",
          "type": "bool"
        }
      ],
      "payable": false,
      "stateMutability": "view",
      "type": "function"
    }
  ],
  "bytecode": "0x60806040523480156200001157600080fd5b5060405162005fac38038062005fac8339810160408190526200003491620005a8565b62000048336001600160e01b036200021416565b6200005c336001600160e01b036200026616565b6200007b886001600160a01b0316620002b860201b620036321760201c565b6200008557600080fd5b620000a4876001600160a01b0316620002b860201b620036321760201c565b620000ae57600080fd5b620000cd866001600160a01b0316620002b860201b620036321760201c565b620000d757600080fd5b600180546001600160a01b03199081166001600160a01b038b8116919091179092556002805482168a8416178155600380549092169289169290921781556000805460ff191688151517610100600160a81b031916610100330217815560058790556006548152600860209081526040808320838052600480820184528285208088018b90558087018a90559081018890559481019092528083208054600160c81b600160801b600160c01b0319909116600160801b426001600160401b0316021760ff60c81b19161790559382529281208054600160d01b600160c01b60ff60c01b199092169190911760ff60d01b1916179055620001db9083908390620002be565b620001f18260006001600160e01b036200038216565b620002046001600160e01b036200044b16565b5050505050505050505062000811565b6200022f8160166200050260201b620039011790919060201c565b6040516001600160a01b038216907fa199526a01dbcba68aa3ab9d7d06c6692c83fb1a8bcf2184e6d94ad34f5aaf9590600090a250565b620002818160176200050260201b620039011790919060201c565b6040516001600160a01b038216907fb079bc2cbde1f186e0b351d4a87c4597e3ed098f571548617449e73506428d8b90600090a250565b3b151590565b60058201805464010000000060ff60201b1990911617905581546001600160c01b0316600160c01b426001600160401b0390811691909102919091178355600184018054600160801b600160c01b031916600160801b84841602178082558454600160401b600160801b0319909116921668010000000000000000029190911790556006546040517ffb96205e4b3633fd57aa805b26b51ecf528714a10241a4af015929dce86768d9916200037591849062000706565b60405180910390a1505050565b60008181526003830160205260409081902060068082018054600160801b60ff60801b199091168117600160401b600160801b031990811668010000000000000000426001600160401b03908116820292909217909455855460018a018054600160801b600160c01b0319169186900483169094021790911681881684021790915591548354945193947f70801d4d63b3da6c19ba7349911f45bed5a99ccdfb51b8138c105872529bebd5946200037594929388938381169391909104169062000725565b5050565b6001546040516000916060916001600160a01b03909116906200046e90620006f9565b60408051918290038220600483526024830182526020830180516001600160e01b03166001600160e01b031990921691909117905251620004b09190620006e4565b600060405180830381855af49150503d8060008114620004ed576040519150601f19603f3d011682016040523d82523d6000602084013e620004f2565b606091505b5091509150816200044757600080fd5b6200051782826001600160e01b036200054716565b156200052257600080fd5b6001600160a01b0316600090815260209190915260409020805460ff19166001179055565b60006001600160a01b0382166200055d57600080fd5b506001600160a01b03811660009081526020839052604090205460ff165b92915050565b80516200057b81620007e1565b80516200057b81620007fb565b80516200057b8162000806565b600080600080600080600080610100898b031215620005c657600080fd5b6000620005d48b8b62000581565b9850506020620005e78b828c0162000581565b9750506040620005fa8b828c0162000581565b96505060606200060d8b828c016200058e565b9550506080620006208b828c016200059b565b94505060a0620006338b828c016200059b565b93505060c0620006468b828c016200059b565b92505060e0620006598b828c016200059b565b9150509295985092959890939650565b600062000676826200076b565b6200068281856200076f565b935062000694818560208601620007ae565b9290920192915050565b6000620006ad600c836200076f565b6b707265706172654e5245282960a01b8152600c0192915050565b620006d38162000786565b82525050565b620006d381620007a1565b6000620006f2828462000669565b9392505050565b60006200057b826200069e565b60408101620007168285620006c8565b620006f26020830184620006c8565b60808101620007358287620006c8565b620007446020830186620006c8565b620007536040830185620006d9565b620007626060830184620006d9565b95945050505050565b5190565b919050565b60006200057b8262000789565b151590565b90565b6001600160a01b031690565b6001600160401b031690565b60006200057b8262000795565b60005b83811015620007cb578181015183820152602001620007b1565b83811115620007db576000848401525b50505050565b620007ec8162000774565b8114620007f857600080fd5b50565b620007ec8162000781565b620007ec8162000786565b61578b80620008216000396000f3fe6080604052600436106104105760003560e01c80638b5172d01161021e578063c8ad329f11610123578063e259faf7116100ab578063ea0c73f61161007a578063ea0c73f614610adf578063ea7f22a814610af4578063f28a7afa14610b14578063f4f31de414610b34578063fb788a2714610b5457610410565b8063e259faf714610a9a578063e6925d0814610aaf578063e7b88b8014610ab7578063e7f9650514610acc57610410565b8063d1723a96116100f2578063d1723a9614610a18578063d636857e14610a45578063d691acd81461044b578063da0185f814610a65578063de0ce17d14610a8557610410565b8063c8ad329f146109a3578063ca6f6380146109b8578063cb5d742f146109d8578063ce8a2bc2146109f857610410565b8063b2ae9ba8116101a6578063b8066bcb11610175578063b8066bcb14610912578063c0c49c2a14610927578063c0e8606414610947578063c2bc88fa14610979578063c54626cc1461098e57610410565b8063b2ae9ba81461044b578063b443f3cc146108a6578063b540adba146108dd578063b6715647146108f257610410565b806399bd3600116101ed57806399bd360014610834578063a820c06714610849578063a926fdbc1461085c578063ab96da2d1461087c578063b17fa6e91461089157610410565b80638b5172d0146107f55780638eb288ca1461080a578063935212221461081f57806394be3aa51461044b57610410565b8063404f7d66116103245780636f3e4b90116102ac5780637657f20a1161027b5780637657f20a1461077857806378fe705f146107985780637b929c27146107ab57806380e3e81d146107c05780638155717d146107e057610410565b80636f3e4b901461071b5780636fb7f5581461072e57806372ecb9a81461074357806375395a581461076357610410565b806354768571116102f35780635476857114610684578063570ca735146106a45780635b884682146106c65780635e0ca71b146106e65780636299fb24146106fb57610410565b8063404f7d66146105ea578063420bb4b81461060a5780634a44bdb81461061f5780634ba3a1261461064c57610410565b8063183d2d1c116103a75780632aa196c8116103765780632aa196c81461056b5780632b25a38b1461057e5780632dc6bb7b146105ab5780633565fb0d146105c0578063398bac63146105d557610410565b8063183d2d1c1461050c578063192adc5b146105215780631ec2042b14610536578063236915661461055657610410565b806308c4fff0116103e357806308c4fff0146104a25780630eaf45a8146104b757806311e4c914146104d7578063164bc2ae146104f757610410565b8063019dc09914610415578063033cfbed1461044b57806306394c9b14610460578063072900f914610482575b600080fd5b34801561042157600080fd5b5061043561043036600461498c565b610b69565b6040516104429190615329565b60405180910390f35b34801561045757600080fd5b50610435610b91565b34801561046c57600080fd5b5061048061047b3660046148aa565b610b9b565b005b34801561048e57600080fd5b5061048061049d3660046148aa565b610c12565b3480156104ae57600080fd5b50610435610c3a565b6104ca6104c5366004614b32565b610c3f565b604051610442919061521e565b3480156104e357600080fd5b506104356104f236600461498c565b610c93565b34801561050357600080fd5b50610435610cb5565b34801561051857600080fd5b50610435610cbb565b34801561052d57600080fd5b50610435610cc1565b34801561054257600080fd5b5061043561055136600461498c565b610ccb565b34801561056257600080fd5b50610435610ce9565b6104ca61057936600461490a565b610cef565b34801561058a57600080fd5b5061059e610599366004614b02565b610db1565b604051610442919061530b565b3480156105b757600080fd5b50610435611119565b3480156105cc57600080fd5b5061048061111f565b3480156105e157600080fd5b5061059e61112a565b3480156105f657600080fd5b50610480610605366004614ba7565b6114c5565b34801561061657600080fd5b506104ca611759565b34801561062b57600080fd5b5061063f61063a366004614b02565b61175e565b604051610442919061531a565b34801561065857600080fd5b5061066c61066736600461498c565b61184e565b6040516104429c9b9a99989796959493929190615577565b34801561069057600080fd5b506104ca61069f36600461498c565b6118c5565b3480156106b057600080fd5b506106b96118f3565b60405161044291906151f5565b3480156106d257600080fd5b506104356106e1366004614b02565b611907565b3480156106f257600080fd5b50610480611938565b34801561070757600080fd5b50610480610716366004614a3b565b611941565b6104ca6107293660046149da565b6119a4565b34801561073a57600080fd5b506106b96119ba565b34801561074f57600080fd5b5061043561075e36600461498c565b6119c9565b34801561076f57600080fd5b506104ca6119db565b34801561078457600080fd5b506104806107933660046148aa565b6119f4565b6104ca6107a636600461490a565b611a32565b3480156107b757600080fd5b506104ca611ab3565b3480156107cc57600080fd5b506104806107db3660046148aa565b611abc565b3480156107ec57600080fd5b50610435611ae1565b34801561080157600080fd5b50610435611ae6565b34801561081657600080fd5b50610435611af0565b34801561082b57600080fd5b50610435611af7565b34801561084057600080fd5b506104ca611b06565b6104ca6108573660046149da565b6123ae565b34801561086857600080fd5b506104ca6108773660046148aa565b612400565b34801561088857600080fd5b50610435612413565b34801561089d57600080fd5b50610435612419565b3480156108b257600080fd5b506108c66108c136600461498c565b61241e565b6040516104429b9a999897969594939291906154cd565b3480156108e957600080fd5b5061043561253f565b3480156108fe57600080fd5b5061043561090d36600461498c565b612545565b34801561091e57600080fd5b506106b9612557565b34801561093357600080fd5b506104ca6109423660046148aa565b612566565b34801561095357600080fd5b5061096761096236600461498c565b612579565b60405161044296959493929190615273565b34801561098557600080fd5b506104356125e0565b34801561099a57600080fd5b506104356125e5565b3480156109af57600080fd5b506104356125eb565b3480156109c457600080fd5b506104356109d336600461498c565b6125f1565b3480156109e457600080fd5b506104ca6109f33660046148d0565b612603565b348015610a0457600080fd5b506104ca610a1336600461498c565b6126c9565b348015610a2457600080fd5b50610a38610a3336600461498c565b6126d1565b60405161044291906152ea565b348015610a5157600080fd5b50610435610a6036600461498c565b61287a565b348015610a7157600080fd5b506106b9610a803660046148aa565b61289f565b348015610a9157600080fd5b506106b96128ba565b348015610aa657600080fd5b506106b96128bf565b6104806128ce565b348015610ac357600080fd5b506106b96128e2565b6104ca610ada36600461490a565b6128f1565b348015610aeb57600080fd5b50610435612960565b348015610b0057600080fd5b50610967610b0f36600461498c565b612966565b348015610b2057600080fd5b506104ca610b2f3660046149aa565b612973565b348015610b4057600080fd5b506108c6610b4f36600461498c565b6129bc565b348015610b6057600080fd5b506104356129c9565b600081815260086020526040902060010154600160401b90046001600160401b03165b919050565b6509184e72a00081565b60005461010090046001600160a01b03163314610bb757600080fd5b60008054610100600160a81b0319166101006001600160a01b038416021790556040517f4721129e0e676ed6a92909bb24e853ccdd63ad72280cc2e974e38e480e0e6e5490610c079083906151f5565b60405180910390a150565b60005461010090046001600160a01b03163314610c2e57600080fd5b610c37816129cf565b50565b600f81565b6000610c4a33612400565b610c5357600080fd5b6509184e72a00080341015610c6757600080fd5b60005460ff16610c7b57610c79612a17565b505b610c888787878787612b8d565b979650505050505050565b600090815260086020526040902054600160801b90046001600160401b031690565b60105481565b60065481565b6551dac207a00081565b6000908152600860205260409020600101546001600160401b031690565b600d5481565b60008034610d056009600b888489898880612c6c565b600d805460010190556006546000908152600860205260408082209051929450917f6940a01870e576ceb735867e13863646d517ce10e66c0133186a4ebdfe9388c291610d54918691906153eb565b60405180910390a17f879922cf5fcada9ebaf8bd7424dc62877f4b220cae07fb6695cc1e8f94c52b4d833389858a8a600080604051610d9a9897969594939291906153b5565b60405180910390a1600193505050505b9392505050565b610db961438c565b600860008481526020019081526020016000206003016000838152602001908152602001600020604051806101400160405290816000820160009054906101000a90046001600160401b03166001600160401b03166001600160401b031681526020016000820160089054906101000a90046001600160401b03166001600160401b03166001600160401b031681526020016000820160109054906101000a90046001600160401b03166001600160401b03166001600160401b031681526020016000820160189054906101000a900460ff161515151581526020016000820160199054906101000a900460ff1615151515815260200160008201601a9054906101000a900460ff1615151515815260200160008201601b9054906101000a900460ff1615151515815260200160008201601c9054906101000a900460ff16151515158152602001600182016040518060c00160405290816000820160009054906101000a90046001600160401b03166001600160401b03166001600160401b031681526020016000820160089054906101000a90046001600160401b03166001600160401b03166001600160401b031681526020016000820160109054906101000a90046001600160401b03166001600160401b03166001600160401b031681526020016000820160189054906101000a90046001600160401b03166001600160401b03166001600160401b031681526020016001820160009054906101000a90046001600160401b03166001600160401b03166001600160401b031681526020016001820160089054906101000a90046001600160401b03166001600160401b03166001600160401b031681525050815260200160038201604051806101000160405290816000820154815260200160018201548152602001600282015481526020016003820160009054906101000a90046001600160401b03166001600160401b03166001600160401b031681526020016003820160089054906101000a90046001600160401b03166001600160401b03166001600160401b031681526020016003820160109054906101000a900460ff161515151581526020016003820160119054906101000a900460ff161515151581526020016003820160129054906101000a900460ff1615151515815250508152505090505b92915050565b60135481565b6111283361328e565b565b61113261438c565b600860006006548152602001908152602001600020600301600060086000600654815260200190815260200160002060000160109054906101000a90046001600160401b03166001600160401b03168152602001908152602001600020604051806101400160405290816000820160009054906101000a90046001600160401b03166001600160401b03166001600160401b031681526020016000820160089054906101000a90046001600160401b03166001600160401b03166001600160401b031681526020016000820160109054906101000a90046001600160401b03166001600160401b03166001600160401b031681526020016000820160189054906101000a900460ff161515151581526020016000820160199054906101000a900460ff1615151515815260200160008201601a9054906101000a900460ff1615151515815260200160008201601b9054906101000a900460ff1615151515815260200160008201601c9054906101000a900460ff16151515158152602001600182016040518060c00160405290816000820160009054906101000a90046001600160401b03166001600160401b03166001600160401b031681526020016000820160089054906101000a90046001600160401b03166001600160401b03166001600160401b031681526020016000820160109054906101000a90046001600160401b03166001600160401b03166001600160401b031681526020016000820160189054906101000a90046001600160401b03166001600160401b03166001600160401b031681526020016001820160009054906101000a90046001600160401b03166001600160401b03166001600160401b031681526020016001820160089054906101000a90046001600160401b03166001600160401b03166001600160401b031681525050815260200160038201604051806101000160405290816000820154815260200160018201548152602001600282015481526020016003820160009054906101000a90046001600160401b03166001600160401b03166001600160401b031681526020016003820160089054906101000a90046001600160401b03166001600160401b03166001600160401b031681526020016003820160109054906101000a900460ff161515151581526020016003820160119054906101000a900460ff161515151581526020016003820160129054906101000a900460ff1615151515815250508152505090505b90565b600087815260086020908152604080832089845260048101909252909120600581015460ff166114f457600080fd5b6005810154640100000000900460ff1661150d57600080fd5b6005810154600090610100900460ff16801561161d576115e683600c8560000160089054906101000a90046001600160401b03166001600160401b03168154811061155457fe5b9060005260206000209060020201600a8c8c8c8080601f016020809104026020016040519081016040528093929190818152602001838380828437600081840152601f19601f820116905080830192505050505050508b8b8080601f0160208091040260200160405190810160405280939291908181526020018383808284376000920191909152506132d692505050565b60405190925033906000906512309ce540009082818181858883f19350505050158015611617573d6000803e3d6000fd5b50611713565b6116e083600b8560000160089054906101000a90046001600160401b03166001600160401b03168154811061164e57fe5b906000526020600020906002020160098c8c8c8080601f016020809104026020016040519081016040528093929190818152602001838380828437600081840152601f19601f820116905080830192505050505050508b8b8080601f0160208091040260200160405190810160405280939291908181526020018383808284376000920191909152506132d692505050565b60405190925033906000906509184e72a0009082818181858883f19350505050158015611711573d6000803e3d6000fd5b505b7fc8135db115644ed4ae193313c4c801235ef740d2a57a8d5e6fe26ab66635698a82826040516117449291906153eb565b60405180910390a15050505050505050505050565b600181565b6117666143ec565b506000918252600860209081526040808420928452600492830182529283902083516101a08101855281546001600160401b038082168352600160401b8204811694830194909452600160801b8104841695820195909552600160c01b9094048216606085015260018101549091166080840152600281015460a0840152600381015460c08401529081015460e08301526005015460ff80821615156101008085019190915282048116151561012084015262010000820481161515610140840152630100000082048116151561016084015264010000000090910416151561018082015290565b6008602052600090815260409020805460018201546002909201546001600160401b0380831693600160401b808504831694600160801b808204851695600160c01b92839004861695858116958581048216958482048316959182900483169484841694918204841693908204169160ff9104168c565b6000805b828110156118ea576118d9611b06565b6118e257600080fd5b6001016118c9565b50600192915050565b60005461010090046001600160a01b031681565b600091825260086020908152604080842092845260049092019052902054600160c01b90046001600160401b031690565b611128336133e1565b60065460009081526008602090815260408083208b845260048101909252909120600581015460ff161561197457600080fd5b8054426001600160401b03600160801b90920491909116600f011161199857600080fd5b50505050505050505050565b60006551dac207a0008034101561041057600080fd5b6004546001600160a01b031681565b60076020526000908152604090205481565b60006119e5612a17565b6119ee57600080fd5b50600190565b60005461010090046001600160a01b03163314611a1057600080fd5b600480546001600160a01b0319166001600160a01b0392909216919091179055565b60006512309ce5400080341015611a4857600080fd5b6000611a5e600a600c8860008989600180612c6c565b90507f879922cf5fcada9ebaf8bd7424dc62877f4b220cae07fb6695cc1e8f94c52b4d81338860008989600180604051611a9f989796959493929190615337565b60405180910390a150600195945050505050565b60005460ff1681565b60005461010090046001600160a01b03163314611ad857600080fd5b610c3781613429565b600a81565b6512309ce5400081565b620186a081565b6000611b01613471565b905090565b60105460009081526008602052604081206011546001820154601254849392916001600160401b03161015611b3a57600080fd5b601254600090815260048301602090815260408083208484526003860190925290912083546001600160401b031615801590611b84575083546012546001600160401b0390911611155b15611bef5750506010805460010190819055600090815260086020908152604080832080546001600160401b03600160401b82048116808752600384018652848720600160c01b90930490911660128190556011829055865260048301909452919093209294509092505b600582015460ff16611c815782611c19576010546000908152600f60205260409020549250611c40565b600092835260038401602052604090922060020154600160401b90046001600160401b0316915b82611c4a57600080fd5b50506000818152600383016020908152604080832080546001600160401b0316601281905584526004860190925290912090611ca1565b5080546001600160401b0316600081815260038501602052604090209092505b60118390558054600160c01b900460ff1615611cbc57600080fd5b8054600160d01b900460ff16611cd157600080fd5b600582015460ff16611ce257600080fd5b6005820154640100000000900460ff16611cfb57600080fd5b8154426001600160401b03600160c01b90920491909116600a011115611d2057600080fd5b6005820154610100900460ff161561209857601454600a549095508510611d4657600080fd5b6000600a8681548110611d5557fe5b906000526020600020906006020190506000600c8460000160089054906101000a90046001600160401b03166001600160401b031681548110611d9457fe5b600091825260209091206002909102018054909150600160881b90046001600160401b03168710801590611dd5575060018101546001600160401b03168711155b611dde57600080fd5b60018101546001600160401b0316871415611e395785546001600160401b031615801590611e20575085546012546000196001600160401b0392831601909116145b15611e2f576010805460010190555b6012805460010190555b600187016014558154600160401b900460ff168015611e6157508154600160581b900460ff16155b1561203c57604080516101608101825283546001600160401b0381168252600160401b810460ff9081161515602080850191909152600160481b83048216151584860152600160501b8304821615156060850152600160581b830490911615156080840152600160601b9091046001600160801b031660a08301526001808601546001600160a01b0390811660c085015260028088015490911660e085015260038701546101008086019190915260048801546101208601526005880180548751948116159092026000190190911691909104601f8101849004840283018401909552848252611fc2948c9493889361014086019390929091830182828015611fab5780601f10611f8057610100808354040283529160200191611fab565b820191906000526020600020905b815481529060010190602001808311611f8e57829003601f168201915b50505050508152505061347690919063ffffffff16565b5060018201546040516001600160a01b03909116906000906512309ce540009082818181858883f19350505050158015612000573d6000803e3d6000fd5b507f6940a01870e576ceb735867e13863646d517ce10e66c0133186a4ebdfe9388c28760016040516120339291906153eb565b60405180910390a15b815460ff60501b1916600160501b1782556040517f134017cf3262b18f892ee95dde3b0aec9a80cc70a7c96f09c64bd237aceb0473906120809089906001906153eb565b60405180910390a160019750505050505050506114c2565b60135460095490955085106120ac57600080fd5b8154600b8054600092600160401b90046001600160401b03169081106120ce57fe5b600091825260209091206002909102018054909150600160881b90046001600160401b0316861080159061210f575060018101546001600160401b03168611155b61211857600080fd5b60018101546001600160401b03168614156121735784546001600160401b03161580159061215a575084546012546000196001600160401b0392831601909116145b15612169576010805460010190555b6012805460010190555b60006009878154811061218257fe5b6000918252602090912060018901601355600690910201805460ff60501b1916600160501b17808255909150600160401b900460ff1680156121cd57508054600160581b900460ff16155b1561236657604080516101608101825282546001600160401b0381168252600160401b810460ff9081161515602080850191909152600160481b83048216151584860152600160501b8304821615156060850152600160581b830490911615156080840152600160601b9091046001600160801b031660a08301526001808501546001600160a01b0390811660c085015260028087015490911660e085015260038601546101008086019190915260048701546101208601526005870180548751948116159092026000190190911691909104601f81018490048402830184019095528482526122ec948c9493879361014086019390929091830182828015611fab5780601f10611f8057610100808354040283529160200191611fab565b5060018101546040516001600160a01b03909116906000906509184e72a0009082818181858883f1935050505015801561232a573d6000803e3d6000fd5b507f6940a01870e576ceb735867e13863646d517ce10e66c0133186a4ebdfe9388c287600060405161235d9291906153eb565b60405180910390a15b7f134017cf3262b18f892ee95dde3b0aec9a80cc70a7c96f09c64bd237aceb04738760006040516123989291906153eb565b60405180910390a1600197505050505050505090565b60006123b933612400565b6123c257600080fd5b6509184e72a000803410156123d657600080fd5b60005460ff166123ea576123e8612a17565b505b6123f686868686613523565b9695505050505050565b600061111360178363ffffffff6135fd16565b60055481565b601481565b6009818154811061242b57fe5b6000918252602091829020600691909102018054600180830154600280850154600386015460048701546005880180546040805161010099831615999099026000190190911695909504601f81018b90048b0288018b019095528487526001600160401b0388169a50600160401b880460ff9081169a600160481b8a0482169a600160501b8b0483169a600160581b810490931699600160601b9093046001600160801b0316986001600160a01b03908116989716969093918301828280156125355780601f1061250a57610100808354040283529160200191612535565b820191906000526020600020905b81548152906001019060200180831161251857829003601f168201915b505050505090508b565b60095490565b600e6020526000908152604090205481565b6003546001600160a01b031681565b600061111360168363ffffffff6135fd16565b600c818154811061258657fe5b60009182526020909120600290910201805460019091015460ff821692506001600160401b036101008304811692600160481b8104821692600160881b9091048216918116906001600160a01b03600160401b9091041686565b603c81565b60145481565b60115481565b600f6020526000908152604090205481565b600061260e33612566565b61261757600080fd5b612629836001600160a01b0316613632565b61263257600080fd5b6001600160a01b03838116600090815260156020526040902054161561265757600080fd5b6001600160a01b038381166000908152601560205260409081902080546001600160a01b03191692851692909217909155517fc5ec2ed49686197edd2ed642c7e6096893cc81e6658cde2527030316037715d0906126b89085908590615203565b60405180910390a150600192915050565b600654141590565b60606000600983815481106126e257fe5b600091825260208083206002600690930201828101546001600160a01b039081168086526015845260408087205481516101608101835285546001600160401b038116825260ff600160401b820481161515838a0152600160481b82048116151583860152600160501b8204811615156060840152600160581b820416151560808301526001600160801b03600160601b9091041660a0820152600180870154861660c083015260e082019490945260038601546101008281019190915260048701546101208301526005870180548551601f60001998831615909402979097011699909904908101889004880285018801909352828452949850610daa97612875978c97919661286896939093169492938b93610140860193909291908301828280156128515780601f1061282657610100808354040283529160200191612851565b820191906000526020600020905b81548152906001019060200180831161283457829003601f168201915b50505050508152505061363890919063ffffffff16565b919063ffffffff61370616565b61375e565b600090815260086020526040902060010154600160801b90046001600160401b031690565b6015602052600090815260409020546001600160a01b031681565b600081565b6002546001600160a01b031681565b6509184e72a0008034101561041057600080fd5b6001546001600160a01b031681565b60006509184e72a0008034101561290757600080fd5b600061291e6009600b886000898960016000612c6c565b90507f879922cf5fcada9ebaf8bd7424dc62877f4b220cae07fb6695cc1e8f94c52b4d8133886000898960016000604051611a9f989796959493929190615337565b600b5490565b600b818154811061258657fe5b6000811561298d57600a838154811061298857fe5b506000525b6009838154811061299a57fe5b6000918252602090912060069091020154600160501b900460ff169392505050565b600a818154811061242b57fe5b60125481565b6129e060178263ffffffff61390116565b6040516001600160a01b038216907fb079bc2cbde1f186e0b351d4a87c4597e3ed098f571548617449e73506428d8b90600090a250565b600654600090815260086020526040812080546001600160401b031615612a425760009150506114c2565b8054600180830154600092612a74926001600160401b03600160c01b909204821692600160801b90048216011661393a565b60018301549091506001600160401b0316811115612a97576000925050506114c2565b6000818152600483016020526040902060058101546301000000900460ff1615612ac757600093505050506114c2565b600581015460ff1615612b17578054426001600160401b03600160801b90920491909116600f011115612b0057600093505050506114c2565b612b0b838284613951565b600193505050506114c2565b6001808401546001600160401b03600160401b9091048116909101165b6000818152600385016020526040902054600160d01b900460ff1615612b5c57600101612b34565b612b668482613a11565b15612b8257612b758482613acb565b60019450505050506114c2565b600094505050505090565b60025460405160009182916060916001600160a01b031690612bae906151c9565b60405180910390208989898989604051602401612bcf959493929190615456565b60408051601f198184030181529181526020820180516001600160e01b03166001600160e01b0319909416939093179092529051612c0d91906151bd565b600060405180830381855af49150503d8060008114612c48576040519150601f19603f3d011682016040523d82523d6000602084013e612c4d565b606091505b509150915081612c5c57600080fd5b6001925050505b95945050505050565b600061040084511115612c7e57600080fd5b6003546001600160a01b03888116911614808015612c9a575083155b80612cbe57506001600160a01b038881166000908152601560205260409020541615155b612cc757600080fd5b8954612cd68b60018301614458565b915060008a8381548110612ce657fe5b600091825260209182902060069190910201600181018054336001600160a01b0319918216179091556002820180549091166001600160a01b038d16179055805467ffffffffffffffff1916426001600160401b03161768ff00000000000000001916600160401b881515021769ff0000000000000000001916600160481b85151502176fffffffffffffffffffffffffffffffff60601b1916600160601b6001600160801b038c1602178155600381018990558751909250612db191600584019190890190614489565b5084612eda57604080516101608101825282546001600160401b0381168252600160401b810460ff9081161515602080850191909152600160481b83048216151584860152600160501b8304821615156060850152600160581b830490911615156080840152600160601b9091046001600160801b031660a08301526001808501546001600160a01b0390811660c085015260028087015490911660e085015260038601546101008086019190915260048701546101208601526005870180548751948116159092026000190190911691909104601f8101849004840283018401909552848252612ed194889493879361014086019390929091830182828015611fab5780601f10611f8057610100808354040283529160200191611fab565b612eda57600080fd5b895460009015612eef578a5460001901612efe565b8a54612efe8c60018301614507565b905060008b8281548110612f0e57fe5b60009182526020909120600290910201805490915060ff1680612f565750612f34613471565b81546001808401546001600160401b03600160881b9093048316908316030116145b15612fb957805460ff1916600190811782558c548d91612f799083908301614507565b81548110612f8357fe5b60009182526020909120600290910201805467ffffffffffffffff60881b1916600160881b6001600160401b0388160217815590505b612fc281610c37565b60018101805467ffffffffffffffff19166001600160401b038716179055866130105780546001600160401b0361010080830482166001019091160268ffffffffffffffff00199091161781555b83801561301b575086155b1561315257604080516101608101825284546001600160401b0381168252600160401b810460ff9081161515602080850191909152600160481b83048216151584860152600160501b8304821615156060850152600160581b830490911615156080840152600160601b9091046001600160801b031660a08301526001808701546001600160a01b0390811660c085015260028089015490911660e085015260038801546101008086019190915260048901546101208601526005890180548751948116159092026000190190911691909104601f810184900484028301840190955284825261314d94889461313e94339491938793610140860193928301828280156128515780601f1061282657610100808354040283529160200191612851565b8391908863ffffffff613b8b16565b61327e565b6001600160a01b038b81166000908152601560209081526040918290205482516101608101845287546001600160401b0381168252600160401b810460ff908116151583860152600160481b82048116151583870152600160501b8204811615156060840152600160581b82041615156080830152600160601b90046001600160801b031660a0820152600180890154861660c08301526002808a0154871660e084015260038a01546101008085019190915260048b015461012085015260058b0180548851948116159092026000190190911691909104601f810186900486028301860190965285825261327e968a9661313e9695909116948793610140860193909290918301828280156128515780601f1061282657610100808354040283529160200191612851565b5050505098975050505050505050565b61329f60168263ffffffff613bad16565b6040516001600160a01b038216907ff012269e1b6bb33c7800e7e54167ddd74f0ae7244108030b6876821d3779822f90600090a250565b845460018601546001600160401b03600160881b9092048216850191168111156132ff57600080fd5b600085828154811061330d57fe5b6000918252602090912089546006909202019150426001600160401b03600160c01b90920491909116600a011161334357600080fd5b6005880154640100000000900460ff1661335c57600080fd5b8054600160581b900460ff161561337257600080fd5b8054600160501b900460ff161561338857600080fd5b8351602085012061339885613be2565b156133a257600080fd5b60005460ff166133c5576133bc81878b6004015487613c1f565b6133c557600080fd5b50805460ff60581b1916600160581b1790559695505050505050565b6133f260178263ffffffff613bad16565b6040516001600160a01b038216907ff84a004e1673d2f349a7c93c72b3794b8eba6d2f9338044d8c8cd260e51a57a190600090a250565b61343a60168263ffffffff61390116565b6040516001600160a01b038216907fa199526a01dbcba68aa3ab9d7d06c6692c83fb1a8bcf2184e6d94ad34f5aaf9590600090a250565b601490565b600062019a285a1161348757600080fd5b8260e001516001600160a01b031663a9f793088460200151848660c001518761010001518861014001516040518663ffffffff1660e01b81526004016134d195949392919061522c565b602060405180830381600087803b1580156134eb57600080fd5b505af11580156134ff573d6000803e3d6000fd5b505050506040513d601f19601f82011682018060405250610daa919081019061496e565b60025460405160009182916060916001600160a01b031690613544906151df565b6040518091039020888888886040516024016135639493929190615406565b60408051601f198184030181529181526020820180516001600160e01b03166001600160e01b03199094169390931790925290516135a191906151bd565b600060405180830381855af49150503d80600081146135dc576040519150601f19603f3d011682016040523d82523d6000602084013e6135e1565b606091505b5091509150816135f057600080fd5b5060019695505050505050565b60006001600160a01b03821661361257600080fd5b506001600160a01b03166000908152602091909152604090205460ff1690565b3b151590565b613640614533565b6020808401805115159183019190915260408085015115159083015260c0808501516001600160a01b0316908301525115801561367e575082604001515b156136c85760c08301516001600160a01b031660e082015261014083015160208101516001600160801b0381166136b457600080fd5b6001600160801b031660a083015250611113565b6001600160a01b03821660e082015260a0808401516001600160801b0316908201526101008084015190820152610140808401519082015292915050565b61370e614591565b633b9aca006020820152620186a0604082015260e08401516001600160a01b0316606082015260a08401516001600160801b03166080820152613752848484613cea565b60a08201529392505050565b6040805160098082526101408201909252606091829190816020015b606081526020019060019003908161377a57505083519091506137a5906001600160401b0316613dc0565b816000815181106137b257fe5b60200260200101819052506137ca8360200151613dc0565b816001815181106137d757fe5b60200260200101819052506137f883604001516001600160401b0316613dc0565b8160028151811061380557fe5b602002602001018190525061382683606001516001600160a01b0316613dd3565b8160038151811061383357fe5b602002602001018190525061384b8360800151613dc0565b8160048151811061385857fe5b60200260200101819052506138708360a00151613df2565b8160058151811061387d57fe5b60200260200101819052506138958360c00151613dc0565b816006815181106138a257fe5b60200260200101819052506138ba8360e00151613dc0565b816007815181106138c757fe5b60200260200101819052506138e0836101000151613dc0565b816008815181106138ed57fe5b6020026020010181905250610daa81613e48565b61390b82826135fd565b1561391557600080fd5b6001600160a01b0316600090815260209190915260409020805460ff19166001179055565b60008183101561394a5781610daa565b5090919050565b60058201805464010000000064ff000000001990911617905581546001600160c01b0316600160c01b426001600160401b039081169190910291909117835560018401805467ffffffffffffffff60801b1916600160801b8484160217808255845467ffffffffffffffff60401b199091169216600160401b029190911790556006546040517ffb96205e4b3633fd57aa805b26b51ecf528714a10241a4af015929dce86768d991613a0491849061543b565b60405180910390a1505050565b8154600090600160801b90046001600160401b0316821115613a3557506000611113565b600082815260038401602052604090208054600160c81b900460ff16613a5f576000915050611113565b8054600160d01b900460ff1615613a7a576000915050611113565b6006810154600160881b900460ff1680613a9f57506006810154600160901b900460ff165b15613aae576000915050611113565b60060154426001600160401b039091166014011115905092915050565b60008181526003830160205260409081902060068082018054600160801b60ff60801b19909116811767ffffffffffffffff60401b19908116600160401b426001600160401b03908116820292909217909455855460018a01805467ffffffffffffffff60801b19169186900483169094021790911681881684021790915591548354945193947f70801d4d63b3da6c19ba7349911f45bed5a99ccdfb51b8138c105872529bebd594613a04949293889383811693919091041690615498565b613b9f613b9a83836000613706565b613ea5565b836004018190555050505050565b613bb782826135fd565b613bc057600080fd5b6001600160a01b0316600090815260209190915260409020805460ff19169055565b60006060613c006004613bf485613ec1565b9063ffffffff613ee416565b9050610daa81600081518110613c1257fe5b6020026020010151613f71565b60006020825181613c2c57fe5b0615613c3757600080fd5b60006020835181613c4457fe5b04905060108110613c5457600080fd5b60008660205b836020028111613cdc5785810151925060028806613ca2578183604051602001613c8592919061517b565b604051602081830303815290604052805190602001209150613cce565b8282604051602001613cb592919061517b565b6040516020818303038152906040528051906020012091505b600288049750602001613c5a565b509094149695505050505050565b606083604001518015613cff57508360200151155b15613d0957610daa565b600082613d2957604051613d1c906151d4565b6040518091039020613d3e565b604051613d35906151ea565b60405180910390205b9050808560200151613d51576000613d54565b60015b60ff1660001b858760c001516001600160a01b0316886101000151896101400151604051602001613d899594939291906152c2565b60408051601f1981840301815290829052613da792916020016151a1565b6040516020818303038152906040529150509392505050565b6060611113613dce83613f95565b613df2565b60408051600560a21b8318601482015260348101909152606090610daa815b606081516001148015613e245750607f60f81b82600081518110613e1257fe5b01602001516001600160f81b03191611155b15613e30575080610b8c565b611113613e428351608060ff1661408e565b83614157565b604080516000808252602082019092526060915b8351811015613e8c57613e8282858381518110613e7557fe5b6020026020010151614157565b9150600101613e5c565b50610daa613e9f825160c060ff1661408e565b82614157565b60006060613eb28361375e565b80516020909101209392505050565b613ec96145f8565b50805160408051808201909152602092830181529182015290565b606081604051908082528060200260200182016040528015613f2057816020015b613f0d6145f8565b815260200190600190039081613f055790505b509050613f2b614612565b613f348461423c565b905060005b83811015613f6957613f4a82614261565b838281518110613f5657fe5b6020908102919091010152600101613f39565b505092915050565b6000806000613f7f84614293565b90516020919091036101000a9004949350505050565b6040805160208082528183019092526060916000918391602082018180388339019050509050836020820152600091505b6020821015613fff57808281518110613fdb57fe5b01602001516001600160f81b03191615613ff457613fff565b600190910190613fc6565b6060826020036040519080825280601f01601f19166020018201604052801561402f576020820181803883390190505b50905060005b815181101561408557825160018501948491811061404f57fe5b602001015160f81c60f81b82828151811061406657fe5b60200101906001600160f81b031916908160001a905350600101614035565b50949350505050565b6060600160401b83106140bc5760405162461bcd60e51b81526004016140b3906152fb565b60405180910390fd5b604080516001808252818301909252606091602082018180388339019050509050603784116141165782840160f81b816000815181106140f857fe5b60200101906001600160f81b031916908160001a9053509050611113565b606061412185613f95565b90508381510160370160f81b8260008151811061413a57fe5b60200101906001600160f81b031916908160001a905350612c6382825b60608082518451016040519080825280601f01601f191660200182016040528015614189576020820181803883390190505b5090506000805b85518110156141df578581815181106141a557fe5b602001015160f81c60f81b8383815181106141bc57fe5b60200101906001600160f81b031916908160001a90535060019182019101614190565b5060005b8451811015614232578481815181106141f857fe5b602001015160f81c60f81b83838151811061420f57fe5b60200101906001600160f81b031916908160001a905350600191820191016141e3565b5090949350505050565b614244614612565b600061424f836142f2565b83519383529092016020820152919050565b6142696145f8565b602082015160006142798261435c565b828452602080850182905292019390910192909252919050565b805180516000918291821a9060808210156142b5579250600191506142ed9050565b60b88210156142d357600185602001510392508060010193506142ea565b602085015182820160b51901945082900360b60192505b50505b915091565b8051805160009190821a90608082101561431157600092505050610b8c565b60b882108061432c575060c0821015801561432c575060f882105b1561433c57600192505050610b8c565b60c0821015614351575060b519019050610b8c565b5060f5190192915050565b8051600090811a60808110156143755760019150614386565b60b881101561438657607e19810191505b50919050565b6040805161014081018252600080825260208201819052918101829052606081018290526080810182905260a0810182905260c0810182905260e081019190915261010081016143da614632565b81526020016143e7614667565b905290565b604080516101a081018252600080825260208201819052918101829052606081018290526080810182905260a0810182905260c0810182905260e08101829052610100810182905261012081018290526101408101829052610160810182905261018081019190915290565b8154818355818111156144845760060281600602836000526020600020918201910161448491906146ab565b505050565b828054600181600116156101000203166002900490600052602060002090601f016020900481019282601f106144ca57805160ff19168380011785556144f7565b828001600101855582156144f7579182015b828111156144f75782518255916020019190600101906144dc565b5061450392915061470d565b5090565b815481835581811115614484576002028160020283600052602060002091820191016144849190614727565b604080516101608101825260008082526020820181905291810182905260608082018390526080820183905260a0820183905260c0820183905260e08201839052610100820183905261012082019290925261014081019190915290565b60405180610120016040528060006001600160401b031681526020016000815260200160006001600160401b0316815260200160006001600160a01b0316815260200160008152602001606081526020016000815260200160008152602001600081525090565b604051806040016040528060008152602001600081525090565b60405180604001604052806146256145f8565b8152602001600081525090565b6040805160c081018252600080825260208201819052918101829052606081018290526080810182905260a081019190915290565b6040805161010081018252600080825260208201819052918101829052606081018290526080810182905260a0810182905260c0810182905260e081019190915290565b6114c291905b808211156145035780546001600160e01b03191681556001810180546001600160a01b0319908116909155600282018054909116905560006003820181905560048201819055614704600583018261475d565b506006016146b1565b6114c291905b808211156145035760008155600101614713565b6114c291905b808211156145035780546001600160c81b03191681556001810180546001600160e01b031916905560020161472d565b50805460018160011615610100020316600290046000825580601f106147835750610c37565b601f016020900490600052602060002090810190610c37919061470d565b803561111381615722565b60008083601f8401126147be57600080fd5b5081356001600160401b038111156147d557600080fd5b6020830191508360208202830111156147ed57600080fd5b9250929050565b803561111381615736565b805161111381615736565b80356111138161573f565b60008083601f84011261482757600080fd5b5081356001600160401b0381111561483e57600080fd5b6020830191508360018202830111156147ed57600080fd5b600082601f83011261486757600080fd5b813561487a6148758261563f565b615619565b9150808252602083016020830185838301111561489657600080fd5b6148a18382846156e0565b50505092915050565b6000602082840312156148bc57600080fd5b60006148c884846147a1565b949350505050565b600080604083850312156148e357600080fd5b60006148ef85856147a1565b9250506020614900858286016147a1565b9150509250929050565b60008060006060848603121561491f57600080fd5b600061492b86866147a1565b935050602061493c8682870161480a565b92505060408401356001600160401b0381111561495857600080fd5b61496486828701614856565b9150509250925092565b60006020828403121561498057600080fd5b60006148c884846147ff565b60006020828403121561499e57600080fd5b60006148c8848461480a565b600080604083850312156149bd57600080fd5b60006149c9858561480a565b9250506020614900858286016147f4565b600080600080608085870312156149f057600080fd5b60006149fc878761480a565b9450506020614a0d8782880161480a565b9350506040614a1e8782880161480a565b9250506060614a2f8782880161480a565b91505092959194509250565b60008060008060008060008060a0898b031215614a5757600080fd5b6000614a638b8b61480a565b98505060208901356001600160401b03811115614a7f57600080fd5b614a8b8b828c01614815565b975097505060408901356001600160401b03811115614aa957600080fd5b614ab58b828c01614815565b95509550506060614ac88b828c0161480a565b93505060808901356001600160401b03811115614ae457600080fd5b614af08b828c016147ac565b92509250509295985092959890939650565b60008060408385031215614b1557600080fd5b6000614b21858561480a565b92505060206149008582860161480a565b600080600080600060a08688031215614b4a57600080fd5b6000614b56888861480a565b9550506020614b678882890161480a565b9450506040614b788882890161480a565b9350506060614b898882890161480a565b9250506080614b9a8882890161480a565b9150509295509295909350565b600080600080600080600060a0888a031215614bc257600080fd5b6000614bce8a8a61480a565b9750506020614bdf8a828b0161480a565b9650506040614bf08a828b0161480a565b95505060608801356001600160401b03811115614c0c57600080fd5b614c188a828b01614815565b945094505060808801356001600160401b03811115614c3657600080fd5b614c428a828b01614815565b925092505092959891949750929550565b614c5c816156b4565b82525050565b614c5c81615673565b614c5c8161567e565b614c5c816114c2565b614c5c614c89826114c2565b6114c2565b614c5c614c8982615683565b6000614ca582615666565b614caf818561566a565b9350614cbf8185602086016156ec565b614cc881615718565b9093019392505050565b6000614cdd82615666565b614ce78185610b8c565b9350614cf78185602086016156ec565b9290920192915050565b614c5c816156bf565b6000614d17603283610b8c565b7f7375626d69744e52452875696e743235362c75696e743235362c627974657333815271322c627974657333322c627974657333322960701b602082015260320192915050565b6000614d6b603c83610b8c565b7f6170706c7952657175657374496e4368696c64436861696e28626f6f6c2c756981527f6e743235362c616464726573732c627974657333322c627974657329000000006020820152603c0192915050565b6000614dca600e8361566a565b6d696e70757420746f6f206c6f6e6760901b815260200192915050565b6000614df4602a83610b8c565b7f7375626d69744f52422875696e743235362c627974657333322c627974657333815269322c627974657333322960b01b6020820152602a0192915050565b6000614e40603b83610b8c565b7f6170706c7952657175657374496e526f6f74436861696e28626f6f6c2c75696e81527f743235362c616464726573732c627974657333322c62797465732900000000006020820152603b0192915050565b80516102c0830190614ea48482615172565b506020820151614eb76020850182615172565b506040820151614eca6040850182615172565b506060820151614edd6060850182614c6b565b506080820151614ef06080850182614c6b565b5060a0820151614f0360a0850182614c6b565b5060c0820151614f1660c0850182614c6b565b5060e0820151614f2960e0850182614c6b565b50610100820151614f3e6101008501826150f0565b50610120820151614f536101c0850182614f59565b50505050565b8051610100830190614f6b8482614c74565b506020820151614f7e6020850182614c74565b506040820151614f916040850182614c74565b506060820151614fa46060850182615172565b506080820151614fb76080850182615172565b5060a0820151614fca60a0850182614c6b565b5060c0820151614fdd60c0850182614c6b565b5060e0820151614f5360e0850182614c6b565b80516101a08301906150028482615172565b5060208201516150156020850182615172565b5060408201516150286040850182615172565b50606082015161503b6060850182615172565b50608082015161504e6080850182615172565b5060a082015161506160a0850182614c74565b5060c082015161507460c0850182614c74565b5060e082015161508760e0850182614c74565b5061010082015161509c610100850182614c6b565b506101208201516150b1610120850182614c6b565b506101408201516150c6610140850182614c6b565b506101608201516150db610160850182614c6b565b50610180820151614f53610180850182614c6b565b805160c08301906151018482615172565b5060208201516151146020850182615172565b5060408201516151276040850182615172565b50606082015161513a6060850182615172565b50608082015161514d6080850182615172565b5060a0820151614f5360a0850182615172565b614c5c81615690565b614c5c816156d5565b614c5c816156a8565b60006151878285614c7d565b6020820191506151978284614c7d565b5060200192915050565b60006151ad8285614c8e565b6004820191506148c88284614cd2565b6000610daa8284614cd2565b600061111382614d0a565b600061111382614d5e565b600061111382614de7565b600061111382614e33565b602081016111138284614c62565b604081016152118285614c62565b610daa6020830184614c62565b602081016111138284614c6b565b60a0810161523a8288614c6b565b6152476020830187614c74565b6152546040830186614c53565b6152616060830185614c74565b8181036080830152610c888184614c9a565b60c081016152818289614c6b565b61528e6020830188615172565b61529b6040830187615172565b6152a86060830186615172565b6152b56080830185615172565b610c8860a0830184614c62565b60a081016152d08288614c74565b6152dd6020830187614c74565b6152546040830186614c74565b60208082528101610daa8184614c9a565b6020808252810161111381614dbd565b6102c081016111138284614e92565b6101a081016111138284614ff0565b602081016111138284614c74565b6101008101615346828b614c74565b615353602083018a614c53565b6153606040830189614c62565b61536d6060830188614d01565b61537a6080830187614c74565b81810360a083015261538c8186614c9a565b905061539b60c0830185614c6b565b6153a860e0830184614c6b565b9998505050505050505050565b61010081016153c4828b614c74565b6153d1602083018a614c53565b6153de6040830189614c62565b61536d6060830188614c74565b604081016153f98285614c74565b610daa6020830184614c6b565b608081016154148287614c74565b6154216020830186614c74565b61542e6040830185614c74565b612c636060830184614c74565b604081016154498285614c74565b610daa6020830184614c74565b60a081016154648288614c74565b6154716020830187614c74565b61547e6040830186614c74565b61548b6060830185614c74565b6123f66080830184614c74565b608081016154a68287614c74565b6154b36020830186614c74565b6154c06040830185615169565b612c636060830184615169565b61016081016154dc828e615172565b6154e9602083018d614c6b565b6154f6604083018c614c6b565b615503606083018b614c6b565b615510608083018a614c6b565b61551d60a0830189615160565b61552a60c0830188614c62565b61553760e0830187614c62565b615545610100830186614c74565b615553610120830185614c74565b8181036101408301526155668184614c9a565b9d9c50505050505050505050505050565b6101808101615586828f615172565b615593602083018e615172565b6155a0604083018d615172565b6155ad606083018c615172565b6155ba608083018b615172565b6155c760a083018a615172565b6155d460c0830189615172565b6155e160e0830188615172565b6155ef610100830187615172565b6155fd610120830186615172565b61560b610140830185615172565b615566610160830184614c6b565b6040518181016001600160401b038111828210171561563757600080fd5b604052919050565b60006001600160401b0382111561565557600080fd5b506020601f91909101601f19160190565b5190565b90815260200190565b60006111138261569c565b151590565b6001600160e01b03191690565b6001600160801b031690565b6001600160a01b031690565b6001600160401b031690565b6000611113826156ca565b6000611113826114c2565b600061111382615673565b6000611113826156a8565b82818337506000910152565b60005b838110156157075781810151838201526020016156ef565b83811115614f535750506000910152565b601f01601f191690565b61572b81615673565b8114610c3757600080fd5b61572b8161567e565b61572b816114c256fea365627a7a723158200d309e4c438364eaf1b7ee7d98a64399908f5a73d502a9b1e09f08d03f414e906c6578706572696d656e74616cf564736f6c63430005100040",
  "source": "pragma solidity ^0.5.0;\npragma experimental ABIEncoderV2;\n\nimport \"./lib/SafeMath.sol\";\nimport \"./lib/Math.sol\";\nimport \"./lib/Data.sol\";\nimport \"./lib/Address.sol\";\nimport \"./lib/BMT.sol\";\n// import \"./patricia_tree/PatriciaTreeFace.sol\";\n\nimport \"./roles/MapperRole.sol\";\nimport \"./roles/SubmitterRole.sol\";\n\nimport \"./RootChainStorage.sol\";\nimport \"./RootChainEvent.sol\";\nimport \"./RootChainBase.sol\";\n\n\ncontract RootChain is RootChainStorage, RootChainEvent, RootChainBase, MapperRole, SubmitterRole {\n  using SafeMath for uint;\n  using SafeMath for uint64;\n  using Math for *;\n  using Data for *;\n  using Address for address;\n  using BMT for *;\n\n  /*\n   * Modifiers\n   */\n  modifier onlyOperator() {\n    require(msg.sender == operator);\n    _;\n  }\n\n  modifier onlyValidCost(uint _expected) {\n    require(msg.value >= _expected);\n    _;\n  }\n\n  modifier finalizeBlocks() {\n    if (!development) {\n      _finalizeBlock();\n    }\n    _;\n  }\n\n  modifier checkURBSubmission () {\n    Data.Fork storage fork = forks[currentFork];\n    if (fork.timestamp + Data.URE_TIMEOUT() < block.timestamp) {\n      // TODO: reset fork\n      fork.forkedBlock = 0;\n    }\n    _;\n  }\n\n  /*\n   * Constructor\n   */\n  constructor(\n    address _epochHandler,\n    address _submitHandler,\n    address _etherToken,\n    bool _development,\n    uint _NRELength,\n\n    // genesis block state\n    bytes32 _statesRoot,\n    bytes32 _transactionsRoot,\n    bytes32 _receiptsRoot\n  )\n    public\n  {\n    require(_epochHandler.isContract());\n    require(_submitHandler.isContract());\n    require(_etherToken.isContract());\n\n    epochHandler = _epochHandler;\n    submitHandler = _submitHandler;\n    etherToken = _etherToken;\n\n    development = _development;\n    operator = msg.sender;\n    NRELength = _NRELength;\n\n    Data.Fork storage fork = forks[currentFork];\n    Data.PlasmaBlock storage genesis = fork.blocks[0];\n    genesis.statesRoot = _statesRoot;\n    genesis.transactionsRoot = _transactionsRoot;\n    genesis.receiptsRoot = _receiptsRoot;\n\n    // set up the genesis epoch\n    fork.epochs[0].timestamp = uint64(block.timestamp);\n    fork.epochs[0].initialized = true;\n\n    // prepare ORE#2\n    fork.epochs[2].isEmpty = true;\n    fork.epochs[2].isRequest = true;\n\n    _doFinalizeBlock(fork, genesis, 0);\n    _doFinalizeNRE(fork, 0);\n\n    _delegatePrepareNRE();\n  }\n\n  /*\n   * External Functions\n   */\n\n  function changeOperator(address _operator) external onlyOperator {\n    operator = _operator;\n    emit OperatorChanged(_operator);\n  }\n\n  function addSubmitter(address account) public onlyOperator {\n    _addSubmitter(account);\n  }\n\n  function addMapper(address account) public onlyOperator {\n    _addMapper(account);\n  }\n\n  function setSeigManager(address account) public onlyOperator {\n    seigManager = account;\n  }\n\n  /**\n   * @notice map requestable contract in child chain\n   * NOTE: only operator?\n   */\n  function mapRequestableContractByOperator(address _rootchain, address _childchain)\n    external\n    onlyMapper\n    returns (bool success)\n  {\n    require(_rootchain.isContract());\n    require(requestableContracts[_rootchain] == address(0));\n\n    requestableContracts[_rootchain] = _childchain;\n\n    emit RequestableContractMapped(_rootchain, _childchain);\n    return true;\n  }\n\n  function getNumEROs() external view returns (uint) {\n    return EROs.length;\n  }\n\n  function getNumORBs() external view returns (uint) {\n    return ORBs.length;\n  }\n\n  function getEROBytes(uint _requestId) public view returns (bytes memory out) {\n    Data.Request storage ERO = EROs[_requestId];\n\n    return ERO.toChildChainRequest(requestableContracts[ERO.to])\n      .toTX(_requestId, false)\n      .toBytes();\n  }\n\n  /**\n   * @notice Declare to submit URB.\n   */\n  function prepareToSubmitURB()\n    public\n    payable\n    onlyValidCost(COST_URB_PREPARE)\n    // finalizeBlocks\n  {\n    // TODO: change to continuous rebase scheme.\n    // disable UAF.\n    revert();\n    // return false;\n    // RootChainBase.prepareToSubmitURB();\n  }\n\n  function submitNRE(\n    uint _pos1, // forknumber + epochNumber\n    uint _pos2, // startBlockNumber + endBlockNumber\n    bytes32 _epochStateRoot,\n    bytes32 _epochTransactionsRoot,\n    bytes32 _epochReceiptsRoot\n  )\n    external\n    payable\n    onlySubmitter\n    onlyValidCost(COST_NRB)\n    finalizeBlocks\n    returns (bool success)\n  {\n    return RootChainBase._delegateSubmitNRE(\n      _pos1,\n      _pos2,\n      _epochStateRoot,\n      _epochTransactionsRoot,\n      _epochReceiptsRoot\n    );\n  }\n\n  function submitORB(\n    uint _pos,\n    bytes32 _statesRoot,\n    bytes32 _transactionsRoot,\n    bytes32 _receiptsRoot\n  )\n    external\n    payable\n    onlySubmitter\n    onlyValidCost(COST_NRB)\n    finalizeBlocks\n    returns (bool success)\n  {\n    return RootChainBase._delegateSubmitORB(\n      _pos,\n      _statesRoot,\n      _transactionsRoot,\n      _receiptsRoot\n    );\n  }\n\n  function submitURB(\n    uint _pos,\n    bytes32 _statesRoot,\n    bytes32 _transactionsRoot,\n    bytes32 _receiptsRoot\n  )\n    external\n    payable\n    onlyValidCost(COST_URB)\n    returns (bool success)\n  {\n    // TODO: change to continuous rebase scheme.\n    // disable UAF.\n    revert();\n    return false;\n\n    // return RootChainBase._delegateSubmitURB(\n    //   _pos,\n    //   _statesRoot,\n    //   _transactionsRoot,\n    //   _receiptsRoot\n    // );\n  }\n\n  function finalizeBlock() external returns (bool success) {\n    require(_finalizeBlock());\n    return true;\n  }\n\n  /**\n   * @notice Computation verifier contract reverts the block in case of wrong\n   *         computation.\n   */\n  /* function revertBlock(uint _forkNumber, uint _blockNumber) external {\n    // TODO: make a new fork?\n  } */\n\n  function challengeExit(\n    uint _forkNumber,\n    uint _blockNumber,\n    uint _index,\n    bytes calldata _receiptData,\n    bytes calldata _proof\n  ) external {\n    Data.Fork storage fork = forks[_forkNumber];\n    Data.PlasmaBlock storage pb = fork.blocks[_blockNumber];\n\n    require(pb.isRequest);\n    require(pb.finalized);\n\n    uint requestId;\n    bool userActivated = pb.userActivated;\n\n    if (userActivated) {\n      requestId = _doChallengeExit(pb, URBs[pb.requestBlockId], ERUs, _index, _receiptData, _proof);\n      // TODO: dynamic cost for ERU\n      msg.sender.transfer(COST_ERU);\n    } else {\n      requestId = _doChallengeExit(pb, ORBs[pb.requestBlockId], EROs,_index, _receiptData, _proof);\n      msg.sender.transfer(COST_ERO);\n    }\n\n    emit RequestChallenged(requestId, userActivated);\n  }\n\n  function _doChallengeExit(\n    Data.PlasmaBlock storage _pb,\n    Data.RequestBlock storage _rb,\n    Data.Request[] storage _rs,\n    uint _index,\n    bytes memory _receiptData,\n    bytes memory _proof\n  )\n    internal\n    returns (uint requestId)\n  {\n    requestId = _rb.requestStart + _index;\n    require(requestId <= _rb.requestEnd);\n\n    Data.Request storage r = _rs[requestId];\n\n    require(_pb.finalizedAt + CP_EXIT > block.timestamp);\n    require(_pb.finalized);\n    require(!r.challenged);\n    require(!r.finalized);\n\n    bytes32 leaf = keccak256(_receiptData);\n\n    require(_receiptData.toReceiptStatus() == 0);\n    if (!development) {\n      require(BMT.checkMembership(leaf, _index, _pb.receiptsRoot, _proof));\n    }\n\n    r.challenged = true;\n\n    return requestId;\n  }\n\n  /**\n   * @notice It challenges on NRBs containing null address transaction.\n   */\n  function challengeNullAddress(\n    uint _blockNumber,\n    bytes calldata _key,\n    bytes calldata _txByte, // RLP encoded transaction\n    uint _branchMask,\n    bytes32[] calldata  _siblings\n  ) external {\n    Data.Fork storage fork = forks[currentFork];\n    Data.PlasmaBlock storage pb = fork.blocks[_blockNumber];\n\n    // check if the plasma block is NRB\n    require(!pb.isRequest);\n\n    // check if challenge period does not end yet\n    require(pb.timestamp + CP_COMPUTATION > block.timestamp);\n\n    // PatriciaTreeFace trie;\n    // if (pb.userActivated) {\n    //   trie = PatriciaTreeFace(URBs[pb.requestBlockId].trie);\n    // } else {\n    //   trie = PatriciaTreeFace(ORBs[pb.requestBlockId].trie);\n    // }\n\n    // Data.TX memory txData = Data.toTX(_txByte);\n    // require(txData.isNATX());\n\n    // TODO: use patricia verify library\n    // require(trie.verifyProof(pb.transactionsRoot, _key, _txByte, _branchMask, _siblings));\n\n    // TODO: fork? penalize?\n  }\n\n  /*\n   * Public Functions\n   */\n  function startExit(\n    address _to,\n    bytes32 _trieKey,\n    bytes memory _trieValue\n  )\n    public\n    payable\n    onlyValidCost(COST_ERO)\n    returns (bool success)\n  {\n    uint requestId;\n    requestId = _storeRequest(EROs, ORBs, _to, 0, _trieKey, _trieValue, true, false);\n\n    emit RequestCreated(requestId, msg.sender, _to, 0, _trieKey, _trieValue, true, false);\n    return true;\n  }\n\n  function startEnter(\n    address _to,\n    bytes32 _trieKey,\n    bytes memory _trieValue\n  )\n    public\n    payable\n    returns (bool success)\n  {\n    uint requestId;\n    uint weiAmount = msg.value;\n    requestId = _storeRequest(EROs, ORBs, _to, weiAmount, _trieKey, _trieValue, false, false);\n    numEnterForORB += 1;\n\n    Data.Fork storage fork = forks[currentFork];\n\n    emit RequestApplied(requestId, false);\n    emit RequestCreated(requestId, msg.sender, _to, weiAmount, _trieKey, _trieValue, false, false);\n    return true;\n  }\n\n  function makeERU(\n    address _to,\n    bytes32 _trieKey,\n    bytes memory _trieValue\n  )\n    public\n    payable\n    onlyValidCost(COST_ERU)\n    returns (bool success)\n  {\n    uint requestId;\n    requestId = _storeRequest(ERUs, URBs, _to, 0, _trieKey, _trieValue, true, true);\n\n    emit RequestCreated(requestId, msg.sender, _to, 0, _trieKey, _trieValue, true, true);\n    return true;\n  }\n\n  /**\n   * @notice Finalize a request if request block including it\n   *         is finalized.\n   * TODO: refactor implementation\n   */\n  function finalizeRequest() public returns (bool success) {\n    uint requestId;\n    Data.Fork storage fork = forks[lastAppliedForkNumber];\n    uint epochNumber = lastAppliedEpochNumber;\n\n    require(lastAppliedBlockNumber <= fork.lastBlock);\n\n    Data.PlasmaBlock storage pb = fork.blocks[lastAppliedBlockNumber];\n    Data.Epoch storage epoch = fork.epochs[epochNumber];\n\n    // TODO: execute after finding next request block\n    // find next fork\n    if (fork.forkedBlock != 0 && lastAppliedBlockNumber >= fork.forkedBlock) {\n      lastAppliedForkNumber += 1;\n      fork = forks[lastAppliedForkNumber];\n\n      epochNumber = fork.firstEpoch;\n      epoch = fork.epochs[epochNumber];\n\n      lastAppliedBlockNumber = fork.firstBlock;\n      lastAppliedEpochNumber = epochNumber;\n\n      pb = fork.blocks[lastAppliedBlockNumber];\n    }\n\n    // find next request block\n    if (!pb.isRequest) {\n      if (epochNumber == 0) {\n        epochNumber = firstNonEmptyRequestEpoch[lastAppliedForkNumber];\n      } else {\n        epochNumber = fork.epochs[epochNumber].RE.nextEpoch;\n      }\n      require(epochNumber != 0);\n\n      epoch = fork.epochs[epochNumber];\n      lastAppliedBlockNumber = epoch.startBlockNumber;\n      pb = fork.blocks[lastAppliedBlockNumber];\n    } else {\n      epochNumber = pb.epochNumber;\n      epoch = fork.epochs[epochNumber];\n    }\n\n    lastAppliedEpochNumber = epochNumber;\n\n    require(!epoch.isEmpty);\n    require(epoch.isRequest);\n    require(pb.isRequest);\n    require(pb.finalized);\n    require(pb.finalizedAt + CP_EXIT <= block.timestamp);\n\n    // apply ERU\n    if (pb.userActivated) {\n      requestId = ERUIdToFinalize;\n\n      require(ERUs.length > requestId);\n\n      Data.Request storage ERU = ERUs[requestId];\n      Data.RequestBlock storage URB = URBs[pb.requestBlockId];\n\n      require(URB.requestStart <= requestId && requestId <= URB.requestEnd);\n\n      // check next block\n      if (requestId == URB.requestEnd) {\n        if (fork.forkedBlock > 0 && lastAppliedBlockNumber == fork.forkedBlock - 1) {\n          lastAppliedForkNumber += 1;\n        }\n\n        lastAppliedBlockNumber += 1;\n      }\n\n      ERUIdToFinalize = requestId + 1;\n\n      if (ERU.isExit && !ERU.challenged) {\n        // NOTE: do not check it reverted or not?\n        ERU.applyRequestInRootChain(requestId);\n        // TODO: dynamic cost and bond release period\n        ERU.requestor.transfer(COST_ERU);\n        emit RequestApplied(requestId, true);\n      }\n      ERU.finalized = true;\n\n      emit RequestFinalized(requestId, true);\n      return true;\n    }\n\n    // apply ERO\n    requestId = EROIdToFinalize;\n\n    require(EROs.length > requestId);\n\n    Data.RequestBlock storage ORB = ORBs[pb.requestBlockId];\n\n    require(ORB.requestStart <= requestId && requestId <= ORB.requestEnd);\n\n    // check next block\n    if (requestId == ORB.requestEnd) {\n      // TODO: iterator blocks by NRE length for NRE'\n      if (fork.forkedBlock > 0 && lastAppliedBlockNumber == fork.forkedBlock - 1) {\n        lastAppliedForkNumber += 1;\n      }\n\n      lastAppliedBlockNumber += 1;\n    }\n\n    Data.Request storage ERO = EROs[requestId];\n    EROIdToFinalize = requestId + 1;\n    ERO.finalized = true;\n\n    if (ERO.isExit && !ERO.challenged) {\n      ERO.applyRequestInRootChain(requestId);\n      ERO.requestor.transfer(COST_ERO);\n      emit RequestApplied(requestId, false);\n    }\n\n    emit RequestFinalized(requestId, false);\n    return true;\n  }\n\n  function finalizeRequests(uint n) external returns (bool success) {\n    for (uint i = 0; i < n; i++) {\n      require(finalizeRequest());\n    }\n\n    return true;\n  }\n\n  /**\n   * @notice return the max number of request\n   */\n  function MAX_REQUESTS() external pure returns (uint maxRequests) {\n    return Data.MAX_REQUESTS();\n  }\n\n  function lastBlock(uint forkNumber) public view returns (uint lastBlock) {\n    return forks[forkNumber].lastBlock;\n  }\n\n  function lastEpoch(uint forkNumber) public view returns (uint lastBlock) {\n    return forks[forkNumber].lastEpoch;\n  }\n\n  function getEpoch(\n    uint forkNumber,\n    uint epochNumber\n  ) external view returns (\n    Data.Epoch memory epoch\n  ) {\n    return forks[forkNumber].epochs[epochNumber];\n  }\n\n  function getLastEpoch() public view returns (Data.Epoch memory) {\n    return forks[currentFork].epochs[forks[currentFork].lastEpoch];\n  }\n\n  function getBlock(\n    uint forkNumber,\n    uint blockNumber\n  ) public view returns (Data.PlasmaBlock memory) {\n    return forks[forkNumber].blocks[blockNumber];\n  }\n\n  function getBlockFinalizedAt(\n    uint forkNumber,\n    uint blockNumber\n  ) public view returns (uint) {\n    return forks[forkNumber].blocks[blockNumber].finalizedAt;\n  }\n\n  function getLastFinalizedBlock(uint forkNumber) public view returns (uint) {\n    return forks[forkNumber].lastFinalizedBlock;\n  }\n\n  function getLastFinalizedEpoch(uint forkNumber) public view returns (uint) {\n    return forks[forkNumber].lastFinalizedEpoch;\n  }\n\n  /**\n   * @notice return true if the chain is forked by URB\n   */\n  function forked(uint _forkNumber) public view returns (bool result) {\n    return _forkNumber != currentFork;\n  }\n\n  /**\n   * @notice return true if the request is finalized\n   */\n  function getRequestFinalized(uint _requestId, bool _userActivated) public view returns (bool finalized) {\n    if (_userActivated) {\n      ERUs[_requestId].finalized;\n    }\n\n    return EROs[_requestId].finalized;\n  }\n\n  /*\n   * Internal Functions\n   */\n  function _storeRequest(\n    Data.Request[] storage _requests,\n    Data.RequestBlock[] storage _rbs,\n    address _to,\n    uint _weiAmount,\n    bytes32 _trieKey,\n    bytes memory _trieValue,\n    bool _isExit,\n    bool _userActivated\n  )\n    internal\n    returns (uint requestId)\n  {\n    // trieValue cannot be longer than 1KB.\n    require(_trieValue.length <= 1024);\n\n    bool isTransfer = _to == etherToken;\n\n    // check parameters for simple ether transfer and message-call\n    require(isTransfer && !_isExit || (requestableContracts[_to] != address(0)));\n\n    requestId = _requests.length++;\n    Data.Request storage r = _requests[requestId];\n\n    r.requestor = msg.sender;\n    r.to = _to;\n    r.timestamp = uint64(block.timestamp);\n    r.isExit = _isExit;\n    r.isTransfer = isTransfer;\n    r.value = uint128(_weiAmount);\n    r.trieKey = _trieKey;\n    r.trieValue = _trieValue;\n\n    // apply message-call in case of enter request.\n    if (!_isExit) {\n      require(r.applyRequestInRootChain(requestId));\n    }\n\n    uint requestBlockId = _rbs.length == 0 ? _rbs.length++ : _rbs.length - 1;\n\n    Data.RequestBlock storage rb = _rbs[requestBlockId];\n\n    // make a new RequestBlock.\n    if (rb.submitted || rb.requestEnd - rb.requestStart + 1 == Data.MAX_REQUESTS()) {\n      rb.submitted = true;\n      rb = _rbs[_rbs.length++];\n      rb.requestStart = uint64(requestId);\n    }\n\n    rb.init();\n\n    rb.requestEnd = uint64(requestId);\n    if (!_isExit) {\n      rb.numEnter += 1;\n    }\n\n    if (isTransfer && !_isExit) {\n      rb.addRequest(r, r.toChildChainRequest(msg.sender), requestId);\n    } else {\n      rb.addRequest(r, r.toChildChainRequest(requestableContracts[_to]), requestId);\n    }\n  }\n\n  /**\n   * @notice finalize a block if possible.\n   */\n  function _finalizeBlock() internal returns (bool) {\n    Data.Fork storage fork = forks[currentFork];\n\n    // short circuit if waiting URBs\n    if (fork.forkedBlock != 0) {\n      return false;\n    }\n\n    uint blockNumber = Math.max(fork.firstBlock, fork.lastFinalizedBlock + 1);\n\n    // short circuit if all blocks are submitted yet\n    if (blockNumber > fork.lastBlock) {\n      return false;\n    }\n\n    Data.PlasmaBlock storage pb = fork.blocks[blockNumber];\n\n    // short circuit if the block is under challenge\n    if (pb.challenging) {\n      return false;\n    }\n\n    // 1. finalize request block\n    if (pb.isRequest) {\n      // short circuit if challenge period doesn't end\n      if (pb.timestamp + CP_COMPUTATION > block.timestamp) {\n        return false;\n      }\n\n      // finalize block\n      _doFinalizeBlock(fork, pb, blockNumber);\n      return true;\n    }\n\n    // 2. finalize non request epoch\n    uint nextEpochNumber = fork.lastFinalizedEpoch + 1;\n    while (fork.epochs[nextEpochNumber].isRequest) {\n      nextEpochNumber += 1;\n    }\n\n    // if the first block of the next request epoch is finalized, finalize all\n    // blocks of the current non request epoch.\n    if (_checkFinalizableNRE(fork, nextEpochNumber)) {\n      _doFinalizeNRE(fork, nextEpochNumber);\n      return true;\n    }\n\n    return false;\n  }\n\n  /**\n   * @notice return true if NRE can be finalized.\n   */\n  function _checkFinalizableNRE(Data.Fork storage fork, uint _epochNumber) internal view returns (bool) {\n    // short circuit if epoch is not submitted yet\n    if (_epochNumber > fork.lastEpoch) {\n      return false;\n    }\n\n    Data.Epoch storage epoch = fork.epochs[_epochNumber];\n\n    // short circuit if epoch is not initialized\n    if (!epoch.initialized) {\n      return false;\n    }\n\n    // short circuit if epoch is not NRE\n    if (epoch.isRequest) {\n      return false;\n    }\n\n    // short circuit if epoch is challenged or under challenge\n    if (epoch.NRE.challenging || epoch.NRE.challenged) {\n      return false;\n    }\n\n    // return if challenge period end\n    return epoch.NRE.submittedAt + CP_WITHHOLDING <= block.timestamp;\n    // return true;\n  }\n\n  /**\n   * @notice finalize a block\n   */\n  function _doFinalizeBlock(\n    Data.Fork storage _f,\n    Data.PlasmaBlock storage _pb,\n    uint _blockNumber\n  ) internal {\n    _pb.finalized = true;\n    _pb.finalizedAt = uint64(block.timestamp);\n\n    _f.lastFinalizedBlock = uint64(_blockNumber);\n    _f.lastFinalizedEpoch = uint64(_pb.epochNumber);\n\n    emit BlockFinalized(currentFork, _blockNumber);\n  }\n\n  /**\n   * @notice finalize all blocks in the non request epoch\n   */\n  function _doFinalizeNRE(\n    Data.Fork storage _f,\n    uint _epochNumber\n  ) internal {\n    Data.Epoch storage epoch = _f.epochs[_epochNumber];\n\n    epoch.NRE.finalized = true;\n    epoch.NRE.finalizedAt = uint64(block.timestamp);\n\n    _f.lastFinalizedBlock = uint64(epoch.endBlockNumber);\n    _f.lastFinalizedEpoch = uint64(_epochNumber);\n\n    // a single EpochFinalized event replaces lots of BlockFinalized events.\n    emit EpochFinalized(currentFork, _epochNumber, epoch.startBlockNumber, epoch.endBlockNumber);\n\n    return;\n  }\n}\n",
  "sourcePath": "/Users/pjh/workspace/go/src/github.com/Onther-Tech/plasma-evm/contracts/plasma/plasma-evm-cotracts/contracts/RootChain.sol",
  "compiler": {
    "name": "solc",
    "version": "0.5.16+commit.9c3226ce.Emscripten.clang"
  },
  "schemaVersion": "3.0.23",
  "updatedAt": "2020-02-04T07:13:16.059Z",
  "devdoc": {
    "methods": {}
  },
  "userdoc": {
    "methods": {
      "MAX_REQUESTS()": {
        "notice": "return the max number of request"
      },
      "challengeExit(uint256,uint256,uint256,bytes,bytes)": {
        "notice": "Computation verifier contract reverts the block in case of wrong        computation."
      },
      "challengeNullAddress(uint256,bytes,bytes,uint256,bytes32[])": {
        "notice": "It challenges on NRBs containing null address transaction."
      },
      "finalizeRequest()": {
        "notice": "Finalize a request if request block including it        is finalized. TODO: refactor implementation"
      },
      "forked(uint256)": {
        "notice": "return true if the chain is forked by URB"
      },
      "getRequestFinalized(uint256,bool)": {
        "notice": "return true if the request is finalized"
      },
      "mapRequestableContractByOperator(address,address)": {
        "notice": "map requestable contract in child chain NOTE: only operator?"
      },
      "prepareToSubmitURB()": {
        "notice": "Declare to submit URB."
      }
    }
  }
}