{
  "contractName": "RootChainRegistry",
  "abi": [
    {
      "anonymous": false,
      "inputs": [
        {
          "indexed": true,
          "internalType": "address",
          "name": "previousOwner",
          "type": "address"
        },
        {
          "indexed": true,
          "internalType": "address",
          "name": "newOwner",
          "type": "address"
        }
      ],
      "name": "OwnershipTransferred",
      "type": "event"
    },
    {
      "constant": true,
      "inputs": [],
      "name": "isOwner",
      "outputs": [
        {
          "internalType": "bool",
          "name": "",
          "type": "bool"
        }
      ],
      "payable": false,
      "stateMutability": "view",
      "type": "function"
    },
    {
      "constant": true,
      "inputs": [],
      "name": "owner",
      "outputs": [
        {
          "internalType": "address",
          "name": "",
          "type": "address"
        }
      ],
      "payable": false,
      "stateMutability": "view",
      "type": "function"
    },
    {
      "constant": false,
      "inputs": [],
      "name": "renounceOwnership",
      "outputs": [],
      "payable": false,
      "stateMutability": "nonpayable",
      "type": "function"
    },
    {
      "constant": true,
      "inputs": [
        {
          "internalType": "address",
          "name": "",
          "type": "address"
        }
      ],
      "name": "rootchains",
      "outputs": [
        {
          "internalType": "bool",
          "name": "",
          "type": "bool"
        }
      ],
      "payable": false,
      "stateMutability": "view",
      "type": "function"
    },
    {
      "constant": false,
      "inputs": [
        {
          "internalType": "address",
          "name": "newOwner",
          "type": "address"
        }
      ],
      "name": "transferOwnership",
      "outputs": [],
      "payable": false,
      "stateMutability": "nonpayable",
      "type": "function"
    },
    {
      "constant": false,
      "inputs": [
        {
          "internalType": "address",
          "name": "rootchain",
          "type": "address"
        }
      ],
      "name": "register",
      "outputs": [
        {
          "internalType": "bool",
          "name": "",
          "type": "bool"
        }
      ],
      "payable": false,
      "stateMutability": "nonpayable",
      "type": "function"
    },
    {
      "constant": false,
      "inputs": [
        {
          "internalType": "address",
          "name": "rootchain",
          "type": "address"
        },
        {
          "internalType": "address",
          "name": "seigManager",
          "type": "address"
        }
      ],
      "name": "deployCoinage",
      "outputs": [
        {
          "internalType": "bool",
          "name": "",
          "type": "bool"
        }
      ],
      "payable": false,
      "stateMutability": "nonpayable",
      "type": "function"
    },
    {
      "constant": false,
      "inputs": [
        {
          "internalType": "address",
          "name": "rootchain",
          "type": "address"
        },
        {
          "internalType": "address",
          "name": "seigManager",
          "type": "address"
        }
      ],
      "name": "registerAndDeployCoinage",
      "outputs": [
        {
          "internalType": "bool",
          "name": "",
          "type": "bool"
        }
      ],
      "payable": false,
      "stateMutability": "nonpayable",
      "type": "function"
    },
    {
      "constant": false,
      "inputs": [
        {
          "internalType": "address",
          "name": "rootchain",
          "type": "address"
        }
      ],
      "name": "unregister",
      "outputs": [
        {
          "internalType": "bool",
          "name": "",
          "type": "bool"
        }
      ],
      "payable": false,
      "stateMutability": "nonpayable",
      "type": "function"
    }
  ],
  "bytecode": "0x60806040526100156001600160e01b0361006216565b600080546001600160a01b0319166001600160a01b03928316178082556040519216917f8be0079c531659141344cd1fd0a4f28419497f9722a3daafe3b4186f6b6457e0908290a3610066565b3390565b6106c7806100756000396000f3fe608060405234801561001057600080fd5b50600436106100935760003560e01c8063851086041161006657806385108604146101285780638da5cb5b146101565780638f32d59b1461017a578063bcb1a71e14610182578063f2fde38b146101b057610093565b806302a15299146100985780632ec2c246146100d25780634420e486146100f8578063715018a61461011e575b600080fd5b6100be600480360360208110156100ae57600080fd5b50356001600160a01b03166101d6565b604080519115158252519081900360200190f35b6100be600480360360208110156100e857600080fd5b50356001600160a01b03166101eb565b6100be6004803603602081101561010e57600080fd5b50356001600160a01b031661028f565b6101266103d0565b005b6100be6004803603604081101561013e57600080fd5b506001600160a01b0381358116916020013516610473565b61015e610500565b604080516001600160a01b039092168252519081900360200190f35b6100be61050f565b6100be6004803603604081101561019857600080fd5b506001600160a01b0381358116916020013516610533565b610126600480360360208110156101c657600080fd5b50356001600160a01b0316610563565b60016020526000908152604090205460ff1681565b60006101f561050f565b610246576040805162461bcd60e51b815260206004820181905260248201527f4f776e61626c653a2063616c6c6572206973206e6f7420746865206f776e6572604482015290519081900360640190fd5b6001600160a01b03821660009081526001602052604090205460ff1661026b57600080fd5b6001600160a01b039091166000908152600160205260409020805460ff1916905590565b6001600160a01b03811660009081526001602052604081205460ff16156102b557600080fd5b816001600160a01b031663420bb4b86040518163ffffffff1660e01b815260040160206040518083038186803b1580156102ee57600080fd5b505afa158015610302573d6000803e3d6000fd5b505050506040513d602081101561031857600080fd5b505161032357600080fd5b61032b61050f565b6103a857816001600160a01b031663570ca7356040518163ffffffff1660e01b815260040160206040518083038186803b15801561036857600080fd5b505afa15801561037c573d6000803e3d6000fd5b505050506040513d602081101561039257600080fd5b50516001600160a01b031633146103a857600080fd5b506001600160a01b03166000908152600160208190526040909120805460ff19168217905590565b6103d861050f565b610429576040805162461bcd60e51b815260206004820181905260248201527f4f776e61626c653a2063616c6c6572206973206e6f7420746865206f776e6572604482015290519081900360640190fd5b600080546040516001600160a01b03909116907f8be0079c531659141344cd1fd0a4f28419497f9722a3daafe3b4186f6b6457e0908390a3600080546001600160a01b0319169055565b6000816001600160a01b031663833a774f846040518263ffffffff1660e01b815260040180826001600160a01b03166001600160a01b03168152602001915050602060405180830381600087803b1580156104cd57600080fd5b505af11580156104e1573d6000803e3d6000fd5b505050506040513d60208110156104f757600080fd5b50519392505050565b6000546001600160a01b031690565b600080546001600160a01b03166105246105c8565b6001600160a01b031614905090565b600061053e8361028f565b61054757600080fd5b6105518383610473565b61055a57600080fd5b50600192915050565b61056b61050f565b6105bc576040805162461bcd60e51b815260206004820181905260248201527f4f776e61626c653a2063616c6c6572206973206e6f7420746865206f776e6572604482015290519081900360640190fd5b6105c5816105cc565b50565b3390565b6001600160a01b0381166106115760405162461bcd60e51b815260040180806020018281038252602681526020018061066d6026913960400191505060405180910390fd5b600080546040516001600160a01b03808516939216917f8be0079c531659141344cd1fd0a4f28419497f9722a3daafe3b4186f6b6457e091a3600080546001600160a01b0319166001600160a01b039290921691909117905556fe4f776e61626c653a206e6577206f776e657220697320746865207a65726f2061646472657373a265627a7a72315820596ab8063dc5c4f44777414fd7eb09787e2615f6cf689ecab33d2f3a6dc1f39564736f6c634300050c0032",
  "source": "pragma solidity ^0.5.0;\n\nimport { Ownable } from \"../../node_modules/openzeppelin-solidity/contracts/ownership/OWnable.sol\";\nimport { SeigManagerI } from \"./SeigManagerI.sol\";\n\nimport { RootChainI } from \"../RootChainI.sol\";\n\n\n// TODO: transfer coinages ownership to seig manager\ncontract RootChainRegistry is Ownable {\n  // check whether the address is root chain contract or not\n  mapping (address => bool) public rootchains;\n\n  function register(address rootchain) public returns (bool) {\n    require(!rootchains[rootchain]);\n    require(RootChainI(rootchain).isRootChain());\n\n    if (!isOwner()) {\n      require(msg.sender == RootChainI(rootchain).operator());\n    }\n\n    rootchains[rootchain] = true;\n\n    return true;\n  }\n\n  function deployCoinage(address rootchain, address seigManager) public returns (bool) {\n    return SeigManagerI(seigManager).deployCoinage(rootchain);\n  }\n\n\n  function registerAndDeployCoinage(\n    address rootchain,\n    address seigManager\n  ) public returns (bool) {\n    require(register(rootchain));\n    require(deployCoinage(rootchain, seigManager));\n    return true;\n  }\n\n  function unregister(address rootchain) external onlyOwner returns (bool) {\n    require(rootchains[rootchain]);\n\n    rootchains[rootchain] = false;\n  }\n}",
  "sourcePath": "/Users/pjh/workspace/go/src/github.com/Onther-Tech/plasma-evm/contracts/plasma/plasma-evm-cotracts/contracts/stake/RootChainRegistry.sol",
  "compiler": {
    "name": "solc",
    "version": "0.5.12+commit.7709ece9.Emscripten.clang"
  },
  "schemaVersion": "3.0.20",
  "updatedAt": "2020-01-29T10:22:31.184Z",
  "devdoc": {
    "methods": {
      "isOwner()": {
        "details": "Returns true if the caller is the current owner."
      },
      "owner()": {
        "details": "Returns the address of the current owner."
      },
      "renounceOwnership()": {
        "details": "Leaves the contract without owner. It will not be possible to call `onlyOwner` functions anymore. Can only be called by the current owner.     * NOTE: Renouncing ownership will leave the contract without an owner, thereby removing any functionality that is only available to the owner."
      },
      "transferOwnership(address)": {
        "details": "Transfers ownership of the contract to a new account (`newOwner`). Can only be called by the current owner."
      }
    }
  },
  "userdoc": {
    "methods": {}
  }
}