{
  "contractName": "RootChainRegistry",
  "abi": [
    {
      "anonymous": false,
      "inputs": [
        {
          "indexed": true,
          "internalType": "address",
          "name": "previousOwner",
          "type": "address"
        },
        {
          "indexed": true,
          "internalType": "address",
          "name": "newOwner",
          "type": "address"
        }
      ],
      "name": "OwnershipTransferred",
      "type": "event"
    },
    {
      "constant": true,
      "inputs": [],
      "name": "isOwner",
      "outputs": [
        {
          "internalType": "bool",
          "name": "",
          "type": "bool"
        }
      ],
      "payable": false,
      "stateMutability": "view",
      "type": "function"
    },
    {
      "constant": true,
      "inputs": [],
      "name": "owner",
      "outputs": [
        {
          "internalType": "address",
          "name": "",
          "type": "address"
        }
      ],
      "payable": false,
      "stateMutability": "view",
      "type": "function"
    },
    {
      "constant": false,
      "inputs": [],
      "name": "renounceOwnership",
      "outputs": [],
      "payable": false,
      "stateMutability": "nonpayable",
      "type": "function"
    },
    {
      "constant": false,
      "inputs": [
        {
          "internalType": "address",
          "name": "newOwner",
          "type": "address"
        }
      ],
      "name": "transferOwnership",
      "outputs": [],
      "payable": false,
      "stateMutability": "nonpayable",
      "type": "function"
    },
    {
      "constant": true,
      "inputs": [
        {
          "internalType": "address",
          "name": "rootchain",
          "type": "address"
        }
      ],
      "name": "rootchains",
      "outputs": [
        {
          "internalType": "bool",
          "name": "",
          "type": "bool"
        }
      ],
      "payable": false,
      "stateMutability": "view",
      "type": "function"
    },
    {
      "constant": false,
      "inputs": [
        {
          "internalType": "address",
          "name": "rootchain",
          "type": "address"
        }
      ],
      "name": "register",
      "outputs": [
        {
          "internalType": "bool",
          "name": "",
          "type": "bool"
        }
      ],
      "payable": false,
      "stateMutability": "nonpayable",
      "type": "function"
    },
    {
      "constant": false,
      "inputs": [
        {
          "internalType": "address",
          "name": "rootchain",
          "type": "address"
        },
        {
          "internalType": "address",
          "name": "seigManager",
          "type": "address"
        }
      ],
      "name": "deployCoinage",
      "outputs": [
        {
          "internalType": "bool",
          "name": "",
          "type": "bool"
        }
      ],
      "payable": false,
      "stateMutability": "nonpayable",
      "type": "function"
    },
    {
      "constant": false,
      "inputs": [
        {
          "internalType": "address",
          "name": "rootchain",
          "type": "address"
        },
        {
          "internalType": "address",
          "name": "seigManager",
          "type": "address"
        }
      ],
      "name": "registerAndDeployCoinage",
      "outputs": [
        {
          "internalType": "bool",
          "name": "",
          "type": "bool"
        }
      ],
      "payable": false,
      "stateMutability": "nonpayable",
      "type": "function"
    },
    {
      "constant": false,
      "inputs": [
        {
          "internalType": "address",
          "name": "rootchain",
          "type": "address"
        }
      ],
      "name": "unregister",
      "outputs": [
        {
          "internalType": "bool",
          "name": "",
          "type": "bool"
        }
      ],
      "payable": false,
      "stateMutability": "nonpayable",
      "type": "function"
    }
  ],
  "bytecode": "0x608060405260006100176001600160e01b0361006616565b600080546001600160a01b0319166001600160a01b0383169081178255604051929350917f8be0079c531659141344cd1fd0a4f28419497f9722a3daafe3b4186f6b6457e0908290a35061006a565b3390565b6106f4806100796000396000f3fe608060405234801561001057600080fd5b50600436106100935760003560e01c8063851086041161006657806385108604146101285780638da5cb5b146101565780638f32d59b1461017a578063bcb1a71e14610182578063f2fde38b146101b057610093565b806302a15299146100985780632ec2c246146100d25780634420e486146100f8578063715018a61461011e575b600080fd5b6100be600480360360208110156100ae57600080fd5b50356001600160a01b03166101d6565b604080519115158252519081900360200190f35b6100be600480360360208110156100e857600080fd5b50356001600160a01b03166101f4565b6100be6004803603602081101561010e57600080fd5b50356001600160a01b0316610298565b6101266102a9565b005b6100be6004803603604081101561013e57600080fd5b506001600160a01b038135811691602001351661034c565b61015e61035f565b604080516001600160a01b039092168252519081900360200190f35b6100be61036e565b6100be6004803603604081101561019857600080fd5b506001600160a01b0381358116916020013516610392565b610126600480360360208110156101c657600080fd5b50356001600160a01b03166103c2565b6001600160a01b031660009081526001602052604090205460ff1690565b60006101fe61036e565b61024f576040805162461bcd60e51b815260206004820181905260248201527f4f776e61626c653a2063616c6c6572206973206e6f7420746865206f776e6572604482015290519081900360640190fd5b6001600160a01b03821660009081526001602052604090205460ff1661027457600080fd5b6001600160a01b039091166000908152600160205260409020805460ff1916905590565b60006102a382610427565b92915050565b6102b161036e565b610302576040805162461bcd60e51b815260206004820181905260248201527f4f776e61626c653a2063616c6c6572206973206e6f7420746865206f776e6572604482015290519081900360640190fd5b600080546040516001600160a01b03909116907f8be0079c531659141344cd1fd0a4f28419497f9722a3daafe3b4186f6b6457e0908390a3600080546001600160a01b0319169055565b60006103588383610568565b9392505050565b6000546001600160a01b031690565b600080546001600160a01b03166103836105f5565b6001600160a01b031614905090565b600061039d83610427565b6103a657600080fd5b6103b08383610568565b6103b957600080fd5b50600192915050565b6103ca61036e565b61041b576040805162461bcd60e51b815260206004820181905260248201527f4f776e61626c653a2063616c6c6572206973206e6f7420746865206f776e6572604482015290519081900360640190fd5b610424816105f9565b50565b6001600160a01b03811660009081526001602052604081205460ff161561044d57600080fd5b816001600160a01b031663420bb4b86040518163ffffffff1660e01b815260040160206040518083038186803b15801561048657600080fd5b505afa15801561049a573d6000803e3d6000fd5b505050506040513d60208110156104b057600080fd5b50516104bb57600080fd5b6104c361036e565b61054057816001600160a01b031663570ca7356040518163ffffffff1660e01b815260040160206040518083038186803b15801561050057600080fd5b505afa158015610514573d6000803e3d6000fd5b505050506040513d602081101561052a57600080fd5b50516001600160a01b0316331461054057600080fd5b506001600160a01b03166000908152600160208190526040909120805460ff19168217905590565b6000816001600160a01b031663833a774f846040518263ffffffff1660e01b815260040180826001600160a01b03166001600160a01b03168152602001915050602060405180830381600087803b1580156105c257600080fd5b505af11580156105d6573d6000803e3d6000fd5b505050506040513d60208110156105ec57600080fd5b50519392505050565b3390565b6001600160a01b03811661063e5760405162461bcd60e51b815260040180806020018281038252602681526020018061069a6026913960400191505060405180910390fd5b600080546040516001600160a01b03808516939216917f8be0079c531659141344cd1fd0a4f28419497f9722a3daafe3b4186f6b6457e091a3600080546001600160a01b0319166001600160a01b039290921691909117905556fe4f776e61626c653a206e6577206f776e657220697320746865207a65726f2061646472657373a265627a7a723158209f48f2d6b8895af4dc42f075bb39705fc4c7a015cf66dd06598c6c75d292093a64736f6c634300050c0032",
  "source": "pragma solidity ^0.5.12;\n\nimport { Ownable } from \"../../node_modules/openzeppelin-solidity/contracts/ownership/OWnable.sol\";\n\nimport { RootChainI } from \"../RootChainI.sol\";\n\nimport { SeigManagerI } from \"./interfaces/SeigManagerI.sol\";\nimport { RootChainRegistryI } from \"./interfaces/RootChainRegistryI.sol\";\n\n\n// TODO: transfer coinages ownership to seig manager\ncontract RootChainRegistry is RootChainRegistryI, Ownable {\n  // check whether the address is root chain contract or not\n  mapping (address => bool) internal _rootchains;\n\n  function rootchains(address rootchain) external view returns (bool) {\n    return _rootchains[rootchain];\n  }\n\n  function register(address rootchain) external returns (bool) {\n    return _register(rootchain);\n  }\n\n  function _register(address rootchain) internal returns (bool) {\n    require(!_rootchains[rootchain]);\n    require(RootChainI(rootchain).isRootChain());\n\n    if (!isOwner()) {\n      require(msg.sender == RootChainI(rootchain).operator());\n    }\n\n    _rootchains[rootchain] = true;\n\n    return true;\n  }\n\n  function deployCoinage(address rootchain, address seigManager) external returns (bool) {\n    return _deployCoinage(rootchain, seigManager);\n  }\n\n  function _deployCoinage(address rootchain, address seigManager) internal returns (bool) {\n    return SeigManagerI(seigManager).deployCoinage(rootchain);\n  }\n\n  function registerAndDeployCoinage(\n    address rootchain,\n    address seigManager\n  ) external returns (bool) {\n    require(_register(rootchain));\n    require(_deployCoinage(rootchain, seigManager));\n    return true;\n  }\n\n  function unregister(address rootchain) external onlyOwner returns (bool) {\n    require(_rootchains[rootchain]);\n\n    _rootchains[rootchain] = false;\n  }\n}",
  "sourcePath": "/Users/thomashin/Workspace/plasma-evm-contracts/contracts/stake/RootChainRegistry.sol",
  "compiler": {
    "name": "solc",
    "version": "0.5.12+commit.7709ece9.Emscripten.clang"
  },
  "schemaVersion": "3.0.23",
  "updatedAt": "2020-02-17T01:27:42.256Z",
  "devdoc": {
    "methods": {
      "isOwner()": {
        "details": "Returns true if the caller is the current owner."
      },
      "owner()": {
        "details": "Returns the address of the current owner."
      },
      "renounceOwnership()": {
        "details": "Leaves the contract without owner. It will not be possible to call `onlyOwner` functions anymore. Can only be called by the current owner.     * NOTE: Renouncing ownership will leave the contract without an owner, thereby removing any functionality that is only available to the owner."
      },
      "transferOwnership(address)": {
        "details": "Transfers ownership of the contract to a new account (`newOwner`). Can only be called by the current owner."
      }
    }
  },
  "userdoc": {
    "methods": {}
  }
}