{
  "contractName": "SeigManager",
  "abi": [
    {
      "inputs": [
        {
          "internalType": "contract ERC20Mintable",
          "name": "_ton",
          "type": "address"
        },
        {
          "internalType": "contract ERC20Mintable",
          "name": "_wton",
          "type": "address"
        },
        {
          "internalType": "contract RootChainRegistry",
          "name": "_registry",
          "type": "address"
        },
        {
          "internalType": "contract DepositManager",
          "name": "_depositManager",
          "type": "address"
        },
        {
          "internalType": "uint256",
          "name": "_seigPerBlock",
          "type": "uint256"
        }
      ],
      "payable": false,
      "stateMutability": "nonpayable",
      "type": "constructor"
    },
    {
      "anonymous": false,
      "inputs": [
        {
          "indexed": false,
          "internalType": "address",
          "name": "rootchain",
          "type": "address"
        },
        {
          "indexed": false,
          "internalType": "address",
          "name": "coinage",
          "type": "address"
        }
      ],
      "name": "CoinageCreated",
      "type": "event"
    },
    {
      "anonymous": false,
      "inputs": [
        {
          "indexed": false,
          "internalType": "address",
          "name": "rootchain",
          "type": "address"
        }
      ],
      "name": "Comitted",
      "type": "event"
    },
    {
      "anonymous": false,
      "inputs": [
        {
          "indexed": false,
          "internalType": "uint256",
          "name": "totalStakedAmount",
          "type": "uint256"
        },
        {
          "indexed": false,
          "internalType": "uint256",
          "name": "totalSupplyOfWTON",
          "type": "uint256"
        },
        {
          "indexed": false,
          "internalType": "uint256",
          "name": "prevTotalSupply",
          "type": "uint256"
        },
        {
          "indexed": false,
          "internalType": "uint256",
          "name": "nextTotalSupply",
          "type": "uint256"
        }
      ],
      "name": "CommitLog1",
      "type": "event"
    },
    {
      "anonymous": false,
      "inputs": [
        {
          "indexed": true,
          "internalType": "address",
          "name": "previousOwner",
          "type": "address"
        },
        {
          "indexed": true,
          "internalType": "address",
          "name": "newOwner",
          "type": "address"
        }
      ],
      "name": "OwnershipTransferred",
      "type": "event"
    },
    {
      "anonymous": false,
      "inputs": [
        {
          "indexed": false,
          "internalType": "address",
          "name": "rootchain",
          "type": "address"
        },
        {
          "indexed": false,
          "internalType": "uint256",
          "name": "totalSeig",
          "type": "uint256"
        },
        {
          "indexed": false,
          "internalType": "uint256",
          "name": "stakedSeig",
          "type": "uint256"
        },
        {
          "indexed": false,
          "internalType": "uint256",
          "name": "unstakedSeig",
          "type": "uint256"
        }
      ],
      "name": "SeigGiven",
      "type": "event"
    },
    {
      "anonymous": false,
      "inputs": [
        {
          "indexed": false,
          "internalType": "uint256",
          "name": "coinageBurnAmount",
          "type": "uint256"
        },
        {
          "indexed": false,
          "internalType": "uint256",
          "name": "totBurnAmount",
          "type": "uint256"
        }
      ],
      "name": "UnstakeLog",
      "type": "event"
    },
    {
      "constant": true,
      "inputs": [],
      "name": "DEFAULT_FACTOR",
      "outputs": [
        {
          "internalType": "uint256",
          "name": "",
          "type": "uint256"
        }
      ],
      "payable": false,
      "stateMutability": "view",
      "type": "function"
    },
    {
      "constant": true,
      "inputs": [
        {
          "internalType": "address",
          "name": "",
          "type": "address"
        }
      ],
      "name": "coinages",
      "outputs": [
        {
          "internalType": "contract CustomIncrementCoinageMock",
          "name": "",
          "type": "address"
        }
      ],
      "payable": false,
      "stateMutability": "view",
      "type": "function"
    },
    {
      "constant": true,
      "inputs": [],
      "name": "depositManager",
      "outputs": [
        {
          "internalType": "contract DepositManager",
          "name": "",
          "type": "address"
        }
      ],
      "payable": false,
      "stateMutability": "view",
      "type": "function"
    },
    {
      "constant": true,
      "inputs": [],
      "name": "isOwner",
      "outputs": [
        {
          "internalType": "bool",
          "name": "",
          "type": "bool"
        }
      ],
      "payable": false,
      "stateMutability": "view",
      "type": "function"
    },
    {
      "constant": true,
      "inputs": [
        {
          "internalType": "address",
          "name": "",
          "type": "address"
        }
      ],
      "name": "lastCommitBlock",
      "outputs": [
        {
          "internalType": "uint256",
          "name": "",
          "type": "uint256"
        }
      ],
      "payable": false,
      "stateMutability": "view",
      "type": "function"
    },
    {
      "constant": true,
      "inputs": [],
      "name": "lastSeigBlock",
      "outputs": [
        {
          "internalType": "uint256",
          "name": "",
          "type": "uint256"
        }
      ],
      "payable": false,
      "stateMutability": "view",
      "type": "function"
    },
    {
      "constant": true,
      "inputs": [],
      "name": "owner",
      "outputs": [
        {
          "internalType": "address",
          "name": "",
          "type": "address"
        }
      ],
      "payable": false,
      "stateMutability": "view",
      "type": "function"
    },
    {
      "constant": true,
      "inputs": [],
      "name": "registry",
      "outputs": [
        {
          "internalType": "contract RootChainRegistry",
          "name": "",
          "type": "address"
        }
      ],
      "payable": false,
      "stateMutability": "view",
      "type": "function"
    },
    {
      "constant": false,
      "inputs": [],
      "name": "renounceOwnership",
      "outputs": [],
      "payable": false,
      "stateMutability": "nonpayable",
      "type": "function"
    },
    {
      "constant": true,
      "inputs": [],
      "name": "seigPerBlock",
      "outputs": [
        {
          "internalType": "uint256",
          "name": "",
          "type": "uint256"
        }
      ],
      "payable": false,
      "stateMutability": "view",
      "type": "function"
    },
    {
      "constant": true,
      "inputs": [],
      "name": "ton",
      "outputs": [
        {
          "internalType": "contract ERC20Mintable",
          "name": "",
          "type": "address"
        }
      ],
      "payable": false,
      "stateMutability": "view",
      "type": "function"
    },
    {
      "constant": true,
      "inputs": [],
      "name": "tot",
      "outputs": [
        {
          "internalType": "contract CustomIncrementCoinageMock",
          "name": "",
          "type": "address"
        }
      ],
      "payable": false,
      "stateMutability": "view",
      "type": "function"
    },
    {
      "constant": true,
      "inputs": [
        {
          "internalType": "address",
          "name": "",
          "type": "address"
        }
      ],
      "name": "totTotalSupplyAtCommit",
      "outputs": [
        {
          "internalType": "uint256",
          "name": "",
          "type": "uint256"
        }
      ],
      "payable": false,
      "stateMutability": "view",
      "type": "function"
    },
    {
      "constant": false,
      "inputs": [
        {
          "internalType": "address",
          "name": "newOwner",
          "type": "address"
        }
      ],
      "name": "transferOwnership",
      "outputs": [],
      "payable": false,
      "stateMutability": "nonpayable",
      "type": "function"
    },
    {
      "constant": true,
      "inputs": [],
      "name": "wton",
      "outputs": [
        {
          "internalType": "contract ERC20Mintable",
          "name": "",
          "type": "address"
        }
      ],
      "payable": false,
      "stateMutability": "view",
      "type": "function"
    },
    {
      "constant": false,
      "inputs": [
        {
          "internalType": "address",
          "name": "rootchain",
          "type": "address"
        }
      ],
      "name": "deployCoinage",
      "outputs": [
        {
          "internalType": "bool",
          "name": "",
          "type": "bool"
        }
      ],
      "payable": false,
      "stateMutability": "nonpayable",
      "type": "function"
    },
    {
      "constant": false,
      "inputs": [],
      "name": "onCommit",
      "outputs": [
        {
          "internalType": "bool",
          "name": "",
          "type": "bool"
        }
      ],
      "payable": false,
      "stateMutability": "nonpayable",
      "type": "function"
    },
    {
      "constant": false,
      "inputs": [
        {
          "internalType": "address",
          "name": "sender",
          "type": "address"
        },
        {
          "internalType": "address",
          "name": "recipient",
          "type": "address"
        },
        {
          "internalType": "uint256",
          "name": "amount",
          "type": "uint256"
        }
      ],
      "name": "onTransfer",
      "outputs": [
        {
          "internalType": "bool",
          "name": "",
          "type": "bool"
        }
      ],
      "payable": false,
      "stateMutability": "nonpayable",
      "type": "function"
    },
    {
      "constant": false,
      "inputs": [
        {
          "internalType": "address",
          "name": "rootchain",
          "type": "address"
        },
        {
          "internalType": "address",
          "name": "depositor",
          "type": "address"
        },
        {
          "internalType": "uint256",
          "name": "amount",
          "type": "uint256"
        }
      ],
      "name": "onStake",
      "outputs": [
        {
          "internalType": "bool",
          "name": "",
          "type": "bool"
        }
      ],
      "payable": false,
      "stateMutability": "nonpayable",
      "type": "function"
    },
    {
      "constant": false,
      "inputs": [
        {
          "internalType": "address",
          "name": "rootchain",
          "type": "address"
        },
        {
          "internalType": "address",
          "name": "depositor",
          "type": "address"
        },
        {
          "internalType": "uint256",
          "name": "amount",
          "type": "uint256"
        }
      ],
      "name": "onUnstake",
      "outputs": [
        {
          "internalType": "bool",
          "name": "",
          "type": "bool"
        }
      ],
      "payable": false,
      "stateMutability": "nonpayable",
      "type": "function"
    },
    {
      "constant": true,
      "inputs": [
        {
          "internalType": "address",
          "name": "rootchain",
          "type": "address"
        },
        {
          "internalType": "address",
          "name": "depositor",
          "type": "address"
        },
        {
          "internalType": "uint256",
          "name": "amount",
          "type": "uint256"
        }
      ],
      "name": "additionalTotBurnAmount",
      "outputs": [
        {
          "internalType": "uint256",
          "name": "totAmount",
          "type": "uint256"
        }
      ],
      "payable": false,
      "stateMutability": "view",
      "type": "function"
    },
    {
      "constant": true,
      "inputs": [
        {
          "internalType": "address",
          "name": "rootchain",
          "type": "address"
        },
        {
          "internalType": "address",
          "name": "depositor",
          "type": "address"
        }
      ],
      "name": "uncomittedStakeOf",
      "outputs": [
        {
          "internalType": "uint256",
          "name": "",
          "type": "uint256"
        }
      ],
      "payable": false,
      "stateMutability": "view",
      "type": "function"
    },
    {
      "constant": true,
      "inputs": [
        {
          "internalType": "address",
          "name": "rootchain",
          "type": "address"
        },
        {
          "internalType": "address",
          "name": "depositor",
          "type": "address"
        }
      ],
      "name": "stakeOf",
      "outputs": [
        {
          "internalType": "uint256",
          "name": "",
          "type": "uint256"
        }
      ],
      "payable": false,
      "stateMutability": "view",
      "type": "function"
    }
  ],
  "bytecode": "0x60806040523480156200001157600080fd5b5060405162005f8038038062005f80833981810160405260a08110156200003757600080fd5b50805160208201516040830151606084015160809094015192939192909190620000696001600160e01b036200019b16565b600080546001600160a01b0319166001600160a01b03928316178082556040519216917f8be0079c531659141344cd1fd0a4f28419497f9722a3daafe3b4186f6b6457e0908290a3600380546001600160a01b038088166001600160a01b0319928316179092556004805487841690831617905560018054868416908316179055600280549285169290911691909117905560088190556040516b033b2e3c9fd0803ce8000000906000906200011f906200019f565b60408082019390935290151560608201526080808252600090820181905260c06020830181905282018190529151908190036101000191f0801580156200016a573d6000803e3d6000fd5b50600580546001600160a01b0319166001600160a01b039290921691909117905550504360095550620001ad915050565b3390565b611e5b806200412583390190565b613f6880620001bd6000396000f3fe60806040523480156200001157600080fd5b50600436106200016c5760003560e01c80638bf91dc411620000d5578063c59f10461162000087578063c59f10461462000378578063cc48b94714620003a1578063ce4cb87614620003ab578063f2fde38b14620003dc578063f35c89e81462000405578063fa9789c8146200040f576200016c565b80638bf91dc4146200030d5780638d62d94914620003175780638da5cb5b14620003215780638de0474e146200032b5780638f32d59b1462000364578063a16d6aa7146200036e576200016c565b80634c063c19116200012f5780634c063c1914620002755780635f40a34914620002ba5780636c7ac9d814620002c4578063715018a614620002ce5780637b10399914620002da578063833a774f14620002e4576200016c565b80630214f5ca1462000171578063359c4d5914620001be57806345ef07b214620001c857806348c8577e14620002035780634a393149146200023c575b600080fd5b620001aa600480360360608110156200018957600080fd5b506001600160a01b0381358116916020810135909116906040013562000440565b604080519115158252519081900360200190f35b620001aa620006dd565b620001f160048036036020811015620001e057600080fd5b50356001600160a01b031662000aa3565b60408051918252519081900360200190f35b620001f1600480360360608110156200021b57600080fd5b506001600160a01b0381358116916020810135909116906040013562000ab5565b620001aa600480360360608110156200025457600080fd5b506001600160a01b0381358116916020810135909116906040013562000cf0565b6200029e600480360360208110156200028d57600080fd5b50356001600160a01b031662000d69565b604080516001600160a01b039092168252519081900360200190f35b620001f162000d84565b6200029e62000d8a565b620002d862000d99565b005b6200029e62000e3f565b620001aa60048036036020811015620002fc57600080fd5b50356001600160a01b031662000e4e565b620001f16200102c565b6200029e6200103c565b6200029e6200104b565b620001aa600480360360608110156200034357600080fd5b506001600160a01b038135811691602081013590911690604001356200105b565b620001aa620011ef565b6200029e62001215565b620001f1600480360360208110156200039057600080fd5b50356001600160a01b031662001224565b6200029e62001236565b620001f160048036036040811015620003c357600080fd5b506001600160a01b038135811691602001351662001245565b620002d860048036036020811015620003f457600080fd5b50356001600160a01b0316620012d7565b620001f162001341565b620001f1600480360360408110156200042757600080fd5b506001600160a01b038135811691602001351662001347565b6002546000906001600160a01b031633146200045b57600080fd5b6001600160a01b03808516600090815260066020526040902054859116620004b55760405162461bcd60e51b815260040180806020018281038252602e81526020018062003e88602e913960400191505060405180910390fd5b6001600160a01b038086166000908152600660209081526040918290205482516370a0823160e01b815288851660048201529251879491909116926370a08231926024808301939192829003018186803b1580156200051357600080fd5b505afa15801562000528573d6000803e3d6000fd5b505050506040513d60208110156200053f57600080fd5b50511015620005805760405162461bcd60e51b815260040180806020018281038252602c81526020018062003f08602c913960400191505060405180910390fd5b60006200058f86868662000ab5565b6005549091506001600160a01b03166379cc679087620005b6878563ffffffff6200161c16565b6040518363ffffffff1660e01b815260040180836001600160a01b03166001600160a01b0316815260200182815260200192505050600060405180830381600087803b1580156200060657600080fd5b505af11580156200061b573d6000803e3d6000fd5b5050506001600160a01b0380881660009081526006602052604080822054815163079cc67960e41b81528a85166004820152602481018a90529151931693506379cc6790926044808301939282900301818387803b1580156200067d57600080fd5b505af115801562000692573d6000803e3d6000fd5b5050604080518781526020810185905281517f650f673bb96a43afff4620ecc3f3e38e0cbfddebde9894e951ba2ceff7472f609450908190039091019150a150600195945050505050565b336000818152600660205260408120549091906001600160a01b0316620007365760405162461bcd60e51b815260040180806020018281038252602e81526020018062003e88602e913960400191505060405180910390fd5b6200074062001677565b503360009081526006602090815260408083205481516318160ddd60e01b815291516001600160a01b03909116939284926318160ddd9260048083019392829003018186803b1580156200079357600080fd5b505afa158015620007a8573d6000803e3d6000fd5b505050506040513d6020811015620007bf57600080fd5b5051600554604080516370a0823160e01b815233600482015290519293506000926001600160a01b03909216916370a0823191602480820192602092909190829003018186803b1580156200081357600080fd5b505afa15801562000828573d6000803e3d6000fd5b505050506040513d60208110156200083f57600080fd5b505160408051630a9ee07f60e31b815290519192506001600160a01b0385169163817e9d3191620008ca918691869186916354f703f8916004808301926020929190829003018186803b1580156200089657600080fd5b505afa158015620008ab573d6000803e3d6000fd5b505050506040513d6020811015620008c257600080fd5b505162001cd0565b6040518263ffffffff1660e01b815260040180828152602001915050602060405180830381600087803b1580156200090157600080fd5b505af115801562000916573d6000803e3d6000fd5b505050506040513d60208110156200092d57600080fd5b50503360009081526007602090815260409182902043905560055482516318160ddd60e01b815292516001600160a01b03909116926318160ddd926004808301939192829003018186803b1580156200098557600080fd5b505afa1580156200099a573d6000803e3d6000fd5b505050506040513d6020811015620009b157600080fd5b5051336000908152600a60205260409020556004546001600160a01b03166340c10f1930620009e7848663ffffffff62001cf116565b6040518363ffffffff1660e01b815260040180836001600160a01b03166001600160a01b0316815260200182815260200192505050602060405180830381600087803b15801562000a3757600080fd5b505af115801562000a4c573d6000803e3d6000fd5b505050506040513d602081101562000a6357600080fd5b50506040805133815290517f521cc65179761533a7c8d7a973291dd7baebb99a67edf5ef78e9c2b61a533d959181900360200190a1600194505050505090565b600a6020526000908152604090205481565b6001600160a01b0383166000908152600a602052604081205462000adc5750600062000ce9565b6001600160a01b038085166000908152600a60209081526040918290205460055483516318160ddd60e01b81529351919462000ce59462000c969462000c109462000b8e9462000b87948a949116926318160ddd92600480840193829003018186803b15801562000b4c57600080fd5b505afa15801562000b61573d6000803e3d6000fd5b505050506040513d602081101562000b7857600080fd5b50519063ffffffff62001cf116565b8762001d35565b600554604080516370a0823160e01b81526001600160a01b038c81166004830152915191909216916370a08231916024808301926020929190829003018186803b15801562000bdc57600080fd5b505afa15801562000bf1573d6000803e3d6000fd5b505050506040513d602081101562000c0857600080fd5b505162001d35565b6001600160a01b038089166000908152600660209081526040918290205482516318160ddd60e01b815292519316926318160ddd926004808201939291829003018186803b15801562000c6257600080fd5b505afa15801562000c77573d6000803e3d6000fd5b505050506040513d602081101562000c8e57600080fd5b505162001d7b565b600560009054906101000a90046001600160a01b03166001600160a01b03166318160ddd6040518163ffffffff1660e01b815260040160206040518083038186803b15801562000c6257600080fd5b9150505b9392505050565b6003546000906001600160a01b031633148062000d1757506004546001600160a01b031633145b62000d545760405162461bcd60e51b815260040180806020018281038252603181526020018062003ed76031913960400191505060405180910390fd5b62000d5e62001677565b506001949350505050565b6006602052600090815260409020546001600160a01b031681565b60085481565b6002546001600160a01b031681565b62000da3620011ef565b62000df5576040805162461bcd60e51b815260206004820181905260248201527f4f776e61626c653a2063616c6c6572206973206e6f7420746865206f776e6572604482015290519081900360640190fd5b600080546040516001600160a01b03909116907f8be0079c531659141344cd1fd0a4f28419497f9722a3daafe3b4186f6b6457e0908390a3600080546001600160a01b0319169055565b6001546001600160a01b031681565b6001546000906001600160a01b0316331462000e6957600080fd5b6001600160a01b03828116600090815260066020526040902054161562000e935750600062001027565b6001600160a01b038281166000908152600660205260409020541662001023576b033b2e3c9fd0803ce8000000600060405162000ed09062001ff8565b60408082019390935290151560608201526080808252600090820181905260c06020830181905282018190529151908190036101000191f08015801562000f1b573d6000803e3d6000fd5b506001600160a01b03838116600090815260066020908152604080832080546001600160a01b03191695851695909517909455600781529083902043905560055483516318160ddd60e01b815293519216926318160ddd9260048083019392829003018186803b15801562000f8f57600080fd5b505afa15801562000fa4573d6000803e3d6000fd5b505050506040513d602081101562000fbb57600080fd5b50516001600160a01b038084166000818152600a602090815260408083209590955560068152908490205484519283529092169181019190915281517f124cac1e701d08d642237ad795ddd275670e12f2cd956a26709721c68084c2b2929181900390910190a15b5060015b919050565b6b033b2e3c9fd0803ce800000081565b6004546001600160a01b031681565b6000546001600160a01b03165b90565b6002546000906001600160a01b031633146200107657600080fd5b6001600160a01b03808516600090815260066020526040902054859116620010d05760405162461bcd60e51b815260040180806020018281038252602e81526020018062003e88602e913960400191505060405180910390fd5b6001600160a01b0380861660009081526006602090815260408083205481516340c10f1960e01b815289861660048201526024810189905291519416936340c10f1993604480840194938390030190829087803b1580156200113157600080fd5b505af115801562001146573d6000803e3d6000fd5b505050506040513d60208110156200115d57600080fd5b5050600554604080516340c10f1960e01b81526001600160a01b03888116600483015260248201879052915191909216916340c10f199160448083019260209291908290030181600087803b158015620011b657600080fd5b505af1158015620011cb573d6000803e3d6000fd5b505050506040513d6020811015620011e257600080fd5b5060019695505050505050565b600080546001600160a01b03166200120662001da3565b6001600160a01b031614905090565b6005546001600160a01b031681565b60076020526000908152604090205481565b6003546001600160a01b031681565b6001600160a01b0380831660009081526006602090815260408083205481516370a0823160e01b815286861660048201529151939416926370a0823192602480840193919291829003018186803b158015620012a057600080fd5b505afa158015620012b5573d6000803e3d6000fd5b505050506040513d6020811015620012cc57600080fd5b505190505b92915050565b620012e1620011ef565b62001333576040805162461bcd60e51b815260206004820181905260248201527f4f776e61626c653a2063616c6c6572206973206e6f7420746865206f776e6572604482015290519081900360640190fd5b6200133e8162001da7565b50565b60095481565b6001600160a01b038083166000908152600660209081526040808320548151630a9ee07f60e31b8152915193941692849284926354f703f89260048083019392829003018186803b1580156200139c57600080fd5b505afa158015620013b1573d6000803e3d6000fd5b505050506040513d6020811015620013c857600080fd5b5051604080516318160ddd60e01b815290519192506000916001600160a01b038516916318160ddd916004808301926020929190829003018186803b1580156200141157600080fd5b505afa15801562001426573d6000803e3d6000fd5b505050506040513d60208110156200143d57600080fd5b5051600554604080516370a0823160e01b81526001600160a01b038a81166004830152915193945060009391909216916370a08231916024808301926020929190829003018186803b1580156200149357600080fd5b505afa158015620014a8573d6000803e3d6000fd5b505050506040513d6020811015620014bf57600080fd5b505190506000620014d283838662001cd0565b90506000620015716200156a876001600160a01b03166370a082318b6040518263ffffffff1660e01b815260040180826001600160a01b03166001600160a01b0316815260200191505060206040518083038186803b1580156200153557600080fd5b505afa1580156200154a573d6000803e3d6000fd5b505050506040513d60208110156200156157600080fd5b50518762001d7b565b8362001d35565b6001600160a01b03808b166000908152600660209081526040918290205482516370a0823160e01b81528d8516600482015292519495506200160f949316926370a08231926024808201939291829003018186803b158015620015d357600080fd5b505afa158015620015e8573d6000803e3d6000fd5b505050506040513d6020811015620015ff57600080fd5b5051829063ffffffff62001cf116565b9998505050505050505050565b60008282018381101562000ce9576040805162461bcd60e51b815260206004820152601b60248201527f536166654d6174683a206164646974696f6e206f766572666c6f770000000000604482015290519081900360640190fd5b60006009544314156200168d5750600062001058565b600560009054906101000a90046001600160a01b03166001600160a01b03166318160ddd6040518163ffffffff1660e01b815260040160206040518083038186803b158015620016dc57600080fd5b505afa158015620016f1573d6000803e3d6000fd5b505050506040513d60208110156200170857600080fd5b50516200171c575043600955600062001058565b600080600560009054906101000a90046001600160a01b03166001600160a01b03166318160ddd6040518163ffffffff1660e01b815260040160206040518083038186803b1580156200176e57600080fd5b505afa15801562001783573d6000803e3d6000fd5b505050506040513d60208110156200179a57600080fd5b5051600854600954919350600091620017bf9143919091039063ffffffff62001e4916565b9050600062001a8d6200181b83600560009054906101000a90046001600160a01b03166001600160a01b03166318160ddd6040518163ffffffff1660e01b815260040160206040518083038186803b15801562000bdc57600080fd5b62001a87600460009054906101000a90046001600160a01b03166001600160a01b03166318160ddd6040518163ffffffff1660e01b815260040160206040518083038186803b1580156200186e57600080fd5b505afa15801562001883573d6000803e3d6000fd5b505050506040513d60208110156200189a57600080fd5b5051600554604080516318160ddd60e01b8152905162001a7a926001600160a01b0316916318160ddd916004808301926020929190829003018186803b158015620018e457600080fd5b505afa158015620018f9573d6000803e3d6000fd5b505050506040513d60208110156200191057600080fd5b505160048054604080516318160ddd60e01b8152905162001a6d936001600160a01b03909316926318160ddd92808201926020929091829003018186803b1580156200195b57600080fd5b505afa15801562001970573d6000803e3d6000fd5b505050506040513d60208110156200198757600080fd5b505160035460048054604080516370a0823160e01b81526001600160a01b03928316938101939093525162001a6d93633b9aca009362001a6093909116916370a0823191602480820192602092909190829003018186803b158015620019ec57600080fd5b505afa15801562001a01573d6000803e3d6000fd5b505050506040513d602081101562001a1857600080fd5b5051600354604080516318160ddd60e01b815290516001600160a01b03909216916318160ddd91600480820192602092909190829003018186803b15801562000b4c57600080fd5b9063ffffffff62001e4916565b9063ffffffff6200161c16565b9063ffffffff62001cf116565b62001d7b565b905062001aa1848263ffffffff6200161c16565b4360095560055460408051630a9ee07f60e31b815290519295506001600160a01b039091169163817e9d319162001afe918891889186916354f703f8916004808301926020929190829003018186803b1580156200089657600080fd5b6040518263ffffffff1660e01b815260040180828152602001915050602060405180830381600087803b15801562001b3557600080fd5b505af115801562001b4a573d6000803e3d6000fd5b505050506040513d602081101562001b6157600080fd5b5050600554604080516318160ddd60e01b815290517f41a79a497d1457df24c25ab99f22349ae9aef4468429f0a781216e8dcf80c628926001600160a01b0316916318160ddd916004808301926020929190829003018186803b15801562001bc857600080fd5b505afa15801562001bdd573d6000803e3d6000fd5b505050506040513d602081101562001bf457600080fd5b505160048054604080516318160ddd60e01b8152905162001c3f936001600160a01b03909316926318160ddd92808201926020929091829003018186803b1580156200186e57600080fd5b60408051928352602083019190915281810187905260608201869052519081900360800190a1600062001c79838363ffffffff62001cf116565b60408051338152602081018690528082018590526060810183905290519192507f102448afe27c1b627a61d0fc9831a83d09698755a334a07b395eea45a3bb80f9919081900360800190a160019550505050505090565b600062001ce962001ce2848462001d35565b8562001d7b565b949350505050565b600062000ce983836040518060400160405280601e81526020017f536166654d6174683a207375627472616374696f6e206f766572666c6f77000081525062001ea7565b60006b033b2e3c9fd0803ce800000062001d6b62001d54858562001f42565b60026b033b2e3c9fd0803ce80000005b0462001fa8565b8162001d7357fe5b049392505050565b60008162001d6b62001d9a856b033b2e3c9fd0803ce800000062001f42565b60028562001d64565b3390565b6001600160a01b03811662001dee5760405162461bcd60e51b815260040180806020018281038252602681526020018062003e626026913960400191505060405180910390fd5b600080546040516001600160a01b03808516939216917f8be0079c531659141344cd1fd0a4f28419497f9722a3daafe3b4186f6b6457e091a3600080546001600160a01b0319166001600160a01b0392909216919091179055565b60008262001e5a57506000620012d1565b8282028284828162001e6857fe5b041462000ce95760405162461bcd60e51b815260040180806020018281038252602181526020018062003eb66021913960400191505060405180910390fd5b6000818484111562001f3a5760405162461bcd60e51b81526004018080602001828103825283818151815260200191508051906020019080838360005b8381101562001efe57818101518382015260200162001ee4565b50505050905090810190601f16801562001f2c5780820380516001836020036101000a031916815260200191505b509250505060405180910390fd5b505050900390565b600081158062001f5f5750508082028282828162001f5c57fe5b04145b620012d1576040805162461bcd60e51b815260206004820152601460248201527364732d6d6174682d6d756c2d6f766572666c6f7760601b604482015290519081900360640190fd5b80820182811015620012d1576040805162461bcd60e51b815260206004820152601460248201527364732d6d6174682d6164642d6f766572666c6f7760601b604482015290519081900360640190fd5b611e5b80620020078339019056fe60806040523480156200001157600080fd5b5060405162001e5b38038062001e5b833981810160405260808110156200003757600080fd5b81019080805160405193929190846401000000008211156200005857600080fd5b9083019060208201858111156200006e57600080fd5b82516401000000008111828201881017156200008957600080fd5b82525081516020918201929091019080838360005b83811015620000b85781810151838201526020016200009e565b50505050905090810190601f168015620000e65780820380516001836020036101000a031916815260200191505b50604052602001805160405193929190846401000000008211156200010a57600080fd5b9083019060208201858111156200012057600080fd5b82516401000000008111828201881017156200013b57600080fd5b82525081516020918201929091019080838360005b838110156200016a57818101518382015260200162000150565b50505050905090810190601f168015620001985780820380516001836020036101000a031916815260200191505b50604090815260208201519101519092509050838383838383836000848484601b620001df620001d06001600160e01b03620002ad16565b6001600160e01b03620002b216565b620001f26001600160e01b03620002ad16565b600480546001600160a01b0319166001600160a01b0392831617908190556040519116906000907f8be0079c531659141344cd1fd0a4f28419497f9722a3daafe3b4186f6b6457e0908290a3825162000253906005906020860190620003fa565b50815162000269906006906020850190620003fa565b506007805460ff90921660ff19928316179055600b959095555050600c9190915543600d55600e805491151591909216179055506200049c98505050505050505050565b335b90565b620002cd8160036200030460201b6200148b1790919060201c565b6040516001600160a01b038216907f6ae172837ea30b801fbfcdd4108aa1d5bf8ff775444fd70256b44e6bf3dfc3f690600090a250565b6200031982826001600160e01b036200039116565b156200036c576040805162461bcd60e51b815260206004820152601f60248201527f526f6c65733a206163636f756e7420616c72656164792068617320726f6c6500604482015290519081900360640190fd5b6001600160a01b0316600090815260209190915260409020805460ff19166001179055565b60006001600160a01b038216620003da5760405162461bcd60e51b815260040180806020018281038252602281526020018062001e396022913960400191505060405180910390fd5b506001600160a01b03166000908152602091909152604090205460ff1690565b828054600181600116156101000203166002900490600052602060002090601f016020900481019282601f106200043d57805160ff19168380011785556200046d565b828001600101855582156200046d579182015b828111156200046d57825182559160200191906001019062000450565b506200047b9291506200047f565b5090565b620002af91905b808211156200047b576000815560010162000486565b61198d80620004ac6000396000f3fe608060405234801561001057600080fd5b50600436106101a95760003560e01c8063817e9d31116100f9578063a9059cbb11610097578063d4132ee211610071578063d4132ee2146104bf578063dd62ed3e146104c7578063f2fde38b146104f5578063f41e60c51461051b576101a9565b8063a9059cbb14610465578063aa271e1a14610491578063bef97c87146104b7576101a9565b806395d89b41116100d357806395d89b4114610403578063983b2d561461040b5780639865027514610431578063a457c2d714610439576101a9565b8063817e9d31146103ba5780638da5cb5b146103d75780638f32d59b146103fb576101a9565b806340c10f191161016657806370a082311161014057806370a0823114610358578063715018a61461037e57806379cc679014610386578063806b984f146103b2576101a9565b806340c10f191461030557806342966c681461033157806354f703f814610350576101a9565b806306fdde03146101ae578063095ea7b31461022b57806318160ddd1461026b57806323b872dd14610285578063313ce567146102bb57806339509351146102d9575b600080fd5b6101b661053a565b6040805160208082528351818301528351919283929083019185019080838360005b838110156101f05781810151838201526020016101d8565b50505050905090810190601f16801561021d5780820380516001836020036101000a031916815260200191505b509250505060405180910390f35b6102576004803603604081101561024157600080fd5b506001600160a01b0381351690602001356105d0565b604080519115158252519081900360200190f35b6102736105ee565b60408051918252519081900360200190f35b6102576004803603606081101561029b57600080fd5b506001600160a01b03813581169160208101359091169060400135610600565b6102c36106f1565b6040805160ff9092168252519081900360200190f35b610257600480360360408110156102ef57600080fd5b506001600160a01b0381351690602001356106fa565b6102576004803603604081101561031b57600080fd5b506001600160a01b03813516906020013561074e565b61034e6004803603602081101561034757600080fd5b50356107a5565b005b6102736107b9565b6102736004803603602081101561036e57600080fd5b50356001600160a01b03166107bf565b61034e6107e9565b61034e6004803603604081101561039c57600080fd5b506001600160a01b03813516906020013561087a565b610273610888565b610257600480360360208110156103d057600080fd5b503561088e565b6103df610920565b604080516001600160a01b039092168252519081900360200190f35b61025761092f565b6101b6610955565b61034e6004803603602081101561042157600080fd5b50356001600160a01b03166109b6565b61034e610a05565b6102576004803603604081101561044f57600080fd5b506001600160a01b038135169060200135610a17565b6102576004803603604081101561047b57600080fd5b506001600160a01b038135169060200135610a85565b610257600480360360208110156104a757600080fd5b50356001600160a01b0316610afd565b610257610b10565b610273610b19565b610273600480360360408110156104dd57600080fd5b506001600160a01b0381358116916020013516610b1f565b61034e6004803603602081101561050b57600080fd5b50356001600160a01b0316610b4a565b61034e6004803603602081101561053157600080fd5b50351515610b9a565b60058054604080516020601f60026000196101006001881615020190951694909404938401819004810282018101909252828152606093909290918301828280156105c65780601f1061059b576101008083540402835291602001916105c6565b820191906000526020600020905b8154815290600101906020018083116105a957829003601f168201915b5050505050905090565b60006105e46105dd610bf4565b8484610bf8565b5060015b92915050565b60006105fb600a54610cec565b905090565b600061060a610920565b6001600160a01b0316336001600160a01b0316148061062b5750600e5460ff165b6106665760405162461bcd60e51b815260040180806020018281038252602a815260200180611864602a913960400191505060405180910390fd5b610671848484610d32565b6106e78461067d610bf4565b6106e2856040518060600160405280603781526020016118be603791396001600160a01b038a166000908152600960205260408120906106bb610bf4565b6001600160a01b03168152602081019190915260400160002054919063ffffffff610ea916565b610bf8565b5060019392505050565b60075460ff1690565b60006105e4610707610bf4565b846106e28560096000610718610bf4565b6001600160a01b03908116825260208083019390935260409182016000908120918c16815292529020549063ffffffff610f4016565b600061076061075b610bf4565b610afd565b61079b5760405162461bcd60e51b815260040180806020018281038252603081526020018061173c6030913960400191505060405180910390fd5b6105e48383610f9a565b6107b66107b0610bf4565b82611091565b50565b600b5490565b6001600160a01b0381166000908152600860205260408120546107e190610cec565b90505b919050565b6107f161092f565b610830576040805162461bcd60e51b815260206004820181905260248201526000805160206117bb833981519152604482015290519081900360640190fd5b6004546040516000916001600160a01b0316907f8be0079c531659141344cd1fd0a4f28419497f9722a3daafe3b4186f6b6457e0908390a3600480546001600160a01b0319169055565b6108848282611193565b5050565b600d5490565b600061089861092f565b6108d7576040805162461bcd60e51b815260206004820181905260248201526000805160206117bb833981519152604482015290519081900360640190fd5b600b805490839055604080518281526020810185905281517fafc9085bb15d79bc1e9d87807e2fc5f4c2b631088cb3e38c86cb627c12a0e430929181900390910190a150919050565b6004546001600160a01b031690565b6004546000906001600160a01b0316610946610bf4565b6001600160a01b031614905090565b60068054604080516020601f60026000196101006001881615020190951694909404938401819004810282018101909252828152606093909290918301828280156105c65780601f1061059b576101008083540402835291602001916105c6565b6109c161075b610bf4565b6109fc5760405162461bcd60e51b815260040180806020018281038252603081526020018061173c6030913960400191505060405180910390fd5b6107b6816111fb565b610a15610a10610bf4565b611243565b565b60006105e4610a24610bf4565b846106e2856040518060600160405280603481526020016116706034913960096000610a4e610bf4565b6001600160a01b03908116825260208083019390935260409182016000908120918d1681529252902054919063ffffffff610ea916565b6000610a8f610920565b6001600160a01b0316336001600160a01b03161480610ab05750600e5460ff165b610aeb5760405162461bcd60e51b815260040180806020018281038252602a815260200180611864602a913960400191505060405180910390fd5b6105e4610af6610bf4565b8484610d32565b60006107e160038363ffffffff61128b16565b600e5460ff1690565b600c5490565b6001600160a01b03918216600090815260096020908152604080832093909416825291909152205490565b610b5261092f565b610b91576040805162461bcd60e51b815260206004820181905260248201526000805160206117bb833981519152604482015290519081900360640190fd5b6107b6816112f2565b610ba261092f565b610be1576040805162461bcd60e51b815260206004820181905260248201526000805160206117bb833981519152604482015290519081900360640190fd5b600e805460ff1916911515919091179055565b3390565b610c00611393565b6001600160a01b038316610c455760405162461bcd60e51b81526004018080602001828103825260338152602001806116d86033913960400191505060405180910390fd5b6001600160a01b038216610c8a5760405162461bcd60e51b815260040180806020018281038252603181526020018061170b6031913960400191505060405180910390fd5b6001600160a01b03808416600081815260096020908152604080832094871680845294825291829020859055815185815291517f8c5be1e5ebec7d5bd14f71427d1e84f3dd0314c0f7b2291e5b200ac8c7c3b9259281900390910190a3505050565b600081610cfb575060006107e4565b600d54430380610d1957610d1183600b546113e5565b9150506107e4565b610d2b83610d2683611426565b6113e5565b9392505050565b610d3a611393565b6001600160a01b038316610d7f5760405162461bcd60e51b81526004018080602001828103825260348152602001806116a46034913960400191505060405180910390fd5b6001600160a01b038216610dc45760405162461bcd60e51b81526004018080602001828103825260328152602001806117fd6032913960400191505060405180910390fd5b6000610dcf8261142d565b9050610e148160405180606001604052806035815260200161182f603591396001600160a01b038716600090815260086020526040902054919063ffffffff610ea916565b6001600160a01b038086166000908152600860205260408082209390935590851681522054610e49908263ffffffff610f4016565b6001600160a01b0380851660008181526008602052604090209290925585167fddf252ad1be2c89b69c2b068fc378daa952ba7f163c4a11628f55a4df523b3ef610e928461143b565b60408051918252519081900360200190a350505050565b60008184841115610f385760405162461bcd60e51b81526004018080602001828103825283818151815260200191508051906020019080838360005b83811015610efd578181015183820152602001610ee5565b50505050905090810190601f168015610f2a5780820380516001836020036101000a031916815260200191505b509250505060405180910390fd5b505050900390565b600082820183811015610d2b576040805162461bcd60e51b815260206004820152601b60248201527f536166654d6174683a206164646974696f6e206f766572666c6f770000000000604482015290519081900360640190fd5b610fa2611393565b6001600160a01b038216610fe75760405162461bcd60e51b815260040180806020018281038252602e81526020018061178d602e913960400191505060405180910390fd5b6000610ff28261142d565b600a54909150611008908263ffffffff610f4016565b600a556001600160a01b038316600090815260086020526040902054611034908263ffffffff610f4016565b6001600160a01b038416600081815260086020526040812092909255907fddf252ad1be2c89b69c2b068fc378daa952ba7f163c4a11628f55a4df523b3ef61107b8461143b565b60408051918252519081900360200190a3505050565b611099611393565b6001600160a01b0382166110de5760405162461bcd60e51b815260040180806020018281038252603081526020018061188e6030913960400191505060405180910390fd5b60006110e98261142d565b905061112e816040518060600160405280603181526020016118f5603191396001600160a01b038616600090815260086020526040902054919063ffffffff610ea916565b6001600160a01b038416600090815260086020526040902055600a5461115a908263ffffffff61144916565b600a5560006001600160a01b0384167fddf252ad1be2c89b69c2b068fc378daa952ba7f163c4a11628f55a4df523b3ef61107b8461143b565b61119b611393565b6111a58282611091565b6111ad61092f565b61088457610884826111bd610bf4565b6106e284604051806060016040528060338152602001611926603391396001600160a01b0388166000908152600960205260408120906106bb610bf4565b61120c60038263ffffffff61148b16565b6040516001600160a01b038216907f6ae172837ea30b801fbfcdd4108aa1d5bf8ff775444fd70256b44e6bf3dfc3f690600090a250565b61125460038263ffffffff61150c16565b6040516001600160a01b038216907fe94479a9f7e1952cc78f2d6baab678adc1b772d936c6583def489e524cb6669290600090a250565b60006001600160a01b0382166112d25760405162461bcd60e51b81526004018080602001828103825260228152602001806117db6022913960400191505060405180910390fd5b506001600160a01b03166000908152602091909152604090205460ff1690565b6001600160a01b0381166113375760405162461bcd60e51b815260040180806020018281038252602681526020018061164a6026913960400191505060405180910390fd5b6004546040516001600160a01b038084169216907f8be0079c531659141344cd1fd0a4f28419497f9722a3daafe3b4186f6b6457e090600090a3600480546001600160a01b0319166001600160a01b0392909216919091179055565b600d54430380156107b6576113a781611426565b600b81905543600d5560408051918252517fe26ee4870433319e6f01f123f37f6f6823ff4084f5651912025d24930b01bcb69181900360200190a150565b60006b033b2e3c9fd0803ce80000006114176114018585611573565b60026b033b2e3c9fd0803ce80000005b046115d6565b8161141e57fe5b049392505050565b50600b5490565b60006107e182600b54611625565b60006107e182600b546113e5565b6000610d2b83836040518060400160405280601e81526020017f536166654d6174683a207375627472616374696f6e206f766572666c6f770000815250610ea9565b611495828261128b565b156114e7576040805162461bcd60e51b815260206004820152601f60248201527f526f6c65733a206163636f756e7420616c72656164792068617320726f6c6500604482015290519081900360640190fd5b6001600160a01b0316600090815260209190915260409020805460ff19166001179055565b611516828261128b565b6115515760405162461bcd60e51b815260040180806020018281038252602181526020018061176c6021913960400191505060405180910390fd5b6001600160a01b0316600090815260209190915260409020805460ff19169055565b600081158061158e5750508082028282828161158b57fe5b04145b6105e8576040805162461bcd60e51b815260206004820152601460248201527364732d6d6174682d6d756c2d6f766572666c6f7760601b604482015290519081900360640190fd5b808201828110156105e8576040805162461bcd60e51b815260206004820152601460248201527364732d6d6174682d6164642d6f766572666c6f7760601b604482015290519081900360640190fd5b600081611417611641856b033b2e3c9fd0803ce8000000611573565b60028561141156fe4f776e61626c653a206e6577206f776e657220697320746865207a65726f20616464726573734175746f496e6372656d656e74436f696e6167653a2064656372656173656420616c6c6f77616e63652062656c6f77207a65726f4175746f496e6372656d656e74436f696e6167653a207472616e736665722066726f6d20746865207a65726f20616464726573734175746f496e6372656d656e74436f696e6167653a20617070726f76652066726f6d20746865207a65726f20616464726573734175746f496e6372656d656e74436f696e6167653a20617070726f766520746f20746865207a65726f20616464726573734d696e746572526f6c653a2063616c6c657220646f6573206e6f74206861766520746865204d696e74657220726f6c65526f6c65733a206163636f756e7420646f6573206e6f74206861766520726f6c654175746f496e6372656d656e74436f696e6167653a206d696e7420746f20746865207a65726f20616464726573734f776e61626c653a2063616c6c6572206973206e6f7420746865206f776e6572526f6c65733a206163636f756e7420697320746865207a65726f20616464726573734175746f496e6372656d656e74436f696e6167653a207472616e7366657220746f20746865207a65726f20616464726573734175746f496e6372656d656e74436f696e6167653a207472616e7366657220616d6f756e7420657863656564732062616c616e63654175746f496e6372656d656e74436f696e6167653a207472616e73666572206e6f7420616c6c6f7765644175746f496e6372656d656e74436f696e6167653a206275726e2066726f6d20746865207a65726f20616464726573734175746f496e6372656d656e74436f696e6167653a207472616e7366657220616d6f756e74206578636565647320616c6c6f77616e63654175746f496e6372656d656e74436f696e6167653a206275726e20616d6f756e7420657863656564732062616c616e63654175746f496e6372656d656e74436f696e6167653a206275726e20616d6f756e74206578636565647320616c6c6f77616e6365a265627a7a7231582090f71d9878b0271b2ca530c435ee6c873e721fd1efb72183c920efeb5973ceb264736f6c63430005100032526f6c65733a206163636f756e7420697320746865207a65726f20616464726573734f776e61626c653a206e6577206f776e657220697320746865207a65726f2061646472657373536569674d616e616765723a20636f696e61676520686173206e6f74206265656e206465706c6f79656420796574536166654d6174683a206d756c7469706c69636174696f6e206f766572666c6f77536569674d616e616765723a206f6e6c7920544f4e206f722057544f4e2063616e2063616c6c206f6e5472616e73666572536569674d616e616765723a20696e73756666696369616e742062616c616e636520746f20756e7374616b65a265627a7a7231582070c5710cb05604249189f1626d8e825af7260e6143bcaebdf7255f6578defee564736f6c6343000510003260806040523480156200001157600080fd5b5060405162001e5b38038062001e5b833981810160405260808110156200003757600080fd5b81019080805160405193929190846401000000008211156200005857600080fd5b9083019060208201858111156200006e57600080fd5b82516401000000008111828201881017156200008957600080fd5b82525081516020918201929091019080838360005b83811015620000b85781810151838201526020016200009e565b50505050905090810190601f168015620000e65780820380516001836020036101000a031916815260200191505b50604052602001805160405193929190846401000000008211156200010a57600080fd5b9083019060208201858111156200012057600080fd5b82516401000000008111828201881017156200013b57600080fd5b82525081516020918201929091019080838360005b838110156200016a57818101518382015260200162000150565b50505050905090810190601f168015620001985780820380516001836020036101000a031916815260200191505b50604090815260208201519101519092509050838383838383836000848484601b620001df620001d06001600160e01b03620002ad16565b6001600160e01b03620002b216565b620001f26001600160e01b03620002ad16565b600480546001600160a01b0319166001600160a01b0392831617908190556040519116906000907f8be0079c531659141344cd1fd0a4f28419497f9722a3daafe3b4186f6b6457e0908290a3825162000253906005906020860190620003fa565b50815162000269906006906020850190620003fa565b506007805460ff90921660ff19928316179055600b959095555050600c9190915543600d55600e805491151591909216179055506200049c98505050505050505050565b335b90565b620002cd8160036200030460201b6200148b1790919060201c565b6040516001600160a01b038216907f6ae172837ea30b801fbfcdd4108aa1d5bf8ff775444fd70256b44e6bf3dfc3f690600090a250565b6200031982826001600160e01b036200039116565b156200036c576040805162461bcd60e51b815260206004820152601f60248201527f526f6c65733a206163636f756e7420616c72656164792068617320726f6c6500604482015290519081900360640190fd5b6001600160a01b0316600090815260209190915260409020805460ff19166001179055565b60006001600160a01b038216620003da5760405162461bcd60e51b815260040180806020018281038252602281526020018062001e396022913960400191505060405180910390fd5b506001600160a01b03166000908152602091909152604090205460ff1690565b828054600181600116156101000203166002900490600052602060002090601f016020900481019282601f106200043d57805160ff19168380011785556200046d565b828001600101855582156200046d579182015b828111156200046d57825182559160200191906001019062000450565b506200047b9291506200047f565b5090565b620002af91905b808211156200047b576000815560010162000486565b61198d80620004ac6000396000f3fe608060405234801561001057600080fd5b50600436106101a95760003560e01c8063817e9d31116100f9578063a9059cbb11610097578063d4132ee211610071578063d4132ee2146104bf578063dd62ed3e146104c7578063f2fde38b146104f5578063f41e60c51461051b576101a9565b8063a9059cbb14610465578063aa271e1a14610491578063bef97c87146104b7576101a9565b806395d89b41116100d357806395d89b4114610403578063983b2d561461040b5780639865027514610431578063a457c2d714610439576101a9565b8063817e9d31146103ba5780638da5cb5b146103d75780638f32d59b146103fb576101a9565b806340c10f191161016657806370a082311161014057806370a0823114610358578063715018a61461037e57806379cc679014610386578063806b984f146103b2576101a9565b806340c10f191461030557806342966c681461033157806354f703f814610350576101a9565b806306fdde03146101ae578063095ea7b31461022b57806318160ddd1461026b57806323b872dd14610285578063313ce567146102bb57806339509351146102d9575b600080fd5b6101b661053a565b6040805160208082528351818301528351919283929083019185019080838360005b838110156101f05781810151838201526020016101d8565b50505050905090810190601f16801561021d5780820380516001836020036101000a031916815260200191505b509250505060405180910390f35b6102576004803603604081101561024157600080fd5b506001600160a01b0381351690602001356105d0565b604080519115158252519081900360200190f35b6102736105ee565b60408051918252519081900360200190f35b6102576004803603606081101561029b57600080fd5b506001600160a01b03813581169160208101359091169060400135610600565b6102c36106f1565b6040805160ff9092168252519081900360200190f35b610257600480360360408110156102ef57600080fd5b506001600160a01b0381351690602001356106fa565b6102576004803603604081101561031b57600080fd5b506001600160a01b03813516906020013561074e565b61034e6004803603602081101561034757600080fd5b50356107a5565b005b6102736107b9565b6102736004803603602081101561036e57600080fd5b50356001600160a01b03166107bf565b61034e6107e9565b61034e6004803603604081101561039c57600080fd5b506001600160a01b03813516906020013561087a565b610273610888565b610257600480360360208110156103d057600080fd5b503561088e565b6103df610920565b604080516001600160a01b039092168252519081900360200190f35b61025761092f565b6101b6610955565b61034e6004803603602081101561042157600080fd5b50356001600160a01b03166109b6565b61034e610a05565b6102576004803603604081101561044f57600080fd5b506001600160a01b038135169060200135610a17565b6102576004803603604081101561047b57600080fd5b506001600160a01b038135169060200135610a85565b610257600480360360208110156104a757600080fd5b50356001600160a01b0316610afd565b610257610b10565b610273610b19565b610273600480360360408110156104dd57600080fd5b506001600160a01b0381358116916020013516610b1f565b61034e6004803603602081101561050b57600080fd5b50356001600160a01b0316610b4a565b61034e6004803603602081101561053157600080fd5b50351515610b9a565b60058054604080516020601f60026000196101006001881615020190951694909404938401819004810282018101909252828152606093909290918301828280156105c65780601f1061059b576101008083540402835291602001916105c6565b820191906000526020600020905b8154815290600101906020018083116105a957829003601f168201915b5050505050905090565b60006105e46105dd610bf4565b8484610bf8565b5060015b92915050565b60006105fb600a54610cec565b905090565b600061060a610920565b6001600160a01b0316336001600160a01b0316148061062b5750600e5460ff165b6106665760405162461bcd60e51b815260040180806020018281038252602a815260200180611864602a913960400191505060405180910390fd5b610671848484610d32565b6106e78461067d610bf4565b6106e2856040518060600160405280603781526020016118be603791396001600160a01b038a166000908152600960205260408120906106bb610bf4565b6001600160a01b03168152602081019190915260400160002054919063ffffffff610ea916565b610bf8565b5060019392505050565b60075460ff1690565b60006105e4610707610bf4565b846106e28560096000610718610bf4565b6001600160a01b03908116825260208083019390935260409182016000908120918c16815292529020549063ffffffff610f4016565b600061076061075b610bf4565b610afd565b61079b5760405162461bcd60e51b815260040180806020018281038252603081526020018061173c6030913960400191505060405180910390fd5b6105e48383610f9a565b6107b66107b0610bf4565b82611091565b50565b600b5490565b6001600160a01b0381166000908152600860205260408120546107e190610cec565b90505b919050565b6107f161092f565b610830576040805162461bcd60e51b815260206004820181905260248201526000805160206117bb833981519152604482015290519081900360640190fd5b6004546040516000916001600160a01b0316907f8be0079c531659141344cd1fd0a4f28419497f9722a3daafe3b4186f6b6457e0908390a3600480546001600160a01b0319169055565b6108848282611193565b5050565b600d5490565b600061089861092f565b6108d7576040805162461bcd60e51b815260206004820181905260248201526000805160206117bb833981519152604482015290519081900360640190fd5b600b805490839055604080518281526020810185905281517fafc9085bb15d79bc1e9d87807e2fc5f4c2b631088cb3e38c86cb627c12a0e430929181900390910190a150919050565b6004546001600160a01b031690565b6004546000906001600160a01b0316610946610bf4565b6001600160a01b031614905090565b60068054604080516020601f60026000196101006001881615020190951694909404938401819004810282018101909252828152606093909290918301828280156105c65780601f1061059b576101008083540402835291602001916105c6565b6109c161075b610bf4565b6109fc5760405162461bcd60e51b815260040180806020018281038252603081526020018061173c6030913960400191505060405180910390fd5b6107b6816111fb565b610a15610a10610bf4565b611243565b565b60006105e4610a24610bf4565b846106e2856040518060600160405280603481526020016116706034913960096000610a4e610bf4565b6001600160a01b03908116825260208083019390935260409182016000908120918d1681529252902054919063ffffffff610ea916565b6000610a8f610920565b6001600160a01b0316336001600160a01b03161480610ab05750600e5460ff165b610aeb5760405162461bcd60e51b815260040180806020018281038252602a815260200180611864602a913960400191505060405180910390fd5b6105e4610af6610bf4565b8484610d32565b60006107e160038363ffffffff61128b16565b600e5460ff1690565b600c5490565b6001600160a01b03918216600090815260096020908152604080832093909416825291909152205490565b610b5261092f565b610b91576040805162461bcd60e51b815260206004820181905260248201526000805160206117bb833981519152604482015290519081900360640190fd5b6107b6816112f2565b610ba261092f565b610be1576040805162461bcd60e51b815260206004820181905260248201526000805160206117bb833981519152604482015290519081900360640190fd5b600e805460ff1916911515919091179055565b3390565b610c00611393565b6001600160a01b038316610c455760405162461bcd60e51b81526004018080602001828103825260338152602001806116d86033913960400191505060405180910390fd5b6001600160a01b038216610c8a5760405162461bcd60e51b815260040180806020018281038252603181526020018061170b6031913960400191505060405180910390fd5b6001600160a01b03808416600081815260096020908152604080832094871680845294825291829020859055815185815291517f8c5be1e5ebec7d5bd14f71427d1e84f3dd0314c0f7b2291e5b200ac8c7c3b9259281900390910190a3505050565b600081610cfb575060006107e4565b600d54430380610d1957610d1183600b546113e5565b9150506107e4565b610d2b83610d2683611426565b6113e5565b9392505050565b610d3a611393565b6001600160a01b038316610d7f5760405162461bcd60e51b81526004018080602001828103825260348152602001806116a46034913960400191505060405180910390fd5b6001600160a01b038216610dc45760405162461bcd60e51b81526004018080602001828103825260328152602001806117fd6032913960400191505060405180910390fd5b6000610dcf8261142d565b9050610e148160405180606001604052806035815260200161182f603591396001600160a01b038716600090815260086020526040902054919063ffffffff610ea916565b6001600160a01b038086166000908152600860205260408082209390935590851681522054610e49908263ffffffff610f4016565b6001600160a01b0380851660008181526008602052604090209290925585167fddf252ad1be2c89b69c2b068fc378daa952ba7f163c4a11628f55a4df523b3ef610e928461143b565b60408051918252519081900360200190a350505050565b60008184841115610f385760405162461bcd60e51b81526004018080602001828103825283818151815260200191508051906020019080838360005b83811015610efd578181015183820152602001610ee5565b50505050905090810190601f168015610f2a5780820380516001836020036101000a031916815260200191505b509250505060405180910390fd5b505050900390565b600082820183811015610d2b576040805162461bcd60e51b815260206004820152601b60248201527f536166654d6174683a206164646974696f6e206f766572666c6f770000000000604482015290519081900360640190fd5b610fa2611393565b6001600160a01b038216610fe75760405162461bcd60e51b815260040180806020018281038252602e81526020018061178d602e913960400191505060405180910390fd5b6000610ff28261142d565b600a54909150611008908263ffffffff610f4016565b600a556001600160a01b038316600090815260086020526040902054611034908263ffffffff610f4016565b6001600160a01b038416600081815260086020526040812092909255907fddf252ad1be2c89b69c2b068fc378daa952ba7f163c4a11628f55a4df523b3ef61107b8461143b565b60408051918252519081900360200190a3505050565b611099611393565b6001600160a01b0382166110de5760405162461bcd60e51b815260040180806020018281038252603081526020018061188e6030913960400191505060405180910390fd5b60006110e98261142d565b905061112e816040518060600160405280603181526020016118f5603191396001600160a01b038616600090815260086020526040902054919063ffffffff610ea916565b6001600160a01b038416600090815260086020526040902055600a5461115a908263ffffffff61144916565b600a5560006001600160a01b0384167fddf252ad1be2c89b69c2b068fc378daa952ba7f163c4a11628f55a4df523b3ef61107b8461143b565b61119b611393565b6111a58282611091565b6111ad61092f565b61088457610884826111bd610bf4565b6106e284604051806060016040528060338152602001611926603391396001600160a01b0388166000908152600960205260408120906106bb610bf4565b61120c60038263ffffffff61148b16565b6040516001600160a01b038216907f6ae172837ea30b801fbfcdd4108aa1d5bf8ff775444fd70256b44e6bf3dfc3f690600090a250565b61125460038263ffffffff61150c16565b6040516001600160a01b038216907fe94479a9f7e1952cc78f2d6baab678adc1b772d936c6583def489e524cb6669290600090a250565b60006001600160a01b0382166112d25760405162461bcd60e51b81526004018080602001828103825260228152602001806117db6022913960400191505060405180910390fd5b506001600160a01b03166000908152602091909152604090205460ff1690565b6001600160a01b0381166113375760405162461bcd60e51b815260040180806020018281038252602681526020018061164a6026913960400191505060405180910390fd5b6004546040516001600160a01b038084169216907f8be0079c531659141344cd1fd0a4f28419497f9722a3daafe3b4186f6b6457e090600090a3600480546001600160a01b0319166001600160a01b0392909216919091179055565b600d54430380156107b6576113a781611426565b600b81905543600d5560408051918252517fe26ee4870433319e6f01f123f37f6f6823ff4084f5651912025d24930b01bcb69181900360200190a150565b60006b033b2e3c9fd0803ce80000006114176114018585611573565b60026b033b2e3c9fd0803ce80000005b046115d6565b8161141e57fe5b049392505050565b50600b5490565b60006107e182600b54611625565b60006107e182600b546113e5565b6000610d2b83836040518060400160405280601e81526020017f536166654d6174683a207375627472616374696f6e206f766572666c6f770000815250610ea9565b611495828261128b565b156114e7576040805162461bcd60e51b815260206004820152601f60248201527f526f6c65733a206163636f756e7420616c72656164792068617320726f6c6500604482015290519081900360640190fd5b6001600160a01b0316600090815260209190915260409020805460ff19166001179055565b611516828261128b565b6115515760405162461bcd60e51b815260040180806020018281038252602181526020018061176c6021913960400191505060405180910390fd5b6001600160a01b0316600090815260209190915260409020805460ff19169055565b600081158061158e5750508082028282828161158b57fe5b04145b6105e8576040805162461bcd60e51b815260206004820152601460248201527364732d6d6174682d6d756c2d6f766572666c6f7760601b604482015290519081900360640190fd5b808201828110156105e8576040805162461bcd60e51b815260206004820152601460248201527364732d6d6174682d6164642d6f766572666c6f7760601b604482015290519081900360640190fd5b600081611417611641856b033b2e3c9fd0803ce8000000611573565b60028561141156fe4f776e61626c653a206e6577206f776e657220697320746865207a65726f20616464726573734175746f496e6372656d656e74436f696e6167653a2064656372656173656420616c6c6f77616e63652062656c6f77207a65726f4175746f496e6372656d656e74436f696e6167653a207472616e736665722066726f6d20746865207a65726f20616464726573734175746f496e6372656d656e74436f696e6167653a20617070726f76652066726f6d20746865207a65726f20616464726573734175746f496e6372656d656e74436f696e6167653a20617070726f766520746f20746865207a65726f20616464726573734d696e746572526f6c653a2063616c6c657220646f6573206e6f74206861766520746865204d696e74657220726f6c65526f6c65733a206163636f756e7420646f6573206e6f74206861766520726f6c654175746f496e6372656d656e74436f696e6167653a206d696e7420746f20746865207a65726f20616464726573734f776e61626c653a2063616c6c6572206973206e6f7420746865206f776e6572526f6c65733a206163636f756e7420697320746865207a65726f20616464726573734175746f496e6372656d656e74436f696e6167653a207472616e7366657220746f20746865207a65726f20616464726573734175746f496e6372656d656e74436f696e6167653a207472616e7366657220616d6f756e7420657863656564732062616c616e63654175746f496e6372656d656e74436f696e6167653a207472616e73666572206e6f7420616c6c6f7765644175746f496e6372656d656e74436f696e6167653a206275726e2066726f6d20746865207a65726f20616464726573734175746f496e6372656d656e74436f696e6167653a207472616e7366657220616d6f756e74206578636565647320616c6c6f77616e63654175746f496e6372656d656e74436f696e6167653a206275726e20616d6f756e7420657863656564732062616c616e63654175746f496e6372656d656e74436f696e6167653a206275726e20616d6f756e74206578636565647320616c6c6f77616e6365a265627a7a7231582090f71d9878b0271b2ca530c435ee6c873e721fd1efb72183c920efeb5973ceb264736f6c63430005100032526f6c65733a206163636f756e7420697320746865207a65726f2061646472657373",
  "source": "pragma solidity ^0.5.0;\n\nimport { Ownable } from \"../../node_modules/openzeppelin-solidity/contracts/ownership/Ownable.sol\";\nimport { SafeMath } from \"../../node_modules/openzeppelin-solidity/contracts/math/SafeMath.sol\";\nimport { ERC20Mintable } from \"../../node_modules/openzeppelin-solidity/contracts/token/ERC20/ERC20Mintable.sol\";\nimport { SafeERC20 } from \"../../node_modules/openzeppelin-solidity/contracts/token/ERC20/SafeERC20.sol\";\n\nimport { DSMath } from \"../../node_modules/coinage-token/contracts/lib/DSMath.sol\";\nimport { CustomIncrementCoinageMock as CustomIncrementCoinage } from \"../../node_modules/coinage-token/flatten.sol\";\n\nimport { RootChainI } from \"../RootChainI.sol\";\nimport { RootChainRegistry } from \"./RootChainRegistry.sol\";\nimport { DepositManager } from \"./DepositManager.sol\";\n\n\n/**\n * @dev SeigManager gives seigniorage to operator and WTON holders.\n * For each commit by operator, operator (or user) will get seigniorage\n * in propotion to the staked (or delegated) amount of WTON.\n *\n * [Tokens]\n * - {tot} tracks total staked or delegated WTON of each RootChain contract (and depositor?).\n * - {coinages[rootchain]} tracks staked or delegated WTON of user or operator to a RootChain contract.\n *\n * For each commit by operator,\n *  1. increases all root chains' balance of {tot} by (the staked amount of WTON) /\n *     (total supply of TON and WTON) * (num blocks * seigniorage per block).\n *  2. increases all depositors' blanace of {coinages[rootchain]} in proportion to the staked amount of WTON,\n *     up to the increased amount in step (1).\n *  3. set the root chain's balance of {committed} as the root chain's {tot} balance.\n *\n * For each stake or delegate with amount of {v} to a RootChain,\n *  1. mint {v} {coinages[rootchain]} tokens to the depositor\n *  2. mint {v} {tot} tokens to the root chain contract\n *\n * For each unstake or undelegate (or get rewards) with amount of {v} to a RootChain,\n *  1. burn {v} {coinages[rootchain]} tokens from the depositor\n *  2. burn {v + } {tot} tokens from the root chain contract,\n *   where  = SEIGS * staked ratio of the root chian * withdrawal ratio of the depositor\n *     - SEIGS                              = tot total supply - tot total supply at last commit from the root chain\n *     - staked ratio of the root chian     = tot balance of the root chain / tot total supply\n *     - withdrawal ratio of the depositor  = amount to withdraw / total supply of coinage\n *\n */\ncontract SeigManager  is DSMath, Ownable {\n  using SafeMath for uint256;\n  using SafeERC20 for ERC20Mintable;\n\n  //////////////////////////////\n  // Common contracts\n  //////////////////////////////\n\n  RootChainRegistry public registry;\n  DepositManager public depositManager;\n\n  //////////////////////////////\n  // Token-related\n  //////////////////////////////\n\n  // WTON token contract\n  ERC20Mintable public ton;\n\n  // WTON token contract\n  ERC20Mintable public wton; // TODO: use mintable erc20!\n\n  // track total deposits of each root chain.\n  CustomIncrementCoinage public tot;\n\n  // coinage token for each root chain.\n  mapping (address => CustomIncrementCoinage) public coinages;\n\n  // last commit block number for each root chain.\n  mapping (address => uint256) public lastCommitBlock;\n\n  // total seigniorage per block\n  uint256 public seigPerBlock;\n\n  // the block number when seigniorages are given\n  uint256 public lastSeigBlock;\n\n  // tot total supply at commit from root chain\n  mapping (address => uint256) public totTotalSupplyAtCommit;\n\n  //////////////////////////////\n  // Constants\n  //////////////////////////////\n\n  uint256 constant public DEFAULT_FACTOR = 10 ** 27;\n\n  //////////////////////////////\n  // Modifiers\n  //////////////////////////////\n\n  modifier onlyRegistry() {\n    require(msg.sender == address(registry));\n    _;\n  }\n\n  modifier onlyDepositManager() {\n    require(msg.sender == address(depositManager));\n    _;\n  }\n\n  modifier onlyRootChain(address rootchain) {\n    require(registry.rootchains(rootchain));\n    _;\n  }\n\n  modifier checkCoinage(address rootchain) {\n    require(address(coinages[rootchain]) != address(0), \"SeigManager: coinage has not been deployed yet\");\n    _;\n  }\n\n  //////////////////////////////\n  // Events\n  //////////////////////////////\n\n  event CoinageCreated(address rootchain, address coinage);\n\n  //////////////////////////////\n  // Constuctor\n  //////////////////////////////\n\n  constructor (\n    ERC20Mintable _ton,\n    ERC20Mintable _wton,\n    RootChainRegistry _registry,\n    DepositManager _depositManager,\n    uint256 _seigPerBlock\n  ) public {\n    ton = _ton;\n    wton = _wton;\n    registry = _registry;\n    depositManager = _depositManager;\n    seigPerBlock = _seigPerBlock;\n\n    tot = new CustomIncrementCoinage(\n      \"\",\n      \"\",\n      DEFAULT_FACTOR,\n      false\n    );\n\n    lastSeigBlock = block.number;\n  }\n\n  //////////////////////////////\n  // External functions\n  //////////////////////////////\n\n\n  /**\n   * @dev deploy coinage token for the root chain.\n   */\n  function deployCoinage(address rootchain) external onlyRegistry returns (bool) {\n    // short circuit if already coinage is deployed\n    if (address(coinages[rootchain]) != address(0)) {\n      return false;\n    }\n\n    // create new coinage token for the root chain contract\n    if (address(coinages[rootchain]) == address(0)) {\n      coinages[rootchain] = new CustomIncrementCoinage(\n        \"\",\n        \"\",\n        DEFAULT_FACTOR,\n        false\n      );\n      lastCommitBlock[rootchain] = block.number;\n      totTotalSupplyAtCommit[rootchain] = tot.totalSupply();\n      emit CoinageCreated(rootchain, address(coinages[rootchain]));\n    }\n\n    return true;\n  }\n\n  event SeigGiven(address rootchain, uint256 totalSeig, uint256 stakedSeig, uint256 unstakedSeig);\n  event Comitted(address rootchain);\n\n  // test log...\n  event CommitLog1(uint256 totalStakedAmount, uint256 totalSupplyOfWTON, uint256 prevTotalSupply, uint256 nextTotalSupply);\n\n  /**\n   * @dev A proxy function for a new commit\n   */\n  function onCommit()\n    external\n    checkCoinage(msg.sender)\n    returns (bool)\n  {\n    _increaseTot();\n\n    // 2. increase total supply of {coinages[rootchain]}\n    CustomIncrementCoinage coinage = coinages[msg.sender];\n\n    uint256 prevTotalSupply = coinage.totalSupply();\n    uint256 nextTotalSupply = tot.balanceOf(msg.sender);\n\n    coinage.setFactor(_calcNewFactor(prevTotalSupply, nextTotalSupply, coinage.factor()));\n\n    // gives seigniorages to the root chain as coinage\n\n    lastCommitBlock[msg.sender] = block.number;\n    totTotalSupplyAtCommit[msg.sender] = tot.totalSupply();\n\n    wton.mint(address(this), nextTotalSupply.sub(prevTotalSupply));\n\n    // emit events\n    emit Comitted(msg.sender);\n\n    return true;\n  }\n\n  /**\n   * @dev A proxy function for a token transfer\n   */\n  function onTransfer(address sender, address recipient, uint256 amount) external returns (bool) {\n    require(msg.sender == address(ton) || msg.sender == address(wton), \"SeigManager: only TON or WTON can call onTransfer\");\n    _increaseTot();\n    return true;\n  }\n\n  /**\n   * @dev A proxy function for a new deposit\n   */\n  function onStake(address rootchain, address depositor, uint256 amount)\n    external\n    onlyDepositManager\n    checkCoinage(rootchain)\n    returns (bool)\n  {\n    coinages[rootchain].mint(depositor, amount);\n    tot.mint(rootchain, amount);\n    return true;\n  }\n\n  event UnstakeLog(uint coinageBurnAmount, uint totBurnAmount);\n\n  function onUnstake(address rootchain, address depositor, uint256 amount)\n    public\n    onlyDepositManager\n    checkCoinage(rootchain)\n    returns (bool)\n  {\n    require(coinages[rootchain].balanceOf(depositor) >= amount, \"SeigManager: insufficiant balance to unstake\");\n\n    // burn {v + } {tot} tokens to the root chain contract,\n    uint256 totAmount = additionalTotBurnAmount(rootchain, depositor, amount);\n    tot.burnFrom(rootchain, amount.add(totAmount));\n\n    // burn {v} {coinages[rootchain]} tokens to the depositor\n    coinages[rootchain].burnFrom(depositor, amount);\n\n    emit UnstakeLog(amount, totAmount);\n\n    return true;\n  }\n\n  // TODO: consider  when root chain did not commit at all.\n  // return , where  = SEIGS * staked ratio of the root chian * withdrawal ratio of the depositor\n  //   - SEIGS                              = tot total supply - tot total supply at last commit from the root chain\n  //   - staked ratio of the root chian     = tot balance of the root chain / tot total supply\n  //   - withdrawal ratio of the depositor  = amount to withdraw / total supply of coinage\n  function additionalTotBurnAmount(address rootchain, address depositor, uint256 amount)\n    public\n    view\n    returns (uint256 totAmount)\n  {\n    // short circuit if no commit\n    if (totTotalSupplyAtCommit[rootchain] == 0) {\n      return 0;\n    }\n\n    uint256 prevTotTotalSupply = totTotalSupplyAtCommit[rootchain];\n\n    totAmount = rdiv(\n      rdiv(\n        rmul(\n          rmul(\n            tot.totalSupply().sub(prevTotTotalSupply),  // `SEIGS`\n            amount                                      // times `amount to withdraw`\n          ),\n          tot.balanceOf(rootchain)                      // times `tot balance of the root chain`\n        ),\n        coinages[rootchain].totalSupply()               // div `total supply of coinage`\n      ),\n      tot.totalSupply()                                 // div `tot total supply`\n    );\n  }\n\n  //////////////////////////////\n  // Public and internal functions\n  //////////////////////////////\n\n  function uncomittedStakeOf(address rootchain, address depositor) public view returns (uint256) {\n    CustomIncrementCoinage coinage = coinages[rootchain];\n\n    uint256 prevFactor = coinage.factor();\n    uint256 prevTotalSupply = coinage.totalSupply();\n    uint256 nextTotalSupply = tot.balanceOf(rootchain);\n    uint256 newFactor = _calcNewFactor(prevTotalSupply, nextTotalSupply, prevFactor);\n\n    uint256 uncomittedBalance = rmul(\n      rdiv(coinage.balanceOf(depositor), prevFactor),\n      newFactor\n    );\n\n    return uncomittedBalance\n      .sub(coinages[rootchain].balanceOf(depositor));\n  }\n\n  function stakeOf(address rootchain, address depositor) public view returns (uint256) {\n    return coinages[rootchain].balanceOf(depositor);\n  }\n\n  function _calcNewFactor(uint256 source, uint256 target, uint256 oldFactor) internal pure returns (uint256) {\n    return rdiv(rmul(target, oldFactor), source);\n  }\n\n  function _increaseTot() internal returns (bool) {\n    // short circuit if already seigniorage is given.\n    if (block.number == lastSeigBlock) {\n      return false;\n    }\n\n    if (tot.totalSupply() == 0) {\n      lastSeigBlock = block.number;\n      return false;\n    }\n\n    uint256 prevTotalSupply;\n    uint256 nextTotalSupply;\n\n    // 1. increase total supply of {tot} by maximum seigniorages * staked rate\n    //    staked rate = total staked amount / total supply of (W)TON\n\n    prevTotalSupply = tot.totalSupply();\n\n    // maximum seigniorages\n    uint256 maxSeig = (block.number - lastSeigBlock).mul(seigPerBlock);\n\n    // maximum seigniorages * staked rate\n    uint256 stakedSeig = rdiv(\n      rmul(\n        maxSeig,\n        // total staked amount\n        tot.totalSupply()\n      ),\n      // total supply of (W)TON\n      ton.totalSupply()\n        .sub(ton.balanceOf(address(wton)))\n        .mul(10 ** 9)                                   // convert TON total supply into ray\n        .add(wton.totalSupply())                        // add WTON total supply\n        .add(tot.totalSupply()).sub(wton.totalSupply()) // consider additional TOT balance as total supply\n    );\n\n    nextTotalSupply = prevTotalSupply.add(stakedSeig);\n    lastSeigBlock = block.number;\n\n    tot.setFactor(_calcNewFactor(prevTotalSupply, nextTotalSupply, tot.factor()));\n\n\n    emit CommitLog1(\n      // total staked amount\n      tot.totalSupply(),\n\n      // total supply of (W)TON\n      ton.totalSupply()\n        .sub(ton.balanceOf(address(wton)))\n        .mul(10 ** 9)                                   // convert TON total supply into ray\n        .add(wton.totalSupply())                        // add WTON total supply\n        .add(tot.totalSupply()).sub(wton.totalSupply()), // consider additional TOT balance as total supply\n\n      prevTotalSupply,\n      nextTotalSupply\n    );\n\n\n    // TODO: give unstaked amount to jackpot\n    uint256 unstakedSeig = maxSeig.sub(stakedSeig);\n\n    emit SeigGiven(msg.sender, maxSeig, stakedSeig, unstakedSeig);\n\n    return true;\n  }\n}",
  "sourcePath": "/Users/pjh/workspace/go/src/github.com/Onther-Tech/plasma-evm/contracts/plasma/plasma-evm-cotracts/contracts/stake/SeigManager.sol",
  "compiler": {
    "name": "solc",
    "version": "0.5.16+commit.9c3226ce.Emscripten.clang"
  },
  "schemaVersion": "3.0.23",
  "updatedAt": "2020-02-04T07:13:16.276Z",
  "devdoc": {
    "details": "SeigManager gives seigniorage to operator and WTON holders. For each commit by operator, operator (or user) will get seigniorage in propotion to the staked (or delegated) amount of WTON. * [Tokens] - {tot} tracks total staked or delegated WTON of each RootChain contract (and depositor?). - {coinages[rootchain]} tracks staked or delegated WTON of user or operator to a RootChain contract. * For each commit by operator, 1. increases all root chains' balance of {tot} by (the staked amount of WTON) /    (total supply of TON and WTON) * (num blocks * seigniorage per block). 2. increases all depositors' blanace of {coinages[rootchain]} in proportion to the staked amount of WTON,    up to the increased amount in step (1). 3. set the root chain's balance of {committed} as the root chain's {tot} balance. * For each stake or delegate with amount of {v} to a RootChain, 1. mint {v} {coinages[rootchain]} tokens to the depositor 2. mint {v} {tot} tokens to the root chain contract * For each unstake or undelegate (or get rewards) with amount of {v} to a RootChain, 1. burn {v} {coinages[rootchain]} tokens from the depositor 2. burn {v + } {tot} tokens from the root chain contract,  where  = SEIGS * staked ratio of the root chian * withdrawal ratio of the depositor    - SEIGS                              = tot total supply - tot total supply at last commit from the root chain    - staked ratio of the root chian     = tot balance of the root chain / tot total supply    - withdrawal ratio of the depositor  = amount to withdraw / total supply of coinage ",
    "methods": {
      "deployCoinage(address)": {
        "details": "deploy coinage token for the root chain."
      },
      "isOwner()": {
        "details": "Returns true if the caller is the current owner."
      },
      "onCommit()": {
        "details": "A proxy function for a new commit"
      },
      "onStake(address,address,uint256)": {
        "details": "A proxy function for a new deposit"
      },
      "onTransfer(address,address,uint256)": {
        "details": "A proxy function for a token transfer"
      },
      "owner()": {
        "details": "Returns the address of the current owner."
      },
      "renounceOwnership()": {
        "details": "Leaves the contract without owner. It will not be possible to call `onlyOwner` functions anymore. Can only be called by the current owner.     * NOTE: Renouncing ownership will leave the contract without an owner, thereby removing any functionality that is only available to the owner."
      },
      "transferOwnership(address)": {
        "details": "Transfers ownership of the contract to a new account (`newOwner`). Can only be called by the current owner."
      }
    }
  },
  "userdoc": {
    "methods": {
      "constructor": "///////////////////////////",
      "uncomittedStakeOf(address,address)": {
        "notice": "///////////////////////////"
      }
    }
  }
}