{
  "contractName": "SeigToken",
  "abi": [
    {
      "anonymous": false,
      "inputs": [
        {
          "indexed": true,
          "internalType": "address",
          "name": "owner",
          "type": "address"
        },
        {
          "indexed": true,
          "internalType": "address",
          "name": "spender",
          "type": "address"
        },
        {
          "indexed": false,
          "internalType": "uint256",
          "name": "value",
          "type": "uint256"
        }
      ],
      "name": "Approval",
      "type": "event"
    },
    {
      "anonymous": false,
      "inputs": [
        {
          "indexed": true,
          "internalType": "address",
          "name": "previousOwner",
          "type": "address"
        },
        {
          "indexed": true,
          "internalType": "address",
          "name": "newOwner",
          "type": "address"
        }
      ],
      "name": "OwnershipTransferred",
      "type": "event"
    },
    {
      "anonymous": false,
      "inputs": [
        {
          "indexed": true,
          "internalType": "address",
          "name": "from",
          "type": "address"
        },
        {
          "indexed": true,
          "internalType": "address",
          "name": "to",
          "type": "address"
        },
        {
          "indexed": false,
          "internalType": "uint256",
          "name": "value",
          "type": "uint256"
        }
      ],
      "name": "Transfer",
      "type": "event"
    },
    {
      "constant": true,
      "inputs": [],
      "name": "INTERFACE_ID_ON_APPROVE",
      "outputs": [
        {
          "internalType": "bytes4",
          "name": "",
          "type": "bytes4"
        }
      ],
      "payable": false,
      "stateMutability": "view",
      "type": "function"
    },
    {
      "constant": true,
      "inputs": [
        {
          "internalType": "address",
          "name": "owner",
          "type": "address"
        },
        {
          "internalType": "address",
          "name": "spender",
          "type": "address"
        }
      ],
      "name": "allowance",
      "outputs": [
        {
          "internalType": "uint256",
          "name": "",
          "type": "uint256"
        }
      ],
      "payable": false,
      "stateMutability": "view",
      "type": "function"
    },
    {
      "constant": false,
      "inputs": [
        {
          "internalType": "address",
          "name": "spender",
          "type": "address"
        },
        {
          "internalType": "uint256",
          "name": "amount",
          "type": "uint256"
        }
      ],
      "name": "approve",
      "outputs": [
        {
          "internalType": "bool",
          "name": "",
          "type": "bool"
        }
      ],
      "payable": false,
      "stateMutability": "nonpayable",
      "type": "function"
    },
    {
      "constant": false,
      "inputs": [
        {
          "internalType": "address",
          "name": "spender",
          "type": "address"
        },
        {
          "internalType": "uint256",
          "name": "amount",
          "type": "uint256"
        },
        {
          "internalType": "bytes",
          "name": "data",
          "type": "bytes"
        }
      ],
      "name": "approveAndCall",
      "outputs": [
        {
          "internalType": "bool",
          "name": "",
          "type": "bool"
        }
      ],
      "payable": false,
      "stateMutability": "nonpayable",
      "type": "function"
    },
    {
      "constant": true,
      "inputs": [
        {
          "internalType": "address",
          "name": "account",
          "type": "address"
        }
      ],
      "name": "balanceOf",
      "outputs": [
        {
          "internalType": "uint256",
          "name": "",
          "type": "uint256"
        }
      ],
      "payable": false,
      "stateMutability": "view",
      "type": "function"
    },
    {
      "constant": false,
      "inputs": [
        {
          "internalType": "address",
          "name": "spender",
          "type": "address"
        },
        {
          "internalType": "uint256",
          "name": "subtractedValue",
          "type": "uint256"
        }
      ],
      "name": "decreaseAllowance",
      "outputs": [
        {
          "internalType": "bool",
          "name": "",
          "type": "bool"
        }
      ],
      "payable": false,
      "stateMutability": "nonpayable",
      "type": "function"
    },
    {
      "constant": false,
      "inputs": [
        {
          "internalType": "address",
          "name": "spender",
          "type": "address"
        },
        {
          "internalType": "uint256",
          "name": "addedValue",
          "type": "uint256"
        }
      ],
      "name": "increaseAllowance",
      "outputs": [
        {
          "internalType": "bool",
          "name": "",
          "type": "bool"
        }
      ],
      "payable": false,
      "stateMutability": "nonpayable",
      "type": "function"
    },
    {
      "constant": true,
      "inputs": [],
      "name": "isOwner",
      "outputs": [
        {
          "internalType": "bool",
          "name": "",
          "type": "bool"
        }
      ],
      "payable": false,
      "stateMutability": "view",
      "type": "function"
    },
    {
      "constant": true,
      "inputs": [],
      "name": "owner",
      "outputs": [
        {
          "internalType": "address",
          "name": "",
          "type": "address"
        }
      ],
      "payable": false,
      "stateMutability": "view",
      "type": "function"
    },
    {
      "constant": false,
      "inputs": [
        {
          "internalType": "address",
          "name": "target",
          "type": "address"
        }
      ],
      "name": "renounceMinter",
      "outputs": [],
      "payable": false,
      "stateMutability": "nonpayable",
      "type": "function"
    },
    {
      "constant": false,
      "inputs": [
        {
          "internalType": "address",
          "name": "target",
          "type": "address"
        }
      ],
      "name": "renounceOwnership",
      "outputs": [],
      "payable": false,
      "stateMutability": "nonpayable",
      "type": "function"
    },
    {
      "constant": false,
      "inputs": [],
      "name": "renounceOwnership",
      "outputs": [],
      "payable": false,
      "stateMutability": "nonpayable",
      "type": "function"
    },
    {
      "constant": true,
      "inputs": [],
      "name": "seigManager",
      "outputs": [
        {
          "internalType": "contract SeigManagerI",
          "name": "",
          "type": "address"
        }
      ],
      "payable": false,
      "stateMutability": "view",
      "type": "function"
    },
    {
      "constant": true,
      "inputs": [],
      "name": "totalSupply",
      "outputs": [
        {
          "internalType": "uint256",
          "name": "",
          "type": "uint256"
        }
      ],
      "payable": false,
      "stateMutability": "view",
      "type": "function"
    },
    {
      "constant": false,
      "inputs": [
        {
          "internalType": "address",
          "name": "recipient",
          "type": "address"
        },
        {
          "internalType": "uint256",
          "name": "amount",
          "type": "uint256"
        }
      ],
      "name": "transfer",
      "outputs": [
        {
          "internalType": "bool",
          "name": "",
          "type": "bool"
        }
      ],
      "payable": false,
      "stateMutability": "nonpayable",
      "type": "function"
    },
    {
      "constant": false,
      "inputs": [
        {
          "internalType": "address",
          "name": "sender",
          "type": "address"
        },
        {
          "internalType": "address",
          "name": "recipient",
          "type": "address"
        },
        {
          "internalType": "uint256",
          "name": "amount",
          "type": "uint256"
        }
      ],
      "name": "transferFrom",
      "outputs": [
        {
          "internalType": "bool",
          "name": "",
          "type": "bool"
        }
      ],
      "payable": false,
      "stateMutability": "nonpayable",
      "type": "function"
    },
    {
      "constant": false,
      "inputs": [
        {
          "internalType": "address",
          "name": "target",
          "type": "address"
        },
        {
          "internalType": "address",
          "name": "newOwner",
          "type": "address"
        }
      ],
      "name": "transferOwnership",
      "outputs": [],
      "payable": false,
      "stateMutability": "nonpayable",
      "type": "function"
    },
    {
      "constant": false,
      "inputs": [
        {
          "internalType": "address",
          "name": "newOwner",
          "type": "address"
        }
      ],
      "name": "transferOwnership",
      "outputs": [],
      "payable": false,
      "stateMutability": "nonpayable",
      "type": "function"
    },
    {
      "constant": false,
      "inputs": [
        {
          "internalType": "contract SeigManagerI",
          "name": "_seigManager",
          "type": "address"
        }
      ],
      "name": "setSeigManager",
      "outputs": [],
      "payable": false,
      "stateMutability": "nonpayable",
      "type": "function"
    }
  ],
  "bytecode": "0x608060405260006100176001600160e01b0361006a16565b600380546001600160a01b0319166001600160a01b038316908117909155604051919250906000907f8be0079c531659141344cd1fd0a4f28419497f9722a3daafe3b4186f6b6457e0908290a35061006e565b3390565b6114338061007d6000396000f3fe608060405234801561001057600080fd5b50600436106101215760003560e01c806370a08231116100ad578063a457c2d711610071578063a457c2d71461030b578063a9059cbb14610337578063cae9ca5114610363578063dd62ed3e1461041e578063f2fde38b1461044c57610121565b806370a08231146102a7578063715018a6146102cd5780637657f20a146102d55780638da5cb5b146102fb5780638f32d59b1461030357610121565b806339509351116100f457806339509351146101de5780635f112c681461020a5780636cd28f9a146102305780636d435421146102555780636fb7f5581461028357610121565b8063095ea7b31461012657806318160ddd1461016657806323b872dd1461018057806338bf3cfa146101b6575b600080fd5b6101526004803603604081101561013c57600080fd5b506001600160a01b038135169060200135610472565b604080519115158252519081900360200190f35b61016e61048f565b60408051918252519081900360200190f35b6101526004803603606081101561019657600080fd5b506001600160a01b03813581169160208101359091169060400135610495565b6101dc600480360360208110156101cc57600080fd5b50356001600160a01b0316610523565b005b610152600480360360408110156101f457600080fd5b506001600160a01b0381351690602001356105c0565b6101dc6004803603602081101561022057600080fd5b50356001600160a01b0316610614565b610238610696565b604080516001600160e01b03199092168252519081900360200190f35b6101dc6004803603604081101561026b57600080fd5b506001600160a01b03813581169160200135166106b1565b61028b61076c565b604080516001600160a01b039092168252519081900360200190f35b61016e600480360360208110156102bd57600080fd5b50356001600160a01b031661077b565b6101dc610796565b6101dc600480360360208110156102eb57600080fd5b50356001600160a01b0316610827565b61028b610890565b61015261089f565b6101526004803603604081101561032157600080fd5b506001600160a01b0381351690602001356108c5565b6101526004803603604081101561034d57600080fd5b506001600160a01b038135169060200135610933565b6101526004803603606081101561037957600080fd5b6001600160a01b03823516916020810135918101906060810160408201356401000000008111156103a957600080fd5b8201836020820111156103bb57600080fd5b803590602001918460018302840111640100000000831117156103dd57600080fd5b91908080601f016020809104026020016040519081016040528093929190818152602001838380828437600092019190915250929550610947945050505050565b61016e6004803603604081101561043457600080fd5b506001600160a01b0381358116916020013516610968565b6101dc6004803603602081101561046257600080fd5b50356001600160a01b0316610993565b600061048661047f6109e6565b84846109ea565b50600192915050565b60025490565b60006104a2848484610ad6565b610518846104ae6109e6565b61051385604051806060016040528060288152602001611349602891396001600160a01b038a166000908152600160205260408120906104ec6109e6565b6001600160a01b03168152602081019190915260400160002054919063ffffffff610b4016565b6109ea565b5060015b9392505050565b61052b61089f565b61056a576040805162461bcd60e51b81526020600482018190526024820152600080516020611371833981519152604482015290519081900360640190fd5b806001600160a01b031663715018a66040518163ffffffff1660e01b8152600401600060405180830381600087803b1580156105a557600080fd5b505af11580156105b9573d6000803e3d6000fd5b5050505050565b60006104866105cd6109e6565b8461051385600160006105de6109e6565b6001600160a01b03908116825260208083019390935260409182016000908120918c16815292529020549063ffffffff610bd716565b61061c61089f565b61065b576040805162461bcd60e51b81526020600482018190526024820152600080516020611371833981519152604482015290519081900360640190fd5b806001600160a01b031663986502756040518163ffffffff1660e01b8152600401600060405180830381600087803b1580156105a557600080fd5b6040518060286112f182396028019050604051809103902081565b6106b961089f565b6106f8576040805162461bcd60e51b81526020600482018190526024820152600080516020611371833981519152604482015290519081900360640190fd5b816001600160a01b031663f2fde38b826040518263ffffffff1660e01b815260040180826001600160a01b03166001600160a01b03168152602001915050600060405180830381600087803b15801561075057600080fd5b505af1158015610764573d6000803e3d6000fd5b505050505050565b6004546001600160a01b031681565b6001600160a01b031660009081526020819052604090205490565b61079e61089f565b6107dd576040805162461bcd60e51b81526020600482018190526024820152600080516020611371833981519152604482015290519081900360640190fd5b6003546040516000916001600160a01b0316907f8be0079c531659141344cd1fd0a4f28419497f9722a3daafe3b4186f6b6457e0908390a3600380546001600160a01b0319169055565b61082f61089f565b61086e576040805162461bcd60e51b81526020600482018190526024820152600080516020611371833981519152604482015290519081900360640190fd5b600480546001600160a01b0319166001600160a01b0392909216919091179055565b6003546001600160a01b031690565b6003546000906001600160a01b03166108b66109e6565b6001600160a01b031614905090565b60006104866108d26109e6565b84610513856040518060600160405280602581526020016113da60259139600160006108fc6109e6565b6001600160a01b03908116825260208083019390935260409182016000908120918d1681529252902054919063ffffffff610b4016565b60006104866109406109e6565b8484610ad6565b60006109538484610472565b61095c57600080fd5b61051c33858585610c31565b6001600160a01b03918216600090815260016020908152604080832093909416825291909152205490565b61099b61089f565b6109da576040805162461bcd60e51b81526020600482018190526024820152600080516020611371833981519152604482015290519081900360640190fd5b6109e381610e87565b50565b3390565b6001600160a01b038316610a2f5760405162461bcd60e51b81526004018080602001828103825260248152602001806113b66024913960400191505060405180910390fd5b6001600160a01b038216610a745760405162461bcd60e51b81526004018080602001828103825260228152602001806112786022913960400191505060405180910390fd5b6001600160a01b03808416600081815260016020908152604080832094871680845294825291829020859055815185815291517f8c5be1e5ebec7d5bd14f71427d1e84f3dd0314c0f7b2291e5b200ac8c7c3b9259281900390910190a3505050565b336001600160a01b0384161480610af55750336001600160a01b038316145b610b305760405162461bcd60e51b81526004018080602001828103825260308152602001806113196030913960400191505060405180910390fd5b610b3b838383610f28565b505050565b60008184841115610bcf5760405162461bcd60e51b81526004018080602001828103825283818151815260200191508051906020019080838360005b83811015610b94578181015183820152602001610b7c565b50505050905090810190601f168015610bc15780820380516001836020036101000a031916815260200191505b509250505060405180910390fd5b505050900390565b60008282018381101561051c576040805162461bcd60e51b815260206004820152601b60248201527f536166654d6174683a206164646974696f6e206f766572666c6f770000000000604482015290519081900360640190fd5b610c538360405180806112f16028913960280190506040518091039020611084565b610c8e5760405162461bcd60e51b815260040180806020018281038252603181526020018061129a6031913960400191505060405180910390fd5b60006060846001600160a01b031660405180806112f160289139602801905060405180910390208787878760405160240180856001600160a01b03166001600160a01b03168152602001846001600160a01b03166001600160a01b0316815260200183815260200180602001828103825283818151815260200191508051906020019080838360005b83811015610d2f578181015183820152602001610d17565b50505050905090810190601f168015610d5c5780820380516001836020036101000a031916815260200191505b5060408051601f198184030181529181526020820180516001600160e01b03166001600160e01b0319909a16999099178952518151919890975087965094509250829150849050835b60208310610dc45780518252601f199092019160209182019101610da5565b6001836020036101000a0380198251168184511680821785525050505050509050019150506000604051808303816000865af19150503d8060008114610e26576040519150601f19603f3d011682016040523d82523d6000602084013e610e2b565b606091505b5091509150818190610e7e5760405162461bcd60e51b8152602060048201818152835160248401528351909283926044909101919085019080838360008315610b94578181015183820152602001610b7c565b50505050505050565b6001600160a01b038116610ecc5760405162461bcd60e51b81526004018080602001828103825260268152602001806112526026913960400191505060405180910390fd5b6003546040516001600160a01b038084169216907f8be0079c531659141344cd1fd0a4f28419497f9722a3daafe3b4186f6b6457e090600090a3600380546001600160a01b0319166001600160a01b0392909216919091179055565b6001600160a01b038316610f6d5760405162461bcd60e51b81526004018080602001828103825260258152602001806113916025913960400191505060405180910390fd5b6001600160a01b038216610fb25760405162461bcd60e51b815260040180806020018281038252602381526020018061122f6023913960400191505060405180910390fd5b610ff5816040518060600160405280602681526020016112cb602691396001600160a01b038616600090815260208190526040902054919063ffffffff610b4016565b6001600160a01b03808516600090815260208190526040808220939093559084168152205461102a908263ffffffff610bd716565b6001600160a01b038084166000818152602081815260409182902094909455805185815290519193928716927fddf252ad1be2c89b69c2b068fc378daa952ba7f163c4a11628f55a4df523b3ef92918290030190a3505050565b600061108f836110a0565b801561051c575061051c83836110d4565b60006110b3826301ffc9a760e01b6110d4565b80156110ce57506110cc826001600160e01b03196110d4565b155b92915050565b60008060006110e385856110fa565b915091508180156110f15750805b95945050505050565b604080516001600160e01b0319831660248083019190915282518083039091018152604490910182526020810180516001600160e01b03166301ffc9a760e01b1781529151815160009384939284926060926001600160a01b038a169261753092879282918083835b602083106111825780518252601f199092019160209182019101611163565b6001836020036101000a0380198251168184511680821785525050505050509050019150506000604051808303818686fa925050503d80600081146111e3576040519150601f19603f3d011682016040523d82523d6000602084013e6111e8565b606091505b50915091506020815110156112065760008094509450505050611227565b8181806020019051602081101561121c57600080fd5b505190955093505050505b925092905056fe45524332303a207472616e7366657220746f20746865207a65726f20616464726573734f776e61626c653a206e6577206f776e657220697320746865207a65726f206164647265737345524332303a20617070726f766520746f20746865207a65726f206164647265737345524332304f6e417070726f76653a207370656e64657220646f65736e277420737570706f7274206f6e417070726f766545524332303a207472616e7366657220616d6f756e7420657863656564732062616c616e63656f6e417070726f766528616464726573732c616464726573732c75696e743235362c62797465732953656967546f6b656e3a206f6e6c792073656e646572206f7220726563697069656e742063616e207472616e7366657245524332303a207472616e7366657220616d6f756e74206578636565647320616c6c6f77616e63654f776e61626c653a2063616c6c6572206973206e6f7420746865206f776e657245524332303a207472616e736665722066726f6d20746865207a65726f206164647265737345524332303a20617070726f76652066726f6d20746865207a65726f206164647265737345524332303a2064656372656173656420616c6c6f77616e63652062656c6f77207a65726fa265627a7a723158202096607c701f79cff1f729a0f07cc60f077cd34e60b7a75cfeda893ff7aa058364736f6c634300050c0032",
  "source": "pragma solidity ^0.5.12;\n\nimport { Ownable } from \"../../../node_modules/openzeppelin-solidity/contracts/ownership/Ownable.sol\";\nimport { ERC20 } from \"../../../node_modules/openzeppelin-solidity/contracts/token/ERC20/ERC20.sol\";\n\nimport { SeigManagerI } from \"../interfaces/SeigManagerI.sol\";\n\nimport { ERC165Checker } from \"../../../node_modules/openzeppelin-solidity/contracts/introspection/ERC165Checker.sol\";\n\nimport { ERC20OnApprove } from \"./ERC20OnApprove.sol\";\nimport { AuthController } from \"./AuthController.sol\";\n\ncontract SeigToken is ERC20, Ownable, ERC20OnApprove, AuthController {\n  SeigManagerI public seigManager;\n\n  function setSeigManager(SeigManagerI _seigManager) external onlyOwner {\n    seigManager = _seigManager;\n  }\n\n  //////////////////////\n  // Override ERC20 functions\n  //////////////////////\n\n  function _transfer(address sender, address recipient, uint256 amount) internal {\n    require(msg.sender == sender || msg.sender == recipient, \"SeigToken: only sender or recipient can transfer\");\n    super._transfer(sender, recipient, amount);\n    if (address(seigManager) != address(0)) {\n      // seigManager.onTransfer(sender, recipient, amount);\n    }\n  }\n\n  function _mint(address account, uint256 amount) internal {\n    super._mint(account, amount);\n    if (address(seigManager) != address(0)) {\n      // seigManager.onTransfer(address(0), account, amount);\n    }\n  }\n\n  function _burn(address account, uint256 amount) internal {\n    super._burn(account, amount);\n    if (address(seigManager) != address(0)) {\n      // seigManager.onTransfer(account, address(0), amount);\n    }\n  }\n}",
  "sourcePath": "/Users/pjh/workspace/go/src/github.com/Onther-Tech/plasma-evm/contracts/plasma/plasma-evm-cotracts/contracts/stake/tokens/SeigToken.sol",
  "compiler": {
    "name": "solc",
    "version": "0.5.12+commit.7709ece9.Emscripten.clang"
  },
  "schemaVersion": "3.0.23",
  "updatedAt": "2020-02-13T05:01:24.041Z",
  "devdoc": {
    "methods": {
      "allowance(address,address)": {
        "details": "See {IERC20-allowance}."
      },
      "approve(address,uint256)": {
        "details": "See {IERC20-approve}.     * Requirements:     * - `spender` cannot be the zero address."
      },
      "balanceOf(address)": {
        "details": "See {IERC20-balanceOf}."
      },
      "decreaseAllowance(address,uint256)": {
        "details": "Atomically decreases the allowance granted to `spender` by the caller.     * This is an alternative to {approve} that can be used as a mitigation for problems described in {IERC20-approve}.     * Emits an {Approval} event indicating the updated allowance.     * Requirements:     * - `spender` cannot be the zero address. - `spender` must have allowance for the caller of at least `subtractedValue`."
      },
      "increaseAllowance(address,uint256)": {
        "details": "Atomically increases the allowance granted to `spender` by the caller.     * This is an alternative to {approve} that can be used as a mitigation for problems described in {IERC20-approve}.     * Emits an {Approval} event indicating the updated allowance.     * Requirements:     * - `spender` cannot be the zero address."
      },
      "isOwner()": {
        "details": "Returns true if the caller is the current owner."
      },
      "owner()": {
        "details": "Returns the address of the current owner."
      },
      "renounceOwnership()": {
        "details": "Leaves the contract without owner. It will not be possible to call `onlyOwner` functions anymore. Can only be called by the current owner.     * NOTE: Renouncing ownership will leave the contract without an owner, thereby removing any functionality that is only available to the owner."
      },
      "totalSupply()": {
        "details": "See {IERC20-totalSupply}."
      },
      "transfer(address,uint256)": {
        "details": "See {IERC20-transfer}.     * Requirements:     * - `recipient` cannot be the zero address. - the caller must have a balance of at least `amount`."
      },
      "transferFrom(address,address,uint256)": {
        "details": "See {IERC20-transferFrom}.     * Emits an {Approval} event indicating the updated allowance. This is not required by the EIP. See the note at the beginning of {ERC20};     * Requirements: - `sender` and `recipient` cannot be the zero address. - `sender` must have a balance of at least `amount`. - the caller must have allowance for `sender`'s tokens of at least `amount`."
      },
      "transferOwnership(address)": {
        "details": "Transfers ownership of the contract to a new account (`newOwner`). Can only be called by the current owner."
      }
    }
  },
  "userdoc": {
    "methods": {}
  }
}