{
  "contractName": "SeigToken",
  "abi": [
    {
      "anonymous": false,
      "inputs": [
        {
          "indexed": true,
          "internalType": "address",
          "name": "owner",
          "type": "address"
        },
        {
          "indexed": true,
          "internalType": "address",
          "name": "spender",
          "type": "address"
        },
        {
          "indexed": false,
          "internalType": "uint256",
          "name": "value",
          "type": "uint256"
        }
      ],
      "name": "Approval",
      "type": "event"
    },
    {
      "anonymous": false,
      "inputs": [
        {
          "indexed": true,
          "internalType": "address",
          "name": "previousOwner",
          "type": "address"
        },
        {
          "indexed": true,
          "internalType": "address",
          "name": "newOwner",
          "type": "address"
        }
      ],
      "name": "OwnershipTransferred",
      "type": "event"
    },
    {
      "anonymous": false,
      "inputs": [
        {
          "indexed": true,
          "internalType": "address",
          "name": "from",
          "type": "address"
        },
        {
          "indexed": true,
          "internalType": "address",
          "name": "to",
          "type": "address"
        },
        {
          "indexed": false,
          "internalType": "uint256",
          "name": "value",
          "type": "uint256"
        }
      ],
      "name": "Transfer",
      "type": "event"
    },
    {
      "constant": true,
      "inputs": [
        {
          "internalType": "address",
          "name": "owner",
          "type": "address"
        },
        {
          "internalType": "address",
          "name": "spender",
          "type": "address"
        }
      ],
      "name": "allowance",
      "outputs": [
        {
          "internalType": "uint256",
          "name": "",
          "type": "uint256"
        }
      ],
      "payable": false,
      "stateMutability": "view",
      "type": "function"
    },
    {
      "constant": false,
      "inputs": [
        {
          "internalType": "address",
          "name": "spender",
          "type": "address"
        },
        {
          "internalType": "uint256",
          "name": "amount",
          "type": "uint256"
        }
      ],
      "name": "approve",
      "outputs": [
        {
          "internalType": "bool",
          "name": "",
          "type": "bool"
        }
      ],
      "payable": false,
      "stateMutability": "nonpayable",
      "type": "function"
    },
    {
      "constant": true,
      "inputs": [
        {
          "internalType": "address",
          "name": "account",
          "type": "address"
        }
      ],
      "name": "balanceOf",
      "outputs": [
        {
          "internalType": "uint256",
          "name": "",
          "type": "uint256"
        }
      ],
      "payable": false,
      "stateMutability": "view",
      "type": "function"
    },
    {
      "constant": false,
      "inputs": [
        {
          "internalType": "address",
          "name": "spender",
          "type": "address"
        },
        {
          "internalType": "uint256",
          "name": "subtractedValue",
          "type": "uint256"
        }
      ],
      "name": "decreaseAllowance",
      "outputs": [
        {
          "internalType": "bool",
          "name": "",
          "type": "bool"
        }
      ],
      "payable": false,
      "stateMutability": "nonpayable",
      "type": "function"
    },
    {
      "constant": false,
      "inputs": [
        {
          "internalType": "address",
          "name": "spender",
          "type": "address"
        },
        {
          "internalType": "uint256",
          "name": "addedValue",
          "type": "uint256"
        }
      ],
      "name": "increaseAllowance",
      "outputs": [
        {
          "internalType": "bool",
          "name": "",
          "type": "bool"
        }
      ],
      "payable": false,
      "stateMutability": "nonpayable",
      "type": "function"
    },
    {
      "constant": true,
      "inputs": [],
      "name": "isOwner",
      "outputs": [
        {
          "internalType": "bool",
          "name": "",
          "type": "bool"
        }
      ],
      "payable": false,
      "stateMutability": "view",
      "type": "function"
    },
    {
      "constant": true,
      "inputs": [],
      "name": "owner",
      "outputs": [
        {
          "internalType": "address",
          "name": "",
          "type": "address"
        }
      ],
      "payable": false,
      "stateMutability": "view",
      "type": "function"
    },
    {
      "constant": false,
      "inputs": [],
      "name": "renounceOwnership",
      "outputs": [],
      "payable": false,
      "stateMutability": "nonpayable",
      "type": "function"
    },
    {
      "constant": true,
      "inputs": [],
      "name": "seigManager",
      "outputs": [
        {
          "internalType": "contract SeigManagerI",
          "name": "",
          "type": "address"
        }
      ],
      "payable": false,
      "stateMutability": "view",
      "type": "function"
    },
    {
      "constant": true,
      "inputs": [],
      "name": "totalSupply",
      "outputs": [
        {
          "internalType": "uint256",
          "name": "",
          "type": "uint256"
        }
      ],
      "payable": false,
      "stateMutability": "view",
      "type": "function"
    },
    {
      "constant": false,
      "inputs": [
        {
          "internalType": "address",
          "name": "recipient",
          "type": "address"
        },
        {
          "internalType": "uint256",
          "name": "amount",
          "type": "uint256"
        }
      ],
      "name": "transfer",
      "outputs": [
        {
          "internalType": "bool",
          "name": "",
          "type": "bool"
        }
      ],
      "payable": false,
      "stateMutability": "nonpayable",
      "type": "function"
    },
    {
      "constant": false,
      "inputs": [
        {
          "internalType": "address",
          "name": "sender",
          "type": "address"
        },
        {
          "internalType": "address",
          "name": "recipient",
          "type": "address"
        },
        {
          "internalType": "uint256",
          "name": "amount",
          "type": "uint256"
        }
      ],
      "name": "transferFrom",
      "outputs": [
        {
          "internalType": "bool",
          "name": "",
          "type": "bool"
        }
      ],
      "payable": false,
      "stateMutability": "nonpayable",
      "type": "function"
    },
    {
      "constant": false,
      "inputs": [
        {
          "internalType": "address",
          "name": "newOwner",
          "type": "address"
        }
      ],
      "name": "transferOwnership",
      "outputs": [],
      "payable": false,
      "stateMutability": "nonpayable",
      "type": "function"
    },
    {
      "constant": false,
      "inputs": [
        {
          "internalType": "contract SeigManagerI",
          "name": "_seigManager",
          "type": "address"
        }
      ],
      "name": "setSeigManager",
      "outputs": [],
      "payable": false,
      "stateMutability": "nonpayable",
      "type": "function"
    }
  ],
  "bytecode": "0x60806040526100156001600160e01b0361006616565b600380546001600160a01b0319166001600160a01b0392831617908190556040519116906000907f8be0079c531659141344cd1fd0a4f28419497f9722a3daafe3b4186f6b6457e0908290a361006a565b3390565b610bc5806100796000396000f3fe608060405234801561001057600080fd5b50600436106100ea5760003560e01c80637657f20a1161008c578063a457c2d711610066578063a457c2d714610235578063a9059cbb14610261578063dd62ed3e1461028d578063f2fde38b146102bb576100ea565b80637657f20a146101ff5780638da5cb5b146102255780638f32d59b1461022d576100ea565b806339509351116100c8578063395093511461017f5780636fb7f558146101ab57806370a08231146101cf578063715018a6146101f5576100ea565b8063095ea7b3146100ef57806318160ddd1461012f57806323b872dd14610149575b600080fd5b61011b6004803603604081101561010557600080fd5b506001600160a01b0381351690602001356102e1565b604080519115158252519081900360200190f35b6101376102fe565b60408051918252519081900360200190f35b61011b6004803603606081101561015f57600080fd5b506001600160a01b03813581169160208101359091169060400135610304565b61011b6004803603604081101561019557600080fd5b506001600160a01b038135169060200135610391565b6101b36103e5565b604080516001600160a01b039092168252519081900360200190f35b610137600480360360208110156101e557600080fd5b50356001600160a01b03166103f4565b6101fd61040f565b005b6101fd6004803603602081101561021557600080fd5b50356001600160a01b03166104b2565b6101b361052d565b61011b61053c565b61011b6004803603604081101561024b57600080fd5b506001600160a01b038135169060200135610562565b61011b6004803603604081101561027757600080fd5b506001600160a01b0381351690602001356105d0565b610137600480360360408110156102a357600080fd5b506001600160a01b03813581169160200135166105e4565b6101fd600480360360208110156102d157600080fd5b50356001600160a01b031661060f565b60006102f56102ee610674565b8484610678565b50600192915050565b60025490565b6000610311848484610764565b6103878461031d610674565b61038285604051806060016040528060288152602001610afb602891396001600160a01b038a1660009081526001602052604081209061035b610674565b6001600160a01b03168152602081019190915260400160002054919063ffffffff61077416565b610678565b5060019392505050565b60006102f561039e610674565b8461038285600160006103af610674565b6001600160a01b03908116825260208083019390935260409182016000908120918c16815292529020549063ffffffff61080b16565b6004546001600160a01b031681565b6001600160a01b031660009081526020819052604090205490565b61041761053c565b610468576040805162461bcd60e51b815260206004820181905260248201527f4f776e61626c653a2063616c6c6572206973206e6f7420746865206f776e6572604482015290519081900360640190fd5b6003546040516000916001600160a01b0316907f8be0079c531659141344cd1fd0a4f28419497f9722a3daafe3b4186f6b6457e0908390a3600380546001600160a01b0319169055565b6104ba61053c565b61050b576040805162461bcd60e51b815260206004820181905260248201527f4f776e61626c653a2063616c6c6572206973206e6f7420746865206f776e6572604482015290519081900360640190fd5b600480546001600160a01b0319166001600160a01b0392909216919091179055565b6003546001600160a01b031690565b6003546000906001600160a01b0316610553610674565b6001600160a01b031614905090565b60006102f561056f610674565b8461038285604051806060016040528060258152602001610b6c6025913960016000610599610674565b6001600160a01b03908116825260208083019390935260409182016000908120918d1681529252902054919063ffffffff61077416565b60006102f56105dd610674565b8484610764565b6001600160a01b03918216600090815260016020908152604080832093909416825291909152205490565b61061761053c565b610668576040805162461bcd60e51b815260206004820181905260248201527f4f776e61626c653a2063616c6c6572206973206e6f7420746865206f776e6572604482015290519081900360640190fd5b6106718161086c565b50565b3390565b6001600160a01b0383166106bd5760405162461bcd60e51b8152600401808060200182810382526024815260200180610b486024913960400191505060405180910390fd5b6001600160a01b0382166107025760405162461bcd60e51b8152600401808060200182810382526022815260200180610ab36022913960400191505060405180910390fd5b6001600160a01b03808416600081815260016020908152604080832094871680845294825291829020859055815185815291517f8c5be1e5ebec7d5bd14f71427d1e84f3dd0314c0f7b2291e5b200ac8c7c3b9259281900390910190a3505050565b61076f83838361090d565b505050565b600081848411156108035760405162461bcd60e51b81526004018080602001828103825283818151815260200191508051906020019080838360005b838110156107c85781810151838201526020016107b0565b50505050905090810190601f1680156107f55780820380516001836020036101000a031916815260200191505b509250505060405180910390fd5b505050900390565b600082820183811015610865576040805162461bcd60e51b815260206004820152601b60248201527f536166654d6174683a206164646974696f6e206f766572666c6f770000000000604482015290519081900360640190fd5b9392505050565b6001600160a01b0381166108b15760405162461bcd60e51b8152600401808060200182810382526026815260200180610a8d6026913960400191505060405180910390fd5b6003546040516001600160a01b038084169216907f8be0079c531659141344cd1fd0a4f28419497f9722a3daafe3b4186f6b6457e090600090a3600380546001600160a01b0319166001600160a01b0392909216919091179055565b6001600160a01b0383166109525760405162461bcd60e51b8152600401808060200182810382526025815260200180610b236025913960400191505060405180910390fd5b6001600160a01b0382166109975760405162461bcd60e51b8152600401808060200182810382526023815260200180610a6a6023913960400191505060405180910390fd5b6109da81604051806060016040528060268152602001610ad5602691396001600160a01b038616600090815260208190526040902054919063ffffffff61077416565b6001600160a01b038085166000908152602081905260408082209390935590841681522054610a0f908263ffffffff61080b16565b6001600160a01b038084166000818152602081815260409182902094909455805185815290519193928716927fddf252ad1be2c89b69c2b068fc378daa952ba7f163c4a11628f55a4df523b3ef92918290030190a350505056fe45524332303a207472616e7366657220746f20746865207a65726f20616464726573734f776e61626c653a206e6577206f776e657220697320746865207a65726f206164647265737345524332303a20617070726f766520746f20746865207a65726f206164647265737345524332303a207472616e7366657220616d6f756e7420657863656564732062616c616e636545524332303a207472616e7366657220616d6f756e74206578636565647320616c6c6f77616e636545524332303a207472616e736665722066726f6d20746865207a65726f206164647265737345524332303a20617070726f76652066726f6d20746865207a65726f206164647265737345524332303a2064656372656173656420616c6c6f77616e63652062656c6f77207a65726fa265627a7a723158203f3c316b7d31c14d382f57f949a536db8087982262bf1f5041eb393e5b9b088e64736f6c634300050c0032",
  "source": "pragma solidity ^0.5.0;\n\nimport { Ownable } from \"../../node_modules/openzeppelin-solidity/contracts/ownership/Ownable.sol\";\nimport { ERC20 } from \"../../node_modules/openzeppelin-solidity/contracts/token/ERC20/ERC20.sol\";\n\nimport { SeigManagerI } from \"./SeigManagerI.sol\";\n\n\ncontract SeigToken is ERC20, Ownable {\n  SeigManagerI public seigManager;\n\n  function setSeigManager(SeigManagerI _seigManager) external onlyOwner {\n    seigManager = _seigManager;\n  }\n\n  //////////////////////\n  // Override ERC20 functions\n  //////////////////////\n\n  function _transfer(address sender, address recipient, uint256 amount) internal {\n    super._transfer(sender, recipient, amount);\n    if (address(seigManager) != address(0)) {\n      // seigManager.onTransfer(sender, recipient, amount);\n    }\n  }\n\n  function _mint(address account, uint256 amount) internal {\n    super._mint(account, amount);\n    if (address(seigManager) != address(0)) {\n      // seigManager.onTransfer(address(0), account, amount);\n    }\n  }\n\n  function _burn(address account, uint256 amount) internal {\n    super._burn(account, amount);\n    if (address(seigManager) != address(0)) {\n      // seigManager.onTransfer(account, address(0), amount);\n    }\n  }\n}",
  "sourcePath": "/Users/pjh/workspace/go/src/github.com/Onther-Tech/plasma-evm/contracts/plasma/plasma-evm-cotracts/contracts/stake/SeigToken.sol",
  "compiler": {
    "name": "solc",
    "version": "0.5.12+commit.7709ece9.Emscripten.clang"
  },
  "schemaVersion": "3.0.20",
  "updatedAt": "2020-01-29T10:22:31.221Z",
  "devdoc": {
    "methods": {
      "allowance(address,address)": {
        "details": "See {IERC20-allowance}."
      },
      "approve(address,uint256)": {
        "details": "See {IERC20-approve}.     * Requirements:     * - `spender` cannot be the zero address."
      },
      "balanceOf(address)": {
        "details": "See {IERC20-balanceOf}."
      },
      "decreaseAllowance(address,uint256)": {
        "details": "Atomically decreases the allowance granted to `spender` by the caller.     * This is an alternative to {approve} that can be used as a mitigation for problems described in {IERC20-approve}.     * Emits an {Approval} event indicating the updated allowance.     * Requirements:     * - `spender` cannot be the zero address. - `spender` must have allowance for the caller of at least `subtractedValue`."
      },
      "increaseAllowance(address,uint256)": {
        "details": "Atomically increases the allowance granted to `spender` by the caller.     * This is an alternative to {approve} that can be used as a mitigation for problems described in {IERC20-approve}.     * Emits an {Approval} event indicating the updated allowance.     * Requirements:     * - `spender` cannot be the zero address."
      },
      "isOwner()": {
        "details": "Returns true if the caller is the current owner."
      },
      "owner()": {
        "details": "Returns the address of the current owner."
      },
      "renounceOwnership()": {
        "details": "Leaves the contract without owner. It will not be possible to call `onlyOwner` functions anymore. Can only be called by the current owner.     * NOTE: Renouncing ownership will leave the contract without an owner, thereby removing any functionality that is only available to the owner."
      },
      "totalSupply()": {
        "details": "See {IERC20-totalSupply}."
      },
      "transfer(address,uint256)": {
        "details": "See {IERC20-transfer}.     * Requirements:     * - `recipient` cannot be the zero address. - the caller must have a balance of at least `amount`."
      },
      "transferFrom(address,address,uint256)": {
        "details": "See {IERC20-transferFrom}.     * Emits an {Approval} event indicating the updated allowance. This is not required by the EIP. See the note at the beginning of {ERC20};     * Requirements: - `sender` and `recipient` cannot be the zero address. - `sender` must have a balance of at least `amount`. - the caller must have allowance for `sender`'s tokens of at least `amount`."
      },
      "transferOwnership(address)": {
        "details": "Transfers ownership of the contract to a new account (`newOwner`). Can only be called by the current owner."
      }
    }
  },
  "userdoc": {
    "methods": {}
  }
}