{
  "contractName": "SeigManager",
  "abi": [
    {
      "inputs": [
        {
          "internalType": "contract ERC20Mintable",
          "name": "ton",
          "type": "address"
        },
        {
          "internalType": "contract ERC20Mintable",
          "name": "wton",
          "type": "address"
        },
        {
          "internalType": "contract RootChainRegistryI",
          "name": "registry",
          "type": "address"
        },
        {
          "internalType": "contract DepositManagerI",
          "name": "depositManager",
          "type": "address"
        },
        {
          "internalType": "uint256",
          "name": "seigPerBlock",
          "type": "uint256"
        }
      ],
      "payable": false,
      "stateMutability": "nonpayable",
      "type": "constructor"
    },
    {
      "anonymous": false,
      "inputs": [
        {
          "indexed": false,
          "internalType": "address",
          "name": "rootchain",
          "type": "address"
        },
        {
          "indexed": false,
          "internalType": "address",
          "name": "coinage",
          "type": "address"
        }
      ],
      "name": "CoinageCreated",
      "type": "event"
    },
    {
      "anonymous": false,
      "inputs": [
        {
          "indexed": false,
          "internalType": "address",
          "name": "rootchain",
          "type": "address"
        }
      ],
      "name": "Comitted",
      "type": "event"
    },
    {
      "anonymous": false,
      "inputs": [
        {
          "indexed": false,
          "internalType": "uint256",
          "name": "totalStakedAmount",
          "type": "uint256"
        },
        {
          "indexed": false,
          "internalType": "uint256",
          "name": "totalSupplyOfWTON",
          "type": "uint256"
        },
        {
          "indexed": false,
          "internalType": "uint256",
          "name": "prevTotalSupply",
          "type": "uint256"
        },
        {
          "indexed": false,
          "internalType": "uint256",
          "name": "nextTotalSupply",
          "type": "uint256"
        }
      ],
      "name": "CommitLog1",
      "type": "event"
    },
    {
      "anonymous": false,
      "inputs": [
        {
          "indexed": true,
          "internalType": "address",
          "name": "previousOwner",
          "type": "address"
        },
        {
          "indexed": true,
          "internalType": "address",
          "name": "newOwner",
          "type": "address"
        }
      ],
      "name": "OwnershipTransferred",
      "type": "event"
    },
    {
      "anonymous": false,
      "inputs": [
        {
          "indexed": false,
          "internalType": "address",
          "name": "account",
          "type": "address"
        }
      ],
      "name": "Paused",
      "type": "event"
    },
    {
      "anonymous": false,
      "inputs": [
        {
          "indexed": true,
          "internalType": "address",
          "name": "account",
          "type": "address"
        }
      ],
      "name": "PauserAdded",
      "type": "event"
    },
    {
      "anonymous": false,
      "inputs": [
        {
          "indexed": true,
          "internalType": "address",
          "name": "account",
          "type": "address"
        }
      ],
      "name": "PauserRemoved",
      "type": "event"
    },
    {
      "anonymous": false,
      "inputs": [
        {
          "indexed": false,
          "internalType": "address",
          "name": "rootchain",
          "type": "address"
        },
        {
          "indexed": false,
          "internalType": "uint256",
          "name": "totalSeig",
          "type": "uint256"
        },
        {
          "indexed": false,
          "internalType": "uint256",
          "name": "stakedSeig",
          "type": "uint256"
        },
        {
          "indexed": false,
          "internalType": "uint256",
          "name": "unstakedSeig",
          "type": "uint256"
        }
      ],
      "name": "SeigGiven",
      "type": "event"
    },
    {
      "anonymous": false,
      "inputs": [
        {
          "indexed": false,
          "internalType": "address",
          "name": "account",
          "type": "address"
        }
      ],
      "name": "Unpaused",
      "type": "event"
    },
    {
      "anonymous": false,
      "inputs": [
        {
          "indexed": false,
          "internalType": "uint256",
          "name": "coinageBurnAmount",
          "type": "uint256"
        },
        {
          "indexed": false,
          "internalType": "uint256",
          "name": "totBurnAmount",
          "type": "uint256"
        }
      ],
      "name": "UnstakeLog",
      "type": "event"
    },
    {
      "constant": false,
      "inputs": [
        {
          "internalType": "address",
          "name": "account",
          "type": "address"
        }
      ],
      "name": "addPauser",
      "outputs": [],
      "payable": false,
      "stateMutability": "nonpayable",
      "type": "function"
    },
    {
      "constant": true,
      "inputs": [],
      "name": "isOwner",
      "outputs": [
        {
          "internalType": "bool",
          "name": "",
          "type": "bool"
        }
      ],
      "payable": false,
      "stateMutability": "view",
      "type": "function"
    },
    {
      "constant": true,
      "inputs": [
        {
          "internalType": "address",
          "name": "account",
          "type": "address"
        }
      ],
      "name": "isPauser",
      "outputs": [
        {
          "internalType": "bool",
          "name": "",
          "type": "bool"
        }
      ],
      "payable": false,
      "stateMutability": "view",
      "type": "function"
    },
    {
      "constant": true,
      "inputs": [],
      "name": "owner",
      "outputs": [
        {
          "internalType": "address",
          "name": "",
          "type": "address"
        }
      ],
      "payable": false,
      "stateMutability": "view",
      "type": "function"
    },
    {
      "constant": true,
      "inputs": [],
      "name": "paused",
      "outputs": [
        {
          "internalType": "bool",
          "name": "",
          "type": "bool"
        }
      ],
      "payable": false,
      "stateMutability": "view",
      "type": "function"
    },
    {
      "constant": false,
      "inputs": [
        {
          "internalType": "address",
          "name": "target",
          "type": "address"
        }
      ],
      "name": "renounceMinter",
      "outputs": [],
      "payable": false,
      "stateMutability": "nonpayable",
      "type": "function"
    },
    {
      "constant": false,
      "inputs": [
        {
          "internalType": "address",
          "name": "target",
          "type": "address"
        }
      ],
      "name": "renounceOwnership",
      "outputs": [],
      "payable": false,
      "stateMutability": "nonpayable",
      "type": "function"
    },
    {
      "constant": false,
      "inputs": [],
      "name": "renounceOwnership",
      "outputs": [],
      "payable": false,
      "stateMutability": "nonpayable",
      "type": "function"
    },
    {
      "constant": false,
      "inputs": [
        {
          "internalType": "address",
          "name": "target",
          "type": "address"
        }
      ],
      "name": "renouncePauser",
      "outputs": [],
      "payable": false,
      "stateMutability": "nonpayable",
      "type": "function"
    },
    {
      "constant": false,
      "inputs": [],
      "name": "renouncePauser",
      "outputs": [],
      "payable": false,
      "stateMutability": "nonpayable",
      "type": "function"
    },
    {
      "constant": false,
      "inputs": [
        {
          "internalType": "address",
          "name": "target",
          "type": "address"
        },
        {
          "internalType": "address",
          "name": "newOwner",
          "type": "address"
        }
      ],
      "name": "transferOwnership",
      "outputs": [],
      "payable": false,
      "stateMutability": "nonpayable",
      "type": "function"
    },
    {
      "constant": false,
      "inputs": [
        {
          "internalType": "address",
          "name": "newOwner",
          "type": "address"
        }
      ],
      "name": "transferOwnership",
      "outputs": [],
      "payable": false,
      "stateMutability": "nonpayable",
      "type": "function"
    },
    {
      "constant": false,
      "inputs": [],
      "name": "pause",
      "outputs": [],
      "payable": false,
      "stateMutability": "nonpayable",
      "type": "function"
    },
    {
      "constant": false,
      "inputs": [],
      "name": "unpause",
      "outputs": [],
      "payable": false,
      "stateMutability": "nonpayable",
      "type": "function"
    },
    {
      "constant": false,
      "inputs": [
        {
          "internalType": "address",
          "name": "rootchain",
          "type": "address"
        }
      ],
      "name": "deployCoinage",
      "outputs": [
        {
          "internalType": "bool",
          "name": "",
          "type": "bool"
        }
      ],
      "payable": false,
      "stateMutability": "nonpayable",
      "type": "function"
    },
    {
      "constant": false,
      "inputs": [],
      "name": "onCommit",
      "outputs": [
        {
          "internalType": "bool",
          "name": "",
          "type": "bool"
        }
      ],
      "payable": false,
      "stateMutability": "nonpayable",
      "type": "function"
    },
    {
      "constant": false,
      "inputs": [
        {
          "internalType": "address",
          "name": "sender",
          "type": "address"
        },
        {
          "internalType": "address",
          "name": "recipient",
          "type": "address"
        },
        {
          "internalType": "uint256",
          "name": "amount",
          "type": "uint256"
        }
      ],
      "name": "onTransfer",
      "outputs": [
        {
          "internalType": "bool",
          "name": "",
          "type": "bool"
        }
      ],
      "payable": false,
      "stateMutability": "nonpayable",
      "type": "function"
    },
    {
      "constant": false,
      "inputs": [
        {
          "internalType": "address",
          "name": "rootchain",
          "type": "address"
        },
        {
          "internalType": "address",
          "name": "account",
          "type": "address"
        },
        {
          "internalType": "uint256",
          "name": "amount",
          "type": "uint256"
        }
      ],
      "name": "onStake",
      "outputs": [
        {
          "internalType": "bool",
          "name": "",
          "type": "bool"
        }
      ],
      "payable": false,
      "stateMutability": "nonpayable",
      "type": "function"
    },
    {
      "constant": false,
      "inputs": [
        {
          "internalType": "address",
          "name": "rootchain",
          "type": "address"
        },
        {
          "internalType": "address",
          "name": "account",
          "type": "address"
        },
        {
          "internalType": "uint256",
          "name": "amount",
          "type": "uint256"
        }
      ],
      "name": "onUnstake",
      "outputs": [
        {
          "internalType": "bool",
          "name": "",
          "type": "bool"
        }
      ],
      "payable": false,
      "stateMutability": "nonpayable",
      "type": "function"
    },
    {
      "constant": true,
      "inputs": [
        {
          "internalType": "address",
          "name": "rootchain",
          "type": "address"
        },
        {
          "internalType": "address",
          "name": "account",
          "type": "address"
        },
        {
          "internalType": "uint256",
          "name": "amount",
          "type": "uint256"
        }
      ],
      "name": "additionalTotBurnAmount",
      "outputs": [
        {
          "internalType": "uint256",
          "name": "totAmount",
          "type": "uint256"
        }
      ],
      "payable": false,
      "stateMutability": "view",
      "type": "function"
    },
    {
      "constant": true,
      "inputs": [
        {
          "internalType": "address",
          "name": "rootchain",
          "type": "address"
        },
        {
          "internalType": "address",
          "name": "account",
          "type": "address"
        }
      ],
      "name": "uncomittedStakeOf",
      "outputs": [
        {
          "internalType": "uint256",
          "name": "",
          "type": "uint256"
        }
      ],
      "payable": false,
      "stateMutability": "view",
      "type": "function"
    },
    {
      "constant": true,
      "inputs": [
        {
          "internalType": "address",
          "name": "rootchain",
          "type": "address"
        },
        {
          "internalType": "address",
          "name": "account",
          "type": "address"
        }
      ],
      "name": "stakeOf",
      "outputs": [
        {
          "internalType": "uint256",
          "name": "",
          "type": "uint256"
        }
      ],
      "payable": false,
      "stateMutability": "view",
      "type": "function"
    },
    {
      "constant": true,
      "inputs": [],
      "name": "registry",
      "outputs": [
        {
          "internalType": "contract RootChainRegistryI",
          "name": "",
          "type": "address"
        }
      ],
      "payable": false,
      "stateMutability": "view",
      "type": "function"
    },
    {
      "constant": true,
      "inputs": [],
      "name": "depositManager",
      "outputs": [
        {
          "internalType": "contract DepositManagerI",
          "name": "",
          "type": "address"
        }
      ],
      "payable": false,
      "stateMutability": "view",
      "type": "function"
    },
    {
      "constant": true,
      "inputs": [],
      "name": "ton",
      "outputs": [
        {
          "internalType": "contract IERC20",
          "name": "",
          "type": "address"
        }
      ],
      "payable": false,
      "stateMutability": "view",
      "type": "function"
    },
    {
      "constant": true,
      "inputs": [],
      "name": "wton",
      "outputs": [
        {
          "internalType": "contract ERC20Mintable",
          "name": "",
          "type": "address"
        }
      ],
      "payable": false,
      "stateMutability": "view",
      "type": "function"
    },
    {
      "constant": true,
      "inputs": [],
      "name": "tot",
      "outputs": [
        {
          "internalType": "contract CustomIncrementCoinageMock",
          "name": "",
          "type": "address"
        }
      ],
      "payable": false,
      "stateMutability": "view",
      "type": "function"
    },
    {
      "constant": true,
      "inputs": [
        {
          "internalType": "address",
          "name": "rootchain",
          "type": "address"
        }
      ],
      "name": "coinages",
      "outputs": [
        {
          "internalType": "contract CustomIncrementCoinageMock",
          "name": "",
          "type": "address"
        }
      ],
      "payable": false,
      "stateMutability": "view",
      "type": "function"
    },
    {
      "constant": true,
      "inputs": [
        {
          "internalType": "address",
          "name": "rootchain",
          "type": "address"
        }
      ],
      "name": "lastCommitBlock",
      "outputs": [
        {
          "internalType": "uint256",
          "name": "",
          "type": "uint256"
        }
      ],
      "payable": false,
      "stateMutability": "view",
      "type": "function"
    },
    {
      "constant": true,
      "inputs": [],
      "name": "seigPerBlock",
      "outputs": [
        {
          "internalType": "uint256",
          "name": "",
          "type": "uint256"
        }
      ],
      "payable": false,
      "stateMutability": "view",
      "type": "function"
    },
    {
      "constant": true,
      "inputs": [],
      "name": "lastSeigBlock",
      "outputs": [
        {
          "internalType": "uint256",
          "name": "",
          "type": "uint256"
        }
      ],
      "payable": false,
      "stateMutability": "view",
      "type": "function"
    },
    {
      "constant": true,
      "inputs": [],
      "name": "DEFAULT_FACTOR",
      "outputs": [
        {
          "internalType": "uint256",
          "name": "",
          "type": "uint256"
        }
      ],
      "payable": false,
      "stateMutability": "view",
      "type": "function"
    }
  ],
  "bytecode": "0x60806040523480156200001157600080fd5b5060405162006a8d38038062006a8d833981810160405260a08110156200003757600080fd5b508051602082015160408301516060840151608090940151929391929091906200007c6200006d6001600160e01b03620001d616565b6001600160e01b03620001da16565b6000620000916001600160e01b03620001d616565b600180546001600160a01b0319166001600160a01b038316908117909155604051919250906000907f8be0079c531659141344cd1fd0a4f28419497f9722a3daafe3b4186f6b6457e0908290a3506001805460ff60a01b19169055600480546001600160a01b038088166001600160a01b0319928316179092556005805487841690831617905560028054868416908316179055600380549285169290911691909117905560098190556040516b033b2e3c9fd0803ce8000000906000906200015a9062000356565b60408082019390935290151560608201526080808252600090820181905260c06020830181905282018190529151908190036101000191f080158015620001a5573d6000803e3d6000fd5b50600680546001600160a01b0319166001600160a01b0392909216919091179055505043600a555062000364915050565b3390565b620001f58160006200022c60201b620026f71790919060201c565b6040516001600160a01b038216907f6719d08c1888103bea251a4ed56406bd0c3e69723c8a1686e017e7bbe159b6f890600090a250565b6200024182826001600160e01b03620002d316565b15620002ae57604080517f08c379a000000000000000000000000000000000000000000000000000000000815260206004820152601f60248201527f526f6c65733a206163636f756e7420616c72656164792068617320726f6c6500604482015290519081900360640190fd5b6001600160a01b0316600090815260209190915260409020805460ff19166001179055565b60006001600160a01b03821662000336576040517f08c379a000000000000000000000000000000000000000000000000000000000815260040180806020018281038252602281526020018062006a6b6022913960400191505060405180910390fd5b506001600160a01b03166000908152602091909152604090205460ff1690565b611e8f8062004bdc83390190565b61486880620003746000396000f3fe60806040523480156200001157600080fd5b5060043610620002205760003560e01c80637b10399911620001295780638f32d59b11620000b1578063ce4cb876116200007b578063ce4cb876146200055c578063f2fde38b146200058d578063f35c89e814620005b6578063fa9789c814620005c05762000220565b80638f32d59b1462000515578063a16d6aa7146200051f578063c59f10461462000529578063cc48b94714620005525762000220565b80638bf91dc411620000f35780638bf91dc414620004be5780638d62d94914620004c85780638da5cb5b14620004d25780638de0474e14620004dc5762000220565b80637b103999146200045857806382dc1ec41462000462578063833a774f146200048b5780638456cb5914620004b45762000220565b80634c063c1911620001ad5780636c7ac9d811620001775780636c7ac9d814620004095780636d43542114620004135780636ef8d66d1462000444578063715018a6146200044e5762000220565b80634c063c1914620003875780635c975abb14620003cc5780635f112c6814620003d65780635f40a34914620003ff5762000220565b806341eb24bb11620001ef57806341eb24bb14620002b157806346fbf68e14620002da57806348c8577e14620003035780634a393149146200034e5762000220565b80630214f5ca1462000225578063359c4d59146200027257806338bf3cfa146200027c5780633f4ba83a14620002a7575b600080fd5b6200025e600480360360608110156200023d57600080fd5b506001600160a01b03813581169160208101359091169060400135620005f1565b604080519115158252519081900360200190f35b6200025e6200088e565b620002a5600480360360208110156200029457600080fd5b50356001600160a01b031662000bed565b005b620002a562000c90565b620002a560048036036020811015620002c957600080fd5b50356001600160a01b031662000d47565b6200025e60048036036020811015620002f257600080fd5b50356001600160a01b031662000dce565b6200033c600480360360608110156200031b57600080fd5b506001600160a01b0381358116916020810135909116906040013562000dea565b60408051918252519081900360200190f35b6200025e600480360360608110156200036657600080fd5b506001600160a01b0381358116916020810135909116906040013562000e01565b620003b0600480360360208110156200039f57600080fd5b50356001600160a01b031662000e8a565b604080516001600160a01b039092168252519081900360200190f35b6200025e62000ea8565b620002a560048036036020811015620003ee57600080fd5b50356001600160a01b031662000eb9565b6200033c62000f40565b620003b062000f46565b620002a5600480360360408110156200042b57600080fd5b506001600160a01b038135811691602001351662000f55565b620002a562001016565b620002a56200102a565b620003b0620010bf565b620002a5600480360360208110156200047a57600080fd5b50356001600160a01b0316620010ce565b6200025e60048036036020811015620004a357600080fd5b50356001600160a01b031662001127565b620002a56200127a565b6200033c62001326565b620003b062001336565b620003b062001345565b6200025e60048036036060811015620004f457600080fd5b506001600160a01b0381358116916020810135909116906040013562001354565b6200025e620014e8565b620003b062001510565b6200033c600480360360208110156200054157600080fd5b50356001600160a01b03166200151f565b620003b06200153a565b6200033c600480360360408110156200057457600080fd5b506001600160a01b038135811691602001351662001549565b620002a560048036036020811015620005a557600080fd5b50356001600160a01b0316620015db565b6200033c62001631565b6200033c60048036036040811015620005d857600080fd5b506001600160a01b038135811691602001351662001637565b6003546000906001600160a01b031633146200060c57600080fd5b6001600160a01b03808516600090815260076020526040902054859116620006665760405162461bcd60e51b815260040180806020018281038252602e81526020018062004725602e913960400191505060405180910390fd5b6001600160a01b038086166000908152600760209081526040918290205482516370a0823160e01b815288851660048201529251879491909116926370a08231926024808301939192829003018186803b158015620006c457600080fd5b505afa158015620006d9573d6000803e3d6000fd5b505050506040513d6020811015620006f057600080fd5b50511015620007315760405162461bcd60e51b815260040180806020018281038252602c81526020018062004808602c913960400191505060405180910390fd5b6000620007408686866200190c565b6006549091506001600160a01b03166379cc67908762000767878563ffffffff62001a4116565b6040518363ffffffff1660e01b815260040180836001600160a01b03166001600160a01b0316815260200182815260200192505050600060405180830381600087803b158015620007b757600080fd5b505af1158015620007cc573d6000803e3d6000fd5b5050506001600160a01b0380881660009081526007602052604080822054815163079cc67960e41b81528a85166004820152602481018a90529151931693506379cc6790926044808301939282900301818387803b1580156200082e57600080fd5b505af115801562000843573d6000803e3d6000fd5b5050604080518781526020810185905281517f650f673bb96a43afff4620ecc3f3e38e0cbfddebde9894e951ba2ceff7472f609450908190039091019150a150600195945050505050565b336000818152600760205260408120549091906001600160a01b0316620008e75760405162461bcd60e51b815260040180806020018281038252602e81526020018062004725602e913960400191505060405180910390fd5b620008f162000ea8565b1562000901576001915062000be9565b6200090b62001aa3565b503360009081526007602090815260408083205481516318160ddd60e01b815291516001600160a01b03909116939284926318160ddd9260048083019392829003018186803b1580156200095e57600080fd5b505afa15801562000973573d6000803e3d6000fd5b505050506040513d60208110156200098a57600080fd5b5051600654604080516370a0823160e01b815233600482015290519293506000926001600160a01b03909216916370a0823191602480820192602092909190829003018186803b158015620009de57600080fd5b505afa158015620009f3573d6000803e3d6000fd5b505050506040513d602081101562000a0a57600080fd5b505160408051630a9ee07f60e31b815290519192506001600160a01b0385169163817e9d319162000a95918691869186916354f703f8916004808301926020929190829003018186803b15801562000a6157600080fd5b505afa15801562000a76573d6000803e3d6000fd5b505050506040513d602081101562000a8d57600080fd5b505162002113565b6040518263ffffffff1660e01b815260040180828152602001915050602060405180830381600087803b15801562000acc57600080fd5b505af115801562000ae1573d6000803e3d6000fd5b505050506040513d602081101562000af857600080fd5b50503360009081526008602052604090204390556005546001600160a01b03166340c10f193062000b30848663ffffffff6200212c16565b6040518363ffffffff1660e01b815260040180836001600160a01b03166001600160a01b0316815260200182815260200192505050602060405180830381600087803b15801562000b8057600080fd5b505af115801562000b95573d6000803e3d6000fd5b505050506040513d602081101562000bac57600080fd5b50506040805133815290517f521cc65179761533a7c8d7a973291dd7baebb99a67edf5ef78e9c2b61a533d959181900360200190a1600194505050505b5090565b62000bf7620014e8565b62000c38576040805162461bcd60e51b8152602060048201819052602482015260008051602062004795833981519152604482015290519081900360640190fd5b806001600160a01b031663715018a66040518163ffffffff1660e01b8152600401600060405180830381600087803b15801562000c7457600080fd5b505af115801562000c89573d6000803e3d6000fd5b5050505050565b62000ca462000c9e62002170565b62000dce565b62000ce15760405162461bcd60e51b8152600401808060200182810382526030815260200180620046cf6030913960400191505060405180910390fd5b600154600160a01b900460ff1662000d37576040805162461bcd60e51b815260206004820152601460248201527314185d5cd8589b194e881b9bdd081c185d5cd95960621b604482015290519081900360640190fd5b43600c5562000d4562002174565b565b62000d51620014e8565b62000d92576040805162461bcd60e51b8152602060048201819052602482015260008051602062004795833981519152604482015290519081900360640190fd5b806001600160a01b0316636ef8d66d6040518163ffffffff1660e01b8152600401600060405180830381600087803b15801562000c7457600080fd5b600062000de2818363ffffffff6200226a16565b90505b919050565b600062000df98484846200190c565b949350505050565b6004546000906001600160a01b031633148062000e2857506005546001600160a01b031633145b62000e655760405162461bcd60e51b8152600401808060200182810382526031815260200180620047d76031913960400191505060405180910390fd5b62000e6f62000ea8565b62000e805762000e7e62001aa3565b505b5060019392505050565b6001600160a01b039081166000908152600760205260409020541690565b600154600160a01b900460ff165b90565b62000ec3620014e8565b62000f04576040805162461bcd60e51b8152602060048201819052602482015260008051602062004795833981519152604482015290519081900360640190fd5b806001600160a01b031663986502756040518163ffffffff1660e01b8152600401600060405180830381600087803b15801562000c7457600080fd5b60095490565b6003546001600160a01b031690565b62000f5f620014e8565b62000fa0576040805162461bcd60e51b8152602060048201819052602482015260008051602062004795833981519152604482015290519081900360640190fd5b816001600160a01b031663f2fde38b826040518263ffffffff1660e01b815260040180826001600160a01b03166001600160a01b03168152602001915050600060405180830381600087803b15801562000ff957600080fd5b505af11580156200100e573d6000803e3d6000fd5b505050505050565b62000d456200102462002170565b620022d3565b62001034620014e8565b62001075576040805162461bcd60e51b8152602060048201819052602482015260008051602062004795833981519152604482015290519081900360640190fd5b6001546040516000916001600160a01b0316907f8be0079c531659141344cd1fd0a4f28419497f9722a3daafe3b4186f6b6457e0908390a3600180546001600160a01b0319169055565b6002546001600160a01b031690565b620010dc62000c9e62002170565b620011195760405162461bcd60e51b8152600401808060200182810382526030815260200180620046cf6030913960400191505060405180910390fd5b62001124816200231d565b50565b6002546000906001600160a01b031633146200114257600080fd5b6001600160a01b0382811660009081526007602052604090205416156200116c5750600062000de5565b6001600160a01b038281166000908152600760205260409020541662001272576b033b2e3c9fd0803ce80000006000604051620011a99062002831565b60408082019390935290151560608201526080808252600090820181905260c06020830181905282018190529151908190036101000191f080158015620011f4573d6000803e3d6000fd5b506001600160a01b03838116600081815260076020818152604080842080546001600160a01b0319169787169790971787556008825292839020439055908152935481519283529092169281019290925280517f124cac1e701d08d642237ad795ddd275670e12f2cd956a26709721c68084c2b29281900390910190a15b506001919050565b6200128862000c9e62002170565b620012c55760405162461bcd60e51b8152600401808060200182810382526030815260200180620046cf6030913960400191505060405180910390fd5b600154600160a01b900460ff161562001318576040805162461bcd60e51b815260206004820152601060248201526f14185d5cd8589b194e881c185d5cd95960821b604482015290519081900360640190fd5b43600b5562000d4562002367565b6b033b2e3c9fd0803ce800000090565b6005546001600160a01b031690565b6001546001600160a01b031690565b6003546000906001600160a01b031633146200136f57600080fd5b6001600160a01b03808516600090815260076020526040902054859116620013c95760405162461bcd60e51b815260040180806020018281038252602e81526020018062004725602e913960400191505060405180910390fd5b600654604080516340c10f1960e01b81526001600160a01b03888116600483015260248201879052915191909216916340c10f199160448083019260209291908290030181600087803b1580156200142057600080fd5b505af115801562001435573d6000803e3d6000fd5b505050506040513d60208110156200144c57600080fd5b50506001600160a01b0380861660009081526007602090815260408083205481516340c10f1960e01b815289861660048201526024810189905291519416936340c10f1993604480840194938390030190829087803b158015620014af57600080fd5b505af1158015620014c4573d6000803e3d6000fd5b505050506040513d6020811015620014db57600080fd5b5060019695505050505050565b6001546000906001600160a01b03166200150162002170565b6001600160a01b031614905090565b6006546001600160a01b031690565b6001600160a01b031660009081526008602052604090205490565b6004546001600160a01b031690565b6001600160a01b0380831660009081526007602090815260408083205481516370a0823160e01b815286861660048201529151939416926370a0823192602480840193919291829003018186803b158015620015a457600080fd5b505afa158015620015b9573d6000803e3d6000fd5b505050506040513d6020811015620015d057600080fd5b505190505b92915050565b620015e5620014e8565b62001626576040805162461bcd60e51b8152602060048201819052602482015260008051602062004795833981519152604482015290519081900360640190fd5b620011248162002443565b600a5490565b6001600160a01b038083166000908152600760209081526040808320548151630a9ee07f60e31b8152915193941692849284926354f703f89260048083019392829003018186803b1580156200168c57600080fd5b505afa158015620016a1573d6000803e3d6000fd5b505050506040513d6020811015620016b857600080fd5b5051604080516318160ddd60e01b815290519192506000916001600160a01b038516916318160ddd916004808301926020929190829003018186803b1580156200170157600080fd5b505afa15801562001716573d6000803e3d6000fd5b505050506040513d60208110156200172d57600080fd5b5051600654604080516370a0823160e01b81526001600160a01b038a81166004830152915193945060009391909216916370a08231916024808301926020929190829003018186803b1580156200178357600080fd5b505afa15801562001798573d6000803e3d6000fd5b505050506040513d6020811015620017af57600080fd5b505190506000620017c283838662002113565b90506000620018616200185a876001600160a01b03166370a082318b6040518263ffffffff1660e01b815260040180826001600160a01b03166001600160a01b0316815260200191505060206040518083038186803b1580156200182557600080fd5b505afa1580156200183a573d6000803e3d6000fd5b505050506040513d60208110156200185157600080fd5b505187620024e6565b8362002520565b6001600160a01b03808b166000908152600760209081526040918290205482516370a0823160e01b81528d851660048201529251949550620018ff949316926370a08231926024808201939291829003018186803b158015620018c357600080fd5b505afa158015620018d8573d6000803e3d6000fd5b505050506040513d6020811015620018ef57600080fd5b5051829063ffffffff6200212c16565b9998505050505050505050565b6001600160a01b0380841660009081526007602090815260408083205481516318160ddd60e01b81529151939485949116926318160ddd9260048082019391829003018186803b1580156200196057600080fd5b505afa15801562001975573d6000803e3d6000fd5b505050506040513d60208110156200198c57600080fd5b5051600654604080516370a0823160e01b81526001600160a01b038981166004830152915193945062001a389362001a319362001a2a9387939116916370a0823191602480820192602092909190829003018186803b158015620019ef57600080fd5b505afa15801562001a04573d6000803e3d6000fd5b505050506040513d602081101562001a1b57600080fd5b50519063ffffffff6200212c16565b8562002520565b82620024e6565b95945050505050565b60008282018381101562001a9c576040805162461bcd60e51b815260206004820152601b60248201527f536166654d6174683a206164646974696f6e206f766572666c6f770000000000604482015290519081900360640190fd5b9392505050565b6000600a5443141562001ab95750600062000eb6565b600660009054906101000a90046001600160a01b03166001600160a01b03166318160ddd6040518163ffffffff1660e01b815260040160206040518083038186803b15801562001b0857600080fd5b505afa15801562001b1d573d6000803e3d6000fd5b505050506040513d602081101562001b3457600080fd5b505162001b48575043600a55600062000eb6565b600080600660009054906101000a90046001600160a01b03166001600160a01b03166318160ddd6040518163ffffffff1660e01b815260040160206040518083038186803b15801562001b9a57600080fd5b505afa15801562001baf573d6000803e3d6000fd5b505050506040513d602081101562001bc657600080fd5b505160095490925060009062001bed9062001be062002554565b9063ffffffff6200259316565b9050600062001ed162001c7d83600660009054906101000a90046001600160a01b03166001600160a01b03166318160ddd6040518163ffffffff1660e01b815260040160206040518083038186803b15801562001c4957600080fd5b505afa15801562001c5e573d6000803e3d6000fd5b505050506040513d602081101562001c7557600080fd5b505162002520565b600554604080516318160ddd60e01b8152905162001ecb926001600160a01b0316916318160ddd916004808301926020929190829003018186803b15801562001cc557600080fd5b505afa15801562001cda573d6000803e3d6000fd5b505050506040513d602081101562001cf157600080fd5b5051600654604080516318160ddd60e01b8152905162001ebe926001600160a01b0316916318160ddd916004808301926020929190829003018186803b15801562001d3b57600080fd5b505afa15801562001d50573d6000803e3d6000fd5b505050506040513d602081101562001d6757600080fd5b5051600554604080516318160ddd60e01b8152905162001eb1926001600160a01b0316916318160ddd916004808301926020929190829003018186803b15801562001db157600080fd5b505afa15801562001dc6573d6000803e3d6000fd5b505050506040513d602081101562001ddd57600080fd5b505160048054600554604080516370a0823160e01b81526001600160a01b03928316948101949094525162001eb193633b9aca009362001be09316916370a0823191602480820192602092909190829003018186803b15801562001e4057600080fd5b505afa15801562001e55573d6000803e3d6000fd5b505050506040513d602081101562001e6c57600080fd5b505160048054604080516318160ddd60e01b815290516001600160a01b03909216926318160ddd928282019260209290829003018186803b158015620019ef57600080fd5b9063ffffffff62001a4116565b9063ffffffff6200212c16565b620024e6565b905062001ee5848263ffffffff62001a4116565b43600a5560065460408051630a9ee07f60e31b815290519295506001600160a01b039091169163817e9d319162001f42918891889186916354f703f8916004808301926020929190829003018186803b15801562000a6157600080fd5b6040518263ffffffff1660e01b815260040180828152602001915050602060405180830381600087803b15801562001f7957600080fd5b505af115801562001f8e573d6000803e3d6000fd5b505050506040513d602081101562001fa557600080fd5b5050600654604080516318160ddd60e01b815290517f41a79a497d1457df24c25ab99f22349ae9aef4468429f0a781216e8dcf80c628926001600160a01b0316916318160ddd916004808301926020929190829003018186803b1580156200200c57600080fd5b505afa15801562002021573d6000803e3d6000fd5b505050506040513d60208110156200203857600080fd5b5051600554604080516318160ddd60e01b8152905162002082926001600160a01b0316916318160ddd916004808301926020929190829003018186803b15801562001cc557600080fd5b60408051928352602083019190915281810187905260608201869052519081900360800190a16000620020bc838363ffffffff6200212c16565b60408051338152602081018690528082018590526060810183905290519192507f102448afe27c1b627a61d0fc9831a83d09698755a334a07b395eea45a3bb80f9919081900360800190a160019550505050505090565b600062000df962002125848462002520565b85620024e6565b600062001a9c83836040518060400160405280601e81526020017f536166654d6174683a207375627472616374696f6e206f766572666c6f770000815250620025f1565b3390565b6200218262000c9e62002170565b620021bf5760405162461bcd60e51b8152600401808060200182810382526030815260200180620046cf6030913960400191505060405180910390fd5b600154600160a01b900460ff1662002215576040805162461bcd60e51b815260206004820152601460248201527314185d5cd8589b194e881b9bdd081c185d5cd95960621b604482015290519081900360640190fd5b6001805460ff60a01b191690557f5db9ee0a495bf2e6ff9c91a7834c1ba4fdd244a5e8aa4e537bd38aeae4b073aa6200224d62002170565b604080516001600160a01b039092168252519081900360200190a1565b60006001600160a01b038216620022b35760405162461bcd60e51b8152600401808060200182810382526022815260200180620047b56022913960400191505060405180910390fd5b506001600160a01b03166000908152602091909152604090205460ff1690565b620022e660008263ffffffff6200268c16565b6040516001600160a01b038216907fcd265ebaf09df2871cc7bd4133404a235ba12eff2041bb89d9c714a2621c7c7e90600090a250565b6200233060008263ffffffff620026f716565b6040516001600160a01b038216907f6719d08c1888103bea251a4ed56406bd0c3e69723c8a1686e017e7bbe159b6f890600090a250565b6200237562000c9e62002170565b620023b25760405162461bcd60e51b8152600401808060200182810382526030815260200180620046cf6030913960400191505060405180910390fd5b600154600160a01b900460ff161562002405576040805162461bcd60e51b815260206004820152601060248201526f14185d5cd8589b194e881c185d5cd95960821b604482015290519081900360640190fd5b6001805460ff60a01b1916600160a01b1790557f62e78cea01bee320cd4e420270b5ea74000d11b0c9f74754ebdbfc544b05a2586200224d62002170565b6001600160a01b0381166200248a5760405162461bcd60e51b8152600401808060200182810382526026815260200180620046ff6026913960400191505060405180910390fd5b6001546040516001600160a01b038084169216907f8be0079c531659141344cd1fd0a4f28419497f9722a3daafe3b4186f6b6457e090600090a3600180546001600160a01b0319166001600160a01b0392909216919091179055565b6000816200251062002505856b033b2e3c9fd0803ce80000006200277b565b6002855b04620027e1565b816200251857fe5b049392505050565b60006b033b2e3c9fd0803ce8000000620025106200253f85856200277b565b60026b033b2e3c9fd0803ce800000062002509565b60006200256062000ea8565b156200256b57600080fd5b600a54600c54438290039111156200258557905062000eb6565b600b54600c54039003905090565b600082620025a457506000620015d5565b82820282848281620025b257fe5b041462001a9c5760405162461bcd60e51b8152600401808060200182810382526021815260200180620047746021913960400191505060405180910390fd5b60008184841115620026845760405162461bcd60e51b81526004018080602001828103825283818151815260200191508051906020019080838360005b83811015620026485781810151838201526020016200262e565b50505050905090810190601f168015620026765780820380516001836020036101000a031916815260200191505b509250505060405180910390fd5b505050900390565b6200269882826200226a565b620026d55760405162461bcd60e51b8152600401808060200182810382526021815260200180620047536021913960400191505060405180910390fd5b6001600160a01b0316600090815260209190915260409020805460ff19169055565b6200270382826200226a565b1562002756576040805162461bcd60e51b815260206004820152601f60248201527f526f6c65733a206163636f756e7420616c72656164792068617320726f6c6500604482015290519081900360640190fd5b6001600160a01b0316600090815260209190915260409020805460ff19166001179055565b600081158062002798575050808202828282816200279557fe5b04145b620015d5576040805162461bcd60e51b815260206004820152601460248201527364732d6d6174682d6d756c2d6f766572666c6f7760601b604482015290519081900360640190fd5b80820182811015620015d5576040805162461bcd60e51b815260206004820152601460248201527364732d6d6174682d6164642d6f766572666c6f7760601b604482015290519081900360640190fd5b611e8f80620028408339019056fe60806040523480156200001157600080fd5b5060405162001e8f38038062001e8f833981810160405260808110156200003757600080fd5b81019080805160405193929190846401000000008211156200005857600080fd5b9083019060208201858111156200006e57600080fd5b82516401000000008111828201881017156200008957600080fd5b82525081516020918201929091019080838360005b83811015620000b85781810151838201526020016200009e565b50505050905090810190601f168015620000e65780820380516001836020036101000a031916815260200191505b50604052602001805160405193929190846401000000008211156200010a57600080fd5b9083019060208201858111156200012057600080fd5b82516401000000008111828201881017156200013b57600080fd5b82525081516020918201929091019080838360005b838110156200016a57818101518382015260200162000150565b50505050905090810190601f168015620001985780820380516001836020036101000a031916815260200191505b50604090815260208201519101519092509050838383838383836000848484601b620001df620001d06001600160e01b03620002ad16565b6001600160e01b03620002b216565b620001f26001600160e01b03620002ad16565b600480546001600160a01b0319166001600160a01b0392831617908190556040519116906000907f8be0079c531659141344cd1fd0a4f28419497f9722a3daafe3b4186f6b6457e0908290a38251620002539060059060208601906200042e565b508151620002699060069060208501906200042e565b506007805460ff90921660ff19928316179055600b959095555050600c9190915543600d55600e80549115159190921617905550620004d098505050505050505050565b335b90565b620002cd8160036200030460201b6200148b1790919060201c565b6040516001600160a01b038216907f6ae172837ea30b801fbfcdd4108aa1d5bf8ff775444fd70256b44e6bf3dfc3f690600090a250565b6200031982826001600160e01b03620003ab16565b156200038657604080517f08c379a000000000000000000000000000000000000000000000000000000000815260206004820152601f60248201527f526f6c65733a206163636f756e7420616c72656164792068617320726f6c6500604482015290519081900360640190fd5b6001600160a01b0316600090815260209190915260409020805460ff19166001179055565b60006001600160a01b0382166200040e576040517f08c379a000000000000000000000000000000000000000000000000000000000815260040180806020018281038252602281526020018062001e6d6022913960400191505060405180910390fd5b506001600160a01b03166000908152602091909152604090205460ff1690565b828054600181600116156101000203166002900490600052602060002090601f016020900481019282601f106200047157805160ff1916838001178555620004a1565b82800160010185558215620004a1579182015b82811115620004a157825182559160200191906001019062000484565b50620004af929150620004b3565b5090565b620002af91905b80821115620004af5760008155600101620004ba565b61198d80620004e06000396000f3fe608060405234801561001057600080fd5b50600436106101a95760003560e01c8063817e9d31116100f9578063a9059cbb11610097578063d4132ee211610071578063d4132ee2146104bf578063dd62ed3e146104c7578063f2fde38b146104f5578063f41e60c51461051b576101a9565b8063a9059cbb14610465578063aa271e1a14610491578063bef97c87146104b7576101a9565b806395d89b41116100d357806395d89b4114610403578063983b2d561461040b5780639865027514610431578063a457c2d714610439576101a9565b8063817e9d31146103ba5780638da5cb5b146103d75780638f32d59b146103fb576101a9565b806340c10f191161016657806370a082311161014057806370a0823114610358578063715018a61461037e57806379cc679014610386578063806b984f146103b2576101a9565b806340c10f191461030557806342966c681461033157806354f703f814610350576101a9565b806306fdde03146101ae578063095ea7b31461022b57806318160ddd1461026b57806323b872dd14610285578063313ce567146102bb57806339509351146102d9575b600080fd5b6101b661053a565b6040805160208082528351818301528351919283929083019185019080838360005b838110156101f05781810151838201526020016101d8565b50505050905090810190601f16801561021d5780820380516001836020036101000a031916815260200191505b509250505060405180910390f35b6102576004803603604081101561024157600080fd5b506001600160a01b0381351690602001356105d0565b604080519115158252519081900360200190f35b6102736105ee565b60408051918252519081900360200190f35b6102576004803603606081101561029b57600080fd5b506001600160a01b03813581169160208101359091169060400135610600565b6102c36106f1565b6040805160ff9092168252519081900360200190f35b610257600480360360408110156102ef57600080fd5b506001600160a01b0381351690602001356106fa565b6102576004803603604081101561031b57600080fd5b506001600160a01b03813516906020013561074e565b61034e6004803603602081101561034757600080fd5b50356107a5565b005b6102736107b9565b6102736004803603602081101561036e57600080fd5b50356001600160a01b03166107bf565b61034e6107e9565b61034e6004803603604081101561039c57600080fd5b506001600160a01b03813516906020013561087a565b610273610888565b610257600480360360208110156103d057600080fd5b503561088e565b6103df610920565b604080516001600160a01b039092168252519081900360200190f35b61025761092f565b6101b6610955565b61034e6004803603602081101561042157600080fd5b50356001600160a01b03166109b6565b61034e610a05565b6102576004803603604081101561044f57600080fd5b506001600160a01b038135169060200135610a17565b6102576004803603604081101561047b57600080fd5b506001600160a01b038135169060200135610a85565b610257600480360360208110156104a757600080fd5b50356001600160a01b0316610afd565b610257610b10565b610273610b19565b610273600480360360408110156104dd57600080fd5b506001600160a01b0381358116916020013516610b1f565b61034e6004803603602081101561050b57600080fd5b50356001600160a01b0316610b4a565b61034e6004803603602081101561053157600080fd5b50351515610b9a565b60058054604080516020601f60026000196101006001881615020190951694909404938401819004810282018101909252828152606093909290918301828280156105c65780601f1061059b576101008083540402835291602001916105c6565b820191906000526020600020905b8154815290600101906020018083116105a957829003601f168201915b5050505050905090565b60006105e46105dd610bf4565b8484610bf8565b5060015b92915050565b60006105fb600a54610cec565b905090565b600061060a610920565b6001600160a01b0316336001600160a01b0316148061062b5750600e5460ff165b6106665760405162461bcd60e51b815260040180806020018281038252602a815260200180611864602a913960400191505060405180910390fd5b610671848484610d32565b6106e78461067d610bf4565b6106e2856040518060600160405280603781526020016118be603791396001600160a01b038a166000908152600960205260408120906106bb610bf4565b6001600160a01b03168152602081019190915260400160002054919063ffffffff610ea916565b610bf8565b5060019392505050565b60075460ff1690565b60006105e4610707610bf4565b846106e28560096000610718610bf4565b6001600160a01b03908116825260208083019390935260409182016000908120918c16815292529020549063ffffffff610f4016565b600061076061075b610bf4565b610afd565b61079b5760405162461bcd60e51b815260040180806020018281038252603081526020018061173c6030913960400191505060405180910390fd5b6105e48383610f9a565b6107b66107b0610bf4565b82611091565b50565b600b5490565b6001600160a01b0381166000908152600860205260408120546107e190610cec565b90505b919050565b6107f161092f565b610830576040805162461bcd60e51b815260206004820181905260248201526000805160206117bb833981519152604482015290519081900360640190fd5b6004546040516000916001600160a01b0316907f8be0079c531659141344cd1fd0a4f28419497f9722a3daafe3b4186f6b6457e0908390a3600480546001600160a01b0319169055565b6108848282611193565b5050565b600d5490565b600061089861092f565b6108d7576040805162461bcd60e51b815260206004820181905260248201526000805160206117bb833981519152604482015290519081900360640190fd5b600b805490839055604080518281526020810185905281517fafc9085bb15d79bc1e9d87807e2fc5f4c2b631088cb3e38c86cb627c12a0e430929181900390910190a150919050565b6004546001600160a01b031690565b6004546000906001600160a01b0316610946610bf4565b6001600160a01b031614905090565b60068054604080516020601f60026000196101006001881615020190951694909404938401819004810282018101909252828152606093909290918301828280156105c65780601f1061059b576101008083540402835291602001916105c6565b6109c161075b610bf4565b6109fc5760405162461bcd60e51b815260040180806020018281038252603081526020018061173c6030913960400191505060405180910390fd5b6107b6816111fb565b610a15610a10610bf4565b611243565b565b60006105e4610a24610bf4565b846106e2856040518060600160405280603481526020016116706034913960096000610a4e610bf4565b6001600160a01b03908116825260208083019390935260409182016000908120918d1681529252902054919063ffffffff610ea916565b6000610a8f610920565b6001600160a01b0316336001600160a01b03161480610ab05750600e5460ff165b610aeb5760405162461bcd60e51b815260040180806020018281038252602a815260200180611864602a913960400191505060405180910390fd5b6105e4610af6610bf4565b8484610d32565b60006107e160038363ffffffff61128b16565b600e5460ff1690565b600c5490565b6001600160a01b03918216600090815260096020908152604080832093909416825291909152205490565b610b5261092f565b610b91576040805162461bcd60e51b815260206004820181905260248201526000805160206117bb833981519152604482015290519081900360640190fd5b6107b6816112f2565b610ba261092f565b610be1576040805162461bcd60e51b815260206004820181905260248201526000805160206117bb833981519152604482015290519081900360640190fd5b600e805460ff1916911515919091179055565b3390565b610c00611393565b6001600160a01b038316610c455760405162461bcd60e51b81526004018080602001828103825260338152602001806116d86033913960400191505060405180910390fd5b6001600160a01b038216610c8a5760405162461bcd60e51b815260040180806020018281038252603181526020018061170b6031913960400191505060405180910390fd5b6001600160a01b03808416600081815260096020908152604080832094871680845294825291829020859055815185815291517f8c5be1e5ebec7d5bd14f71427d1e84f3dd0314c0f7b2291e5b200ac8c7c3b9259281900390910190a3505050565b600081610cfb575060006107e4565b600d54430380610d1957610d1183600b546113e5565b9150506107e4565b610d2b83610d2683611426565b6113e5565b9392505050565b610d3a611393565b6001600160a01b038316610d7f5760405162461bcd60e51b81526004018080602001828103825260348152602001806116a46034913960400191505060405180910390fd5b6001600160a01b038216610dc45760405162461bcd60e51b81526004018080602001828103825260328152602001806117fd6032913960400191505060405180910390fd5b6000610dcf8261142d565b9050610e148160405180606001604052806035815260200161182f603591396001600160a01b038716600090815260086020526040902054919063ffffffff610ea916565b6001600160a01b038086166000908152600860205260408082209390935590851681522054610e49908263ffffffff610f4016565b6001600160a01b0380851660008181526008602052604090209290925585167fddf252ad1be2c89b69c2b068fc378daa952ba7f163c4a11628f55a4df523b3ef610e928461143b565b60408051918252519081900360200190a350505050565b60008184841115610f385760405162461bcd60e51b81526004018080602001828103825283818151815260200191508051906020019080838360005b83811015610efd578181015183820152602001610ee5565b50505050905090810190601f168015610f2a5780820380516001836020036101000a031916815260200191505b509250505060405180910390fd5b505050900390565b600082820183811015610d2b576040805162461bcd60e51b815260206004820152601b60248201527f536166654d6174683a206164646974696f6e206f766572666c6f770000000000604482015290519081900360640190fd5b610fa2611393565b6001600160a01b038216610fe75760405162461bcd60e51b815260040180806020018281038252602e81526020018061178d602e913960400191505060405180910390fd5b6000610ff28261142d565b600a54909150611008908263ffffffff610f4016565b600a556001600160a01b038316600090815260086020526040902054611034908263ffffffff610f4016565b6001600160a01b038416600081815260086020526040812092909255907fddf252ad1be2c89b69c2b068fc378daa952ba7f163c4a11628f55a4df523b3ef61107b8461143b565b60408051918252519081900360200190a3505050565b611099611393565b6001600160a01b0382166110de5760405162461bcd60e51b815260040180806020018281038252603081526020018061188e6030913960400191505060405180910390fd5b60006110e98261142d565b905061112e816040518060600160405280603181526020016118f5603191396001600160a01b038616600090815260086020526040902054919063ffffffff610ea916565b6001600160a01b038416600090815260086020526040902055600a5461115a908263ffffffff61144916565b600a5560006001600160a01b0384167fddf252ad1be2c89b69c2b068fc378daa952ba7f163c4a11628f55a4df523b3ef61107b8461143b565b61119b611393565b6111a58282611091565b6111ad61092f565b61088457610884826111bd610bf4565b6106e284604051806060016040528060338152602001611926603391396001600160a01b0388166000908152600960205260408120906106bb610bf4565b61120c60038263ffffffff61148b16565b6040516001600160a01b038216907f6ae172837ea30b801fbfcdd4108aa1d5bf8ff775444fd70256b44e6bf3dfc3f690600090a250565b61125460038263ffffffff61150c16565b6040516001600160a01b038216907fe94479a9f7e1952cc78f2d6baab678adc1b772d936c6583def489e524cb6669290600090a250565b60006001600160a01b0382166112d25760405162461bcd60e51b81526004018080602001828103825260228152602001806117db6022913960400191505060405180910390fd5b506001600160a01b03166000908152602091909152604090205460ff1690565b6001600160a01b0381166113375760405162461bcd60e51b815260040180806020018281038252602681526020018061164a6026913960400191505060405180910390fd5b6004546040516001600160a01b038084169216907f8be0079c531659141344cd1fd0a4f28419497f9722a3daafe3b4186f6b6457e090600090a3600480546001600160a01b0319166001600160a01b0392909216919091179055565b600d54430380156107b6576113a781611426565b600b81905543600d5560408051918252517fe26ee4870433319e6f01f123f37f6f6823ff4084f5651912025d24930b01bcb69181900360200190a150565b60006b033b2e3c9fd0803ce80000006114176114018585611573565b60026b033b2e3c9fd0803ce80000005b046115d6565b8161141e57fe5b049392505050565b50600b5490565b60006107e182600b54611625565b60006107e182600b546113e5565b6000610d2b83836040518060400160405280601e81526020017f536166654d6174683a207375627472616374696f6e206f766572666c6f770000815250610ea9565b611495828261128b565b156114e7576040805162461bcd60e51b815260206004820152601f60248201527f526f6c65733a206163636f756e7420616c72656164792068617320726f6c6500604482015290519081900360640190fd5b6001600160a01b0316600090815260209190915260409020805460ff19166001179055565b611516828261128b565b6115515760405162461bcd60e51b815260040180806020018281038252602181526020018061176c6021913960400191505060405180910390fd5b6001600160a01b0316600090815260209190915260409020805460ff19169055565b600081158061158e5750508082028282828161158b57fe5b04145b6105e8576040805162461bcd60e51b815260206004820152601460248201527364732d6d6174682d6d756c2d6f766572666c6f7760601b604482015290519081900360640190fd5b808201828110156105e8576040805162461bcd60e51b815260206004820152601460248201527364732d6d6174682d6164642d6f766572666c6f7760601b604482015290519081900360640190fd5b600081611417611641856b033b2e3c9fd0803ce8000000611573565b60028561141156fe4f776e61626c653a206e6577206f776e657220697320746865207a65726f20616464726573734175746f496e6372656d656e74436f696e6167653a2064656372656173656420616c6c6f77616e63652062656c6f77207a65726f4175746f496e6372656d656e74436f696e6167653a207472616e736665722066726f6d20746865207a65726f20616464726573734175746f496e6372656d656e74436f696e6167653a20617070726f76652066726f6d20746865207a65726f20616464726573734175746f496e6372656d656e74436f696e6167653a20617070726f766520746f20746865207a65726f20616464726573734d696e746572526f6c653a2063616c6c657220646f6573206e6f74206861766520746865204d696e74657220726f6c65526f6c65733a206163636f756e7420646f6573206e6f74206861766520726f6c654175746f496e6372656d656e74436f696e6167653a206d696e7420746f20746865207a65726f20616464726573734f776e61626c653a2063616c6c6572206973206e6f7420746865206f776e6572526f6c65733a206163636f756e7420697320746865207a65726f20616464726573734175746f496e6372656d656e74436f696e6167653a207472616e7366657220746f20746865207a65726f20616464726573734175746f496e6372656d656e74436f696e6167653a207472616e7366657220616d6f756e7420657863656564732062616c616e63654175746f496e6372656d656e74436f696e6167653a207472616e73666572206e6f7420616c6c6f7765644175746f496e6372656d656e74436f696e6167653a206275726e2066726f6d20746865207a65726f20616464726573734175746f496e6372656d656e74436f696e6167653a207472616e7366657220616d6f756e74206578636565647320616c6c6f77616e63654175746f496e6372656d656e74436f696e6167653a206275726e20616d6f756e7420657863656564732062616c616e63654175746f496e6372656d656e74436f696e6167653a206275726e20616d6f756e74206578636565647320616c6c6f77616e6365a265627a7a72315820172e9c3e99dac2617f24773c4478e103f9b953c4014e656b3b091d211fc8614d64736f6c634300050c0032526f6c65733a206163636f756e7420697320746865207a65726f2061646472657373506175736572526f6c653a2063616c6c657220646f6573206e6f742068617665207468652050617573657220726f6c654f776e61626c653a206e6577206f776e657220697320746865207a65726f2061646472657373536569674d616e616765723a20636f696e61676520686173206e6f74206265656e206465706c6f79656420796574526f6c65733a206163636f756e7420646f6573206e6f74206861766520726f6c65536166654d6174683a206d756c7469706c69636174696f6e206f766572666c6f774f776e61626c653a2063616c6c6572206973206e6f7420746865206f776e6572526f6c65733a206163636f756e7420697320746865207a65726f2061646472657373536569674d616e616765723a206f6e6c7920544f4e206f722057544f4e2063616e2063616c6c206f6e5472616e73666572536569674d616e616765723a20696e73756666696369616e742062616c616e636520746f20756e7374616b65a265627a7a723158203001a9b791aad40f49dd73494ab8efebb79d394d088b6869b35049d7d199139064736f6c634300050c003260806040523480156200001157600080fd5b5060405162001e8f38038062001e8f833981810160405260808110156200003757600080fd5b81019080805160405193929190846401000000008211156200005857600080fd5b9083019060208201858111156200006e57600080fd5b82516401000000008111828201881017156200008957600080fd5b82525081516020918201929091019080838360005b83811015620000b85781810151838201526020016200009e565b50505050905090810190601f168015620000e65780820380516001836020036101000a031916815260200191505b50604052602001805160405193929190846401000000008211156200010a57600080fd5b9083019060208201858111156200012057600080fd5b82516401000000008111828201881017156200013b57600080fd5b82525081516020918201929091019080838360005b838110156200016a57818101518382015260200162000150565b50505050905090810190601f168015620001985780820380516001836020036101000a031916815260200191505b50604090815260208201519101519092509050838383838383836000848484601b620001df620001d06001600160e01b03620002ad16565b6001600160e01b03620002b216565b620001f26001600160e01b03620002ad16565b600480546001600160a01b0319166001600160a01b0392831617908190556040519116906000907f8be0079c531659141344cd1fd0a4f28419497f9722a3daafe3b4186f6b6457e0908290a38251620002539060059060208601906200042e565b508151620002699060069060208501906200042e565b506007805460ff90921660ff19928316179055600b959095555050600c9190915543600d55600e80549115159190921617905550620004d098505050505050505050565b335b90565b620002cd8160036200030460201b6200148b1790919060201c565b6040516001600160a01b038216907f6ae172837ea30b801fbfcdd4108aa1d5bf8ff775444fd70256b44e6bf3dfc3f690600090a250565b6200031982826001600160e01b03620003ab16565b156200038657604080517f08c379a000000000000000000000000000000000000000000000000000000000815260206004820152601f60248201527f526f6c65733a206163636f756e7420616c72656164792068617320726f6c6500604482015290519081900360640190fd5b6001600160a01b0316600090815260209190915260409020805460ff19166001179055565b60006001600160a01b0382166200040e576040517f08c379a000000000000000000000000000000000000000000000000000000000815260040180806020018281038252602281526020018062001e6d6022913960400191505060405180910390fd5b506001600160a01b03166000908152602091909152604090205460ff1690565b828054600181600116156101000203166002900490600052602060002090601f016020900481019282601f106200047157805160ff1916838001178555620004a1565b82800160010185558215620004a1579182015b82811115620004a157825182559160200191906001019062000484565b50620004af929150620004b3565b5090565b620002af91905b80821115620004af5760008155600101620004ba565b61198d80620004e06000396000f3fe608060405234801561001057600080fd5b50600436106101a95760003560e01c8063817e9d31116100f9578063a9059cbb11610097578063d4132ee211610071578063d4132ee2146104bf578063dd62ed3e146104c7578063f2fde38b146104f5578063f41e60c51461051b576101a9565b8063a9059cbb14610465578063aa271e1a14610491578063bef97c87146104b7576101a9565b806395d89b41116100d357806395d89b4114610403578063983b2d561461040b5780639865027514610431578063a457c2d714610439576101a9565b8063817e9d31146103ba5780638da5cb5b146103d75780638f32d59b146103fb576101a9565b806340c10f191161016657806370a082311161014057806370a0823114610358578063715018a61461037e57806379cc679014610386578063806b984f146103b2576101a9565b806340c10f191461030557806342966c681461033157806354f703f814610350576101a9565b806306fdde03146101ae578063095ea7b31461022b57806318160ddd1461026b57806323b872dd14610285578063313ce567146102bb57806339509351146102d9575b600080fd5b6101b661053a565b6040805160208082528351818301528351919283929083019185019080838360005b838110156101f05781810151838201526020016101d8565b50505050905090810190601f16801561021d5780820380516001836020036101000a031916815260200191505b509250505060405180910390f35b6102576004803603604081101561024157600080fd5b506001600160a01b0381351690602001356105d0565b604080519115158252519081900360200190f35b6102736105ee565b60408051918252519081900360200190f35b6102576004803603606081101561029b57600080fd5b506001600160a01b03813581169160208101359091169060400135610600565b6102c36106f1565b6040805160ff9092168252519081900360200190f35b610257600480360360408110156102ef57600080fd5b506001600160a01b0381351690602001356106fa565b6102576004803603604081101561031b57600080fd5b506001600160a01b03813516906020013561074e565b61034e6004803603602081101561034757600080fd5b50356107a5565b005b6102736107b9565b6102736004803603602081101561036e57600080fd5b50356001600160a01b03166107bf565b61034e6107e9565b61034e6004803603604081101561039c57600080fd5b506001600160a01b03813516906020013561087a565b610273610888565b610257600480360360208110156103d057600080fd5b503561088e565b6103df610920565b604080516001600160a01b039092168252519081900360200190f35b61025761092f565b6101b6610955565b61034e6004803603602081101561042157600080fd5b50356001600160a01b03166109b6565b61034e610a05565b6102576004803603604081101561044f57600080fd5b506001600160a01b038135169060200135610a17565b6102576004803603604081101561047b57600080fd5b506001600160a01b038135169060200135610a85565b610257600480360360208110156104a757600080fd5b50356001600160a01b0316610afd565b610257610b10565b610273610b19565b610273600480360360408110156104dd57600080fd5b506001600160a01b0381358116916020013516610b1f565b61034e6004803603602081101561050b57600080fd5b50356001600160a01b0316610b4a565b61034e6004803603602081101561053157600080fd5b50351515610b9a565b60058054604080516020601f60026000196101006001881615020190951694909404938401819004810282018101909252828152606093909290918301828280156105c65780601f1061059b576101008083540402835291602001916105c6565b820191906000526020600020905b8154815290600101906020018083116105a957829003601f168201915b5050505050905090565b60006105e46105dd610bf4565b8484610bf8565b5060015b92915050565b60006105fb600a54610cec565b905090565b600061060a610920565b6001600160a01b0316336001600160a01b0316148061062b5750600e5460ff165b6106665760405162461bcd60e51b815260040180806020018281038252602a815260200180611864602a913960400191505060405180910390fd5b610671848484610d32565b6106e78461067d610bf4565b6106e2856040518060600160405280603781526020016118be603791396001600160a01b038a166000908152600960205260408120906106bb610bf4565b6001600160a01b03168152602081019190915260400160002054919063ffffffff610ea916565b610bf8565b5060019392505050565b60075460ff1690565b60006105e4610707610bf4565b846106e28560096000610718610bf4565b6001600160a01b03908116825260208083019390935260409182016000908120918c16815292529020549063ffffffff610f4016565b600061076061075b610bf4565b610afd565b61079b5760405162461bcd60e51b815260040180806020018281038252603081526020018061173c6030913960400191505060405180910390fd5b6105e48383610f9a565b6107b66107b0610bf4565b82611091565b50565b600b5490565b6001600160a01b0381166000908152600860205260408120546107e190610cec565b90505b919050565b6107f161092f565b610830576040805162461bcd60e51b815260206004820181905260248201526000805160206117bb833981519152604482015290519081900360640190fd5b6004546040516000916001600160a01b0316907f8be0079c531659141344cd1fd0a4f28419497f9722a3daafe3b4186f6b6457e0908390a3600480546001600160a01b0319169055565b6108848282611193565b5050565b600d5490565b600061089861092f565b6108d7576040805162461bcd60e51b815260206004820181905260248201526000805160206117bb833981519152604482015290519081900360640190fd5b600b805490839055604080518281526020810185905281517fafc9085bb15d79bc1e9d87807e2fc5f4c2b631088cb3e38c86cb627c12a0e430929181900390910190a150919050565b6004546001600160a01b031690565b6004546000906001600160a01b0316610946610bf4565b6001600160a01b031614905090565b60068054604080516020601f60026000196101006001881615020190951694909404938401819004810282018101909252828152606093909290918301828280156105c65780601f1061059b576101008083540402835291602001916105c6565b6109c161075b610bf4565b6109fc5760405162461bcd60e51b815260040180806020018281038252603081526020018061173c6030913960400191505060405180910390fd5b6107b6816111fb565b610a15610a10610bf4565b611243565b565b60006105e4610a24610bf4565b846106e2856040518060600160405280603481526020016116706034913960096000610a4e610bf4565b6001600160a01b03908116825260208083019390935260409182016000908120918d1681529252902054919063ffffffff610ea916565b6000610a8f610920565b6001600160a01b0316336001600160a01b03161480610ab05750600e5460ff165b610aeb5760405162461bcd60e51b815260040180806020018281038252602a815260200180611864602a913960400191505060405180910390fd5b6105e4610af6610bf4565b8484610d32565b60006107e160038363ffffffff61128b16565b600e5460ff1690565b600c5490565b6001600160a01b03918216600090815260096020908152604080832093909416825291909152205490565b610b5261092f565b610b91576040805162461bcd60e51b815260206004820181905260248201526000805160206117bb833981519152604482015290519081900360640190fd5b6107b6816112f2565b610ba261092f565b610be1576040805162461bcd60e51b815260206004820181905260248201526000805160206117bb833981519152604482015290519081900360640190fd5b600e805460ff1916911515919091179055565b3390565b610c00611393565b6001600160a01b038316610c455760405162461bcd60e51b81526004018080602001828103825260338152602001806116d86033913960400191505060405180910390fd5b6001600160a01b038216610c8a5760405162461bcd60e51b815260040180806020018281038252603181526020018061170b6031913960400191505060405180910390fd5b6001600160a01b03808416600081815260096020908152604080832094871680845294825291829020859055815185815291517f8c5be1e5ebec7d5bd14f71427d1e84f3dd0314c0f7b2291e5b200ac8c7c3b9259281900390910190a3505050565b600081610cfb575060006107e4565b600d54430380610d1957610d1183600b546113e5565b9150506107e4565b610d2b83610d2683611426565b6113e5565b9392505050565b610d3a611393565b6001600160a01b038316610d7f5760405162461bcd60e51b81526004018080602001828103825260348152602001806116a46034913960400191505060405180910390fd5b6001600160a01b038216610dc45760405162461bcd60e51b81526004018080602001828103825260328152602001806117fd6032913960400191505060405180910390fd5b6000610dcf8261142d565b9050610e148160405180606001604052806035815260200161182f603591396001600160a01b038716600090815260086020526040902054919063ffffffff610ea916565b6001600160a01b038086166000908152600860205260408082209390935590851681522054610e49908263ffffffff610f4016565b6001600160a01b0380851660008181526008602052604090209290925585167fddf252ad1be2c89b69c2b068fc378daa952ba7f163c4a11628f55a4df523b3ef610e928461143b565b60408051918252519081900360200190a350505050565b60008184841115610f385760405162461bcd60e51b81526004018080602001828103825283818151815260200191508051906020019080838360005b83811015610efd578181015183820152602001610ee5565b50505050905090810190601f168015610f2a5780820380516001836020036101000a031916815260200191505b509250505060405180910390fd5b505050900390565b600082820183811015610d2b576040805162461bcd60e51b815260206004820152601b60248201527f536166654d6174683a206164646974696f6e206f766572666c6f770000000000604482015290519081900360640190fd5b610fa2611393565b6001600160a01b038216610fe75760405162461bcd60e51b815260040180806020018281038252602e81526020018061178d602e913960400191505060405180910390fd5b6000610ff28261142d565b600a54909150611008908263ffffffff610f4016565b600a556001600160a01b038316600090815260086020526040902054611034908263ffffffff610f4016565b6001600160a01b038416600081815260086020526040812092909255907fddf252ad1be2c89b69c2b068fc378daa952ba7f163c4a11628f55a4df523b3ef61107b8461143b565b60408051918252519081900360200190a3505050565b611099611393565b6001600160a01b0382166110de5760405162461bcd60e51b815260040180806020018281038252603081526020018061188e6030913960400191505060405180910390fd5b60006110e98261142d565b905061112e816040518060600160405280603181526020016118f5603191396001600160a01b038616600090815260086020526040902054919063ffffffff610ea916565b6001600160a01b038416600090815260086020526040902055600a5461115a908263ffffffff61144916565b600a5560006001600160a01b0384167fddf252ad1be2c89b69c2b068fc378daa952ba7f163c4a11628f55a4df523b3ef61107b8461143b565b61119b611393565b6111a58282611091565b6111ad61092f565b61088457610884826111bd610bf4565b6106e284604051806060016040528060338152602001611926603391396001600160a01b0388166000908152600960205260408120906106bb610bf4565b61120c60038263ffffffff61148b16565b6040516001600160a01b038216907f6ae172837ea30b801fbfcdd4108aa1d5bf8ff775444fd70256b44e6bf3dfc3f690600090a250565b61125460038263ffffffff61150c16565b6040516001600160a01b038216907fe94479a9f7e1952cc78f2d6baab678adc1b772d936c6583def489e524cb6669290600090a250565b60006001600160a01b0382166112d25760405162461bcd60e51b81526004018080602001828103825260228152602001806117db6022913960400191505060405180910390fd5b506001600160a01b03166000908152602091909152604090205460ff1690565b6001600160a01b0381166113375760405162461bcd60e51b815260040180806020018281038252602681526020018061164a6026913960400191505060405180910390fd5b6004546040516001600160a01b038084169216907f8be0079c531659141344cd1fd0a4f28419497f9722a3daafe3b4186f6b6457e090600090a3600480546001600160a01b0319166001600160a01b0392909216919091179055565b600d54430380156107b6576113a781611426565b600b81905543600d5560408051918252517fe26ee4870433319e6f01f123f37f6f6823ff4084f5651912025d24930b01bcb69181900360200190a150565b60006b033b2e3c9fd0803ce80000006114176114018585611573565b60026b033b2e3c9fd0803ce80000005b046115d6565b8161141e57fe5b049392505050565b50600b5490565b60006107e182600b54611625565b60006107e182600b546113e5565b6000610d2b83836040518060400160405280601e81526020017f536166654d6174683a207375627472616374696f6e206f766572666c6f770000815250610ea9565b611495828261128b565b156114e7576040805162461bcd60e51b815260206004820152601f60248201527f526f6c65733a206163636f756e7420616c72656164792068617320726f6c6500604482015290519081900360640190fd5b6001600160a01b0316600090815260209190915260409020805460ff19166001179055565b611516828261128b565b6115515760405162461bcd60e51b815260040180806020018281038252602181526020018061176c6021913960400191505060405180910390fd5b6001600160a01b0316600090815260209190915260409020805460ff19169055565b600081158061158e5750508082028282828161158b57fe5b04145b6105e8576040805162461bcd60e51b815260206004820152601460248201527364732d6d6174682d6d756c2d6f766572666c6f7760601b604482015290519081900360640190fd5b808201828110156105e8576040805162461bcd60e51b815260206004820152601460248201527364732d6d6174682d6164642d6f766572666c6f7760601b604482015290519081900360640190fd5b600081611417611641856b033b2e3c9fd0803ce8000000611573565b60028561141156fe4f776e61626c653a206e6577206f776e657220697320746865207a65726f20616464726573734175746f496e6372656d656e74436f696e6167653a2064656372656173656420616c6c6f77616e63652062656c6f77207a65726f4175746f496e6372656d656e74436f696e6167653a207472616e736665722066726f6d20746865207a65726f20616464726573734175746f496e6372656d656e74436f696e6167653a20617070726f76652066726f6d20746865207a65726f20616464726573734175746f496e6372656d656e74436f696e6167653a20617070726f766520746f20746865207a65726f20616464726573734d696e746572526f6c653a2063616c6c657220646f6573206e6f74206861766520746865204d696e74657220726f6c65526f6c65733a206163636f756e7420646f6573206e6f74206861766520726f6c654175746f496e6372656d656e74436f696e6167653a206d696e7420746f20746865207a65726f20616464726573734f776e61626c653a2063616c6c6572206973206e6f7420746865206f776e6572526f6c65733a206163636f756e7420697320746865207a65726f20616464726573734175746f496e6372656d656e74436f696e6167653a207472616e7366657220746f20746865207a65726f20616464726573734175746f496e6372656d656e74436f696e6167653a207472616e7366657220616d6f756e7420657863656564732062616c616e63654175746f496e6372656d656e74436f696e6167653a207472616e73666572206e6f7420616c6c6f7765644175746f496e6372656d656e74436f696e6167653a206275726e2066726f6d20746865207a65726f20616464726573734175746f496e6372656d656e74436f696e6167653a207472616e7366657220616d6f756e74206578636565647320616c6c6f77616e63654175746f496e6372656d656e74436f696e6167653a206275726e20616d6f756e7420657863656564732062616c616e63654175746f496e6372656d656e74436f696e6167653a206275726e20616d6f756e74206578636565647320616c6c6f77616e6365a265627a7a72315820172e9c3e99dac2617f24773c4478e103f9b953c4014e656b3b091d211fc8614d64736f6c634300050c0032526f6c65733a206163636f756e7420697320746865207a65726f2061646472657373526f6c65733a206163636f756e7420697320746865207a65726f2061646472657373",
  "source": "pragma solidity ^0.5.12;\n\nimport { Ownable } from \"../../../node_modules/openzeppelin-solidity/contracts/ownership/Ownable.sol\";\nimport { Pausable } from \"../../../node_modules/openzeppelin-solidity/contracts/lifecycle/Pausable.sol\";\nimport { SafeMath } from \"../../../node_modules/openzeppelin-solidity/contracts/math/SafeMath.sol\";\nimport { ERC20Mintable } from \"../../../node_modules/openzeppelin-solidity/contracts/token/ERC20/ERC20Mintable.sol\";\nimport { IERC20 } from \"../../../node_modules/openzeppelin-solidity/contracts/token/ERC20/IERC20.sol\";\nimport { SafeERC20 } from \"../../../node_modules/openzeppelin-solidity/contracts/token/ERC20/SafeERC20.sol\";\n\nimport { DSMath } from \"../../../node_modules/coinage-token/contracts/lib/DSMath.sol\";\nimport { CustomIncrementCoinageMock as CustomIncrementCoinage } from \"../../../node_modules/coinage-token/flatten.sol\";\n\nimport { AuthController } from \"../tokens/AuthController.sol\";\n\nimport { RootChainI } from \"../../RootChainI.sol\";\n\nimport { SeigManagerI } from \"../interfaces/SeigManagerI.sol\";\nimport { RootChainRegistryI } from \"../interfaces/RootChainRegistryI.sol\";\nimport { DepositManagerI } from \"../interfaces/DepositManagerI.sol\";\n\n\n\n/**\n * @dev SeigManager gives seigniorage to operator and WTON holders.\n * For each commit by operator, operator (or user) will get seigniorage\n * in propotion to the staked (or delegated) amount of WTON.\n *\n * [Tokens]\n * - {tot} tracks total staked or delegated WTON of each RootChain contract (and depositor?).\n * - {coinages[rootchain]} tracks staked or delegated WTON of user or operator to a RootChain contract.\n *\n * For each commit by operator,\n *  1. increases all root chains' balance of {tot} by (the staked amount of WTON) /\n *     (total supply of TON and WTON) * (num blocks * seigniorage per block).\n *  2. increases all depositors' blanace of {coinages[rootchain]} in proportion to the staked amount of WTON,\n *     up to the increased amount in step (1).\n *  3. set the root chain's balance of {committed} as the root chain's {tot} balance.\n *\n * For each stake or delegate with amount of {v} to a RootChain,\n *  1. mint {v} {coinages[rootchain]} tokens to the account\n *  2. mint {v} {tot} tokens to the root chain contract\n *\n * For each unstake or undelegate (or get rewards) with amount of {v} to a RootChain,\n *  1. burn {v} {coinages[rootchain]} tokens from the account\n *  2. burn {v + } {tot} tokens from the root chain contract,\n *   where  = SEIGS * staked ratio of the root chian * withdrawal ratio of the account\n *     - SEIGS                              = tot total supply - tot total supply at last commit from the root chain\n *     - staked ratio of the root chian     = tot balance of the root chain / tot total supply\n *     - withdrawal ratio of the account  = amount to withdraw / total supply of coinage\n *\n */\ncontract SeigManager is SeigManagerI, DSMath, Ownable, Pausable, AuthController {\n  using SafeMath for uint256;\n  using SafeERC20 for ERC20Mintable;\n\n  //////////////////////////////\n  // Common contracts\n  //////////////////////////////\n\n  RootChainRegistryI internal _registry;\n  DepositManagerI internal _depositManager;\n\n  //////////////////////////////\n  // Token-related\n  //////////////////////////////\n\n  // TON token contract\n  IERC20 internal _ton;\n\n  // WTON token contract\n  ERC20Mintable internal _wton; // TODO: use mintable erc20!\n\n  // track total deposits of each root chain.\n  CustomIncrementCoinage internal _tot;\n\n  // coinage token for each root chain.\n  mapping (address => CustomIncrementCoinage) internal _coinages;\n\n  // last commit block number for each root chain.\n  mapping (address => uint256) internal _lastCommitBlock;\n\n  // total seigniorage per block\n  uint256 internal _seigPerBlock;\n\n  // the block number when seigniorages are given\n  uint256 internal _lastSeigBlock;\n\n  // block number when paused or unpaused\n  uint256 internal _pausedBlock;\n  uint256 internal _unpausedBlock;\n\n  //////////////////////////////\n  // Constants\n  //////////////////////////////\n\n  uint256 constant internal _DEFAULT_FACTOR = 10 ** 27;\n\n  //////////////////////////////\n  // Modifiers\n  //////////////////////////////\n\n  modifier onlyRegistry() {\n    require(msg.sender == address(_registry));\n    _;\n  }\n\n  modifier onlyDepositManager() {\n    require(msg.sender == address(_depositManager));\n    _;\n  }\n\n  modifier onlyRootChain(address rootchain) {\n    require(_registry.rootchains(rootchain));\n    _;\n  }\n\n  modifier checkCoinage(address rootchain) {\n    require(address(_coinages[rootchain]) != address(0), \"SeigManager: coinage has not been deployed yet\");\n    _;\n  }\n\n  //////////////////////////////\n  // Events\n  //////////////////////////////\n\n  event CoinageCreated(address rootchain, address coinage);\n\n  //////////////////////////////\n  // Constuctor\n  //////////////////////////////\n\n  constructor (\n    ERC20Mintable ton,\n    ERC20Mintable wton,\n    RootChainRegistryI registry,\n    DepositManagerI depositManager,\n    uint256 seigPerBlock\n  ) public {\n    _ton = ton;\n    _wton = wton;\n    _registry = registry;\n    _depositManager = depositManager;\n    _seigPerBlock = seigPerBlock;\n\n    _tot = new CustomIncrementCoinage(\n      \"\",\n      \"\",\n      _DEFAULT_FACTOR,\n      false\n    );\n\n    _lastSeigBlock = block.number;\n  }\n\n  //////////////////////////////\n  // Override Pausable\n  //////////////////////////////\n\n  function pause() public onlyPauser whenNotPaused {\n    _pausedBlock = block.number;\n    super.pause();\n  }\n\n  /**\n   * @dev Called by a pauser to unpause, returns to normal state.\n   */\n  function unpause() public onlyPauser whenPaused {\n    _unpausedBlock = block.number;\n    super.unpause();\n  }\n\n  //////////////////////////////\n  // External functions\n  //////////////////////////////\n\n\n  /**\n   * @dev deploy coinage token for the root chain.\n   */\n  function deployCoinage(address rootchain) external onlyRegistry returns (bool) {\n    // short circuit if already coinage is deployed\n    if (address(_coinages[rootchain]) != address(0)) {\n      return false;\n    }\n\n    // create new coinage token for the root chain contract\n    if (address(_coinages[rootchain]) == address(0)) {\n      _coinages[rootchain] = new CustomIncrementCoinage(\n        \"\",\n        \"\",\n        _DEFAULT_FACTOR,\n        false\n      );\n      _lastCommitBlock[rootchain] = block.number;\n      emit CoinageCreated(rootchain, address(_coinages[rootchain]));\n    }\n\n    return true;\n  }\n\n  event SeigGiven(address rootchain, uint256 totalSeig, uint256 stakedSeig, uint256 unstakedSeig);\n  event Comitted(address rootchain);\n\n  // test log...\n  event CommitLog1(uint256 totalStakedAmount, uint256 totalSupplyOfWTON, uint256 prevTotalSupply, uint256 nextTotalSupply);\n\n  /**\n   * @dev Callback for a new commit\n   */\n  function onCommit()\n    external\n    checkCoinage(msg.sender)\n    returns (bool)\n  {\n    // short circuit if paused\n    if (paused()) {\n      return true;\n    }\n\n    _increaseTot();\n\n    // 2. increase total supply of {coinages[rootchain]}\n    CustomIncrementCoinage coinage = _coinages[msg.sender];\n\n    uint256 prevTotalSupply = coinage.totalSupply();\n    uint256 nextTotalSupply = _tot.balanceOf(msg.sender);\n\n    coinage.setFactor(_calcNewFactor(prevTotalSupply, nextTotalSupply, coinage.factor()));\n\n    // gives seigniorages to the root chain as coinage\n\n    _lastCommitBlock[msg.sender] = block.number;\n\n    _wton.mint(address(this), nextTotalSupply.sub(prevTotalSupply));\n\n    // emit events\n    emit Comitted(msg.sender);\n\n    return true;\n  }\n\n  /**\n   * @dev Callback for a token transfer\n   */\n  function onTransfer(address sender, address recipient, uint256 amount) external returns (bool) {\n    require(msg.sender == address(_ton) || msg.sender == address(_wton), \"SeigManager: only TON or WTON can call onTransfer\");\n\n    if (!paused()) {\n      _increaseTot();\n    }\n\n    return true;\n  }\n\n  /**\n   * @dev Callback for a new deposit\n   */\n  function onStake(address rootchain, address account, uint256 amount)\n    external\n    onlyDepositManager\n    checkCoinage(rootchain)\n    returns (bool)\n  {\n    _tot.mint(rootchain, amount);\n    _coinages[rootchain].mint(account, amount);\n    return true;\n  }\n\n  event UnstakeLog(uint coinageBurnAmount, uint totBurnAmount);\n\n  function onUnstake(address rootchain, address account, uint256 amount)\n    external\n    onlyDepositManager\n    checkCoinage(rootchain)\n    returns (bool)\n  {\n    require(_coinages[rootchain].balanceOf(account) >= amount, \"SeigManager: insufficiant balance to unstake\");\n\n    // burn {v + } {tot} tokens to the root chain contract,\n    uint256 totAmount = _additionalTotBurnAmount(rootchain, account, amount);\n    _tot.burnFrom(rootchain, amount.add(totAmount));\n\n    // burn {v} {coinages[rootchain]} tokens to the account\n    _coinages[rootchain].burnFrom(account, amount);\n\n    emit UnstakeLog(amount, totAmount);\n\n    return true;\n  }\n\n  function additionalTotBurnAmount(address rootchain, address account, uint256 amount) external view returns (uint256 totAmount) { return _additionalTotBurnAmount(rootchain, account, amount); }\n\n  // return , where  = (tot.balanceOf(rootchain) - coinages[rootchain].totalSupply()) * (amount / coinages[rootchain].totalSupply())\n  function _additionalTotBurnAmount(address rootchain, address account, uint256 amount)\n    internal\n    view\n    returns (uint256 totAmount)\n  {\n    uint256 coinageTotalSupply = _coinages[rootchain].totalSupply();\n\n    return rdiv(\n      rmul(\n        _tot.balanceOf(rootchain).sub(coinageTotalSupply),\n        amount\n      ),\n      coinageTotalSupply\n    );\n  }\n\n  //////////////////////////////\n  // Public and internal functions\n  //////////////////////////////\n\n  function uncomittedStakeOf(address rootchain, address account) external view returns (uint256) {\n    CustomIncrementCoinage coinage = _coinages[rootchain];\n\n    uint256 prevFactor = coinage.factor();\n    uint256 prevTotalSupply = coinage.totalSupply();\n    uint256 nextTotalSupply = _tot.balanceOf(rootchain);\n    uint256 newFactor = _calcNewFactor(prevTotalSupply, nextTotalSupply, prevFactor);\n\n    uint256 uncomittedBalance = rmul(\n      rdiv(coinage.balanceOf(account), prevFactor),\n      newFactor\n    );\n\n    return uncomittedBalance\n      .sub(_coinages[rootchain].balanceOf(account));\n  }\n\n  function stakeOf(address rootchain, address account) external view returns (uint256) {\n    return _coinages[rootchain].balanceOf(account);\n  }\n\n  function _calcNewFactor(uint256 source, uint256 target, uint256 oldFactor) internal pure returns (uint256) {\n    return rdiv(rmul(target, oldFactor), source);\n  }\n\n  function _increaseTot() internal returns (bool) {\n    // short circuit if already seigniorage is given.\n    if (block.number == _lastSeigBlock) {\n      return false;\n    }\n\n    if (_tot.totalSupply() == 0) {\n      _lastSeigBlock = block.number;\n      return false;\n    }\n\n    uint256 prevTotalSupply;\n    uint256 nextTotalSupply;\n\n    // 1. increase total supply of {tot} by maximum seigniorages * staked rate\n    //    staked rate = total staked amount / total supply of (W)TON\n\n    prevTotalSupply = _tot.totalSupply();\n\n    // maximum seigniorages\n    uint256 maxSeig = _calcNumSeigBlocks().mul(_seigPerBlock);\n\n    // maximum seigniorages * staked rate\n    uint256 stakedSeig = rdiv(\n      rmul(\n        maxSeig,\n        // total staked amount\n        _tot.totalSupply()\n      ),\n      // total supply of (W)TON\n      _ton.totalSupply()\n        .sub(_ton.balanceOf(address(_wton)))\n        .mul(10 ** 9)                                     // convert TON total supply into ray\n        .add(_wton.totalSupply())                         // add WTON total supply\n        .add(_tot.totalSupply()).sub(_wton.totalSupply()) // consider additional TOT balance as total supply\n    );\n\n    nextTotalSupply = prevTotalSupply.add(stakedSeig);\n    _lastSeigBlock = block.number;\n\n    _tot.setFactor(_calcNewFactor(prevTotalSupply, nextTotalSupply, _tot.factor()));\n\n\n    emit CommitLog1(\n      // total staked amount\n      _tot.totalSupply(),\n\n      // total supply of (W)TON\n      _ton.totalSupply()\n        .sub(_ton.balanceOf(address(_wton)))\n        .mul(10 ** 9)                                       // convert TON total supply into ray\n        .add(_wton.totalSupply())                           // add WTON total supply\n        .add(_tot.totalSupply()).sub(_wton.totalSupply()),  // consider additional TOT balance as total supply\n\n      prevTotalSupply,\n      nextTotalSupply\n    );\n\n\n    // TODO: give unstaked amount to jackpot\n    uint256 unstakedSeig = maxSeig.sub(stakedSeig);\n\n    emit SeigGiven(msg.sender, maxSeig, stakedSeig, unstakedSeig);\n\n    return true;\n  }\n\n  function _calcNumSeigBlocks() internal returns (uint256) {\n    require(!paused());\n\n    uint256 span = block.number - _lastSeigBlock;\n    if (_unpausedBlock < _lastSeigBlock) {\n      return span;\n    }\n\n    return span - (_unpausedBlock - _pausedBlock);\n  }\n\n  //////////////////////////////\n  // Storage getters\n  //////////////////////////////\n\n  function registry() external view returns (RootChainRegistryI) { return _registry; }\n  function depositManager() external view returns (DepositManagerI) { return _depositManager; }\n  function ton() external view returns (IERC20) { return _ton; }\n  function wton() external view returns (ERC20Mintable) { return _wton; }\n  function tot() external view returns (CustomIncrementCoinage) { return _tot; }\n  function coinages(address rootchain) external view returns (CustomIncrementCoinage) { return _coinages[rootchain]; }\n\n  function lastCommitBlock(address rootchain) external view returns (uint256) { return _lastCommitBlock[rootchain]; }\n  function seigPerBlock() external view returns (uint256) { return _seigPerBlock; }\n  function lastSeigBlock() external view returns (uint256) { return _lastSeigBlock; }\n  function DEFAULT_FACTOR() external view returns (uint256) { return _DEFAULT_FACTOR; }\n\n}",
  "sourcePath": "/Users/thomashin/Workspace/plasma-evm-contracts/contracts/stake/managers/SeigManager.sol",
  "compiler": {
    "name": "solc",
    "version": "0.5.12+commit.7709ece9.Emscripten.clang"
  },
  "schemaVersion": "3.0.23",
  "updatedAt": "2020-02-19T11:32:11.494Z",
  "devdoc": {
    "details": "SeigManager gives seigniorage to operator and WTON holders. For each commit by operator, operator (or user) will get seigniorage in propotion to the staked (or delegated) amount of WTON. * [Tokens] - {tot} tracks total staked or delegated WTON of each RootChain contract (and depositor?). - {coinages[rootchain]} tracks staked or delegated WTON of user or operator to a RootChain contract. * For each commit by operator, 1. increases all root chains' balance of {tot} by (the staked amount of WTON) /    (total supply of TON and WTON) * (num blocks * seigniorage per block). 2. increases all depositors' blanace of {coinages[rootchain]} in proportion to the staked amount of WTON,    up to the increased amount in step (1). 3. set the root chain's balance of {committed} as the root chain's {tot} balance. * For each stake or delegate with amount of {v} to a RootChain, 1. mint {v} {coinages[rootchain]} tokens to the account 2. mint {v} {tot} tokens to the root chain contract * For each unstake or undelegate (or get rewards) with amount of {v} to a RootChain, 1. burn {v} {coinages[rootchain]} tokens from the account 2. burn {v + } {tot} tokens from the root chain contract,  where  = SEIGS * staked ratio of the root chian * withdrawal ratio of the account    - SEIGS                              = tot total supply - tot total supply at last commit from the root chain    - staked ratio of the root chian     = tot balance of the root chain / tot total supply    - withdrawal ratio of the account  = amount to withdraw / total supply of coinage ",
    "methods": {
      "deployCoinage(address)": {
        "details": "deploy coinage token for the root chain."
      },
      "isOwner()": {
        "details": "Returns true if the caller is the current owner."
      },
      "onCommit()": {
        "details": "Callback for a new commit"
      },
      "onStake(address,address,uint256)": {
        "details": "Callback for a new deposit"
      },
      "onTransfer(address,address,uint256)": {
        "details": "Callback for a token transfer"
      },
      "owner()": {
        "details": "Returns the address of the current owner."
      },
      "paused()": {
        "details": "Returns true if the contract is paused, and false otherwise."
      },
      "renounceOwnership()": {
        "details": "Leaves the contract without owner. It will not be possible to call `onlyOwner` functions anymore. Can only be called by the current owner.     * NOTE: Renouncing ownership will leave the contract without an owner, thereby removing any functionality that is only available to the owner."
      },
      "transferOwnership(address)": {
        "details": "Transfers ownership of the contract to a new account (`newOwner`). Can only be called by the current owner."
      },
      "unpause()": {
        "details": "Called by a pauser to unpause, returns to normal state."
      }
    }
  },
  "userdoc": {
    "methods": {
      "constructor": "///////////////////////////",
      "pause()": {
        "notice": "///////////////////////////"
      },
      "registry()": {
        "notice": "///////////////////////////"
      },
      "uncomittedStakeOf(address,address)": {
        "notice": "///////////////////////////"
      }
    }
  }
}