{
  "contractName": "TON",
  "abi": [
    {
      "inputs": [],
      "payable": false,
      "stateMutability": "nonpayable",
      "type": "constructor"
    },
    {
      "anonymous": false,
      "inputs": [
        {
          "indexed": true,
          "internalType": "address",
          "name": "owner",
          "type": "address"
        },
        {
          "indexed": true,
          "internalType": "address",
          "name": "spender",
          "type": "address"
        },
        {
          "indexed": false,
          "internalType": "uint256",
          "name": "value",
          "type": "uint256"
        }
      ],
      "name": "Approval",
      "type": "event"
    },
    {
      "anonymous": false,
      "inputs": [
        {
          "indexed": true,
          "internalType": "address",
          "name": "account",
          "type": "address"
        }
      ],
      "name": "MinterAdded",
      "type": "event"
    },
    {
      "anonymous": false,
      "inputs": [
        {
          "indexed": true,
          "internalType": "address",
          "name": "account",
          "type": "address"
        }
      ],
      "name": "MinterRemoved",
      "type": "event"
    },
    {
      "anonymous": false,
      "inputs": [
        {
          "indexed": true,
          "internalType": "address",
          "name": "previousOwner",
          "type": "address"
        },
        {
          "indexed": true,
          "internalType": "address",
          "name": "newOwner",
          "type": "address"
        }
      ],
      "name": "OwnershipTransferred",
      "type": "event"
    },
    {
      "anonymous": false,
      "inputs": [
        {
          "indexed": true,
          "internalType": "address",
          "name": "from",
          "type": "address"
        },
        {
          "indexed": true,
          "internalType": "address",
          "name": "to",
          "type": "address"
        },
        {
          "indexed": false,
          "internalType": "uint256",
          "name": "value",
          "type": "uint256"
        }
      ],
      "name": "Transfer",
      "type": "event"
    },
    {
      "constant": true,
      "inputs": [],
      "name": "INTERFACE_ID_ON_APPROVE",
      "outputs": [
        {
          "internalType": "bytes4",
          "name": "",
          "type": "bytes4"
        }
      ],
      "payable": false,
      "stateMutability": "view",
      "type": "function"
    },
    {
      "constant": false,
      "inputs": [
        {
          "internalType": "address",
          "name": "account",
          "type": "address"
        }
      ],
      "name": "addMinter",
      "outputs": [],
      "payable": false,
      "stateMutability": "nonpayable",
      "type": "function"
    },
    {
      "constant": true,
      "inputs": [
        {
          "internalType": "address",
          "name": "owner",
          "type": "address"
        },
        {
          "internalType": "address",
          "name": "spender",
          "type": "address"
        }
      ],
      "name": "allowance",
      "outputs": [
        {
          "internalType": "uint256",
          "name": "",
          "type": "uint256"
        }
      ],
      "payable": false,
      "stateMutability": "view",
      "type": "function"
    },
    {
      "constant": false,
      "inputs": [
        {
          "internalType": "address",
          "name": "spender",
          "type": "address"
        },
        {
          "internalType": "uint256",
          "name": "amount",
          "type": "uint256"
        }
      ],
      "name": "approve",
      "outputs": [
        {
          "internalType": "bool",
          "name": "",
          "type": "bool"
        }
      ],
      "payable": false,
      "stateMutability": "nonpayable",
      "type": "function"
    },
    {
      "constant": false,
      "inputs": [
        {
          "internalType": "address",
          "name": "spender",
          "type": "address"
        },
        {
          "internalType": "uint256",
          "name": "amount",
          "type": "uint256"
        },
        {
          "internalType": "bytes",
          "name": "data",
          "type": "bytes"
        }
      ],
      "name": "approveAndCall",
      "outputs": [
        {
          "internalType": "bool",
          "name": "",
          "type": "bool"
        }
      ],
      "payable": false,
      "stateMutability": "nonpayable",
      "type": "function"
    },
    {
      "constant": true,
      "inputs": [
        {
          "internalType": "address",
          "name": "account",
          "type": "address"
        }
      ],
      "name": "balanceOf",
      "outputs": [
        {
          "internalType": "uint256",
          "name": "",
          "type": "uint256"
        }
      ],
      "payable": false,
      "stateMutability": "view",
      "type": "function"
    },
    {
      "constant": true,
      "inputs": [],
      "name": "decimals",
      "outputs": [
        {
          "internalType": "uint8",
          "name": "",
          "type": "uint8"
        }
      ],
      "payable": false,
      "stateMutability": "view",
      "type": "function"
    },
    {
      "constant": false,
      "inputs": [
        {
          "internalType": "address",
          "name": "spender",
          "type": "address"
        },
        {
          "internalType": "uint256",
          "name": "subtractedValue",
          "type": "uint256"
        }
      ],
      "name": "decreaseAllowance",
      "outputs": [
        {
          "internalType": "bool",
          "name": "",
          "type": "bool"
        }
      ],
      "payable": false,
      "stateMutability": "nonpayable",
      "type": "function"
    },
    {
      "constant": false,
      "inputs": [
        {
          "internalType": "address",
          "name": "spender",
          "type": "address"
        },
        {
          "internalType": "uint256",
          "name": "addedValue",
          "type": "uint256"
        }
      ],
      "name": "increaseAllowance",
      "outputs": [
        {
          "internalType": "bool",
          "name": "",
          "type": "bool"
        }
      ],
      "payable": false,
      "stateMutability": "nonpayable",
      "type": "function"
    },
    {
      "constant": true,
      "inputs": [
        {
          "internalType": "address",
          "name": "account",
          "type": "address"
        }
      ],
      "name": "isMinter",
      "outputs": [
        {
          "internalType": "bool",
          "name": "",
          "type": "bool"
        }
      ],
      "payable": false,
      "stateMutability": "view",
      "type": "function"
    },
    {
      "constant": true,
      "inputs": [],
      "name": "isOwner",
      "outputs": [
        {
          "internalType": "bool",
          "name": "",
          "type": "bool"
        }
      ],
      "payable": false,
      "stateMutability": "view",
      "type": "function"
    },
    {
      "constant": false,
      "inputs": [
        {
          "internalType": "address",
          "name": "account",
          "type": "address"
        },
        {
          "internalType": "uint256",
          "name": "amount",
          "type": "uint256"
        }
      ],
      "name": "mint",
      "outputs": [
        {
          "internalType": "bool",
          "name": "",
          "type": "bool"
        }
      ],
      "payable": false,
      "stateMutability": "nonpayable",
      "type": "function"
    },
    {
      "constant": true,
      "inputs": [],
      "name": "name",
      "outputs": [
        {
          "internalType": "string",
          "name": "",
          "type": "string"
        }
      ],
      "payable": false,
      "stateMutability": "view",
      "type": "function"
    },
    {
      "constant": true,
      "inputs": [],
      "name": "owner",
      "outputs": [
        {
          "internalType": "address",
          "name": "",
          "type": "address"
        }
      ],
      "payable": false,
      "stateMutability": "view",
      "type": "function"
    },
    {
      "constant": false,
      "inputs": [
        {
          "internalType": "address",
          "name": "target",
          "type": "address"
        }
      ],
      "name": "renounceMinter",
      "outputs": [],
      "payable": false,
      "stateMutability": "nonpayable",
      "type": "function"
    },
    {
      "constant": false,
      "inputs": [],
      "name": "renounceMinter",
      "outputs": [],
      "payable": false,
      "stateMutability": "nonpayable",
      "type": "function"
    },
    {
      "constant": false,
      "inputs": [
        {
          "internalType": "address",
          "name": "target",
          "type": "address"
        }
      ],
      "name": "renounceOwnership",
      "outputs": [],
      "payable": false,
      "stateMutability": "nonpayable",
      "type": "function"
    },
    {
      "constant": false,
      "inputs": [],
      "name": "renounceOwnership",
      "outputs": [],
      "payable": false,
      "stateMutability": "nonpayable",
      "type": "function"
    },
    {
      "constant": true,
      "inputs": [],
      "name": "seigManager",
      "outputs": [
        {
          "internalType": "contract SeigManagerI",
          "name": "",
          "type": "address"
        }
      ],
      "payable": false,
      "stateMutability": "view",
      "type": "function"
    },
    {
      "constant": true,
      "inputs": [],
      "name": "symbol",
      "outputs": [
        {
          "internalType": "string",
          "name": "",
          "type": "string"
        }
      ],
      "payable": false,
      "stateMutability": "view",
      "type": "function"
    },
    {
      "constant": true,
      "inputs": [],
      "name": "totalSupply",
      "outputs": [
        {
          "internalType": "uint256",
          "name": "",
          "type": "uint256"
        }
      ],
      "payable": false,
      "stateMutability": "view",
      "type": "function"
    },
    {
      "constant": false,
      "inputs": [
        {
          "internalType": "address",
          "name": "recipient",
          "type": "address"
        },
        {
          "internalType": "uint256",
          "name": "amount",
          "type": "uint256"
        }
      ],
      "name": "transfer",
      "outputs": [
        {
          "internalType": "bool",
          "name": "",
          "type": "bool"
        }
      ],
      "payable": false,
      "stateMutability": "nonpayable",
      "type": "function"
    },
    {
      "constant": false,
      "inputs": [
        {
          "internalType": "address",
          "name": "sender",
          "type": "address"
        },
        {
          "internalType": "address",
          "name": "recipient",
          "type": "address"
        },
        {
          "internalType": "uint256",
          "name": "amount",
          "type": "uint256"
        }
      ],
      "name": "transferFrom",
      "outputs": [
        {
          "internalType": "bool",
          "name": "",
          "type": "bool"
        }
      ],
      "payable": false,
      "stateMutability": "nonpayable",
      "type": "function"
    },
    {
      "constant": false,
      "inputs": [
        {
          "internalType": "address",
          "name": "target",
          "type": "address"
        },
        {
          "internalType": "address",
          "name": "newOwner",
          "type": "address"
        }
      ],
      "name": "transferOwnership",
      "outputs": [],
      "payable": false,
      "stateMutability": "nonpayable",
      "type": "function"
    },
    {
      "constant": false,
      "inputs": [
        {
          "internalType": "address",
          "name": "newOwner",
          "type": "address"
        }
      ],
      "name": "transferOwnership",
      "outputs": [],
      "payable": false,
      "stateMutability": "nonpayable",
      "type": "function"
    },
    {
      "constant": false,
      "inputs": [
        {
          "internalType": "contract SeigManagerI",
          "name": "_seigManager",
          "type": "address"
        }
      ],
      "name": "setSeigManager",
      "outputs": [],
      "payable": false,
      "stateMutability": "nonpayable",
      "type": "function"
    }
  ],
  "bytecode": "0x60806040523480156200001157600080fd5b506040518060400160405280601581526020017f546f6b616d616b204e6574776f726b20546f6b656e00000000000000000000008152506040518060400160405280600381526020017f544f4e000000000000000000000000000000000000000000000000000000000081525060126000620000926200018b60201b60201c565b600080546001600160a01b0319166001600160a01b03831690811782556040519293509160008051602062001eb3833981519152908290a350620000f1620000e26001600160e01b036200018b16565b6001600160e01b036200019016565b8251620001069060059060208601906200030c565b5081516200011c9060069060208501906200030c565b506007805460ff191660ff929092169190911790555060009050620001406200018b565b60078054610100600160a81b0319166101006001600160a01b038416908102919091179091556040519192509060009060008051602062001eb3833981519152908290a350620003ae565b335b90565b620001ab816004620001e260201b620015c71790919060201c565b6040516001600160a01b038216907f6ae172837ea30b801fbfcdd4108aa1d5bf8ff775444fd70256b44e6bf3dfc3f690600090a250565b620001f782826001600160e01b036200028916565b156200026457604080517f08c379a000000000000000000000000000000000000000000000000000000000815260206004820152601f60248201527f526f6c65733a206163636f756e7420616c72656164792068617320726f6c6500604482015290519081900360640190fd5b6001600160a01b0316600090815260209190915260409020805460ff19166001179055565b60006001600160a01b038216620002ec576040517f08c379a000000000000000000000000000000000000000000000000000000000815260040180806020018281038252602281526020018062001ed36022913960400191505060405180910390fd5b506001600160a01b03166000908152602091909152604090205460ff1690565b828054600181600116156101000203166002900490600052602060002090601f016020900481019282601f106200034f57805160ff19168380011785556200037f565b828001600101855582156200037f579182015b828111156200037f57825182559160200191906001019062000362565b506200038d92915062000391565b5090565b6200018d91905b808211156200038d576000815560010162000398565b611af580620003be6000396000f3fe608060405234801561001057600080fd5b506004361061018e5760003560e01c8063715018a6116100de5780639865027511610097578063aa271e1a11610071578063aa271e1a146104cd578063cae9ca51146104f3578063dd62ed3e146105ae578063f2fde38b146105dc5761018e565b8063986502751461046d578063a457c2d714610475578063a9059cbb146104a15761018e565b8063715018a6146104015780637657f20a146104095780638da5cb5b1461042f5780638f32d59b1461043757806395d89b411461043f578063983b2d56146104475761018e565b8063395093511161014b5780636cd28f9a116101255780636cd28f9a146103645780636d435421146103895780636fb7f558146103b757806370a08231146103db5761018e565b806339509351146102e657806340c10f19146103125780635f112c681461033e5761018e565b806306fdde0314610193578063095ea7b31461021057806318160ddd1461025057806323b872dd1461026a578063313ce567146102a057806338bf3cfa146102be575b600080fd5b61019b610602565b6040805160208082528351818301528351919283929083019185019080838360005b838110156101d55781810151838201526020016101bd565b50505050905090810190601f1680156102025780820380516001836020036101000a031916815260200191505b509250505060405180910390f35b61023c6004803603604081101561022657600080fd5b506001600160a01b038135169060200135610698565b604080519115158252519081900360200190f35b6102586106b5565b60408051918252519081900360200190f35b61023c6004803603606081101561028057600080fd5b506001600160a01b038135811691602081013590911690604001356106bb565b6102a8610749565b6040805160ff9092168252519081900360200190f35b6102e4600480360360208110156102d457600080fd5b50356001600160a01b0316610752565b005b61023c600480360360408110156102fc57600080fd5b506001600160a01b0381351690602001356107ef565b61023c6004803603604081101561032857600080fd5b506001600160a01b038135169060200135610843565b6102e46004803603602081101561035457600080fd5b50356001600160a01b031661089a565b61036c61091c565b604080516001600160e01b03199092168252519081900360200190f35b6102e46004803603604081101561039f57600080fd5b506001600160a01b0381358116916020013516610937565b6103bf6109f2565b604080516001600160a01b039092168252519081900360200190f35b610258600480360360208110156103f157600080fd5b50356001600160a01b0316610a01565b6102e4610a1c565b6102e46004803603602081101561041f57600080fd5b50356001600160a01b0316610ab3565b6103bf610aea565b61023c610afe565b61019b610b29565b6102e46004803603602081101561045d57600080fd5b50356001600160a01b0316610b8a565b6102e4610bdc565b61023c6004803603604081101561048b57600080fd5b506001600160a01b038135169060200135610bee565b61023c600480360360408110156104b757600080fd5b506001600160a01b038135169060200135610c5c565b61023c600480360360208110156104e357600080fd5b50356001600160a01b0316610c70565b61023c6004803603606081101561050957600080fd5b6001600160a01b038235169160208101359181019060608101604082013564010000000081111561053957600080fd5b82018360208201111561054b57600080fd5b8035906020019184600183028401116401000000008311171561056d57600080fd5b91908080601f016020809104026020016040519081016040528093929190818152602001838380828437600092019190915250929550610c89945050505050565b610258600480360360408110156105c457600080fd5b506001600160a01b0381358116916020013516610caa565b6102e4600480360360208110156105f257600080fd5b50356001600160a01b0316610cd5565b60058054604080516020601f600260001961010060018816150201909516949094049384018190048102820181019092528281526060939092909183018282801561068e5780601f106106635761010080835404028352916020019161068e565b820191906000526020600020905b81548152906001019060200180831161067157829003601f168201915b5050505050905090565b60006106ac6106a5610d25565b8484610d29565b50600192915050565b60035490565b60006106c8848484610e15565b61073e846106d4610d25565b610739856040518060600160405280602881526020016119c4602891396001600160a01b038a16600090815260026020526040812090610712610d25565b6001600160a01b03168152602081019190915260400160002054919063ffffffff610e7f16565b610d29565b5060015b9392505050565b60075460ff1690565b61075a610afe565b610799576040805162461bcd60e51b815260206004820181905260248201526000805160206119ec833981519152604482015290519081900360640190fd5b806001600160a01b031663715018a66040518163ffffffff1660e01b8152600401600060405180830381600087803b1580156107d457600080fd5b505af11580156107e8573d6000803e3d6000fd5b5050505050565b60006106ac6107fc610d25565b84610739856002600061080d610d25565b6001600160a01b03908116825260208083019390935260409182016000908120918c16815292529020549063ffffffff610f1616565b6000610855610850610d25565b610c70565b6108905760405162461bcd60e51b81526004018080602001828103825260308152602001806119736030913960400191505060405180910390fd5b6106ac8383610f70565b6108a2610afe565b6108e1576040805162461bcd60e51b815260206004820181905260248201526000805160206119ec833981519152604482015290519081900360640190fd5b806001600160a01b031663986502756040518163ffffffff1660e01b8152600401600060405180830381600087803b1580156107d457600080fd5b60405180602861191b82396028019050604051809103902081565b61093f610afe565b61097e576040805162461bcd60e51b815260206004820181905260248201526000805160206119ec833981519152604482015290519081900360640190fd5b816001600160a01b031663f2fde38b826040518263ffffffff1660e01b815260040180826001600160a01b03166001600160a01b03168152602001915050600060405180830381600087803b1580156109d657600080fd5b505af11580156109ea573d6000803e3d6000fd5b505050505050565b6008546001600160a01b031681565b6001600160a01b031660009081526001602052604090205490565b610a24610afe565b610a63576040805162461bcd60e51b815260206004820181905260248201526000805160206119ec833981519152604482015290519081900360640190fd5b60075460405160009161010090046001600160a01b0316907f8be0079c531659141344cd1fd0a4f28419497f9722a3daafe3b4186f6b6457e0908390a360078054610100600160a81b0319169055565b60405162461bcd60e51b8152600401808060200182810382526025815260200180611a776025913960400191505060405180910390fd5b60075461010090046001600160a01b031690565b60075460009061010090046001600160a01b0316610b1a610d25565b6001600160a01b031614905090565b60068054604080516020601f600260001961010060018816150201909516949094049384018190048102820181019092528281526060939092909183018282801561068e5780601f106106635761010080835404028352916020019161068e565b610b95610850610d25565b610bd05760405162461bcd60e51b81526004018080602001828103825260308152602001806119736030913960400191505060405180910390fd5b610bd981610f7e565b50565b610bec610be7610d25565b610fc6565b565b60006106ac610bfb610d25565b8461073985604051806060016040528060258152602001611a9c6025913960026000610c25610d25565b6001600160a01b03908116825260208083019390935260409182016000908120918d1681529252902054919063ffffffff610e7f16565b60006106ac610c69610d25565b8484610e15565b6000610c8360048363ffffffff61100e16565b92915050565b6000610c958484610698565b610c9e57600080fd5b61074233858585611075565b6001600160a01b03918216600090815260026020908152604080832093909416825291909152205490565b610cdd610afe565b610d1c576040805162461bcd60e51b815260206004820181905260248201526000805160206119ec833981519152604482015290519081900360640190fd5b610bd9816112cb565b3390565b6001600160a01b038316610d6e5760405162461bcd60e51b8152600401808060200182810382526024815260200180611a536024913960400191505060405180910390fd5b6001600160a01b038216610db35760405162461bcd60e51b81526004018080602001828103825260228152602001806118a26022913960400191505060405180910390fd5b6001600160a01b03808416600081815260026020908152604080832094871680845294825291829020859055815185815291517f8c5be1e5ebec7d5bd14f71427d1e84f3dd0314c0f7b2291e5b200ac8c7c3b9259281900390910190a3505050565b336001600160a01b0384161480610e345750336001600160a01b038316145b610e6f5760405162461bcd60e51b81526004018080602001828103825260308152602001806119436030913960400191505060405180910390fd5b610e7a838383611377565b505050565b60008184841115610f0e5760405162461bcd60e51b81526004018080602001828103825283818151815260200191508051906020019080838360005b83811015610ed3578181015183820152602001610ebb565b50505050905090810190601f168015610f005780820380516001836020036101000a031916815260200191505b509250505060405180910390fd5b505050900390565b600082820183811015610742576040805162461bcd60e51b815260206004820152601b60248201527f536166654d6174683a206164646974696f6e206f766572666c6f770000000000604482015290519081900360640190fd5b610f7a82826114d5565b5050565b610f8f60048263ffffffff6115c716565b6040516001600160a01b038216907f6ae172837ea30b801fbfcdd4108aa1d5bf8ff775444fd70256b44e6bf3dfc3f690600090a250565b610fd760048263ffffffff61164816565b6040516001600160a01b038216907fe94479a9f7e1952cc78f2d6baab678adc1b772d936c6583def489e524cb6669290600090a250565b60006001600160a01b0382166110555760405162461bcd60e51b8152600401808060200182810382526022815260200180611a0c6022913960400191505060405180910390fd5b506001600160a01b03166000908152602091909152604090205460ff1690565b61109783604051808061191b60289139602801905060405180910390206116af565b6110d25760405162461bcd60e51b81526004018080602001828103825260318152602001806118c46031913960400191505060405180910390fd5b60006060846001600160a01b0316604051808061191b60289139602801905060405180910390208787878760405160240180856001600160a01b03166001600160a01b03168152602001846001600160a01b03166001600160a01b0316815260200183815260200180602001828103825283818151815260200191508051906020019080838360005b8381101561117357818101518382015260200161115b565b50505050905090810190601f1680156111a05780820380516001836020036101000a031916815260200191505b5060408051601f198184030181529181526020820180516001600160e01b03166001600160e01b0319909a16999099178952518151919890975087965094509250829150849050835b602083106112085780518252601f1990920191602091820191016111e9565b6001836020036101000a0380198251168184511680821785525050505050509050019150506000604051808303816000865af19150503d806000811461126a576040519150601f19603f3d011682016040523d82523d6000602084013e61126f565b606091505b50915091508181906112c25760405162461bcd60e51b8152602060048201818152835160248401528351909283926044909101919085019080838360008315610ed3578181015183820152602001610ebb565b50505050505050565b6001600160a01b0381166113105760405162461bcd60e51b815260040180806020018281038252602681526020018061187c6026913960400191505060405180910390fd5b6007546040516001600160a01b0380841692610100900416907f8be0079c531659141344cd1fd0a4f28419497f9722a3daafe3b4186f6b6457e090600090a3600780546001600160a01b0390921661010002610100600160a81b0319909216919091179055565b6001600160a01b0383166113bc5760405162461bcd60e51b8152600401808060200182810382526025815260200180611a2e6025913960400191505060405180910390fd5b6001600160a01b0382166114015760405162461bcd60e51b81526004018080602001828103825260238152602001806118596023913960400191505060405180910390fd5b611444816040518060600160405280602681526020016118f5602691396001600160a01b038616600090815260016020526040902054919063ffffffff610e7f16565b6001600160a01b038085166000908152600160205260408082209390935590841681522054611479908263ffffffff610f1616565b6001600160a01b0380841660008181526001602090815260409182902094909455805185815290519193928716927fddf252ad1be2c89b69c2b068fc378daa952ba7f163c4a11628f55a4df523b3ef92918290030190a3505050565b6001600160a01b038216611530576040805162461bcd60e51b815260206004820152601f60248201527f45524332303a206d696e7420746f20746865207a65726f206164647265737300604482015290519081900360640190fd5b600354611543908263ffffffff610f1616565b6003556001600160a01b03821660009081526001602052604090205461156f908263ffffffff610f1616565b6001600160a01b03831660008181526001602090815260408083209490945583518581529351929391927fddf252ad1be2c89b69c2b068fc378daa952ba7f163c4a11628f55a4df523b3ef9281900390910190a35050565b6115d1828261100e565b15611623576040805162461bcd60e51b815260206004820152601f60248201527f526f6c65733a206163636f756e7420616c72656164792068617320726f6c6500604482015290519081900360640190fd5b6001600160a01b0316600090815260209190915260409020805460ff19166001179055565b611652828261100e565b61168d5760405162461bcd60e51b81526004018080602001828103825260218152602001806119a36021913960400191505060405180910390fd5b6001600160a01b0316600090815260209190915260409020805460ff19169055565b60006116ba836116cb565b8015610742575061074283836116fe565b60006116de826301ffc9a760e01b6116fe565b8015610c8357506116f7826001600160e01b03196116fe565b1592915050565b600080600061170d8585611724565b9150915081801561171b5750805b95945050505050565b604080516001600160e01b0319831660248083019190915282518083039091018152604490910182526020810180516001600160e01b03166301ffc9a760e01b1781529151815160009384939284926060926001600160a01b038a169261753092879282918083835b602083106117ac5780518252601f19909201916020918201910161178d565b6001836020036101000a0380198251168184511680821785525050505050509050019150506000604051808303818686fa925050503d806000811461180d576040519150601f19603f3d011682016040523d82523d6000602084013e611812565b606091505b50915091506020815110156118305760008094509450505050611851565b8181806020019051602081101561184657600080fd5b505190955093505050505b925092905056fe45524332303a207472616e7366657220746f20746865207a65726f20616464726573734f776e61626c653a206e6577206f776e657220697320746865207a65726f206164647265737345524332303a20617070726f766520746f20746865207a65726f206164647265737345524332304f6e417070726f76653a207370656e64657220646f65736e277420737570706f7274206f6e417070726f766545524332303a207472616e7366657220616d6f756e7420657863656564732062616c616e63656f6e417070726f766528616464726573732c616464726573732c75696e743235362c62797465732953656967546f6b656e3a206f6e6c792073656e646572206f7220726563697069656e742063616e207472616e736665724d696e746572526f6c653a2063616c6c657220646f6573206e6f74206861766520746865204d696e74657220726f6c65526f6c65733a206163636f756e7420646f6573206e6f74206861766520726f6c6545524332303a207472616e7366657220616d6f756e74206578636565647320616c6c6f77616e63654f776e61626c653a2063616c6c6572206973206e6f7420746865206f776e6572526f6c65733a206163636f756e7420697320746865207a65726f206164647265737345524332303a207472616e736665722066726f6d20746865207a65726f206164647265737345524332303a20617070726f76652066726f6d20746865207a65726f2061646472657373544f4e3a20544f4e20646f65736e277420616c6c6f7720736574536569674d616e6167657245524332303a2064656372656173656420616c6c6f77616e63652062656c6f77207a65726fa265627a7a72315820d269b5be2eefc3fa2e65f1ea8191cb0963ddfb12ec0fc6fba47f32f471a459e664736f6c634300050c00328be0079c531659141344cd1fd0a4f28419497f9722a3daafe3b4186f6b6457e0526f6c65733a206163636f756e7420697320746865207a65726f2061646472657373",
  "source": "pragma solidity ^0.5.12;\n\nimport { Ownable } from \"../../../node_modules/openzeppelin-solidity/contracts/ownership/OWnable.sol\";\nimport { ERC20Mintable } from \"../../../node_modules/openzeppelin-solidity/contracts/token/ERC20/ERC20Mintable.sol\";\nimport { ERC20Detailed } from \"../../../node_modules/openzeppelin-solidity/contracts/token/ERC20/ERC20Detailed.sol\";\nimport { ERC165Checker } from \"../../../node_modules/openzeppelin-solidity/contracts/introspection/ERC165Checker.sol\";\n\nimport { SeigManagerI } from \"../interfaces/SeigManagerI.sol\";\nimport { SeigToken } from \"./SeigToken.sol\";\n\n\n/**\n * @dev Current implementations is just for testing seigniorage manager.\n */\ncontract TON is Ownable, ERC20Mintable, ERC20Detailed, SeigToken {\n  constructor() public ERC20Detailed(\"Tokamak Network Token\", \"TON\", 18) {}\n\n  function setSeigManager(SeigManagerI _seigManager) external {\n    revert(\"TON: TON doesn't allow setSeigManager\");\n  }\n}",
  "sourcePath": "/Users/pjh/workspace/go/src/github.com/Onther-Tech/plasma-evm/contracts/plasma/plasma-evm-cotracts/contracts/stake/tokens/TON.sol",
  "compiler": {
    "name": "solc",
    "version": "0.5.12+commit.7709ece9.Emscripten.clang"
  },
  "schemaVersion": "3.0.23",
  "updatedAt": "2020-02-13T05:01:24.043Z",
  "devdoc": {
    "details": "Current implementations is just for testing seigniorage manager.",
    "methods": {
      "allowance(address,address)": {
        "details": "See {IERC20-allowance}."
      },
      "approve(address,uint256)": {
        "details": "See {IERC20-approve}.     * Requirements:     * - `spender` cannot be the zero address."
      },
      "balanceOf(address)": {
        "details": "See {IERC20-balanceOf}."
      },
      "decimals()": {
        "details": "Returns the number of decimals used to get its user representation. For example, if `decimals` equals `2`, a balance of `505` tokens should be displayed to a user as `5,05` (`505 / 10 ** 2`).     * Tokens usually opt for a value of 18, imitating the relationship between Ether and Wei.     * NOTE: This information is only used for _display_ purposes: it in no way affects any of the arithmetic of the contract, including {IERC20-balanceOf} and {IERC20-transfer}."
      },
      "decreaseAllowance(address,uint256)": {
        "details": "Atomically decreases the allowance granted to `spender` by the caller.     * This is an alternative to {approve} that can be used as a mitigation for problems described in {IERC20-approve}.     * Emits an {Approval} event indicating the updated allowance.     * Requirements:     * - `spender` cannot be the zero address. - `spender` must have allowance for the caller of at least `subtractedValue`."
      },
      "increaseAllowance(address,uint256)": {
        "details": "Atomically increases the allowance granted to `spender` by the caller.     * This is an alternative to {approve} that can be used as a mitigation for problems described in {IERC20-approve}.     * Emits an {Approval} event indicating the updated allowance.     * Requirements:     * - `spender` cannot be the zero address."
      },
      "isOwner()": {
        "details": "Returns true if the caller is the current owner."
      },
      "mint(address,uint256)": {
        "details": "See {ERC20-_mint}.     * Requirements:     * - the caller must have the {MinterRole}."
      },
      "name()": {
        "details": "Returns the name of the token."
      },
      "owner()": {
        "details": "Returns the address of the current owner."
      },
      "renounceOwnership()": {
        "details": "Leaves the contract without owner. It will not be possible to call `onlyOwner` functions anymore. Can only be called by the current owner.     * NOTE: Renouncing ownership will leave the contract without an owner, thereby removing any functionality that is only available to the owner."
      },
      "symbol()": {
        "details": "Returns the symbol of the token, usually a shorter version of the name."
      },
      "totalSupply()": {
        "details": "See {IERC20-totalSupply}."
      },
      "transfer(address,uint256)": {
        "details": "See {IERC20-transfer}.     * Requirements:     * - `recipient` cannot be the zero address. - the caller must have a balance of at least `amount`."
      },
      "transferFrom(address,address,uint256)": {
        "details": "See {IERC20-transferFrom}.     * Emits an {Approval} event indicating the updated allowance. This is not required by the EIP. See the note at the beginning of {ERC20};     * Requirements: - `sender` and `recipient` cannot be the zero address. - `sender` must have a balance of at least `amount`. - the caller must have allowance for `sender`'s tokens of at least `amount`."
      },
      "transferOwnership(address)": {
        "details": "Transfers ownership of the contract to a new account (`newOwner`). Can only be called by the current owner."
      }
    }
  },
  "userdoc": {
    "methods": {}
  }
}