{
  "contractName": "TransactionMock",
  "abi": [
    {
      "constant": true,
      "inputs": [],
      "name": "hash",
      "outputs": [
        {
          "internalType": "bytes32",
          "name": "",
          "type": "bytes32"
        }
      ],
      "payable": false,
      "stateMutability": "view",
      "type": "function"
    },
    {
      "constant": false,
      "inputs": [
        {
          "internalType": "uint64",
          "name": "nonce",
          "type": "uint64"
        },
        {
          "internalType": "uint256",
          "name": "gasPrice",
          "type": "uint256"
        },
        {
          "internalType": "uint64",
          "name": "gasLimit",
          "type": "uint64"
        },
        {
          "internalType": "address",
          "name": "to",
          "type": "address"
        },
        {
          "internalType": "uint256",
          "name": "value",
          "type": "uint256"
        },
        {
          "internalType": "bytes",
          "name": "data",
          "type": "bytes"
        },
        {
          "internalType": "uint256",
          "name": "v",
          "type": "uint256"
        },
        {
          "internalType": "uint256",
          "name": "r",
          "type": "uint256"
        },
        {
          "internalType": "uint256",
          "name": "s",
          "type": "uint256"
        }
      ],
      "name": "setHash",
      "outputs": [],
      "payable": false,
      "stateMutability": "nonpayable",
      "type": "function"
    }
  ],
  "bytecode": "0x608060405234801561001057600080fd5b50610184806100206000396000f3fe608060405234801561001057600080fd5b50600436106100365760003560e01c806309bd5a601461003b578063adc957d614610055575b600080fd5b61004361013e565b60408051918252519081900360200190f35b61013c600480360361012081101561006c57600080fd5b67ffffffffffffffff82358116926020810135926040820135909216916001600160a01b036060830135169160808101359181019060c0810160a08201356401000000008111156100bc57600080fd5b8201836020820111156100ce57600080fd5b803590602001918460018302840111640100000000831117156100f057600080fd5b91908080601f0160208091040260200160405190810160405280939291908181526020018383808284376000920191909152509295505082359350505060208101359060400135610144565b005b60005481565b50505050505050505056fea265627a7a723158208744fbe02ddb287319768faaa8291d46f92fcc65d8a17eea79f277894e82f16f64736f6c63430005100032",
  "source": "pragma solidity ^0.5.0;\n\nimport \"../lib/Data.sol\";\n\ncontract TransactionMock {\n  using Data for Data.TX;\n\n  bytes32 public hash;\n\n  function setHash(\n    uint64 nonce,\n    uint256 gasPrice,\n    uint64 gasLimit,\n    address to,\n    uint256 value,\n    bytes memory data,\n    uint256 v,\n    uint256 r,\n    uint256 s\n  ) public {\n    // hash = getHash(nonce, gasPrice, gasLimit, to, value, data, v, r, s);\n  }\n\n  // function getHash(\n  //   uint64 nonce,\n  //   uint256 gasPrice,\n  //   uint64 gasLimit,\n  //   address to,\n  //   uint256 value,\n  //   bytes data,\n  //   uint256 v,\n  //   uint256 r,\n  //   uint256 s\n  // )\n  //   public\n  //   pure\n  //   returns (bytes32)\n  // {\n  //   return Data.toTX(\n  //     nonce,\n  //     gasPrice,\n  //     gasLimit,\n  //     to,\n  //     value,\n  //     data,\n  //     v,\n  //     r,\n  //     s\n  //   ).hash();\n  // }\n}\n",
  "sourcePath": "/Users/pjh/workspace/go/src/github.com/Onther-Tech/plasma-evm/contracts/plasma/plasma-evm-cotracts/contracts/mock/TransactionMock.sol",
  "compiler": {
    "name": "solc",
    "version": "0.5.16+commit.9c3226ce.Emscripten.clang"
  },
  "schemaVersion": "3.0.23",
  "updatedAt": "2020-02-04T07:13:16.241Z",
  "devdoc": {
    "methods": {}
  },
  "userdoc": {
    "methods": {}
  }
}