{
  "contractName": "WTON",
  "abi": [
    {
      "inputs": [
        {
          "internalType": "contract ERC20Mintable",
          "name": "_ton",
          "type": "address"
        }
      ],
      "payable": false,
      "stateMutability": "nonpayable",
      "type": "constructor"
    },
    {
      "anonymous": false,
      "inputs": [
        {
          "indexed": true,
          "internalType": "address",
          "name": "owner",
          "type": "address"
        },
        {
          "indexed": true,
          "internalType": "address",
          "name": "spender",
          "type": "address"
        },
        {
          "indexed": false,
          "internalType": "uint256",
          "name": "value",
          "type": "uint256"
        }
      ],
      "name": "Approval",
      "type": "event"
    },
    {
      "anonymous": false,
      "inputs": [
        {
          "indexed": true,
          "internalType": "address",
          "name": "account",
          "type": "address"
        }
      ],
      "name": "MinterAdded",
      "type": "event"
    },
    {
      "anonymous": false,
      "inputs": [
        {
          "indexed": true,
          "internalType": "address",
          "name": "account",
          "type": "address"
        }
      ],
      "name": "MinterRemoved",
      "type": "event"
    },
    {
      "anonymous": false,
      "inputs": [
        {
          "indexed": true,
          "internalType": "address",
          "name": "previousOwner",
          "type": "address"
        },
        {
          "indexed": true,
          "internalType": "address",
          "name": "newOwner",
          "type": "address"
        }
      ],
      "name": "OwnershipTransferred",
      "type": "event"
    },
    {
      "anonymous": false,
      "inputs": [
        {
          "indexed": true,
          "internalType": "address",
          "name": "from",
          "type": "address"
        },
        {
          "indexed": true,
          "internalType": "address",
          "name": "to",
          "type": "address"
        },
        {
          "indexed": false,
          "internalType": "uint256",
          "name": "value",
          "type": "uint256"
        }
      ],
      "name": "Transfer",
      "type": "event"
    },
    {
      "constant": true,
      "inputs": [],
      "name": "INTERFACE_ID_ON_APPROVE",
      "outputs": [
        {
          "internalType": "bytes4",
          "name": "",
          "type": "bytes4"
        }
      ],
      "payable": false,
      "stateMutability": "view",
      "type": "function"
    },
    {
      "constant": false,
      "inputs": [
        {
          "internalType": "address",
          "name": "account",
          "type": "address"
        }
      ],
      "name": "addMinter",
      "outputs": [],
      "payable": false,
      "stateMutability": "nonpayable",
      "type": "function"
    },
    {
      "constant": true,
      "inputs": [
        {
          "internalType": "address",
          "name": "owner",
          "type": "address"
        },
        {
          "internalType": "address",
          "name": "spender",
          "type": "address"
        }
      ],
      "name": "allowance",
      "outputs": [
        {
          "internalType": "uint256",
          "name": "",
          "type": "uint256"
        }
      ],
      "payable": false,
      "stateMutability": "view",
      "type": "function"
    },
    {
      "constant": false,
      "inputs": [
        {
          "internalType": "address",
          "name": "spender",
          "type": "address"
        },
        {
          "internalType": "uint256",
          "name": "amount",
          "type": "uint256"
        }
      ],
      "name": "approve",
      "outputs": [
        {
          "internalType": "bool",
          "name": "",
          "type": "bool"
        }
      ],
      "payable": false,
      "stateMutability": "nonpayable",
      "type": "function"
    },
    {
      "constant": false,
      "inputs": [
        {
          "internalType": "address",
          "name": "spender",
          "type": "address"
        },
        {
          "internalType": "uint256",
          "name": "amount",
          "type": "uint256"
        },
        {
          "internalType": "bytes",
          "name": "data",
          "type": "bytes"
        }
      ],
      "name": "approveAndCall",
      "outputs": [
        {
          "internalType": "bool",
          "name": "",
          "type": "bool"
        }
      ],
      "payable": false,
      "stateMutability": "nonpayable",
      "type": "function"
    },
    {
      "constant": true,
      "inputs": [
        {
          "internalType": "address",
          "name": "account",
          "type": "address"
        }
      ],
      "name": "balanceOf",
      "outputs": [
        {
          "internalType": "uint256",
          "name": "",
          "type": "uint256"
        }
      ],
      "payable": false,
      "stateMutability": "view",
      "type": "function"
    },
    {
      "constant": false,
      "inputs": [
        {
          "internalType": "uint256",
          "name": "amount",
          "type": "uint256"
        }
      ],
      "name": "burn",
      "outputs": [],
      "payable": false,
      "stateMutability": "nonpayable",
      "type": "function"
    },
    {
      "constant": true,
      "inputs": [],
      "name": "decimals",
      "outputs": [
        {
          "internalType": "uint8",
          "name": "",
          "type": "uint8"
        }
      ],
      "payable": false,
      "stateMutability": "view",
      "type": "function"
    },
    {
      "constant": false,
      "inputs": [
        {
          "internalType": "address",
          "name": "spender",
          "type": "address"
        },
        {
          "internalType": "uint256",
          "name": "subtractedValue",
          "type": "uint256"
        }
      ],
      "name": "decreaseAllowance",
      "outputs": [
        {
          "internalType": "bool",
          "name": "",
          "type": "bool"
        }
      ],
      "payable": false,
      "stateMutability": "nonpayable",
      "type": "function"
    },
    {
      "constant": false,
      "inputs": [
        {
          "internalType": "address",
          "name": "spender",
          "type": "address"
        },
        {
          "internalType": "uint256",
          "name": "addedValue",
          "type": "uint256"
        }
      ],
      "name": "increaseAllowance",
      "outputs": [
        {
          "internalType": "bool",
          "name": "",
          "type": "bool"
        }
      ],
      "payable": false,
      "stateMutability": "nonpayable",
      "type": "function"
    },
    {
      "constant": true,
      "inputs": [
        {
          "internalType": "address",
          "name": "account",
          "type": "address"
        }
      ],
      "name": "isMinter",
      "outputs": [
        {
          "internalType": "bool",
          "name": "",
          "type": "bool"
        }
      ],
      "payable": false,
      "stateMutability": "view",
      "type": "function"
    },
    {
      "constant": true,
      "inputs": [],
      "name": "isOwner",
      "outputs": [
        {
          "internalType": "bool",
          "name": "",
          "type": "bool"
        }
      ],
      "payable": false,
      "stateMutability": "view",
      "type": "function"
    },
    {
      "constant": false,
      "inputs": [
        {
          "internalType": "address",
          "name": "account",
          "type": "address"
        },
        {
          "internalType": "uint256",
          "name": "amount",
          "type": "uint256"
        }
      ],
      "name": "mint",
      "outputs": [
        {
          "internalType": "bool",
          "name": "",
          "type": "bool"
        }
      ],
      "payable": false,
      "stateMutability": "nonpayable",
      "type": "function"
    },
    {
      "constant": true,
      "inputs": [],
      "name": "name",
      "outputs": [
        {
          "internalType": "string",
          "name": "",
          "type": "string"
        }
      ],
      "payable": false,
      "stateMutability": "view",
      "type": "function"
    },
    {
      "constant": true,
      "inputs": [],
      "name": "owner",
      "outputs": [
        {
          "internalType": "address",
          "name": "",
          "type": "address"
        }
      ],
      "payable": false,
      "stateMutability": "view",
      "type": "function"
    },
    {
      "constant": false,
      "inputs": [
        {
          "internalType": "address",
          "name": "target",
          "type": "address"
        }
      ],
      "name": "renounceMinter",
      "outputs": [],
      "payable": false,
      "stateMutability": "nonpayable",
      "type": "function"
    },
    {
      "constant": false,
      "inputs": [],
      "name": "renounceMinter",
      "outputs": [],
      "payable": false,
      "stateMutability": "nonpayable",
      "type": "function"
    },
    {
      "constant": false,
      "inputs": [
        {
          "internalType": "address",
          "name": "target",
          "type": "address"
        }
      ],
      "name": "renounceOwnership",
      "outputs": [],
      "payable": false,
      "stateMutability": "nonpayable",
      "type": "function"
    },
    {
      "constant": false,
      "inputs": [],
      "name": "renounceOwnership",
      "outputs": [],
      "payable": false,
      "stateMutability": "nonpayable",
      "type": "function"
    },
    {
      "constant": true,
      "inputs": [],
      "name": "seigManager",
      "outputs": [
        {
          "internalType": "contract SeigManagerI",
          "name": "",
          "type": "address"
        }
      ],
      "payable": false,
      "stateMutability": "view",
      "type": "function"
    },
    {
      "constant": false,
      "inputs": [
        {
          "internalType": "contract SeigManagerI",
          "name": "_seigManager",
          "type": "address"
        }
      ],
      "name": "setSeigManager",
      "outputs": [],
      "payable": false,
      "stateMutability": "nonpayable",
      "type": "function"
    },
    {
      "constant": true,
      "inputs": [
        {
          "internalType": "bytes4",
          "name": "interfaceId",
          "type": "bytes4"
        }
      ],
      "name": "supportsInterface",
      "outputs": [
        {
          "internalType": "bool",
          "name": "",
          "type": "bool"
        }
      ],
      "payable": false,
      "stateMutability": "view",
      "type": "function"
    },
    {
      "constant": true,
      "inputs": [],
      "name": "symbol",
      "outputs": [
        {
          "internalType": "string",
          "name": "",
          "type": "string"
        }
      ],
      "payable": false,
      "stateMutability": "view",
      "type": "function"
    },
    {
      "constant": true,
      "inputs": [],
      "name": "ton",
      "outputs": [
        {
          "internalType": "contract ERC20Mintable",
          "name": "",
          "type": "address"
        }
      ],
      "payable": false,
      "stateMutability": "view",
      "type": "function"
    },
    {
      "constant": true,
      "inputs": [],
      "name": "totalSupply",
      "outputs": [
        {
          "internalType": "uint256",
          "name": "",
          "type": "uint256"
        }
      ],
      "payable": false,
      "stateMutability": "view",
      "type": "function"
    },
    {
      "constant": false,
      "inputs": [
        {
          "internalType": "address",
          "name": "recipient",
          "type": "address"
        },
        {
          "internalType": "uint256",
          "name": "amount",
          "type": "uint256"
        }
      ],
      "name": "transfer",
      "outputs": [
        {
          "internalType": "bool",
          "name": "",
          "type": "bool"
        }
      ],
      "payable": false,
      "stateMutability": "nonpayable",
      "type": "function"
    },
    {
      "constant": false,
      "inputs": [
        {
          "internalType": "address",
          "name": "sender",
          "type": "address"
        },
        {
          "internalType": "address",
          "name": "recipient",
          "type": "address"
        },
        {
          "internalType": "uint256",
          "name": "amount",
          "type": "uint256"
        }
      ],
      "name": "transferFrom",
      "outputs": [
        {
          "internalType": "bool",
          "name": "",
          "type": "bool"
        }
      ],
      "payable": false,
      "stateMutability": "nonpayable",
      "type": "function"
    },
    {
      "constant": false,
      "inputs": [
        {
          "internalType": "address",
          "name": "target",
          "type": "address"
        },
        {
          "internalType": "address",
          "name": "newOwner",
          "type": "address"
        }
      ],
      "name": "transferOwnership",
      "outputs": [],
      "payable": false,
      "stateMutability": "nonpayable",
      "type": "function"
    },
    {
      "constant": false,
      "inputs": [
        {
          "internalType": "address",
          "name": "newOwner",
          "type": "address"
        }
      ],
      "name": "transferOwnership",
      "outputs": [],
      "payable": false,
      "stateMutability": "nonpayable",
      "type": "function"
    },
    {
      "constant": false,
      "inputs": [
        {
          "internalType": "address",
          "name": "owner",
          "type": "address"
        },
        {
          "internalType": "address",
          "name": "spender",
          "type": "address"
        },
        {
          "internalType": "uint256",
          "name": "tonAmount",
          "type": "uint256"
        },
        {
          "internalType": "bytes",
          "name": "data",
          "type": "bytes"
        }
      ],
      "name": "onApprove",
      "outputs": [
        {
          "internalType": "bool",
          "name": "",
          "type": "bool"
        }
      ],
      "payable": false,
      "stateMutability": "nonpayable",
      "type": "function"
    },
    {
      "constant": false,
      "inputs": [
        {
          "internalType": "address",
          "name": "account",
          "type": "address"
        },
        {
          "internalType": "uint256",
          "name": "amount",
          "type": "uint256"
        }
      ],
      "name": "burnFrom",
      "outputs": [],
      "payable": false,
      "stateMutability": "nonpayable",
      "type": "function"
    },
    {
      "constant": false,
      "inputs": [
        {
          "internalType": "uint256",
          "name": "wtonAmount",
          "type": "uint256"
        }
      ],
      "name": "swapToTON",
      "outputs": [
        {
          "internalType": "bool",
          "name": "",
          "type": "bool"
        }
      ],
      "payable": false,
      "stateMutability": "nonpayable",
      "type": "function"
    },
    {
      "constant": false,
      "inputs": [
        {
          "internalType": "uint256",
          "name": "tonAmount",
          "type": "uint256"
        }
      ],
      "name": "swapFromTON",
      "outputs": [
        {
          "internalType": "bool",
          "name": "",
          "type": "bool"
        }
      ],
      "payable": false,
      "stateMutability": "nonpayable",
      "type": "function"
    },
    {
      "constant": false,
      "inputs": [
        {
          "internalType": "address",
          "name": "to",
          "type": "address"
        },
        {
          "internalType": "uint256",
          "name": "wtonAmount",
          "type": "uint256"
        }
      ],
      "name": "swapToTONAndTransfer",
      "outputs": [
        {
          "internalType": "bool",
          "name": "",
          "type": "bool"
        }
      ],
      "payable": false,
      "stateMutability": "nonpayable",
      "type": "function"
    },
    {
      "constant": false,
      "inputs": [
        {
          "internalType": "address",
          "name": "to",
          "type": "address"
        },
        {
          "internalType": "uint256",
          "name": "tonAmount",
          "type": "uint256"
        }
      ],
      "name": "swapFromTONAndTransfer",
      "outputs": [
        {
          "internalType": "bool",
          "name": "",
          "type": "bool"
        }
      ],
      "payable": false,
      "stateMutability": "nonpayable",
      "type": "function"
    }
  ],
  "bytecode": "0x60806040523480156200001157600080fd5b5060405162002d7138038062002d71833981810160405260208110156200003757600080fd5b5051604080518082018252600b81527f5772617070656420544f4e0000000000000000000000000000000000000000006020828101919091528251808401909352600483527f57544f4e00000000000000000000000000000000000000000000000000000000908301526000805460ff1916600117905590601b620000d7620000c86001600160e01b03620002d616565b6001600160e01b03620002db16565b6000620000ec6001600160e01b03620002d616565b600580546001600160a01b0319166001600160a01b038316908117909155604051919250906000907f8be0079c531659141344cd1fd0a4f28419497f9722a3daafe3b4186f6b6457e0908290a35082516200014f90600690602086019062000526565b5081516200016590600790602085019062000526565b506008805460ff191660ff9290921691909117905550620001a890507f01ffc9a7000000000000000000000000000000000000000000000000000000006200032d565b620001d6604051808062002d276028913960405190819003602801902090506001600160e01b036200032d16565b806001600160a01b031663313ce5676040518163ffffffff1660e01b815260040160206040518083038186803b1580156200021057600080fd5b505afa15801562000225573d6000803e3d6000fd5b505050506040513d60208110156200023c57600080fd5b505160ff16601214620002b057604080517f08c379a000000000000000000000000000000000000000000000000000000000815260206004820181905260248201527f57544f4e3a20646563696d616c73206f6620544f4e206d757374206265203138604482015290519081900360640190fd5b600a80546001600160a01b0319166001600160a01b0392909216919091179055620005c8565b335b90565b620002f6816004620003fc60201b62001eac1790919060201c565b6040516001600160a01b038216907f6ae172837ea30b801fbfcdd4108aa1d5bf8ff775444fd70256b44e6bf3dfc3f690600090a250565b7fffffffff000000000000000000000000000000000000000000000000000000008082161415620003bf57604080517f08c379a000000000000000000000000000000000000000000000000000000000815260206004820152601c60248201527f4552433136353a20696e76616c696420696e7465726661636520696400000000604482015290519081900360640190fd5b7fffffffff00000000000000000000000000000000000000000000000000000000166000908152600960205260409020805460ff19166001179055565b6200041182826001600160e01b03620004a316565b156200047e57604080517f08c379a000000000000000000000000000000000000000000000000000000000815260206004820152601f60248201527f526f6c65733a206163636f756e7420616c72656164792068617320726f6c6500604482015290519081900360640190fd5b6001600160a01b0316600090815260209190915260409020805460ff19166001179055565b60006001600160a01b03821662000506576040517f08c379a000000000000000000000000000000000000000000000000000000000815260040180806020018281038252602281526020018062002d4f6022913960400191505060405180910390fd5b506001600160a01b03166000908152602091909152604090205460ff1690565b828054600181600116156101000203166002900490600052602060002090601f016020900481019282601f106200056957805160ff191683800117855562000599565b8280016001018555821562000599579182015b82811115620005995782518255916020019190600101906200057c565b50620005a7929150620005ab565b5090565b620002d891905b80821115620005a75760008155600101620005b2565b61274f80620005d86000396000f3fe608060405234801561001057600080fd5b50600436106102115760003560e01c8063715018a611610125578063a9059cbb116100ad578063dd62ed3e1161007c578063dd62ed3e14610765578063e34869d714610793578063e3b99e85146107b0578063f2fde38b146107dc578063f53fe70f1461080257610211565b8063a9059cbb14610650578063aa271e1a1461067c578063cae9ca51146106a2578063cc48b9471461075d57610211565b80638f32d59b116100f45780638f32d59b146105e657806395d89b41146105ee578063983b2d56146105f6578063986502751461061c578063a457c2d71461062457610211565b8063715018a6146105845780637657f20a1461058c57806379cc6790146105b25780638da5cb5b146105de57610211565b806340c10f19116101a85780635f112c68116101775780635f112c68146104c15780636cd28f9a146104e75780636d4354211461050c5780636fb7f5581461053a57806370a082311461055e57610211565b806340c10f19146103bc5780634273ca16146103e857806342966c6814610478578063588420b71461049557610211565b806323b872dd116101e457806323b872dd14610314578063313ce5671461034a57806338bf3cfa14610368578063395093511461039057610211565b806301ffc9a71461021657806306fdde0314610251578063095ea7b3146102ce57806318160ddd146102fa575b600080fd5b61023d6004803603602081101561022c57600080fd5b50356001600160e01b03191661081f565b604080519115158252519081900360200190f35b61025961083e565b6040805160208082528351818301528351919283929083019185019080838360005b8381101561029357818101518382015260200161027b565b50505050905090810190601f1680156102c05780820380516001836020036101000a031916815260200191505b509250505060405180910390f35b61023d600480360360408110156102e457600080fd5b506001600160a01b0381351690602001356108d4565b6103026108f1565b60408051918252519081900360200190f35b61023d6004803603606081101561032a57600080fd5b506001600160a01b038135811691602081013590911690604001356108f7565b610352610985565b6040805160ff9092168252519081900360200190f35b61038e6004803603602081101561037e57600080fd5b50356001600160a01b031661098e565b005b61023d600480360360408110156103a657600080fd5b506001600160a01b038135169060200135610a2b565b61023d600480360360408110156103d257600080fd5b506001600160a01b038135169060200135610a7f565b61023d600480360360808110156103fe57600080fd5b6001600160a01b0382358116926020810135909116916040820135919081019060808101606082013564010000000081111561043957600080fd5b82018360208201111561044b57600080fd5b8035906020019184600183028401116401000000008311171561046d57600080fd5b509092509050610ad6565b61038e6004803603602081101561048e57600080fd5b5035610bb5565b61023d600480360360408110156104ab57600080fd5b506001600160a01b038135169060200135610bc9565b61038e600480360360208110156104d757600080fd5b50356001600160a01b0316610c39565b6104ef610cbb565b604080516001600160e01b03199092168252519081900360200190f35b61038e6004803603604081101561052257600080fd5b506001600160a01b0381358116916020013516610cd6565b610542610d91565b604080516001600160a01b039092168252519081900360200190f35b6103026004803603602081101561057457600080fd5b50356001600160a01b0316610da5565b61038e610dc0565b61038e600480360360208110156105a257600080fd5b50356001600160a01b0316610e51565b61038e600480360360408110156105c857600080fd5b506001600160a01b038135169060200135610ec0565b610542610eeb565b61023d610efa565b610259610f20565b61038e6004803603602081101561060c57600080fd5b50356001600160a01b0316610f81565b61038e610fd0565b61023d6004803603604081101561063a57600080fd5b506001600160a01b038135169060200135610fe2565b61023d6004803603604081101561066657600080fd5b506001600160a01b038135169060200135611050565b61023d6004803603602081101561069257600080fd5b50356001600160a01b0316611064565b61023d600480360360608110156106b857600080fd5b6001600160a01b03823516916020810135918101906060810160408201356401000000008111156106e857600080fd5b8201836020820111156106fa57600080fd5b8035906020019184600183028401116401000000008311171561071c57600080fd5b91908080601f01602080910402602001604051908101604052809392919081815260200183838082843760009201919091525092955061107d945050505050565b61054261109e565b6103026004803603604081101561077b57600080fd5b506001600160a01b03813581169160200135166110ad565b61023d600480360360208110156107a957600080fd5b50356110d8565b61023d600480360360408110156107c657600080fd5b506001600160a01b038135169060200135611147565b61038e600480360360208110156107f257600080fd5b50356001600160a01b03166111a2565b61023d6004803603602081101561081857600080fd5b50356111f2565b6001600160e01b03191660009081526009602052604090205460ff1690565b60068054604080516020601f60026000196101006001881615020190951694909404938401819004810282018101909252828152606093909290918301828280156108ca5780601f1061089f576101008083540402835291602001916108ca565b820191906000526020600020905b8154815290600101906020018083116108ad57829003601f168201915b5050505050905090565b60006108e86108e161124d565b8484611251565b50600192915050565b60035490565b600061090484848461133d565b61097a8461091061124d565b610975856040518060600160405280602881526020016125ae602891396001600160a01b038a1660009081526002602052604081209061094e61124d565b6001600160a01b03168152602081019190915260400160002054919063ffffffff6113a716565b611251565b5060015b9392505050565b60085460ff1690565b610996610efa565b6109d5576040805162461bcd60e51b815260206004820181905260248201526000805160206125d6833981519152604482015290519081900360640190fd5b806001600160a01b031663715018a66040518163ffffffff1660e01b8152600401600060405180830381600087803b158015610a1057600080fd5b505af1158015610a24573d6000803e3d6000fd5b5050505050565b60006108e8610a3861124d565b846109758560026000610a4961124d565b6001600160a01b03908116825260208083019390935260409182016000908120918c16815292529020549063ffffffff61143e16565b6000610a91610a8c61124d565b611064565b610acc5760405162461bcd60e51b815260040180806020018281038252603081526020018061255d6030913960400191505060405180910390fd5b6108e88383611498565b600a546000906001600160a01b03163314610b225760405162461bcd60e51b81526004018080602001828103825260268152602001806126a66026913960400191505060405180910390fd5b610b2d8687866114a2565b506000610b39856114d4565b9050600080610b7d86868080601f0160208091040260200160405190810160405280939291908181526020018383808284376000920191909152506114dd92505050565b91509150610b8c898385611251565b6060610b97826114ff565b9050610ba58a848684611529565b5060019998505050505050505050565b610bc6610bc061124d565b8261177f565b50565b6000805460ff16610c0f576040805162461bcd60e51b815260206004820152601f6024820152600080516020612424833981519152604482015290519081900360640190fd5b6000805460ff19169055610c243384846114a2565b90506000805460ff1916600117905592915050565b610c41610efa565b610c80576040805162461bcd60e51b815260206004820181905260248201526000805160206125d6833981519152604482015290519081900360640190fd5b806001600160a01b031663986502756040518163ffffffff1660e01b8152600401600060405180830381600087803b158015610a1057600080fd5b60405180602861250582396028019050604051809103902081565b610cde610efa565b610d1d576040805162461bcd60e51b815260206004820181905260248201526000805160206125d6833981519152604482015290519081900360640190fd5b816001600160a01b031663f2fde38b826040518263ffffffff1660e01b815260040180826001600160a01b03166001600160a01b03168152602001915050600060405180830381600087803b158015610d7557600080fd5b505af1158015610d89573d6000803e3d6000fd5b505050505050565b60085461010090046001600160a01b031681565b6001600160a01b031660009081526001602052604090205490565b610dc8610efa565b610e07576040805162461bcd60e51b815260206004820181905260248201526000805160206125d6833981519152604482015290519081900360640190fd5b6005546040516000916001600160a01b0316907f8be0079c531659141344cd1fd0a4f28419497f9722a3daafe3b4186f6b6457e0908390a3600580546001600160a01b0319169055565b610e59610efa565b610e98576040805162461bcd60e51b815260206004820181905260248201526000805160206125d6833981519152604482015290519081900360640190fd5b600880546001600160a01b0390921661010002610100600160a81b0319909216919091179055565b610ec933611064565b15610edd57610ed8828261177f565b610ee7565b610ee78282611789565b5050565b6005546001600160a01b031690565b6005546000906001600160a01b0316610f1161124d565b6001600160a01b031614905090565b60078054604080516020601f60026000196101006001881615020190951694909404938401819004810282018101909252828152606093909290918301828280156108ca5780601f1061089f576101008083540402835291602001916108ca565b610f8c610a8c61124d565b610fc75760405162461bcd60e51b815260040180806020018281038252603081526020018061255d6030913960400191505060405180910390fd5b610bc681611793565b610fe0610fdb61124d565b6117db565b565b60006108e8610fef61124d565b84610975856040518060600160405280602581526020016126f6602591396002600061101961124d565b6001600160a01b03908116825260208083019390935260409182016000908120918d1681529252902054919063ffffffff6113a716565b60006108e861105d61124d565b848461133d565b600061107760048363ffffffff61182316565b92915050565b600061108984846108d4565b61109257600080fd5b61097e33858585611529565b600a546001600160a01b031681565b6001600160a01b03918216600090815260026020908152604080832093909416825291909152205490565b6000805460ff1661111e576040805162461bcd60e51b815260206004820152601f6024820152600080516020612424833981519152604482015290519081900360640190fd5b6000805460ff191690556111333380846114a2565b90506000805460ff19166001179055919050565b6000805460ff1661118d576040805162461bcd60e51b815260206004820152601f6024820152600080516020612424833981519152604482015290519081900360640190fd5b6000805460ff19169055610c2483338461188a565b6111aa610efa565b6111e9576040805162461bcd60e51b815260206004820181905260248201526000805160206125d6833981519152604482015290519081900360640190fd5b610bc6816119ef565b6000805460ff16611238576040805162461bcd60e51b815260206004820152601f6024820152600080516020612424833981519152604482015290519081900360640190fd5b6000805460ff1916905561113333808461188a565b3390565b6001600160a01b0383166112965760405162461bcd60e51b81526004018080602001828103825260248152602001806126826024913960400191505060405180910390fd5b6001600160a01b0382166112db5760405162461bcd60e51b815260040180806020018281038252602281526020018061248c6022913960400191505060405180910390fd5b6001600160a01b03808416600081815260026020908152604080832094871680845294825291829020859055815185815291517f8c5be1e5ebec7d5bd14f71427d1e84f3dd0314c0f7b2291e5b200ac8c7c3b9259281900390910190a3505050565b336001600160a01b038416148061135c5750336001600160a01b038316145b6113975760405162461bcd60e51b815260040180806020018281038252603081526020018061252d6030913960400191505060405180910390fd5b6113a2838383611a90565b505050565b600081848411156114365760405162461bcd60e51b81526004018080602001828103825283818151815260200191508051906020019080838360005b838110156113fb5781810151838201526020016113e3565b50505050905090810190601f1680156114285780820380516001836020036101000a031916815260200191505b509250505060405180910390fd5b505050900390565b60008282018381101561097e576040805162461bcd60e51b815260206004820152601b60248201527f536166654d6174683a206164646974696f6e206f766572666c6f770000000000604482015290519081900360640190fd5b610ee78282611bee565b60006114b6836114b1846114d4565b611498565b600a5461097a906001600160a01b031685308563ffffffff611ce016565b633b9aca000290565b60008082516040146114ee57600080fd5b505060208101516040909101519091565b60408051602080825281830190925260609160208201818038833950505060208101929092525090565b61154b8360405180806125056028913960280190506040518091039020611d40565b6115865760405162461bcd60e51b81526004018080602001828103825260318152602001806124ae6031913960400191505060405180910390fd5b60006060846001600160a01b0316604051808061250560289139602801905060405180910390208787878760405160240180856001600160a01b03166001600160a01b03168152602001846001600160a01b03166001600160a01b0316815260200183815260200180602001828103825283818151815260200191508051906020019080838360005b8381101561162757818101518382015260200161160f565b50505050905090810190601f1680156116545780820380516001836020036101000a031916815260200191505b5060408051601f198184030181529181526020820180516001600160e01b03166001600160e01b0319909a16999099178952518151919890975087965094509250829150849050835b602083106116bc5780518252601f19909201916020918201910161169d565b6001836020036101000a0380198251168184511680821785525050505050509050019150506000604051808303816000865af19150503d806000811461171e576040519150601f19603f3d011682016040523d82523d6000602084013e611723565b606091505b50915091508181906117765760405162461bcd60e51b81526020600482018181528351602484015283519092839260449091019190850190808383600083156113fb5781810151838201526020016113e3565b50505050505050565b610ee78282611d5c565b610ee78282611e58565b6117a460048263ffffffff611eac16565b6040516001600160a01b038216907f6ae172837ea30b801fbfcdd4108aa1d5bf8ff775444fd70256b44e6bf3dfc3f690600090a250565b6117ec60048263ffffffff611f2d16565b6040516001600160a01b038216907fe94479a9f7e1952cc78f2d6baab678adc1b772d936c6583def489e524cb6669290600090a250565b60006001600160a01b03821661186a5760405162461bcd60e51b81526004018080602001828103825260228152602001806125f66022913960400191505060405180910390fd5b506001600160a01b03166000908152602091909152604090205460ff1690565b6000611896838361177f565b60006118a183611f94565b600a54604080516370a0823160e01b815230600482015290519293506000926001600160a01b03909216916370a0823191602480820192602092909190829003018186803b1580156118f257600080fd5b505afa158015611906573d6000803e3d6000fd5b505050506040513d602081101561191c57600080fd5b50519050818110156119c657600a546001600160a01b03166340c10f193061194a858563ffffffff611ff216565b6040518363ffffffff1660e01b815260040180836001600160a01b03166001600160a01b0316815260200182815260200192505050602060405180830381600087803b15801561199957600080fd5b505af11580156119ad573d6000803e3d6000fd5b505050506040513d60208110156119c357600080fd5b50505b600a546119e3906001600160a01b0316878463ffffffff61203416565b50600195945050505050565b6001600160a01b038116611a345760405162461bcd60e51b81526004018080602001828103825260268152602001806124666026913960400191505060405180910390fd5b6005546040516001600160a01b038084169216907f8be0079c531659141344cd1fd0a4f28419497f9722a3daafe3b4186f6b6457e090600090a3600580546001600160a01b0319166001600160a01b0392909216919091179055565b6001600160a01b038316611ad55760405162461bcd60e51b815260040180806020018281038252602581526020018061265d6025913960400191505060405180910390fd5b6001600160a01b038216611b1a5760405162461bcd60e51b81526004018080602001828103825260238152602001806124016023913960400191505060405180910390fd5b611b5d816040518060600160405280602681526020016124df602691396001600160a01b038616600090815260016020526040902054919063ffffffff6113a716565b6001600160a01b038085166000908152600160205260408082209390935590841681522054611b92908263ffffffff61143e16565b6001600160a01b0380841660008181526001602090815260409182902094909455805185815290519193928716927fddf252ad1be2c89b69c2b068fc378daa952ba7f163c4a11628f55a4df523b3ef92918290030190a3505050565b6001600160a01b038216611c49576040805162461bcd60e51b815260206004820152601f60248201527f45524332303a206d696e7420746f20746865207a65726f206164647265737300604482015290519081900360640190fd5b600354611c5c908263ffffffff61143e16565b6003556001600160a01b038216600090815260016020526040902054611c88908263ffffffff61143e16565b6001600160a01b03831660008181526001602090815260408083209490945583518581529351929391927fddf252ad1be2c89b69c2b068fc378daa952ba7f163c4a11628f55a4df523b3ef9281900390910190a35050565b604080516001600160a01b0385811660248301528416604482015260648082018490528251808303909101815260849091019091526020810180516001600160e01b03166323b872dd60e01b179052611d3a908590612082565b50505050565b6000611d4b83612237565b801561097e575061097e838361226a565b6001600160a01b038216611da15760405162461bcd60e51b815260040180806020018281038252602181526020018061263c6021913960400191505060405180910390fd5b611de481604051806060016040528060228152602001612444602291396001600160a01b038516600090815260016020526040902054919063ffffffff6113a716565b6001600160a01b038316600090815260016020526040902055600354611e10908263ffffffff611ff216565b6003556040805182815290516000916001600160a01b038516917fddf252ad1be2c89b69c2b068fc378daa952ba7f163c4a11628f55a4df523b3ef9181900360200190a35050565b611e62828261177f565b610ee782611e6e61124d565b61097584604051806060016040528060248152602001612618602491396001600160a01b03881660009081526002602052604081209061094e61124d565b611eb68282611823565b15611f08576040805162461bcd60e51b815260206004820152601f60248201527f526f6c65733a206163636f756e7420616c72656164792068617320726f6c6500604482015290519081900360640190fd5b6001600160a01b0316600090815260209190915260409020805460ff19166001179055565b611f378282611823565b611f725760405162461bcd60e51b815260040180806020018281038252602181526020018061258d6021913960400191505060405180910390fd5b6001600160a01b0316600090815260209190915260409020805460ff19169055565b6000633b9aca00820615611fe7576040805162461bcd60e51b81526020600482015260156024820152742ba0a21d10383932b1b4b9b4b7b710313937b5b2b760591b604482015290519081900360640190fd5b50633b9aca00900490565b600061097e83836040518060400160405280601e81526020017f536166654d6174683a207375627472616374696f6e206f766572666c6f7700008152506113a7565b604080516001600160a01b038416602482015260448082018490528251808303909101815260649091019091526020810180516001600160e01b031663a9059cbb60e01b1790526113a29084905b612094826001600160a01b0316612290565b6120e5576040805162461bcd60e51b815260206004820152601f60248201527f5361666545524332303a2063616c6c20746f206e6f6e2d636f6e747261637400604482015290519081900360640190fd5b60006060836001600160a01b0316836040518082805190602001908083835b602083106121235780518252601f199092019160209182019101612104565b6001836020036101000a0380198251168184511680821785525050505050509050019150506000604051808303816000865af19150503d8060008114612185576040519150601f19603f3d011682016040523d82523d6000602084013e61218a565b606091505b50915091508181906121dd5760405162461bcd60e51b81526020600482018181528351602484015283519092839260449091019190850190808383600083156113fb5781810151838201526020016113e3565b50805115611d3a578080602001905160208110156121fa57600080fd5b5051611d3a5760405162461bcd60e51b815260040180806020018281038252602a8152602001806126cc602a913960400191505060405180910390fd5b600061224a826301ffc9a760e01b61226a565b80156110775750612263826001600160e01b031961226a565b1592915050565b600080600061227985856122cc565b915091508180156122875750805b95945050505050565b6000813f7fc5d2460186f7233c927e7db2dcc703c0e500b653ca82273b7bfad8045d85a4708181148015906122c457508115155b949350505050565b604080516001600160e01b0319831660248083019190915282518083039091018152604490910182526020810180516001600160e01b03166301ffc9a760e01b1781529151815160009384939284926060926001600160a01b038a169261753092879282918083835b602083106123545780518252601f199092019160209182019101612335565b6001836020036101000a0380198251168184511680821785525050505050509050019150506000604051808303818686fa925050503d80600081146123b5576040519150601f19603f3d011682016040523d82523d6000602084013e6123ba565b606091505b50915091506020815110156123d857600080945094505050506123f9565b818180602001905160208110156123ee57600080fd5b505190955093505050505b925092905056fe45524332303a207472616e7366657220746f20746865207a65726f20616464726573735265656e7472616e637947756172643a207265656e7472616e742063616c6c0045524332303a206275726e20616d6f756e7420657863656564732062616c616e63654f776e61626c653a206e6577206f776e657220697320746865207a65726f206164647265737345524332303a20617070726f766520746f20746865207a65726f206164647265737345524332304f6e417070726f76653a207370656e64657220646f65736e277420737570706f7274206f6e417070726f766545524332303a207472616e7366657220616d6f756e7420657863656564732062616c616e63656f6e417070726f766528616464726573732c616464726573732c75696e743235362c62797465732953656967546f6b656e3a206f6e6c792073656e646572206f7220726563697069656e742063616e207472616e736665724d696e746572526f6c653a2063616c6c657220646f6573206e6f74206861766520746865204d696e74657220726f6c65526f6c65733a206163636f756e7420646f6573206e6f74206861766520726f6c6545524332303a207472616e7366657220616d6f756e74206578636565647320616c6c6f77616e63654f776e61626c653a2063616c6c6572206973206e6f7420746865206f776e6572526f6c65733a206163636f756e7420697320746865207a65726f206164647265737345524332303a206275726e20616d6f756e74206578636565647320616c6c6f77616e636545524332303a206275726e2066726f6d20746865207a65726f206164647265737345524332303a207472616e736665722066726f6d20746865207a65726f206164647265737345524332303a20617070726f76652066726f6d20746865207a65726f206164647265737357544f4e3a206f6e6c792061636365707420544f4e20617070726f76652063616c6c6261636b5361666545524332303a204552433230206f7065726174696f6e20646964206e6f74207375636365656445524332303a2064656372656173656420616c6c6f77616e63652062656c6f77207a65726fa265627a7a72315820ef7dee76f5aab007b622a97877619378c997d5bd443f6ff7b2c148f790fde96b64736f6c634300050c00326f6e417070726f766528616464726573732c616464726573732c75696e743235362c627974657329526f6c65733a206163636f756e7420697320746865207a65726f2061646472657373",
  "source": "pragma solidity ^0.5.12;\n\nimport { Ownable } from \"../../../node_modules/openzeppelin-solidity/contracts/ownership/Ownable.sol\";\nimport { SafeMath } from \"../../../node_modules/openzeppelin-solidity/contracts/math/SafeMath.sol\";\n\nimport { IERC20 } from \"../../../node_modules/openzeppelin-solidity/contracts/token/ERC20/IERC20.sol\";\nimport { ERC20 } from \"../../../node_modules/openzeppelin-solidity/contracts/token/ERC20/ERC20.sol\";\nimport { ERC20Mintable } from \"../../../node_modules/openzeppelin-solidity/contracts/token/ERC20/ERC20Mintable.sol\";\nimport { ERC20Burnable } from \"../../../node_modules/openzeppelin-solidity/contracts/token/ERC20/ERC20Burnable.sol\";\nimport { ERC20Detailed } from \"../../../node_modules/openzeppelin-solidity/contracts/token/ERC20/ERC20Detailed.sol\";\nimport { SafeERC20 } from \"../../../node_modules/openzeppelin-solidity/contracts/token/ERC20/SafeERC20.sol\";\n\nimport { ReentrancyGuard } from \"../../../node_modules/openzeppelin-solidity/contracts/utils/ReentrancyGuard.sol\";\nimport { ERC165 } from \"../../../node_modules/openzeppelin-solidity/contracts/introspection/ERC165.sol\";\nimport { ERC165Checker } from \"../../../node_modules/openzeppelin-solidity/contracts/introspection/ERC165Checker.sol\";\n\nimport { DSMath } from \"../../../node_modules/coinage-token/contracts/lib/DSMath.sol\";\n\nimport { SeigManagerI } from \"../interfaces/SeigManagerI.sol\";\n\nimport { SeigToken } from \"./SeigToken.sol\";\nimport { OnApprove } from \"./OnApprove.sol\";\nimport { OnApproveConstant } from \"./OnApproveConstant.sol\";\n\n\ncontract WTON is DSMath, ReentrancyGuard, Ownable, ERC20Mintable, ERC20Burnable, ERC20Detailed, SeigToken, OnApprove {\n  using SafeERC20 for ERC20Mintable;\n\n  ERC20Mintable public ton;\n\n  constructor (\n    ERC20Mintable _ton\n  )\n    public\n    ERC20Detailed(\"Wrapped TON\", \"WTON\", 27)\n  {\n    require(ERC20Detailed(address(_ton)).decimals() == 18, \"WTON: decimals of TON must be 18\");\n    ton = _ton;\n  }\n\n  //////////////////////\n  // TON Approve callback\n  //////////////////////\n\n  function onApprove(\n    address owner,\n    address spender,\n    uint256 tonAmount,\n    bytes calldata data\n  ) external returns (bool) {\n    require(msg.sender == address(ton), \"WTON: only accept TON approve callback\");\n\n    // swap owner's TON to WTON\n    _swapFromTON(owner, owner, tonAmount);\n\n    uint256 wtonAmount = _toRAY(tonAmount);\n    (address depositManager, address rootchain) = _decodeTONApproveData(data);\n\n    // approve WTON to DepositManager\n    _approve(owner, depositManager, wtonAmount);\n\n    // call DepositManager.onApprove to deposit WTON\n    bytes memory depositManagerOnApproveData = _encodeDepositManagerOnApproveData(rootchain);\n    _callOnApprove(owner, depositManager, wtonAmount, depositManagerOnApproveData);\n\n    return true;\n  }\n\n  /**\n   * @dev data is 64 bytes of 2 addresses in left-padded 32 bytes\n   */\n  function _decodeTONApproveData(\n    bytes memory data\n  ) internal pure returns (address depositManager, address rootchain) {\n    require(data.length == 0x40);\n\n    assembly {\n      depositManager := mload(add(data, 0x20))\n      rootchain := mload(add(data, 0x40))\n    }\n  }\n\n  function _encodeDepositManagerOnApproveData(\n    address rootchain\n  ) internal pure returns (bytes memory data) {\n    data = new bytes(0x20);\n\n    assembly {\n      mstore(add(data, 0x20), rootchain)\n    }\n  }\n\n\n  //////////////////////\n  // Override ERC20 functions\n  //////////////////////\n\n  function burnFrom(address account, uint256 amount) public {\n    if (isMinter(msg.sender)) {\n      _burn(account, amount);\n      return;\n    }\n\n    super.burnFrom(account, amount);\n  }\n\n  //////////////////////\n  // Swap functions\n  //////////////////////\n\n  /**\n   * @dev swap WTON to TON\n   */\n  function swapToTON(uint256 wtonAmount) public nonReentrant returns (bool) {\n    return _swapToTON(msg.sender, msg.sender, wtonAmount);\n  }\n\n  /**\n   * @dev swap TON to WTON\n   */\n  function swapFromTON(uint256 tonAmount) public nonReentrant returns (bool) {\n    return _swapFromTON(msg.sender, msg.sender, tonAmount);\n  }\n\n  /**\n   * @dev swap WTON to TON, and transfer TON\n   * NOTE: TON's transfer event's `from` argument is not `msg.sender` but `WTON` address.\n   */\n  function swapToTONAndTransfer(address to, uint256 wtonAmount) public nonReentrant returns (bool) {\n    return _swapToTON(to, msg.sender, wtonAmount);\n  }\n\n  /**\n   * @dev swap TON to WTON, and transfer WTON\n   */\n  function swapFromTONAndTransfer(address to, uint256 tonAmount) public nonReentrant returns (bool) {\n    return _swapFromTON(msg.sender, to, tonAmount);\n  }\n\n\n  //////////////////////\n  // Internal functions\n  //////////////////////\n\n  function _swapToTON(address tonAccount, address wtonAccount, uint256 wtonAmount) internal returns (bool) {\n    _burn(wtonAccount, wtonAmount);\n\n    // mint TON if WTON contract has not enough TON to transfer\n    uint256 tonAmount = _toWAD(wtonAmount);\n    uint256 tonBalance = ton.balanceOf(address(this));\n    if (tonBalance < tonAmount) {\n      ton.mint(address(this), tonAmount.sub(tonBalance));\n    }\n\n    ton.safeTransfer(tonAccount, tonAmount);\n    return true;\n  }\n\n  function _swapFromTON(address tonAccount, address wtonAccount, uint256 tonAmount) internal returns (bool) {\n    _mint(wtonAccount, _toRAY(tonAmount));\n    ton.safeTransferFrom(tonAccount, address(this), tonAmount);\n    return true;\n  }\n\n  /**\n   * @dev transform WAD to RAY\n   */\n  function _toRAY(uint256 v) internal pure returns (uint256) {\n    return v * 10 ** 9;\n  }\n\n  /**\n   * @dev transform RAY to WAD\n   */\n  function _toWAD(uint256 v) internal pure returns (uint256) {\n    if (v % 10 ** 9 != 0) {\n      revert(\"WAD: precision broken\");\n    }\n\n    return v / 10 ** 9;\n  }\n}",
  "sourcePath": "/Users/pjh/workspace/go/src/github.com/Onther-Tech/plasma-evm/contracts/plasma/plasma-evm-cotracts/contracts/stake/tokens/WTON.sol",
  "compiler": {
    "name": "solc",
    "version": "0.5.12+commit.7709ece9.Emscripten.clang"
  },
  "schemaVersion": "3.0.23",
  "updatedAt": "2020-02-13T05:01:24.044Z",
  "devdoc": {
    "methods": {
      "allowance(address,address)": {
        "details": "See {IERC20-allowance}."
      },
      "approve(address,uint256)": {
        "details": "See {IERC20-approve}.     * Requirements:     * - `spender` cannot be the zero address."
      },
      "balanceOf(address)": {
        "details": "See {IERC20-balanceOf}."
      },
      "burn(uint256)": {
        "details": "Destroys `amount` tokens from the caller.     * See {ERC20-_burn}."
      },
      "decimals()": {
        "details": "Returns the number of decimals used to get its user representation. For example, if `decimals` equals `2`, a balance of `505` tokens should be displayed to a user as `5,05` (`505 / 10 ** 2`).     * Tokens usually opt for a value of 18, imitating the relationship between Ether and Wei.     * NOTE: This information is only used for _display_ purposes: it in no way affects any of the arithmetic of the contract, including {IERC20-balanceOf} and {IERC20-transfer}."
      },
      "decreaseAllowance(address,uint256)": {
        "details": "Atomically decreases the allowance granted to `spender` by the caller.     * This is an alternative to {approve} that can be used as a mitigation for problems described in {IERC20-approve}.     * Emits an {Approval} event indicating the updated allowance.     * Requirements:     * - `spender` cannot be the zero address. - `spender` must have allowance for the caller of at least `subtractedValue`."
      },
      "increaseAllowance(address,uint256)": {
        "details": "Atomically increases the allowance granted to `spender` by the caller.     * This is an alternative to {approve} that can be used as a mitigation for problems described in {IERC20-approve}.     * Emits an {Approval} event indicating the updated allowance.     * Requirements:     * - `spender` cannot be the zero address."
      },
      "isOwner()": {
        "details": "Returns true if the caller is the current owner."
      },
      "mint(address,uint256)": {
        "details": "See {ERC20-_mint}.     * Requirements:     * - the caller must have the {MinterRole}."
      },
      "name()": {
        "details": "Returns the name of the token."
      },
      "owner()": {
        "details": "Returns the address of the current owner."
      },
      "renounceOwnership()": {
        "details": "Leaves the contract without owner. It will not be possible to call `onlyOwner` functions anymore. Can only be called by the current owner.     * NOTE: Renouncing ownership will leave the contract without an owner, thereby removing any functionality that is only available to the owner."
      },
      "supportsInterface(bytes4)": {
        "details": "See {IERC165-supportsInterface}.     * Time complexity O(1), guaranteed to always use less than 30 000 gas."
      },
      "swapFromTON(uint256)": {
        "details": "swap TON to WTON"
      },
      "swapFromTONAndTransfer(address,uint256)": {
        "details": "swap TON to WTON, and transfer WTON"
      },
      "swapToTON(uint256)": {
        "details": "swap WTON to TON"
      },
      "swapToTONAndTransfer(address,uint256)": {
        "details": "swap WTON to TON, and transfer TON NOTE: TON's transfer event's `from` argument is not `msg.sender` but `WTON` address."
      },
      "symbol()": {
        "details": "Returns the symbol of the token, usually a shorter version of the name."
      },
      "totalSupply()": {
        "details": "See {IERC20-totalSupply}."
      },
      "transfer(address,uint256)": {
        "details": "See {IERC20-transfer}.     * Requirements:     * - `recipient` cannot be the zero address. - the caller must have a balance of at least `amount`."
      },
      "transferFrom(address,address,uint256)": {
        "details": "See {IERC20-transferFrom}.     * Emits an {Approval} event indicating the updated allowance. This is not required by the EIP. See the note at the beginning of {ERC20};     * Requirements: - `sender` and `recipient` cannot be the zero address. - `sender` must have a balance of at least `amount`. - the caller must have allowance for `sender`'s tokens of at least `amount`."
      },
      "transferOwnership(address)": {
        "details": "Transfers ownership of the contract to a new account (`newOwner`). Can only be called by the current owner."
      }
    }
  },
  "userdoc": {
    "methods": {
      "burnFrom(address,uint256)": {
        "notice": "///////////////////"
      },
      "onApprove(address,address,uint256,bytes)": {
        "notice": "///////////////////"
      }
    }
  }
}