{
  "contractName": "RequestableERC20Wrapper",
  "abi": [
    {
      "inputs": [
        {
          "internalType": "bool",
          "name": "_development",
          "type": "bool"
        },
        {
          "internalType": "contract ERC20",
          "name": "_token",
          "type": "address"
        }
      ],
      "payable": false,
      "stateMutability": "nonpayable",
      "type": "constructor"
    },
    {
      "anonymous": false,
      "inputs": [
        {
          "indexed": true,
          "internalType": "address",
          "name": "owner",
          "type": "address"
        },
        {
          "indexed": true,
          "internalType": "address",
          "name": "spender",
          "type": "address"
        },
        {
          "indexed": false,
          "internalType": "uint256",
          "name": "value",
          "type": "uint256"
        }
      ],
      "name": "Approval",
      "type": "event"
    },
    {
      "anonymous": false,
      "inputs": [
        {
          "indexed": false,
          "internalType": "address",
          "name": "_from",
          "type": "address"
        },
        {
          "indexed": false,
          "internalType": "uint256",
          "name": "_value",
          "type": "uint256"
        }
      ],
      "name": "Depositted",
      "type": "event"
    },
    {
      "anonymous": false,
      "inputs": [
        {
          "indexed": false,
          "internalType": "bool",
          "name": "_isExit",
          "type": "bool"
        },
        {
          "indexed": false,
          "internalType": "address",
          "name": "_requestor",
          "type": "address"
        },
        {
          "indexed": false,
          "internalType": "bytes32",
          "name": "_trieKey",
          "type": "bytes32"
        },
        {
          "indexed": false,
          "internalType": "uint256",
          "name": "_value",
          "type": "uint256"
        }
      ],
      "name": "RequestCreated",
      "type": "event"
    },
    {
      "anonymous": false,
      "inputs": [
        {
          "indexed": true,
          "internalType": "address",
          "name": "from",
          "type": "address"
        },
        {
          "indexed": true,
          "internalType": "address",
          "name": "to",
          "type": "address"
        },
        {
          "indexed": false,
          "internalType": "uint256",
          "name": "value",
          "type": "uint256"
        }
      ],
      "name": "Transfer",
      "type": "event"
    },
    {
      "anonymous": false,
      "inputs": [
        {
          "indexed": false,
          "internalType": "address",
          "name": "_from",
          "type": "address"
        },
        {
          "indexed": false,
          "internalType": "uint256",
          "name": "_value",
          "type": "uint256"
        }
      ],
      "name": "Withdrawn",
      "type": "event"
    },
    {
      "constant": true,
      "inputs": [
        {
          "internalType": "address",
          "name": "_owner",
          "type": "address"
        },
        {
          "internalType": "address",
          "name": "_spender",
          "type": "address"
        }
      ],
      "name": "allowance",
      "outputs": [
        {
          "internalType": "uint256",
          "name": "",
          "type": "uint256"
        }
      ],
      "payable": false,
      "stateMutability": "view",
      "type": "function"
    },
    {
      "constant": false,
      "inputs": [
        {
          "internalType": "address",
          "name": "_spender",
          "type": "address"
        },
        {
          "internalType": "uint256",
          "name": "_value",
          "type": "uint256"
        }
      ],
      "name": "approve",
      "outputs": [
        {
          "internalType": "bool",
          "name": "",
          "type": "bool"
        }
      ],
      "payable": false,
      "stateMutability": "nonpayable",
      "type": "function"
    },
    {
      "constant": true,
      "inputs": [
        {
          "internalType": "address",
          "name": "_owner",
          "type": "address"
        }
      ],
      "name": "balanceOf",
      "outputs": [
        {
          "internalType": "uint256",
          "name": "",
          "type": "uint256"
        }
      ],
      "payable": false,
      "stateMutability": "view",
      "type": "function"
    },
    {
      "constant": false,
      "inputs": [
        {
          "internalType": "address",
          "name": "_spender",
          "type": "address"
        },
        {
          "internalType": "uint256",
          "name": "_subtractedValue",
          "type": "uint256"
        }
      ],
      "name": "decreaseApproval",
      "outputs": [
        {
          "internalType": "bool",
          "name": "",
          "type": "bool"
        }
      ],
      "payable": false,
      "stateMutability": "nonpayable",
      "type": "function"
    },
    {
      "constant": true,
      "inputs": [],
      "name": "development",
      "outputs": [
        {
          "internalType": "bool",
          "name": "",
          "type": "bool"
        }
      ],
      "payable": false,
      "stateMutability": "view",
      "type": "function"
    },
    {
      "constant": false,
      "inputs": [
        {
          "internalType": "address",
          "name": "_spender",
          "type": "address"
        },
        {
          "internalType": "uint256",
          "name": "_addedValue",
          "type": "uint256"
        }
      ],
      "name": "increaseApproval",
      "outputs": [
        {
          "internalType": "bool",
          "name": "",
          "type": "bool"
        }
      ],
      "payable": false,
      "stateMutability": "nonpayable",
      "type": "function"
    },
    {
      "constant": true,
      "inputs": [],
      "name": "initialized",
      "outputs": [
        {
          "internalType": "bool",
          "name": "",
          "type": "bool"
        }
      ],
      "payable": false,
      "stateMutability": "view",
      "type": "function"
    },
    {
      "constant": true,
      "inputs": [],
      "name": "rootchain",
      "outputs": [
        {
          "internalType": "address",
          "name": "",
          "type": "address"
        }
      ],
      "payable": false,
      "stateMutability": "view",
      "type": "function"
    },
    {
      "constant": true,
      "inputs": [],
      "name": "token",
      "outputs": [
        {
          "internalType": "contract ERC20",
          "name": "",
          "type": "address"
        }
      ],
      "payable": false,
      "stateMutability": "view",
      "type": "function"
    },
    {
      "constant": true,
      "inputs": [],
      "name": "totalSupply",
      "outputs": [
        {
          "internalType": "uint256",
          "name": "",
          "type": "uint256"
        }
      ],
      "payable": false,
      "stateMutability": "view",
      "type": "function"
    },
    {
      "constant": false,
      "inputs": [
        {
          "internalType": "address",
          "name": "_to",
          "type": "address"
        },
        {
          "internalType": "uint256",
          "name": "_value",
          "type": "uint256"
        }
      ],
      "name": "transfer",
      "outputs": [
        {
          "internalType": "bool",
          "name": "",
          "type": "bool"
        }
      ],
      "payable": false,
      "stateMutability": "nonpayable",
      "type": "function"
    },
    {
      "constant": false,
      "inputs": [
        {
          "internalType": "address",
          "name": "_from",
          "type": "address"
        },
        {
          "internalType": "address",
          "name": "_to",
          "type": "address"
        },
        {
          "internalType": "uint256",
          "name": "_value",
          "type": "uint256"
        }
      ],
      "name": "transferFrom",
      "outputs": [
        {
          "internalType": "bool",
          "name": "",
          "type": "bool"
        }
      ],
      "payable": false,
      "stateMutability": "nonpayable",
      "type": "function"
    },
    {
      "constant": false,
      "inputs": [
        {
          "internalType": "address",
          "name": "_rootchain",
          "type": "address"
        }
      ],
      "name": "init",
      "outputs": [
        {
          "internalType": "bool",
          "name": "",
          "type": "bool"
        }
      ],
      "payable": false,
      "stateMutability": "nonpayable",
      "type": "function"
    },
    {
      "constant": false,
      "inputs": [
        {
          "internalType": "uint256",
          "name": "_amount",
          "type": "uint256"
        }
      ],
      "name": "deposit",
      "outputs": [
        {
          "internalType": "bool",
          "name": "",
          "type": "bool"
        }
      ],
      "payable": false,
      "stateMutability": "nonpayable",
      "type": "function"
    },
    {
      "constant": false,
      "inputs": [
        {
          "internalType": "uint256",
          "name": "_amount",
          "type": "uint256"
        }
      ],
      "name": "withdraw",
      "outputs": [
        {
          "internalType": "bool",
          "name": "",
          "type": "bool"
        }
      ],
      "payable": false,
      "stateMutability": "nonpayable",
      "type": "function"
    },
    {
      "constant": true,
      "inputs": [
        {
          "internalType": "address",
          "name": "_who",
          "type": "address"
        }
      ],
      "name": "getBalanceTrieKey",
      "outputs": [
        {
          "internalType": "bytes32",
          "name": "",
          "type": "bytes32"
        }
      ],
      "payable": false,
      "stateMutability": "pure",
      "type": "function"
    },
    {
      "constant": false,
      "inputs": [
        {
          "internalType": "bool",
          "name": "isExit",
          "type": "bool"
        },
        {
          "internalType": "uint256",
          "name": "requestId",
          "type": "uint256"
        },
        {
          "internalType": "address",
          "name": "requestor",
          "type": "address"
        },
        {
          "internalType": "bytes32",
          "name": "trieKey",
          "type": "bytes32"
        },
        {
          "internalType": "bytes",
          "name": "trieValue",
          "type": "bytes"
        }
      ],
      "name": "applyRequestInRootChain",
      "outputs": [
        {
          "internalType": "bool",
          "name": "success",
          "type": "bool"
        }
      ],
      "payable": false,
      "stateMutability": "nonpayable",
      "type": "function"
    },
    {
      "constant": false,
      "inputs": [
        {
          "internalType": "bool",
          "name": "isExit",
          "type": "bool"
        },
        {
          "internalType": "uint256",
          "name": "requestId",
          "type": "uint256"
        },
        {
          "internalType": "address",
          "name": "requestor",
          "type": "address"
        },
        {
          "internalType": "bytes32",
          "name": "trieKey",
          "type": "bytes32"
        },
        {
          "internalType": "bytes",
          "name": "trieValue",
          "type": "bytes"
        }
      ],
      "name": "applyRequestInChildChain",
      "outputs": [
        {
          "internalType": "bool",
          "name": "success",
          "type": "bool"
        }
      ],
      "payable": false,
      "stateMutability": "nonpayable",
      "type": "function"
    },
    {
      "constant": true,
      "inputs": [
        {
          "internalType": "bytes",
          "name": "trieValue",
          "type": "bytes"
        }
      ],
      "name": "decodeTrieValue",
      "outputs": [
        {
          "internalType": "uint256",
          "name": "v",
          "type": "uint256"
        }
      ],
      "payable": false,
      "stateMutability": "pure",
      "type": "function"
    }
  ],
  "bytecode": "0x608060405234801561001057600080fd5b5060405161119f38038061119f8339818101604052604081101561003357600080fd5b5080516020909101516003805461ff0019166101009315159390930292909217909155600480546001600160a01b0319166001600160a01b0390921691909117905561111b806100846000396000f3fe608060405234801561001057600080fd5b50600436106101215760003560e01c80637b929c27116100ad578063b9e59d0911610071578063b9e59d09146103f0578063bcc7874d14610496578063d73dd623146104ba578063dd62ed3e146104e6578063fc0c546a1461051457610121565b80637b929c27146102e6578063a9059cbb146102ee578063a9f793081461031a578063b18fcfdf146103ad578063b6b55f25146103d357610121565b806319ab453c116100f457806319ab453c1461021b57806323b872dd146102415780632e1a7d4d14610277578063661884631461029457806370a08231146102c057610121565b8063095ea7b314610126578063141ecf4614610166578063158ef93e146101f957806318160ddd14610201575b600080fd5b6101526004803603604081101561013c57600080fd5b506001600160a01b03813516906020013561051c565b604080519115158252519081900360200190f35b610152600480360360a081101561017c57600080fd5b81351515916020810135916001600160a01b036040830135169160608101359181019060a0810160808201356401000000008111156101ba57600080fd5b8201836020820111156101cc57600080fd5b803590602001918460018302840111640100000000831117156101ee57600080fd5b509092509050610582565b610152610677565b610209610680565b60408051918252519081900360200190f35b6101526004803603602081101561023157600080fd5b50356001600160a01b0316610686565b6101526004803603606081101561025757600080fd5b506001600160a01b038135811691602081013590911690604001356106cc565b6101526004803603602081101561028d57600080fd5b503561082d565b610152600480360360408110156102aa57600080fd5b506001600160a01b038135169060200135610948565b610209600480360360208110156102d657600080fd5b50356001600160a01b0316610a37565b610152610a52565b6101526004803603604081101561030457600080fd5b506001600160a01b038135169060200135610a60565b610152600480360360a081101561033057600080fd5b81351515916020810135916001600160a01b036040830135169160608101359181019060a08101608082013564010000000081111561036e57600080fd5b82018360208201111561038057600080fd5b803590602001918460018302840111640100000000831117156103a257600080fd5b509092509050610b2b565b610209600480360360208110156103c357600080fd5b50356001600160a01b0316610c61565b610152600480360360208110156103e957600080fd5b5035610ca3565b6102096004803603602081101561040657600080fd5b81019060208101813564010000000081111561042157600080fd5b82018360208201111561043357600080fd5b8035906020019184600183028401116401000000008311171561045557600080fd5b91908080601f016020809104026020016040519081016040528093929190818152602001838380828437600092019190915250929550610d87945050505050565b61049e610dd1565b604080516001600160a01b039092168252519081900360200190f35b610152600480360360408110156104d057600080fd5b506001600160a01b038135169060200135610de6565b610209600480360360408110156104fc57600080fd5b506001600160a01b0381358116916020013516610e7f565b61049e610eaa565b3360008181526002602090815260408083206001600160a01b038716808552908352818420869055815186815291519394909390927f8c5be1e5ebec7d5bd14f71427d1e84f3dd0314c0f7b2291e5b200ac8c7c3b925928290030190a350600192915050565b600354600090610100900460ff1680610599575033155b6105a257600080fd5b6105ab85610c61565b84146105b657600080fd5b60006105f784848080601f016020809104026020016040519081016040528093929190818152602001838380828437600092019190915250610d8792505050565b9050871561060e576106098682610eb9565b610618565b6106188682610f44565b6040805189151581526001600160a01b03881660208201528082018790526060810183905290517f4b0c23cd90bac23cdaa0958fbd0306f53e20cd5e65676d21b9ceb109784e15b89181900360800190a1506001979650505050505050565b60035460ff1681565b60015490565b60035460009060ff161561069957600080fd5b6003805460ff196001600160a01b03909416620100000262010000600160b01b0319909116179290921660011790915590565b6001600160a01b0383166000908152602081905260408120548211156106f157600080fd5b6001600160a01b038416600090815260026020908152604080832033845290915290205482111561072157600080fd5b6001600160a01b03831661073457600080fd5b6001600160a01b03841660009081526020819052604090205461075d908363ffffffff610fc716565b6001600160a01b038086166000908152602081905260408082209390935590851681522054610792908363ffffffff610fd916565b6001600160a01b038085166000908152602081815260408083209490945591871681526002825282812033825290915220546107d4908363ffffffff610fc716565b6001600160a01b03808616600081815260026020908152604080832033845282529182902094909455805186815290519287169391926000805160206110c7833981519152929181900390910190a35060019392505050565b60035460009060ff166108715760405162461bcd60e51b815260040180806020018281038252602c81526020018061109b602c913960400191505060405180910390fd5b61087b3383610eb9565b604080513381526020810184905281517f7084f5476618d8e60b11ef0d7d3f06914655adb8793e28ff7f018d4c76d505d5929181900390910190a1600480546040805163a9059cbb60e01b8152339381019390935260248301859052516001600160a01b039091169163a9059cbb9160448083019260209291908290030181600087803b15801561090b57600080fd5b505af115801561091f573d6000803e3d6000fd5b505050506040513d602081101561093557600080fd5b505161094057600080fd5b506001919050565b3360009081526002602090815260408083206001600160a01b038616845290915281205480831061099c573360009081526002602090815260408083206001600160a01b03881684529091528120556109d1565b6109ac818463ffffffff610fc716565b3360009081526002602090815260408083206001600160a01b03891684529091529020555b3360008181526002602090815260408083206001600160a01b0389168085529083529281902054815190815290519293927f8c5be1e5ebec7d5bd14f71427d1e84f3dd0314c0f7b2291e5b200ac8c7c3b925929181900390910190a35060019392505050565b6001600160a01b031660009081526020819052604090205490565b600354610100900460ff1681565b33600090815260208190526040812054821115610a7c57600080fd5b6001600160a01b038316610a8f57600080fd5b33600090815260208190526040902054610aaf908363ffffffff610fc716565b33600090815260208190526040808220929092556001600160a01b03851681522054610ae1908363ffffffff610fd916565b6001600160a01b038416600081815260208181526040918290209390935580518581529051919233926000805160206110c78339815191529281900390910190a350600192915050565b60035460009060ff16610b6f5760405162461bcd60e51b815260040180806020018281038252602c81526020018061109b602c913960400191505060405180910390fd5b6003546201000090046001600160a01b03163314610bbe5760405162461bcd60e51b8152600401808060200182810382526034815260200180610fed6034913960400191505060405180910390fd5b610bc785610c61565b8414610c045760405162461bcd60e51b81526004018080602001828103825260458152602001806110216045913960600191505060405180910390fd5b6000610c4584848080601f016020809104026020016040519081016040528093929190818152602001838380828437600092019190915250610d8792505050565b90508715610c57576106098682610f44565b6106188682610eb9565b60408051600060208083019190915260609390931b6bffffffffffffffffffffffff191681830152815180820360340181526054909101909152805191012090565b60035460009060ff16610ce75760405162461bcd60e51b815260040180806020018281038252602c81526020018061109b602c913960400191505060405180910390fd5b610cf13383610f44565b604080513381526020810184905281517f46fc0825df492a7a7f1fb1b690f6912ecb69575484fbb24be0f398ae70d97db4929181900390910190a160048054604080516323b872dd60e01b8152339381019390935230602484015260448301859052516001600160a01b03909116916323b872dd9160648083019260209291908290030181600087803b15801561090b57600080fd5b60008151602014610dc95760405162461bcd60e51b81526004018080602001828103825260358152602001806110666035913960400191505060405180910390fd5b506020015190565b6003546201000090046001600160a01b031681565b3360009081526002602090815260408083206001600160a01b0386168452909152812054610e1a908363ffffffff610fd916565b3360008181526002602090815260408083206001600160a01b0389168085529083529281902085905580519485525191937f8c5be1e5ebec7d5bd14f71427d1e84f3dd0314c0f7b2291e5b200ac8c7c3b925929081900390910190a350600192915050565b6001600160a01b03918216600090815260026020908152604080832093909416825291909152205490565b6004546001600160a01b031681565b6001600160a01b038216600090815260208190526040902054610ee2908263ffffffff610fc716565b6001600160a01b038316600090815260208190526040902055600154610f0e908263ffffffff610fc716565b6001556040805182815290516000916001600160a01b038516916000805160206110c78339815191529181900360200190a35050565b600154610f57908263ffffffff610fd916565b6001556001600160a01b038216600090815260208190526040902054610f83908263ffffffff610fd916565b6001600160a01b0383166000818152602081815260408083209490945583518581529351929391926000805160206110c78339815191529281900390910190a35050565b600082821115610fd357fe5b50900390565b81810182811015610fe657fe5b9291505056fe5265717565737461626c654552433230577261707065723a206d73672e73656e646572206973206e6f7420726f6f74636861696e5265717565737461626c654552433230577261707065723a2062616c616e63652074726965206b6579206973206d69736d61746368656420666f7220726571756573746f725265717565737461626c654552433230577261707065723a2074726965206b6579206c656e677468206d75737420626520307832305265717565737461626c654552433230577261707065723a206e6f7420696e697469616c697a656420796574ddf252ad1be2c89b69c2b068fc378daa952ba7f163c4a11628f55a4df523b3efa265627a7a72315820e6047f8aced9ca976211aa6ce376f106d3cac1211bdf304e80a98c75dca616aa64736f6c634300050c0032",
  "source": "pragma solidity ^0.5.0;\n\nimport \"./lib/SafeMath.sol\";\nimport \"./lib/ERC20.sol\";\nimport \"./lib/StandardToken.sol\";\nimport \"./RequestableI.sol\";\n\n/**\n * @title   RequestableERC20Wrapper\n * @notice  RequestableERC20Wrapper is a requestable token contract that can exchange\n *          another base ERC20 token.\n */\ncontract RequestableERC20Wrapper is StandardToken, RequestableI {\n  using SafeMath for *;\n\n  bool public initialized;\n  bool public development;\n  address public rootchain;\n  ERC20 public token;\n\n\n  /* Events */\n  event Depositted(address _from, uint _value);\n  event Withdrawn(address _from, uint _value);\n  event RequestCreated(bool _isExit, address _requestor, bytes32 _trieKey, uint _value);\n\n  modifier isInitialized() {\n    require(initialized, \"RequestableERC20Wrapper: not initialized yet\");\n    _;\n  }\n\n  constructor(bool _development, ERC20 _token) public {\n    development = _development;\n    token = _token;\n  }\n\n  function init(address _rootchain) external returns (bool) {\n    require(!initialized);\n\n    rootchain = _rootchain;\n    initialized = true;\n  }\n\n  function deposit(uint _amount) external isInitialized returns (bool) {\n    mint(msg.sender, _amount);\n    emit Depositted(msg.sender, _amount);\n    require(token.transferFrom(msg.sender, address(this), _amount));\n\n    return true;\n  }\n\n  function withdraw(uint _amount) external isInitialized returns (bool) {\n    burn(msg.sender, _amount);\n    emit Withdrawn(msg.sender, _amount);\n    require(token.transfer(msg.sender, _amount));\n\n    return true;\n  }\n\n  function getBalanceTrieKey(address _who) public pure returns (bytes32) {\n    return keccak256(abi.encodePacked(bytes32(0), _who));\n  }\n\n  function applyRequestInRootChain(\n    bool isExit,\n    uint256 requestId,\n    address requestor,\n    bytes32 trieKey,\n    bytes calldata trieValue\n  ) external isInitialized returns (bool success) {\n    require(msg.sender == address(rootchain), \"RequestableERC20Wrapper: msg.sender is not rootchain\");\n    require(trieKey == getBalanceTrieKey(requestor), \"RequestableERC20Wrapper: balance trie key is mismatched for requestor\");\n\n    uint v = decodeTrieValue(trieValue);\n\n    if (isExit) {\n      mint(requestor, v);\n    } else {\n      burn(requestor, v);\n    }\n\n    emit RequestCreated(isExit, requestor, trieKey, v);\n\n    return true;\n  }\n\n  function applyRequestInChildChain(\n    bool isExit,\n    uint256 requestId,\n    address requestor,\n    bytes32 trieKey,\n    bytes calldata trieValue\n  ) external returns (bool success) {\n    require(development || msg.sender == address(0));\n    require(trieKey == getBalanceTrieKey(requestor));\n\n    uint v = decodeTrieValue(trieValue);\n\n    if (isExit) {\n      burn(requestor, v);\n    } else {\n      mint(requestor, v);\n    }\n\n    emit RequestCreated(isExit, requestor, trieKey, v);\n\n    return true;\n  }\n\n  function decodeTrieValue(bytes memory trieValue) public pure returns (uint v) {\n    require(trieValue.length == 0x20, \"RequestableERC20Wrapper: trie key length must be 0x20\");\n\n    assembly {\n       v := mload(add(trieValue, 0x20))\n    }\n  }\n\n\n  function mint(address _to, uint _amount) internal {\n    totalSupply_ = totalSupply_.add(_amount);\n    balances[_to] = balances[_to].add(_amount);\n    emit Transfer(address(0), _to, _amount);\n  }\n\n  function burn(address _from, uint _amount) internal {\n    balances[_from] = balances[_from].sub(_amount);\n    totalSupply_ = totalSupply_.sub(_amount);\n    emit Transfer(_from, address(0), _amount);\n  }\n\n}\n",
  "sourcePath": "/Users/thomashin/Workspace/plasma-evm-contracts/requestable-erc20-wrapper-token/contracts/RequestableERC20Wrapper.sol",
  "compiler": {
    "name": "solc",
    "version": "0.5.12+commit.7709ece9.Emscripten.clang"
  },
  "schemaVersion": "3.0.23",
  "updatedAt": "2020-04-03T10:22:39.762Z",
  "devdoc": {
    "methods": {
      "allowance(address,address)": {
        "details": "Function to check the amount of tokens that an owner allowed to a spender.",
        "params": {
          "_owner": "address The address which owns the funds.",
          "_spender": "address The address which will spend the funds."
        },
        "return": "A uint256 specifying the amount of tokens still available for the spender."
      },
      "approve(address,uint256)": {
        "details": "Approve the passed address to spend the specified amount of tokens on behalf of msg.sender. Beware that changing an allowance with this method brings the risk that someone may use both the old and the new allowance by unfortunate transaction ordering. One possible solution to mitigate this race condition is to first reduce the spender's allowance to 0 and set the desired value afterwards: https://github.com/ethereum/EIPs/issues/20#issuecomment-263524729",
        "params": {
          "_spender": "The address which will spend the funds.",
          "_value": "The amount of tokens to be spent."
        }
      },
      "balanceOf(address)": {
        "details": "Gets the balance of the specified address.",
        "params": {
          "_owner": "The address to query the the balance of."
        },
        "return": "An uint256 representing the amount owned by the passed address."
      },
      "decreaseApproval(address,uint256)": {
        "details": "Decrease the amount of tokens that an owner allowed to a spender. approve should be called when allowed[_spender] == 0. To decrement allowed value is better to use this function to avoid 2 calls (and wait until the first transaction is mined) From MonolithDAO Token.sol",
        "params": {
          "_spender": "The address which will spend the funds.",
          "_subtractedValue": "The amount of tokens to decrease the allowance by."
        }
      },
      "increaseApproval(address,uint256)": {
        "details": "Increase the amount of tokens that an owner allowed to a spender. approve should be called when allowed[_spender] == 0. To increment allowed value is better to use this function to avoid 2 calls (and wait until the first transaction is mined) From MonolithDAO Token.sol",
        "params": {
          "_addedValue": "The amount of tokens to increase the allowance by.",
          "_spender": "The address which will spend the funds."
        }
      },
      "totalSupply()": {
        "details": "Total number of tokens in existence"
      },
      "transfer(address,uint256)": {
        "details": "Transfer token for a specified address",
        "params": {
          "_to": "The address to transfer to.",
          "_value": "The amount to be transferred."
        }
      },
      "transferFrom(address,address,uint256)": {
        "details": "Transfer tokens from one address to another",
        "params": {
          "_from": "address The address which you want to send tokens from",
          "_to": "address The address which you want to transfer to",
          "_value": "uint256 the amount of tokens to be transferred"
        }
      }
    },
    "title": "RequestableERC20Wrapper"
  },
  "userdoc": {
    "methods": {},
    "notice": "RequestableERC20Wrapper is a requestable token contract that can exchange         another base ERC20 token."
  }
}