{
  "contractName": "RootChainRegistry",
  "abi": [
    {
      "anonymous": false,
      "inputs": [
        {
          "indexed": true,
          "internalType": "address",
          "name": "previousOwner",
          "type": "address"
        },
        {
          "indexed": true,
          "internalType": "address",
          "name": "newOwner",
          "type": "address"
        }
      ],
      "name": "OwnershipTransferred",
      "type": "event"
    },
    {
      "constant": true,
      "inputs": [],
      "name": "isOwner",
      "outputs": [
        {
          "internalType": "bool",
          "name": "",
          "type": "bool"
        }
      ],
      "payable": false,
      "stateMutability": "view",
      "type": "function"
    },
    {
      "constant": true,
      "inputs": [],
      "name": "owner",
      "outputs": [
        {
          "internalType": "address",
          "name": "",
          "type": "address"
        }
      ],
      "payable": false,
      "stateMutability": "view",
      "type": "function"
    },
    {
      "constant": false,
      "inputs": [],
      "name": "renounceOwnership",
      "outputs": [],
      "payable": false,
      "stateMutability": "nonpayable",
      "type": "function"
    },
    {
      "constant": false,
      "inputs": [
        {
          "internalType": "address",
          "name": "newOwner",
          "type": "address"
        }
      ],
      "name": "transferOwnership",
      "outputs": [],
      "payable": false,
      "stateMutability": "nonpayable",
      "type": "function"
    },
    {
      "constant": true,
      "inputs": [
        {
          "internalType": "address",
          "name": "rootchain",
          "type": "address"
        }
      ],
      "name": "rootchains",
      "outputs": [
        {
          "internalType": "bool",
          "name": "",
          "type": "bool"
        }
      ],
      "payable": false,
      "stateMutability": "view",
      "type": "function"
    },
    {
      "constant": true,
      "inputs": [],
      "name": "numRootChains",
      "outputs": [
        {
          "internalType": "uint256",
          "name": "",
          "type": "uint256"
        }
      ],
      "payable": false,
      "stateMutability": "view",
      "type": "function"
    },
    {
      "constant": true,
      "inputs": [
        {
          "internalType": "uint256",
          "name": "index",
          "type": "uint256"
        }
      ],
      "name": "rootchainByIndex",
      "outputs": [
        {
          "internalType": "address",
          "name": "",
          "type": "address"
        }
      ],
      "payable": false,
      "stateMutability": "view",
      "type": "function"
    },
    {
      "constant": false,
      "inputs": [
        {
          "internalType": "address",
          "name": "rootchain",
          "type": "address"
        }
      ],
      "name": "register",
      "outputs": [
        {
          "internalType": "bool",
          "name": "",
          "type": "bool"
        }
      ],
      "payable": false,
      "stateMutability": "nonpayable",
      "type": "function"
    },
    {
      "constant": false,
      "inputs": [
        {
          "internalType": "address",
          "name": "rootchain",
          "type": "address"
        },
        {
          "internalType": "address",
          "name": "seigManager",
          "type": "address"
        }
      ],
      "name": "deployCoinage",
      "outputs": [
        {
          "internalType": "bool",
          "name": "",
          "type": "bool"
        }
      ],
      "payable": false,
      "stateMutability": "nonpayable",
      "type": "function"
    },
    {
      "constant": false,
      "inputs": [
        {
          "internalType": "address",
          "name": "rootchain",
          "type": "address"
        },
        {
          "internalType": "address",
          "name": "seigManager",
          "type": "address"
        }
      ],
      "name": "registerAndDeployCoinage",
      "outputs": [
        {
          "internalType": "bool",
          "name": "",
          "type": "bool"
        }
      ],
      "payable": false,
      "stateMutability": "nonpayable",
      "type": "function"
    },
    {
      "constant": false,
      "inputs": [
        {
          "internalType": "address",
          "name": "rootchain",
          "type": "address"
        }
      ],
      "name": "unregister",
      "outputs": [
        {
          "internalType": "bool",
          "name": "",
          "type": "bool"
        }
      ],
      "payable": false,
      "stateMutability": "nonpayable",
      "type": "function"
    }
  ],
  "bytecode": "0x608060405260006100176001600160e01b0361006616565b600080546001600160a01b0319166001600160a01b0383169081178255604051929350917f8be0079c531659141344cd1fd0a4f28419497f9722a3daafe3b4186f6b6457e0908290a35061006a565b3390565b610788806100796000396000f3fe608060405234801561001057600080fd5b50600436106100a95760003560e01c8063851086041161007157806385108604146101775780638da5cb5b146101a55780638f32d59b146101ad578063b2b604d0146101b5578063bcb1a71e146101cf578063f2fde38b146101fd576100a9565b806302a15299146100ae5780632ec2c246146100e85780634420e4861461010e578063715018a614610134578063821f602c1461013e575b600080fd5b6100d4600480360360208110156100c457600080fd5b50356001600160a01b0316610223565b604080519115158252519081900360200190f35b6100d4600480360360208110156100fe57600080fd5b50356001600160a01b0316610241565b6100d46004803603602081101561012457600080fd5b50356001600160a01b03166102e5565b61013c6102f6565b005b61015b6004803603602081101561015457600080fd5b5035610399565b604080516001600160a01b039092168252519081900360200190f35b6100d46004803603604081101561018d57600080fd5b506001600160a01b03813581169160200135166103b4565b61015b6103c7565b6100d46103d6565b6101bd6103fa565b60408051918252519081900360200190f35b6100d4600480360360408110156101e557600080fd5b506001600160a01b0381358116916020013516610400565b61013c6004803603602081101561021357600080fd5b50356001600160a01b0316610430565b6001600160a01b031660009081526001602052604090205460ff1690565b600061024b6103d6565b61029c576040805162461bcd60e51b815260206004820181905260248201527f4f776e61626c653a2063616c6c6572206973206e6f7420746865206f776e6572604482015290519081900360640190fd5b6001600160a01b03821660009081526001602052604090205460ff166102c157600080fd5b6001600160a01b039091166000908152600160205260409020805460ff1916905590565b60006102f082610495565b92915050565b6102fe6103d6565b61034f576040805162461bcd60e51b815260206004820181905260248201527f4f776e61626c653a2063616c6c6572206973206e6f7420746865206f776e6572604482015290519081900360640190fd5b600080546040516001600160a01b03909116907f8be0079c531659141344cd1fd0a4f28419497f9722a3daafe3b4186f6b6457e0908390a3600080546001600160a01b0319169055565b6000908152600360205260409020546001600160a01b031690565b60006103c083836105fc565b9392505050565b6000546001600160a01b031690565b600080546001600160a01b03166103eb610689565b6001600160a01b031614905090565b60025490565b600061040b83610495565b61041457600080fd5b61041e83836105fc565b61042757600080fd5b50600192915050565b6104386103d6565b610489576040805162461bcd60e51b815260206004820181905260248201527f4f776e61626c653a2063616c6c6572206973206e6f7420746865206f776e6572604482015290519081900360640190fd5b6104928161068d565b50565b6001600160a01b03811660009081526001602052604081205460ff16156104bb57600080fd5b816001600160a01b031663420bb4b86040518163ffffffff1660e01b815260040160206040518083038186803b1580156104f457600080fd5b505afa158015610508573d6000803e3d6000fd5b505050506040513d602081101561051e57600080fd5b505161052957600080fd5b6105316103d6565b6105ae57816001600160a01b031663570ca7356040518163ffffffff1660e01b815260040160206040518083038186803b15801561056e57600080fd5b505afa158015610582573d6000803e3d6000fd5b505050506040513d602081101561059857600080fd5b50516001600160a01b031633146105ae57600080fd5b506001600160a01b03166000818152600160208181526040808420805460ff191684179055600280548552600390925290922080546001600160a01b03191690931790925580548201905590565b6000816001600160a01b031663833a774f846040518263ffffffff1660e01b815260040180826001600160a01b03166001600160a01b03168152602001915050602060405180830381600087803b15801561065657600080fd5b505af115801561066a573d6000803e3d6000fd5b505050506040513d602081101561068057600080fd5b50519392505050565b3390565b6001600160a01b0381166106d25760405162461bcd60e51b815260040180806020018281038252602681526020018061072e6026913960400191505060405180910390fd5b600080546040516001600160a01b03808516939216917f8be0079c531659141344cd1fd0a4f28419497f9722a3daafe3b4186f6b6457e091a3600080546001600160a01b0319166001600160a01b039290921691909117905556fe4f776e61626c653a206e6577206f776e657220697320746865207a65726f2061646472657373a265627a7a72315820a452c28c9898e1efe5dafa1225129b2a7ec920061a42552db13828183ac1777d64736f6c634300050c0032",
  "source": "pragma solidity ^0.5.12;\n\nimport { Ownable } from \"../../node_modules/openzeppelin-solidity/contracts/ownership/OWnable.sol\";\n\nimport { RootChainI } from \"../RootChainI.sol\";\n\nimport { SeigManagerI } from \"./interfaces/SeigManagerI.sol\";\nimport { RootChainRegistryI } from \"./interfaces/RootChainRegistryI.sol\";\n\n\n// TODO: transfer coinages ownership to seig manager\ncontract RootChainRegistry is RootChainRegistryI, Ownable {\n  // check whether the address is root chain contract or not\n  mapping (address => bool) internal _rootchains;\n\n  // array-like storages\n  // NOTE: unregistered rootchains could exists in that array. so, should check by rootchains(address)\n  uint256 internal _numRootChains;\n  mapping (uint256 => address) internal _rootchainByIndex;\n\n  function rootchains(address rootchain) external view returns (bool) {\n    return _rootchains[rootchain];\n  }\n\n  function numRootChains() external view returns (uint256) {\n    return _numRootChains;\n  }\n\n  function rootchainByIndex(uint256 index) external view returns (address) {\n    return _rootchainByIndex[index];\n  }\n\n  function register(address rootchain) external returns (bool) {\n    return _register(rootchain);\n  }\n\n  function _register(address rootchain) internal returns (bool) {\n    require(!_rootchains[rootchain]);\n    require(RootChainI(rootchain).isRootChain());\n\n    if (!isOwner()) {\n      require(msg.sender == RootChainI(rootchain).operator());\n    }\n\n    _rootchains[rootchain] = true;\n    _rootchainByIndex[_numRootChains] = rootchain;\n    _numRootChains += 1;\n\n    return true;\n  }\n\n  function deployCoinage(address rootchain, address seigManager) external returns (bool) {\n    return _deployCoinage(rootchain, seigManager);\n  }\n\n  function _deployCoinage(address rootchain, address seigManager) internal returns (bool) {\n    return SeigManagerI(seigManager).deployCoinage(rootchain);\n  }\n\n  function registerAndDeployCoinage(\n    address rootchain,\n    address seigManager\n  ) external returns (bool) {\n    require(_register(rootchain));\n    require(_deployCoinage(rootchain, seigManager));\n    return true;\n  }\n\n  function unregister(address rootchain) external onlyOwner returns (bool) {\n    require(_rootchains[rootchain]);\n\n    _rootchains[rootchain] = false;\n  }\n}",
  "sourcePath": "/Users/thomashin/Workspace/plasma-evm-contracts/contracts/stake/RootChainRegistry.sol",
  "compiler": {
    "name": "solc",
    "version": "0.5.12+commit.7709ece9.Emscripten.clang"
  },
  "schemaVersion": "3.0.23",
  "updatedAt": "2020-03-16T00:51:37.503Z",
  "devdoc": {
    "methods": {
      "isOwner()": {
        "details": "Returns true if the caller is the current owner."
      },
      "owner()": {
        "details": "Returns the address of the current owner."
      },
      "renounceOwnership()": {
        "details": "Leaves the contract without owner. It will not be possible to call `onlyOwner` functions anymore. Can only be called by the current owner.     * NOTE: Renouncing ownership will leave the contract without an owner, thereby removing any functionality that is only available to the owner."
      },
      "transferOwnership(address)": {
        "details": "Transfers ownership of the contract to a new account (`newOwner`). Can only be called by the current owner."
      }
    }
  },
  "userdoc": {
    "methods": {}
  }
}