{
  "contractName": "SeigToken",
  "abi": [
    {
      "anonymous": false,
      "inputs": [
        {
          "indexed": true,
          "internalType": "address",
          "name": "owner",
          "type": "address"
        },
        {
          "indexed": true,
          "internalType": "address",
          "name": "spender",
          "type": "address"
        },
        {
          "indexed": false,
          "internalType": "uint256",
          "name": "value",
          "type": "uint256"
        }
      ],
      "name": "Approval",
      "type": "event"
    },
    {
      "anonymous": false,
      "inputs": [
        {
          "indexed": true,
          "internalType": "address",
          "name": "previousOwner",
          "type": "address"
        },
        {
          "indexed": true,
          "internalType": "address",
          "name": "newOwner",
          "type": "address"
        }
      ],
      "name": "OwnershipTransferred",
      "type": "event"
    },
    {
      "anonymous": false,
      "inputs": [
        {
          "indexed": true,
          "internalType": "address",
          "name": "from",
          "type": "address"
        },
        {
          "indexed": true,
          "internalType": "address",
          "name": "to",
          "type": "address"
        },
        {
          "indexed": false,
          "internalType": "uint256",
          "name": "value",
          "type": "uint256"
        }
      ],
      "name": "Transfer",
      "type": "event"
    },
    {
      "constant": true,
      "inputs": [],
      "name": "INTERFACE_ID_ON_APPROVE",
      "outputs": [
        {
          "internalType": "bytes4",
          "name": "",
          "type": "bytes4"
        }
      ],
      "payable": false,
      "stateMutability": "view",
      "type": "function"
    },
    {
      "constant": true,
      "inputs": [
        {
          "internalType": "address",
          "name": "owner",
          "type": "address"
        },
        {
          "internalType": "address",
          "name": "spender",
          "type": "address"
        }
      ],
      "name": "allowance",
      "outputs": [
        {
          "internalType": "uint256",
          "name": "",
          "type": "uint256"
        }
      ],
      "payable": false,
      "stateMutability": "view",
      "type": "function"
    },
    {
      "constant": false,
      "inputs": [
        {
          "internalType": "address",
          "name": "spender",
          "type": "address"
        },
        {
          "internalType": "uint256",
          "name": "amount",
          "type": "uint256"
        }
      ],
      "name": "approve",
      "outputs": [
        {
          "internalType": "bool",
          "name": "",
          "type": "bool"
        }
      ],
      "payable": false,
      "stateMutability": "nonpayable",
      "type": "function"
    },
    {
      "constant": false,
      "inputs": [
        {
          "internalType": "address",
          "name": "spender",
          "type": "address"
        },
        {
          "internalType": "uint256",
          "name": "amount",
          "type": "uint256"
        },
        {
          "internalType": "bytes",
          "name": "data",
          "type": "bytes"
        }
      ],
      "name": "approveAndCall",
      "outputs": [
        {
          "internalType": "bool",
          "name": "",
          "type": "bool"
        }
      ],
      "payable": false,
      "stateMutability": "nonpayable",
      "type": "function"
    },
    {
      "constant": true,
      "inputs": [
        {
          "internalType": "address",
          "name": "account",
          "type": "address"
        }
      ],
      "name": "balanceOf",
      "outputs": [
        {
          "internalType": "uint256",
          "name": "",
          "type": "uint256"
        }
      ],
      "payable": false,
      "stateMutability": "view",
      "type": "function"
    },
    {
      "constant": false,
      "inputs": [
        {
          "internalType": "address",
          "name": "spender",
          "type": "address"
        },
        {
          "internalType": "uint256",
          "name": "subtractedValue",
          "type": "uint256"
        }
      ],
      "name": "decreaseAllowance",
      "outputs": [
        {
          "internalType": "bool",
          "name": "",
          "type": "bool"
        }
      ],
      "payable": false,
      "stateMutability": "nonpayable",
      "type": "function"
    },
    {
      "constant": false,
      "inputs": [
        {
          "internalType": "address",
          "name": "spender",
          "type": "address"
        },
        {
          "internalType": "uint256",
          "name": "addedValue",
          "type": "uint256"
        }
      ],
      "name": "increaseAllowance",
      "outputs": [
        {
          "internalType": "bool",
          "name": "",
          "type": "bool"
        }
      ],
      "payable": false,
      "stateMutability": "nonpayable",
      "type": "function"
    },
    {
      "constant": true,
      "inputs": [],
      "name": "isOwner",
      "outputs": [
        {
          "internalType": "bool",
          "name": "",
          "type": "bool"
        }
      ],
      "payable": false,
      "stateMutability": "view",
      "type": "function"
    },
    {
      "constant": true,
      "inputs": [],
      "name": "owner",
      "outputs": [
        {
          "internalType": "address",
          "name": "",
          "type": "address"
        }
      ],
      "payable": false,
      "stateMutability": "view",
      "type": "function"
    },
    {
      "constant": false,
      "inputs": [
        {
          "internalType": "address",
          "name": "target",
          "type": "address"
        }
      ],
      "name": "renounceMinter",
      "outputs": [],
      "payable": false,
      "stateMutability": "nonpayable",
      "type": "function"
    },
    {
      "constant": false,
      "inputs": [
        {
          "internalType": "address",
          "name": "target",
          "type": "address"
        }
      ],
      "name": "renounceOwnership",
      "outputs": [],
      "payable": false,
      "stateMutability": "nonpayable",
      "type": "function"
    },
    {
      "constant": false,
      "inputs": [],
      "name": "renounceOwnership",
      "outputs": [],
      "payable": false,
      "stateMutability": "nonpayable",
      "type": "function"
    },
    {
      "constant": false,
      "inputs": [
        {
          "internalType": "address",
          "name": "target",
          "type": "address"
        }
      ],
      "name": "renouncePauser",
      "outputs": [],
      "payable": false,
      "stateMutability": "nonpayable",
      "type": "function"
    },
    {
      "constant": true,
      "inputs": [],
      "name": "seigManager",
      "outputs": [
        {
          "internalType": "contract SeigManagerI",
          "name": "",
          "type": "address"
        }
      ],
      "payable": false,
      "stateMutability": "view",
      "type": "function"
    },
    {
      "constant": true,
      "inputs": [],
      "name": "totalSupply",
      "outputs": [
        {
          "internalType": "uint256",
          "name": "",
          "type": "uint256"
        }
      ],
      "payable": false,
      "stateMutability": "view",
      "type": "function"
    },
    {
      "constant": false,
      "inputs": [
        {
          "internalType": "address",
          "name": "recipient",
          "type": "address"
        },
        {
          "internalType": "uint256",
          "name": "amount",
          "type": "uint256"
        }
      ],
      "name": "transfer",
      "outputs": [
        {
          "internalType": "bool",
          "name": "",
          "type": "bool"
        }
      ],
      "payable": false,
      "stateMutability": "nonpayable",
      "type": "function"
    },
    {
      "constant": false,
      "inputs": [
        {
          "internalType": "address",
          "name": "sender",
          "type": "address"
        },
        {
          "internalType": "address",
          "name": "recipient",
          "type": "address"
        },
        {
          "internalType": "uint256",
          "name": "amount",
          "type": "uint256"
        }
      ],
      "name": "transferFrom",
      "outputs": [
        {
          "internalType": "bool",
          "name": "",
          "type": "bool"
        }
      ],
      "payable": false,
      "stateMutability": "nonpayable",
      "type": "function"
    },
    {
      "constant": false,
      "inputs": [
        {
          "internalType": "address",
          "name": "target",
          "type": "address"
        },
        {
          "internalType": "address",
          "name": "newOwner",
          "type": "address"
        }
      ],
      "name": "transferOwnership",
      "outputs": [],
      "payable": false,
      "stateMutability": "nonpayable",
      "type": "function"
    },
    {
      "constant": false,
      "inputs": [
        {
          "internalType": "address",
          "name": "newOwner",
          "type": "address"
        }
      ],
      "name": "transferOwnership",
      "outputs": [],
      "payable": false,
      "stateMutability": "nonpayable",
      "type": "function"
    },
    {
      "constant": false,
      "inputs": [
        {
          "internalType": "contract SeigManagerI",
          "name": "_seigManager",
          "type": "address"
        }
      ],
      "name": "setSeigManager",
      "outputs": [],
      "payable": false,
      "stateMutability": "nonpayable",
      "type": "function"
    }
  ],
  "bytecode": "0x608060405260006100176001600160e01b0361006a16565b600380546001600160a01b0319166001600160a01b038316908117909155604051919250906000907f8be0079c531659141344cd1fd0a4f28419497f9722a3daafe3b4186f6b6457e0908290a35061006e565b3390565b6114e68061007d6000396000f3fe608060405234801561001057600080fd5b506004361061012c5760003560e01c806370a08231116100ad578063a457c2d711610071578063a457c2d71461033c578063a9059cbb14610368578063cae9ca5114610394578063dd62ed3e1461044f578063f2fde38b1461047d5761012c565b806370a08231146102d8578063715018a6146102fe5780637657f20a146103065780638da5cb5b1461032c5780638f32d59b146103345761012c565b806341eb24bb116100f457806341eb24bb146102155780635f112c681461023b5780636cd28f9a146102615780636d435421146102865780636fb7f558146102b45761012c565b8063095ea7b31461013157806318160ddd1461017157806323b872dd1461018b57806338bf3cfa146101c157806339509351146101e9575b600080fd5b61015d6004803603604081101561014757600080fd5b506001600160a01b0381351690602001356104a3565b604080519115158252519081900360200190f35b6101796104c0565b60408051918252519081900360200190f35b61015d600480360360608110156101a157600080fd5b506001600160a01b038135811691602081013590911690604001356104c6565b6101e7600480360360208110156101d757600080fd5b50356001600160a01b0316610554565b005b61015d600480360360408110156101ff57600080fd5b506001600160a01b0381351690602001356105f1565b6101e76004803603602081101561022b57600080fd5b50356001600160a01b0316610645565b6101e76004803603602081101561025157600080fd5b50356001600160a01b03166106c7565b610269610749565b604080516001600160e01b03199092168252519081900360200190f35b6101e76004803603604081101561029c57600080fd5b506001600160a01b0381358116916020013516610764565b6102bc61081f565b604080516001600160a01b039092168252519081900360200190f35b610179600480360360208110156102ee57600080fd5b50356001600160a01b031661082e565b6101e7610849565b6101e76004803603602081101561031c57600080fd5b50356001600160a01b03166108da565b6102bc610943565b61015d610952565b61015d6004803603604081101561035257600080fd5b506001600160a01b038135169060200135610978565b61015d6004803603604081101561037e57600080fd5b506001600160a01b0381351690602001356109e6565b61015d600480360360608110156103aa57600080fd5b6001600160a01b03823516916020810135918101906060810160408201356401000000008111156103da57600080fd5b8201836020820111156103ec57600080fd5b8035906020019184600183028401116401000000008311171561040e57600080fd5b91908080601f0160208091040260200160405190810160405280939291908181526020018383808284376000920191909152509295506109fa945050505050565b6101796004803603604081101561046557600080fd5b506001600160a01b0381358116916020013516610a1b565b6101e76004803603602081101561049357600080fd5b50356001600160a01b0316610a46565b60006104b76104b0610a99565b8484610a9d565b50600192915050565b60025490565b60006104d3848484610b89565b610549846104df610a99565b610544856040518060600160405280602881526020016113fc602891396001600160a01b038a1660009081526001602052604081209061051d610a99565b6001600160a01b03168152602081019190915260400160002054919063ffffffff610bf316565b610a9d565b5060015b9392505050565b61055c610952565b61059b576040805162461bcd60e51b81526020600482018190526024820152600080516020611424833981519152604482015290519081900360640190fd5b806001600160a01b031663715018a66040518163ffffffff1660e01b8152600401600060405180830381600087803b1580156105d657600080fd5b505af11580156105ea573d6000803e3d6000fd5b5050505050565b60006104b76105fe610a99565b84610544856001600061060f610a99565b6001600160a01b03908116825260208083019390935260409182016000908120918c16815292529020549063ffffffff610c8a16565b61064d610952565b61068c576040805162461bcd60e51b81526020600482018190526024820152600080516020611424833981519152604482015290519081900360640190fd5b806001600160a01b0316636ef8d66d6040518163ffffffff1660e01b8152600401600060405180830381600087803b1580156105d657600080fd5b6106cf610952565b61070e576040805162461bcd60e51b81526020600482018190526024820152600080516020611424833981519152604482015290519081900360640190fd5b806001600160a01b031663986502756040518163ffffffff1660e01b8152600401600060405180830381600087803b1580156105d657600080fd5b6040518060286113a482396028019050604051809103902081565b61076c610952565b6107ab576040805162461bcd60e51b81526020600482018190526024820152600080516020611424833981519152604482015290519081900360640190fd5b816001600160a01b031663f2fde38b826040518263ffffffff1660e01b815260040180826001600160a01b03166001600160a01b03168152602001915050600060405180830381600087803b15801561080357600080fd5b505af1158015610817573d6000803e3d6000fd5b505050505050565b6004546001600160a01b031681565b6001600160a01b031660009081526020819052604090205490565b610851610952565b610890576040805162461bcd60e51b81526020600482018190526024820152600080516020611424833981519152604482015290519081900360640190fd5b6003546040516000916001600160a01b0316907f8be0079c531659141344cd1fd0a4f28419497f9722a3daafe3b4186f6b6457e0908390a3600380546001600160a01b0319169055565b6108e2610952565b610921576040805162461bcd60e51b81526020600482018190526024820152600080516020611424833981519152604482015290519081900360640190fd5b600480546001600160a01b0319166001600160a01b0392909216919091179055565b6003546001600160a01b031690565b6003546000906001600160a01b0316610969610a99565b6001600160a01b031614905090565b60006104b7610985610a99565b846105448560405180606001604052806025815260200161148d60259139600160006109af610a99565b6001600160a01b03908116825260208083019390935260409182016000908120918d1681529252902054919063ffffffff610bf316565b60006104b76109f3610a99565b8484610b89565b6000610a0684846104a3565b610a0f57600080fd5b61054d33858585610ce4565b6001600160a01b03918216600090815260016020908152604080832093909416825291909152205490565b610a4e610952565b610a8d576040805162461bcd60e51b81526020600482018190526024820152600080516020611424833981519152604482015290519081900360640190fd5b610a9681610f3a565b50565b3390565b6001600160a01b038316610ae25760405162461bcd60e51b81526004018080602001828103825260248152602001806114696024913960400191505060405180910390fd5b6001600160a01b038216610b275760405162461bcd60e51b815260040180806020018281038252602281526020018061132b6022913960400191505060405180910390fd5b6001600160a01b03808416600081815260016020908152604080832094871680845294825291829020859055815185815291517f8c5be1e5ebec7d5bd14f71427d1e84f3dd0314c0f7b2291e5b200ac8c7c3b9259281900390910190a3505050565b336001600160a01b0384161480610ba85750336001600160a01b038316145b610be35760405162461bcd60e51b81526004018080602001828103825260308152602001806113cc6030913960400191505060405180910390fd5b610bee838383610fdb565b505050565b60008184841115610c825760405162461bcd60e51b81526004018080602001828103825283818151815260200191508051906020019080838360005b83811015610c47578181015183820152602001610c2f565b50505050905090810190601f168015610c745780820380516001836020036101000a031916815260200191505b509250505060405180910390fd5b505050900390565b60008282018381101561054d576040805162461bcd60e51b815260206004820152601b60248201527f536166654d6174683a206164646974696f6e206f766572666c6f770000000000604482015290519081900360640190fd5b610d068360405180806113a46028913960280190506040518091039020611137565b610d415760405162461bcd60e51b815260040180806020018281038252603181526020018061134d6031913960400191505060405180910390fd5b60006060846001600160a01b031660405180806113a460289139602801905060405180910390208787878760405160240180856001600160a01b03166001600160a01b03168152602001846001600160a01b03166001600160a01b0316815260200183815260200180602001828103825283818151815260200191508051906020019080838360005b83811015610de2578181015183820152602001610dca565b50505050905090810190601f168015610e0f5780820380516001836020036101000a031916815260200191505b5060408051601f198184030181529181526020820180516001600160e01b03166001600160e01b0319909a16999099178952518151919890975087965094509250829150849050835b60208310610e775780518252601f199092019160209182019101610e58565b6001836020036101000a0380198251168184511680821785525050505050509050019150506000604051808303816000865af19150503d8060008114610ed9576040519150601f19603f3d011682016040523d82523d6000602084013e610ede565b606091505b5091509150818190610f315760405162461bcd60e51b8152602060048201818152835160248401528351909283926044909101919085019080838360008315610c47578181015183820152602001610c2f565b50505050505050565b6001600160a01b038116610f7f5760405162461bcd60e51b81526004018080602001828103825260268152602001806113056026913960400191505060405180910390fd5b6003546040516001600160a01b038084169216907f8be0079c531659141344cd1fd0a4f28419497f9722a3daafe3b4186f6b6457e090600090a3600380546001600160a01b0319166001600160a01b0392909216919091179055565b6001600160a01b0383166110205760405162461bcd60e51b81526004018080602001828103825260258152602001806114446025913960400191505060405180910390fd5b6001600160a01b0382166110655760405162461bcd60e51b81526004018080602001828103825260238152602001806112e26023913960400191505060405180910390fd5b6110a88160405180606001604052806026815260200161137e602691396001600160a01b038616600090815260208190526040902054919063ffffffff610bf316565b6001600160a01b0380851660009081526020819052604080822093909355908416815220546110dd908263ffffffff610c8a16565b6001600160a01b038084166000818152602081815260409182902094909455805185815290519193928716927fddf252ad1be2c89b69c2b068fc378daa952ba7f163c4a11628f55a4df523b3ef92918290030190a3505050565b600061114283611153565b801561054d575061054d8383611187565b6000611166826301ffc9a760e01b611187565b8015611181575061117f826001600160e01b0319611187565b155b92915050565b600080600061119685856111ad565b915091508180156111a45750805b95945050505050565b604080516001600160e01b0319831660248083019190915282518083039091018152604490910182526020810180516001600160e01b03166301ffc9a760e01b1781529151815160009384939284926060926001600160a01b038a169261753092879282918083835b602083106112355780518252601f199092019160209182019101611216565b6001836020036101000a0380198251168184511680821785525050505050509050019150506000604051808303818686fa925050503d8060008114611296576040519150601f19603f3d011682016040523d82523d6000602084013e61129b565b606091505b50915091506020815110156112b957600080945094505050506112da565b818180602001905160208110156112cf57600080fd5b505190955093505050505b925092905056fe45524332303a207472616e7366657220746f20746865207a65726f20616464726573734f776e61626c653a206e6577206f776e657220697320746865207a65726f206164647265737345524332303a20617070726f766520746f20746865207a65726f206164647265737345524332304f6e417070726f76653a207370656e64657220646f65736e277420737570706f7274206f6e417070726f766545524332303a207472616e7366657220616d6f756e7420657863656564732062616c616e63656f6e417070726f766528616464726573732c616464726573732c75696e743235362c62797465732953656967546f6b656e3a206f6e6c792073656e646572206f7220726563697069656e742063616e207472616e7366657245524332303a207472616e7366657220616d6f756e74206578636565647320616c6c6f77616e63654f776e61626c653a2063616c6c6572206973206e6f7420746865206f776e657245524332303a207472616e736665722066726f6d20746865207a65726f206164647265737345524332303a20617070726f76652066726f6d20746865207a65726f206164647265737345524332303a2064656372656173656420616c6c6f77616e63652062656c6f77207a65726fa265627a7a72315820ffe891fb4208afbe32412ab022cf868eff28a2ae724a942dbc02abaab59e794864736f6c634300050c0032",
  "source": "pragma solidity ^0.5.12;\n\nimport { Ownable } from \"../../../node_modules/openzeppelin-solidity/contracts/ownership/Ownable.sol\";\nimport { ERC20 } from \"../../../node_modules/openzeppelin-solidity/contracts/token/ERC20/ERC20.sol\";\n\nimport { SeigManagerI } from \"../interfaces/SeigManagerI.sol\";\n\nimport { ERC165Checker } from \"../../../node_modules/openzeppelin-solidity/contracts/introspection/ERC165Checker.sol\";\n\nimport { ERC20OnApprove } from \"./ERC20OnApprove.sol\";\nimport { AuthController } from \"./AuthController.sol\";\n\ncontract SeigToken is ERC20, Ownable, ERC20OnApprove, AuthController {\n  SeigManagerI public seigManager;\n\n  function setSeigManager(SeigManagerI _seigManager) external onlyOwner {\n    seigManager = _seigManager;\n  }\n\n  //////////////////////\n  // Override ERC20 functions\n  //////////////////////\n\n  function _transfer(address sender, address recipient, uint256 amount) internal {\n    require(msg.sender == sender || msg.sender == recipient, \"SeigToken: only sender or recipient can transfer\");\n    super._transfer(sender, recipient, amount);\n    if (address(seigManager) != address(0)) {\n      // seigManager.onTransfer(sender, recipient, amount);\n    }\n  }\n\n  function _mint(address account, uint256 amount) internal {\n    super._mint(account, amount);\n    if (address(seigManager) != address(0)) {\n      // seigManager.onTransfer(address(0), account, amount);\n    }\n  }\n\n  function _burn(address account, uint256 amount) internal {\n    super._burn(account, amount);\n    if (address(seigManager) != address(0)) {\n      // seigManager.onTransfer(account, address(0), amount);\n    }\n  }\n}",
  "sourcePath": "/Users/thomashin/Workspace/plasma-evm-contracts/contracts/stake/tokens/SeigToken.sol",
  "compiler": {
    "name": "solc",
    "version": "0.5.12+commit.7709ece9.Emscripten.clang"
  },
  "schemaVersion": "3.0.23",
  "updatedAt": "2020-04-03T10:22:38.398Z",
  "devdoc": {
    "methods": {
      "allowance(address,address)": {
        "details": "See {IERC20-allowance}."
      },
      "approve(address,uint256)": {
        "details": "See {IERC20-approve}.     * Requirements:     * - `spender` cannot be the zero address."
      },
      "balanceOf(address)": {
        "details": "See {IERC20-balanceOf}."
      },
      "decreaseAllowance(address,uint256)": {
        "details": "Atomically decreases the allowance granted to `spender` by the caller.     * This is an alternative to {approve} that can be used as a mitigation for problems described in {IERC20-approve}.     * Emits an {Approval} event indicating the updated allowance.     * Requirements:     * - `spender` cannot be the zero address. - `spender` must have allowance for the caller of at least `subtractedValue`."
      },
      "increaseAllowance(address,uint256)": {
        "details": "Atomically increases the allowance granted to `spender` by the caller.     * This is an alternative to {approve} that can be used as a mitigation for problems described in {IERC20-approve}.     * Emits an {Approval} event indicating the updated allowance.     * Requirements:     * - `spender` cannot be the zero address."
      },
      "isOwner()": {
        "details": "Returns true if the caller is the current owner."
      },
      "owner()": {
        "details": "Returns the address of the current owner."
      },
      "renounceOwnership()": {
        "details": "Leaves the contract without owner. It will not be possible to call `onlyOwner` functions anymore. Can only be called by the current owner.     * NOTE: Renouncing ownership will leave the contract without an owner, thereby removing any functionality that is only available to the owner."
      },
      "totalSupply()": {
        "details": "See {IERC20-totalSupply}."
      },
      "transfer(address,uint256)": {
        "details": "See {IERC20-transfer}.     * Requirements:     * - `recipient` cannot be the zero address. - the caller must have a balance of at least `amount`."
      },
      "transferFrom(address,address,uint256)": {
        "details": "See {IERC20-transferFrom}.     * Emits an {Approval} event indicating the updated allowance. This is not required by the EIP. See the note at the beginning of {ERC20};     * Requirements: - `sender` and `recipient` cannot be the zero address. - `sender` must have a balance of at least `amount`. - the caller must have allowance for `sender`'s tokens of at least `amount`."
      },
      "transferOwnership(address)": {
        "details": "Transfers ownership of the contract to a new account (`newOwner`). Can only be called by the current owner."
      }
    }
  },
  "userdoc": {
    "methods": {}
  }
}