{
  "contractName": "WTON",
  "abi": [
    {
      "inputs": [
        {
          "internalType": "contract ERC20Mintable",
          "name": "_ton",
          "type": "address"
        }
      ],
      "payable": false,
      "stateMutability": "nonpayable",
      "type": "constructor"
    },
    {
      "anonymous": false,
      "inputs": [
        {
          "indexed": true,
          "internalType": "address",
          "name": "owner",
          "type": "address"
        },
        {
          "indexed": true,
          "internalType": "address",
          "name": "spender",
          "type": "address"
        },
        {
          "indexed": false,
          "internalType": "uint256",
          "name": "value",
          "type": "uint256"
        }
      ],
      "name": "Approval",
      "type": "event"
    },
    {
      "anonymous": false,
      "inputs": [
        {
          "indexed": true,
          "internalType": "address",
          "name": "account",
          "type": "address"
        }
      ],
      "name": "MinterAdded",
      "type": "event"
    },
    {
      "anonymous": false,
      "inputs": [
        {
          "indexed": true,
          "internalType": "address",
          "name": "account",
          "type": "address"
        }
      ],
      "name": "MinterRemoved",
      "type": "event"
    },
    {
      "anonymous": false,
      "inputs": [
        {
          "indexed": true,
          "internalType": "address",
          "name": "previousOwner",
          "type": "address"
        },
        {
          "indexed": true,
          "internalType": "address",
          "name": "newOwner",
          "type": "address"
        }
      ],
      "name": "OwnershipTransferred",
      "type": "event"
    },
    {
      "anonymous": false,
      "inputs": [
        {
          "indexed": true,
          "internalType": "address",
          "name": "from",
          "type": "address"
        },
        {
          "indexed": true,
          "internalType": "address",
          "name": "to",
          "type": "address"
        },
        {
          "indexed": false,
          "internalType": "uint256",
          "name": "value",
          "type": "uint256"
        }
      ],
      "name": "Transfer",
      "type": "event"
    },
    {
      "constant": true,
      "inputs": [],
      "name": "INTERFACE_ID_ON_APPROVE",
      "outputs": [
        {
          "internalType": "bytes4",
          "name": "",
          "type": "bytes4"
        }
      ],
      "payable": false,
      "stateMutability": "view",
      "type": "function"
    },
    {
      "constant": false,
      "inputs": [
        {
          "internalType": "address",
          "name": "account",
          "type": "address"
        }
      ],
      "name": "addMinter",
      "outputs": [],
      "payable": false,
      "stateMutability": "nonpayable",
      "type": "function"
    },
    {
      "constant": true,
      "inputs": [
        {
          "internalType": "address",
          "name": "owner",
          "type": "address"
        },
        {
          "internalType": "address",
          "name": "spender",
          "type": "address"
        }
      ],
      "name": "allowance",
      "outputs": [
        {
          "internalType": "uint256",
          "name": "",
          "type": "uint256"
        }
      ],
      "payable": false,
      "stateMutability": "view",
      "type": "function"
    },
    {
      "constant": false,
      "inputs": [
        {
          "internalType": "address",
          "name": "spender",
          "type": "address"
        },
        {
          "internalType": "uint256",
          "name": "amount",
          "type": "uint256"
        }
      ],
      "name": "approve",
      "outputs": [
        {
          "internalType": "bool",
          "name": "",
          "type": "bool"
        }
      ],
      "payable": false,
      "stateMutability": "nonpayable",
      "type": "function"
    },
    {
      "constant": false,
      "inputs": [
        {
          "internalType": "address",
          "name": "spender",
          "type": "address"
        },
        {
          "internalType": "uint256",
          "name": "amount",
          "type": "uint256"
        },
        {
          "internalType": "bytes",
          "name": "data",
          "type": "bytes"
        }
      ],
      "name": "approveAndCall",
      "outputs": [
        {
          "internalType": "bool",
          "name": "",
          "type": "bool"
        }
      ],
      "payable": false,
      "stateMutability": "nonpayable",
      "type": "function"
    },
    {
      "constant": true,
      "inputs": [
        {
          "internalType": "address",
          "name": "account",
          "type": "address"
        }
      ],
      "name": "balanceOf",
      "outputs": [
        {
          "internalType": "uint256",
          "name": "",
          "type": "uint256"
        }
      ],
      "payable": false,
      "stateMutability": "view",
      "type": "function"
    },
    {
      "constant": false,
      "inputs": [
        {
          "internalType": "uint256",
          "name": "amount",
          "type": "uint256"
        }
      ],
      "name": "burn",
      "outputs": [],
      "payable": false,
      "stateMutability": "nonpayable",
      "type": "function"
    },
    {
      "constant": true,
      "inputs": [],
      "name": "decimals",
      "outputs": [
        {
          "internalType": "uint8",
          "name": "",
          "type": "uint8"
        }
      ],
      "payable": false,
      "stateMutability": "view",
      "type": "function"
    },
    {
      "constant": false,
      "inputs": [
        {
          "internalType": "address",
          "name": "spender",
          "type": "address"
        },
        {
          "internalType": "uint256",
          "name": "subtractedValue",
          "type": "uint256"
        }
      ],
      "name": "decreaseAllowance",
      "outputs": [
        {
          "internalType": "bool",
          "name": "",
          "type": "bool"
        }
      ],
      "payable": false,
      "stateMutability": "nonpayable",
      "type": "function"
    },
    {
      "constant": false,
      "inputs": [
        {
          "internalType": "address",
          "name": "spender",
          "type": "address"
        },
        {
          "internalType": "uint256",
          "name": "addedValue",
          "type": "uint256"
        }
      ],
      "name": "increaseAllowance",
      "outputs": [
        {
          "internalType": "bool",
          "name": "",
          "type": "bool"
        }
      ],
      "payable": false,
      "stateMutability": "nonpayable",
      "type": "function"
    },
    {
      "constant": true,
      "inputs": [
        {
          "internalType": "address",
          "name": "account",
          "type": "address"
        }
      ],
      "name": "isMinter",
      "outputs": [
        {
          "internalType": "bool",
          "name": "",
          "type": "bool"
        }
      ],
      "payable": false,
      "stateMutability": "view",
      "type": "function"
    },
    {
      "constant": true,
      "inputs": [],
      "name": "isOwner",
      "outputs": [
        {
          "internalType": "bool",
          "name": "",
          "type": "bool"
        }
      ],
      "payable": false,
      "stateMutability": "view",
      "type": "function"
    },
    {
      "constant": false,
      "inputs": [
        {
          "internalType": "address",
          "name": "account",
          "type": "address"
        },
        {
          "internalType": "uint256",
          "name": "amount",
          "type": "uint256"
        }
      ],
      "name": "mint",
      "outputs": [
        {
          "internalType": "bool",
          "name": "",
          "type": "bool"
        }
      ],
      "payable": false,
      "stateMutability": "nonpayable",
      "type": "function"
    },
    {
      "constant": true,
      "inputs": [],
      "name": "name",
      "outputs": [
        {
          "internalType": "string",
          "name": "",
          "type": "string"
        }
      ],
      "payable": false,
      "stateMutability": "view",
      "type": "function"
    },
    {
      "constant": true,
      "inputs": [],
      "name": "owner",
      "outputs": [
        {
          "internalType": "address",
          "name": "",
          "type": "address"
        }
      ],
      "payable": false,
      "stateMutability": "view",
      "type": "function"
    },
    {
      "constant": false,
      "inputs": [
        {
          "internalType": "address",
          "name": "target",
          "type": "address"
        }
      ],
      "name": "renounceMinter",
      "outputs": [],
      "payable": false,
      "stateMutability": "nonpayable",
      "type": "function"
    },
    {
      "constant": false,
      "inputs": [],
      "name": "renounceMinter",
      "outputs": [],
      "payable": false,
      "stateMutability": "nonpayable",
      "type": "function"
    },
    {
      "constant": false,
      "inputs": [
        {
          "internalType": "address",
          "name": "target",
          "type": "address"
        }
      ],
      "name": "renounceOwnership",
      "outputs": [],
      "payable": false,
      "stateMutability": "nonpayable",
      "type": "function"
    },
    {
      "constant": false,
      "inputs": [],
      "name": "renounceOwnership",
      "outputs": [],
      "payable": false,
      "stateMutability": "nonpayable",
      "type": "function"
    },
    {
      "constant": false,
      "inputs": [
        {
          "internalType": "address",
          "name": "target",
          "type": "address"
        }
      ],
      "name": "renouncePauser",
      "outputs": [],
      "payable": false,
      "stateMutability": "nonpayable",
      "type": "function"
    },
    {
      "constant": true,
      "inputs": [],
      "name": "seigManager",
      "outputs": [
        {
          "internalType": "contract SeigManagerI",
          "name": "",
          "type": "address"
        }
      ],
      "payable": false,
      "stateMutability": "view",
      "type": "function"
    },
    {
      "constant": false,
      "inputs": [
        {
          "internalType": "contract SeigManagerI",
          "name": "_seigManager",
          "type": "address"
        }
      ],
      "name": "setSeigManager",
      "outputs": [],
      "payable": false,
      "stateMutability": "nonpayable",
      "type": "function"
    },
    {
      "constant": true,
      "inputs": [
        {
          "internalType": "bytes4",
          "name": "interfaceId",
          "type": "bytes4"
        }
      ],
      "name": "supportsInterface",
      "outputs": [
        {
          "internalType": "bool",
          "name": "",
          "type": "bool"
        }
      ],
      "payable": false,
      "stateMutability": "view",
      "type": "function"
    },
    {
      "constant": true,
      "inputs": [],
      "name": "symbol",
      "outputs": [
        {
          "internalType": "string",
          "name": "",
          "type": "string"
        }
      ],
      "payable": false,
      "stateMutability": "view",
      "type": "function"
    },
    {
      "constant": true,
      "inputs": [],
      "name": "ton",
      "outputs": [
        {
          "internalType": "contract ERC20Mintable",
          "name": "",
          "type": "address"
        }
      ],
      "payable": false,
      "stateMutability": "view",
      "type": "function"
    },
    {
      "constant": true,
      "inputs": [],
      "name": "totalSupply",
      "outputs": [
        {
          "internalType": "uint256",
          "name": "",
          "type": "uint256"
        }
      ],
      "payable": false,
      "stateMutability": "view",
      "type": "function"
    },
    {
      "constant": false,
      "inputs": [
        {
          "internalType": "address",
          "name": "recipient",
          "type": "address"
        },
        {
          "internalType": "uint256",
          "name": "amount",
          "type": "uint256"
        }
      ],
      "name": "transfer",
      "outputs": [
        {
          "internalType": "bool",
          "name": "",
          "type": "bool"
        }
      ],
      "payable": false,
      "stateMutability": "nonpayable",
      "type": "function"
    },
    {
      "constant": false,
      "inputs": [
        {
          "internalType": "address",
          "name": "sender",
          "type": "address"
        },
        {
          "internalType": "address",
          "name": "recipient",
          "type": "address"
        },
        {
          "internalType": "uint256",
          "name": "amount",
          "type": "uint256"
        }
      ],
      "name": "transferFrom",
      "outputs": [
        {
          "internalType": "bool",
          "name": "",
          "type": "bool"
        }
      ],
      "payable": false,
      "stateMutability": "nonpayable",
      "type": "function"
    },
    {
      "constant": false,
      "inputs": [
        {
          "internalType": "address",
          "name": "target",
          "type": "address"
        },
        {
          "internalType": "address",
          "name": "newOwner",
          "type": "address"
        }
      ],
      "name": "transferOwnership",
      "outputs": [],
      "payable": false,
      "stateMutability": "nonpayable",
      "type": "function"
    },
    {
      "constant": false,
      "inputs": [
        {
          "internalType": "address",
          "name": "newOwner",
          "type": "address"
        }
      ],
      "name": "transferOwnership",
      "outputs": [],
      "payable": false,
      "stateMutability": "nonpayable",
      "type": "function"
    },
    {
      "constant": false,
      "inputs": [
        {
          "internalType": "address",
          "name": "owner",
          "type": "address"
        },
        {
          "internalType": "address",
          "name": "spender",
          "type": "address"
        },
        {
          "internalType": "uint256",
          "name": "tonAmount",
          "type": "uint256"
        },
        {
          "internalType": "bytes",
          "name": "data",
          "type": "bytes"
        }
      ],
      "name": "onApprove",
      "outputs": [
        {
          "internalType": "bool",
          "name": "",
          "type": "bool"
        }
      ],
      "payable": false,
      "stateMutability": "nonpayable",
      "type": "function"
    },
    {
      "constant": false,
      "inputs": [
        {
          "internalType": "address",
          "name": "account",
          "type": "address"
        },
        {
          "internalType": "uint256",
          "name": "amount",
          "type": "uint256"
        }
      ],
      "name": "burnFrom",
      "outputs": [],
      "payable": false,
      "stateMutability": "nonpayable",
      "type": "function"
    },
    {
      "constant": false,
      "inputs": [
        {
          "internalType": "uint256",
          "name": "wtonAmount",
          "type": "uint256"
        }
      ],
      "name": "swapToTON",
      "outputs": [
        {
          "internalType": "bool",
          "name": "",
          "type": "bool"
        }
      ],
      "payable": false,
      "stateMutability": "nonpayable",
      "type": "function"
    },
    {
      "constant": false,
      "inputs": [
        {
          "internalType": "uint256",
          "name": "tonAmount",
          "type": "uint256"
        }
      ],
      "name": "swapFromTON",
      "outputs": [
        {
          "internalType": "bool",
          "name": "",
          "type": "bool"
        }
      ],
      "payable": false,
      "stateMutability": "nonpayable",
      "type": "function"
    },
    {
      "constant": false,
      "inputs": [
        {
          "internalType": "address",
          "name": "to",
          "type": "address"
        },
        {
          "internalType": "uint256",
          "name": "wtonAmount",
          "type": "uint256"
        }
      ],
      "name": "swapToTONAndTransfer",
      "outputs": [
        {
          "internalType": "bool",
          "name": "",
          "type": "bool"
        }
      ],
      "payable": false,
      "stateMutability": "nonpayable",
      "type": "function"
    },
    {
      "constant": false,
      "inputs": [
        {
          "internalType": "address",
          "name": "to",
          "type": "address"
        },
        {
          "internalType": "uint256",
          "name": "tonAmount",
          "type": "uint256"
        }
      ],
      "name": "swapFromTONAndTransfer",
      "outputs": [
        {
          "internalType": "bool",
          "name": "",
          "type": "bool"
        }
      ],
      "payable": false,
      "stateMutability": "nonpayable",
      "type": "function"
    }
  ],
  "bytecode": "0x60806040523480156200001157600080fd5b5060405162002dd338038062002dd3833981810160405260208110156200003757600080fd5b5051604080518082018252600b81527f5772617070656420544f4e0000000000000000000000000000000000000000006020828101919091528251808401909352600483527f57544f4e00000000000000000000000000000000000000000000000000000000908301526000805460ff1916600117905590601b620000d7620000c86001600160e01b03620002d616565b6001600160e01b03620002db16565b6000620000ec6001600160e01b03620002d616565b600580546001600160a01b0319166001600160a01b038316908117909155604051919250906000907f8be0079c531659141344cd1fd0a4f28419497f9722a3daafe3b4186f6b6457e0908290a35082516200014f90600690602086019062000526565b5081516200016590600790602085019062000526565b506008805460ff191660ff9290921691909117905550620001a890507f01ffc9a7000000000000000000000000000000000000000000000000000000006200032d565b620001d6604051808062002d896028913960405190819003602801902090506001600160e01b036200032d16565b806001600160a01b031663313ce5676040518163ffffffff1660e01b815260040160206040518083038186803b1580156200021057600080fd5b505afa15801562000225573d6000803e3d6000fd5b505050506040513d60208110156200023c57600080fd5b505160ff16601214620002b057604080517f08c379a000000000000000000000000000000000000000000000000000000000815260206004820181905260248201527f57544f4e3a20646563696d616c73206f6620544f4e206d757374206265203138604482015290519081900360640190fd5b600a80546001600160a01b0319166001600160a01b0392909216919091179055620005c8565b335b90565b620002f6816004620003fc60201b62001f5f1790919060201c565b6040516001600160a01b038216907f6ae172837ea30b801fbfcdd4108aa1d5bf8ff775444fd70256b44e6bf3dfc3f690600090a250565b7fffffffff000000000000000000000000000000000000000000000000000000008082161415620003bf57604080517f08c379a000000000000000000000000000000000000000000000000000000000815260206004820152601c60248201527f4552433136353a20696e76616c696420696e7465726661636520696400000000604482015290519081900360640190fd5b7fffffffff00000000000000000000000000000000000000000000000000000000166000908152600960205260409020805460ff19166001179055565b6200041182826001600160e01b03620004a316565b156200047e57604080517f08c379a000000000000000000000000000000000000000000000000000000000815260206004820152601f60248201527f526f6c65733a206163636f756e7420616c72656164792068617320726f6c6500604482015290519081900360640190fd5b6001600160a01b0316600090815260209190915260409020805460ff19166001179055565b60006001600160a01b03821662000506576040517f08c379a000000000000000000000000000000000000000000000000000000000815260040180806020018281038252602281526020018062002db16022913960400191505060405180910390fd5b506001600160a01b03166000908152602091909152604090205460ff1690565b828054600181600116156101000203166002900490600052602060002090601f016020900481019282601f106200056957805160ff191683800117855562000599565b8280016001018555821562000599579182015b82811115620005995782518255916020019190600101906200057c565b50620005a7929150620005ab565b5090565b620002d891905b80821115620005a75760008155600101620005b2565b6127b180620005d86000396000f3fe608060405234801561001057600080fd5b506004361061021c5760003560e01c8063715018a611610125578063a9059cbb116100ad578063dd62ed3e1161007c578063dd62ed3e14610796578063e34869d7146107c4578063e3b99e85146107e1578063f2fde38b1461080d578063f53fe70f146108335761021c565b8063a9059cbb14610681578063aa271e1a146106ad578063cae9ca51146106d3578063cc48b9471461078e5761021c565b80638f32d59b116100f45780638f32d59b1461061757806395d89b411461061f578063983b2d5614610627578063986502751461064d578063a457c2d7146106555761021c565b8063715018a6146105b55780637657f20a146105bd57806379cc6790146105e35780638da5cb5b1461060f5761021c565b806341eb24bb116101a85780635f112c68116101775780635f112c68146104f25780636cd28f9a146105185780636d4354211461053d5780636fb7f5581461056b57806370a082311461058f5761021c565b806341eb24bb146103f35780634273ca161461041957806342966c68146104a9578063588420b7146104c65761021c565b806323b872dd116101ef57806323b872dd1461031f578063313ce5671461035557806338bf3cfa14610373578063395093511461039b57806340c10f19146103c75761021c565b806301ffc9a71461022157806306fdde031461025c578063095ea7b3146102d957806318160ddd14610305575b600080fd5b6102486004803603602081101561023757600080fd5b50356001600160e01b031916610850565b604080519115158252519081900360200190f35b61026461086f565b6040805160208082528351818301528351919283929083019185019080838360005b8381101561029e578181015183820152602001610286565b50505050905090810190601f1680156102cb5780820380516001836020036101000a031916815260200191505b509250505060405180910390f35b610248600480360360408110156102ef57600080fd5b506001600160a01b038135169060200135610905565b61030d610922565b60408051918252519081900360200190f35b6102486004803603606081101561033557600080fd5b506001600160a01b03813581169160208101359091169060400135610928565b61035d6109b6565b6040805160ff9092168252519081900360200190f35b6103996004803603602081101561038957600080fd5b50356001600160a01b03166109bf565b005b610248600480360360408110156103b157600080fd5b506001600160a01b038135169060200135610a5c565b610248600480360360408110156103dd57600080fd5b506001600160a01b038135169060200135610ab0565b6103996004803603602081101561040957600080fd5b50356001600160a01b0316610b07565b6102486004803603608081101561042f57600080fd5b6001600160a01b0382358116926020810135909116916040820135919081019060808101606082013564010000000081111561046a57600080fd5b82018360208201111561047c57600080fd5b8035906020019184600183028401116401000000008311171561049e57600080fd5b509092509050610b89565b610399600480360360208110156104bf57600080fd5b5035610c68565b610248600480360360408110156104dc57600080fd5b506001600160a01b038135169060200135610c7c565b6103996004803603602081101561050857600080fd5b50356001600160a01b0316610cec565b610520610d6e565b604080516001600160e01b03199092168252519081900360200190f35b6103996004803603604081101561055357600080fd5b506001600160a01b0381358116916020013516610d89565b610573610e44565b604080516001600160a01b039092168252519081900360200190f35b61030d600480360360208110156105a557600080fd5b50356001600160a01b0316610e58565b610399610e73565b610399600480360360208110156105d357600080fd5b50356001600160a01b0316610f04565b610399600480360360408110156105f957600080fd5b506001600160a01b038135169060200135610f73565b610573610f9e565b610248610fad565b610264610fd3565b6103996004803603602081101561063d57600080fd5b50356001600160a01b0316611034565b610399611083565b6102486004803603604081101561066b57600080fd5b506001600160a01b038135169060200135611095565b6102486004803603604081101561069757600080fd5b506001600160a01b038135169060200135611103565b610248600480360360208110156106c357600080fd5b50356001600160a01b0316611117565b610248600480360360608110156106e957600080fd5b6001600160a01b038235169160208101359181019060608101604082013564010000000081111561071957600080fd5b82018360208201111561072b57600080fd5b8035906020019184600183028401116401000000008311171561074d57600080fd5b91908080601f016020809104026020016040519081016040528093929190818152602001838380828437600092019190915250929550611130945050505050565b610573611151565b61030d600480360360408110156107ac57600080fd5b506001600160a01b0381358116916020013516611160565b610248600480360360208110156107da57600080fd5b503561118b565b610248600480360360408110156107f757600080fd5b506001600160a01b0381351690602001356111fa565b6103996004803603602081101561082357600080fd5b50356001600160a01b0316611255565b6102486004803603602081101561084957600080fd5b50356112a5565b6001600160e01b03191660009081526009602052604090205460ff1690565b60068054604080516020601f60026000196101006001881615020190951694909404938401819004810282018101909252828152606093909290918301828280156108fb5780601f106108d0576101008083540402835291602001916108fb565b820191906000526020600020905b8154815290600101906020018083116108de57829003601f168201915b5050505050905090565b6000610919610912611300565b8484611304565b50600192915050565b60035490565b60006109358484846113f0565b6109ab84610941611300565b6109a685604051806060016040528060288152602001612610602891396001600160a01b038a1660009081526002602052604081209061097f611300565b6001600160a01b03168152602081019190915260400160002054919063ffffffff61145a16565b611304565b5060015b9392505050565b60085460ff1690565b6109c7610fad565b610a06576040805162461bcd60e51b81526020600482018190526024820152600080516020612638833981519152604482015290519081900360640190fd5b806001600160a01b031663715018a66040518163ffffffff1660e01b8152600401600060405180830381600087803b158015610a4157600080fd5b505af1158015610a55573d6000803e3d6000fd5b5050505050565b6000610919610a69611300565b846109a68560026000610a7a611300565b6001600160a01b03908116825260208083019390935260409182016000908120918c16815292529020549063ffffffff6114f116565b6000610ac2610abd611300565b611117565b610afd5760405162461bcd60e51b81526004018080602001828103825260308152602001806125bf6030913960400191505060405180910390fd5b610919838361154b565b610b0f610fad565b610b4e576040805162461bcd60e51b81526020600482018190526024820152600080516020612638833981519152604482015290519081900360640190fd5b806001600160a01b0316636ef8d66d6040518163ffffffff1660e01b8152600401600060405180830381600087803b158015610a4157600080fd5b600a546000906001600160a01b03163314610bd55760405162461bcd60e51b81526004018080602001828103825260268152602001806127086026913960400191505060405180910390fd5b610be0868786611555565b506000610bec85611587565b9050600080610c3086868080601f01602080910402602001604051908101604052809392919081815260200183838082843760009201919091525061159092505050565b91509150610c3f898385611304565b6060610c4a826115b2565b9050610c588a8486846115dc565b5060019998505050505050505050565b610c79610c73611300565b82611832565b50565b6000805460ff16610cc2576040805162461bcd60e51b815260206004820152601f6024820152600080516020612486833981519152604482015290519081900360640190fd5b6000805460ff19169055610cd7338484611555565b90506000805460ff1916600117905592915050565b610cf4610fad565b610d33576040805162461bcd60e51b81526020600482018190526024820152600080516020612638833981519152604482015290519081900360640190fd5b806001600160a01b031663986502756040518163ffffffff1660e01b8152600401600060405180830381600087803b158015610a4157600080fd5b60405180602861256782396028019050604051809103902081565b610d91610fad565b610dd0576040805162461bcd60e51b81526020600482018190526024820152600080516020612638833981519152604482015290519081900360640190fd5b816001600160a01b031663f2fde38b826040518263ffffffff1660e01b815260040180826001600160a01b03166001600160a01b03168152602001915050600060405180830381600087803b158015610e2857600080fd5b505af1158015610e3c573d6000803e3d6000fd5b505050505050565b60085461010090046001600160a01b031681565b6001600160a01b031660009081526001602052604090205490565b610e7b610fad565b610eba576040805162461bcd60e51b81526020600482018190526024820152600080516020612638833981519152604482015290519081900360640190fd5b6005546040516000916001600160a01b0316907f8be0079c531659141344cd1fd0a4f28419497f9722a3daafe3b4186f6b6457e0908390a3600580546001600160a01b0319169055565b610f0c610fad565b610f4b576040805162461bcd60e51b81526020600482018190526024820152600080516020612638833981519152604482015290519081900360640190fd5b600880546001600160a01b0390921661010002610100600160a81b0319909216919091179055565b610f7c33611117565b15610f9057610f8b8282611832565b610f9a565b610f9a828261183c565b5050565b6005546001600160a01b031690565b6005546000906001600160a01b0316610fc4611300565b6001600160a01b031614905090565b60078054604080516020601f60026000196101006001881615020190951694909404938401819004810282018101909252828152606093909290918301828280156108fb5780601f106108d0576101008083540402835291602001916108fb565b61103f610abd611300565b61107a5760405162461bcd60e51b81526004018080602001828103825260308152602001806125bf6030913960400191505060405180910390fd5b610c7981611846565b61109361108e611300565b61188e565b565b60006109196110a2611300565b846109a68560405180606001604052806025815260200161275860259139600260006110cc611300565b6001600160a01b03908116825260208083019390935260409182016000908120918d1681529252902054919063ffffffff61145a16565b6000610919611110611300565b84846113f0565b600061112a60048363ffffffff6118d616565b92915050565b600061113c8484610905565b61114557600080fd5b6109af338585856115dc565b600a546001600160a01b031681565b6001600160a01b03918216600090815260026020908152604080832093909416825291909152205490565b6000805460ff166111d1576040805162461bcd60e51b815260206004820152601f6024820152600080516020612486833981519152604482015290519081900360640190fd5b6000805460ff191690556111e6338084611555565b90506000805460ff19166001179055919050565b6000805460ff16611240576040805162461bcd60e51b815260206004820152601f6024820152600080516020612486833981519152604482015290519081900360640190fd5b6000805460ff19169055610cd783338461193d565b61125d610fad565b61129c576040805162461bcd60e51b81526020600482018190526024820152600080516020612638833981519152604482015290519081900360640190fd5b610c7981611aa2565b6000805460ff166112eb576040805162461bcd60e51b815260206004820152601f6024820152600080516020612486833981519152604482015290519081900360640190fd5b6000805460ff191690556111e633808461193d565b3390565b6001600160a01b0383166113495760405162461bcd60e51b81526004018080602001828103825260248152602001806126e46024913960400191505060405180910390fd5b6001600160a01b03821661138e5760405162461bcd60e51b81526004018080602001828103825260228152602001806124ee6022913960400191505060405180910390fd5b6001600160a01b03808416600081815260026020908152604080832094871680845294825291829020859055815185815291517f8c5be1e5ebec7d5bd14f71427d1e84f3dd0314c0f7b2291e5b200ac8c7c3b9259281900390910190a3505050565b336001600160a01b038416148061140f5750336001600160a01b038316145b61144a5760405162461bcd60e51b815260040180806020018281038252603081526020018061258f6030913960400191505060405180910390fd5b611455838383611b43565b505050565b600081848411156114e95760405162461bcd60e51b81526004018080602001828103825283818151815260200191508051906020019080838360005b838110156114ae578181015183820152602001611496565b50505050905090810190601f1680156114db5780820380516001836020036101000a031916815260200191505b509250505060405180910390fd5b505050900390565b6000828201838110156109af576040805162461bcd60e51b815260206004820152601b60248201527f536166654d6174683a206164646974696f6e206f766572666c6f770000000000604482015290519081900360640190fd5b610f9a8282611ca1565b60006115698361156484611587565b61154b565b600a546109ab906001600160a01b031685308563ffffffff611d9316565b633b9aca000290565b60008082516040146115a157600080fd5b505060208101516040909101519091565b60408051602080825281830190925260609160208201818038833950505060208101929092525090565b6115fe8360405180806125676028913960280190506040518091039020611df3565b6116395760405162461bcd60e51b81526004018080602001828103825260318152602001806125106031913960400191505060405180910390fd5b60006060846001600160a01b0316604051808061256760289139602801905060405180910390208787878760405160240180856001600160a01b03166001600160a01b03168152602001846001600160a01b03166001600160a01b0316815260200183815260200180602001828103825283818151815260200191508051906020019080838360005b838110156116da5781810151838201526020016116c2565b50505050905090810190601f1680156117075780820380516001836020036101000a031916815260200191505b5060408051601f198184030181529181526020820180516001600160e01b03166001600160e01b0319909a16999099178952518151919890975087965094509250829150849050835b6020831061176f5780518252601f199092019160209182019101611750565b6001836020036101000a0380198251168184511680821785525050505050509050019150506000604051808303816000865af19150503d80600081146117d1576040519150601f19603f3d011682016040523d82523d6000602084013e6117d6565b606091505b50915091508181906118295760405162461bcd60e51b81526020600482018181528351602484015283519092839260449091019190850190808383600083156114ae578181015183820152602001611496565b50505050505050565b610f9a8282611e0f565b610f9a8282611f0b565b61185760048263ffffffff611f5f16565b6040516001600160a01b038216907f6ae172837ea30b801fbfcdd4108aa1d5bf8ff775444fd70256b44e6bf3dfc3f690600090a250565b61189f60048263ffffffff611fe016565b6040516001600160a01b038216907fe94479a9f7e1952cc78f2d6baab678adc1b772d936c6583def489e524cb6669290600090a250565b60006001600160a01b03821661191d5760405162461bcd60e51b81526004018080602001828103825260228152602001806126586022913960400191505060405180910390fd5b506001600160a01b03166000908152602091909152604090205460ff1690565b60006119498383611832565b600061195483612047565b600a54604080516370a0823160e01b815230600482015290519293506000926001600160a01b03909216916370a0823191602480820192602092909190829003018186803b1580156119a557600080fd5b505afa1580156119b9573d6000803e3d6000fd5b505050506040513d60208110156119cf57600080fd5b5051905081811015611a7957600a546001600160a01b03166340c10f19306119fd858563ffffffff61205116565b6040518363ffffffff1660e01b815260040180836001600160a01b03166001600160a01b0316815260200182815260200192505050602060405180830381600087803b158015611a4c57600080fd5b505af1158015611a60573d6000803e3d6000fd5b505050506040513d6020811015611a7657600080fd5b50505b600a54611a96906001600160a01b0316878463ffffffff61209316565b50600195945050505050565b6001600160a01b038116611ae75760405162461bcd60e51b81526004018080602001828103825260268152602001806124c86026913960400191505060405180910390fd5b6005546040516001600160a01b038084169216907f8be0079c531659141344cd1fd0a4f28419497f9722a3daafe3b4186f6b6457e090600090a3600580546001600160a01b0319166001600160a01b0392909216919091179055565b6001600160a01b038316611b885760405162461bcd60e51b81526004018080602001828103825260258152602001806126bf6025913960400191505060405180910390fd5b6001600160a01b038216611bcd5760405162461bcd60e51b81526004018080602001828103825260238152602001806124636023913960400191505060405180910390fd5b611c1081604051806060016040528060268152602001612541602691396001600160a01b038616600090815260016020526040902054919063ffffffff61145a16565b6001600160a01b038085166000908152600160205260408082209390935590841681522054611c45908263ffffffff6114f116565b6001600160a01b0380841660008181526001602090815260409182902094909455805185815290519193928716927fddf252ad1be2c89b69c2b068fc378daa952ba7f163c4a11628f55a4df523b3ef92918290030190a3505050565b6001600160a01b038216611cfc576040805162461bcd60e51b815260206004820152601f60248201527f45524332303a206d696e7420746f20746865207a65726f206164647265737300604482015290519081900360640190fd5b600354611d0f908263ffffffff6114f116565b6003556001600160a01b038216600090815260016020526040902054611d3b908263ffffffff6114f116565b6001600160a01b03831660008181526001602090815260408083209490945583518581529351929391927fddf252ad1be2c89b69c2b068fc378daa952ba7f163c4a11628f55a4df523b3ef9281900390910190a35050565b604080516001600160a01b0385811660248301528416604482015260648082018490528251808303909101815260849091019091526020810180516001600160e01b03166323b872dd60e01b179052611ded9085906120e1565b50505050565b6000611dfe83612299565b80156109af57506109af83836122cc565b6001600160a01b038216611e545760405162461bcd60e51b815260040180806020018281038252602181526020018061269e6021913960400191505060405180910390fd5b611e97816040518060600160405280602281526020016124a6602291396001600160a01b038516600090815260016020526040902054919063ffffffff61145a16565b6001600160a01b038316600090815260016020526040902055600354611ec3908263ffffffff61205116565b6003556040805182815290516000916001600160a01b038516917fddf252ad1be2c89b69c2b068fc378daa952ba7f163c4a11628f55a4df523b3ef9181900360200190a35050565b611f158282611832565b610f9a82611f21611300565b6109a68460405180606001604052806024815260200161267a602491396001600160a01b03881660009081526002602052604081209061097f611300565b611f6982826118d6565b15611fbb576040805162461bcd60e51b815260206004820152601f60248201527f526f6c65733a206163636f756e7420616c72656164792068617320726f6c6500604482015290519081900360640190fd5b6001600160a01b0316600090815260209190915260409020805460ff19166001179055565b611fea82826118d6565b6120255760405162461bcd60e51b81526004018080602001828103825260218152602001806125ef6021913960400191505060405180910390fd5b6001600160a01b0316600090815260209190915260409020805460ff19169055565b633b9aca00900490565b60006109af83836040518060400160405280601e81526020017f536166654d6174683a207375627472616374696f6e206f766572666c6f77000081525061145a565b604080516001600160a01b038416602482015260448082018490528251808303909101815260649091019091526020810180516001600160e01b031663a9059cbb60e01b1790526114559084905b6120f3826001600160a01b03166122f2565b612144576040805162461bcd60e51b815260206004820152601f60248201527f5361666545524332303a2063616c6c20746f206e6f6e2d636f6e747261637400604482015290519081900360640190fd5b60006060836001600160a01b0316836040518082805190602001908083835b602083106121825780518252601f199092019160209182019101612163565b6001836020036101000a0380198251168184511680821785525050505050509050019150506000604051808303816000865af19150503d80600081146121e4576040519150601f19603f3d011682016040523d82523d6000602084013e6121e9565b606091505b509150915081612240576040805162461bcd60e51b815260206004820181905260248201527f5361666545524332303a206c6f772d6c6576656c2063616c6c206661696c6564604482015290519081900360640190fd5b805115611ded5780806020019051602081101561225c57600080fd5b5051611ded5760405162461bcd60e51b815260040180806020018281038252602a81526020018061272e602a913960400191505060405180910390fd5b60006122ac826301ffc9a760e01b6122cc565b801561112a57506122c5826001600160e01b03196122cc565b1592915050565b60008060006122db858561232e565b915091508180156122e95750805b95945050505050565b6000813f7fc5d2460186f7233c927e7db2dcc703c0e500b653ca82273b7bfad8045d85a47081811480159061232657508115155b949350505050565b604080516001600160e01b0319831660248083019190915282518083039091018152604490910182526020810180516001600160e01b03166301ffc9a760e01b1781529151815160009384939284926060926001600160a01b038a169261753092879282918083835b602083106123b65780518252601f199092019160209182019101612397565b6001836020036101000a0380198251168184511680821785525050505050509050019150506000604051808303818686fa925050503d8060008114612417576040519150601f19603f3d011682016040523d82523d6000602084013e61241c565b606091505b509150915060208151101561243a576000809450945050505061245b565b8181806020019051602081101561245057600080fd5b505190955093505050505b925092905056fe45524332303a207472616e7366657220746f20746865207a65726f20616464726573735265656e7472616e637947756172643a207265656e7472616e742063616c6c0045524332303a206275726e20616d6f756e7420657863656564732062616c616e63654f776e61626c653a206e6577206f776e657220697320746865207a65726f206164647265737345524332303a20617070726f766520746f20746865207a65726f206164647265737345524332304f6e417070726f76653a207370656e64657220646f65736e277420737570706f7274206f6e417070726f766545524332303a207472616e7366657220616d6f756e7420657863656564732062616c616e63656f6e417070726f766528616464726573732c616464726573732c75696e743235362c62797465732953656967546f6b656e3a206f6e6c792073656e646572206f7220726563697069656e742063616e207472616e736665724d696e746572526f6c653a2063616c6c657220646f6573206e6f74206861766520746865204d696e74657220726f6c65526f6c65733a206163636f756e7420646f6573206e6f74206861766520726f6c6545524332303a207472616e7366657220616d6f756e74206578636565647320616c6c6f77616e63654f776e61626c653a2063616c6c6572206973206e6f7420746865206f776e6572526f6c65733a206163636f756e7420697320746865207a65726f206164647265737345524332303a206275726e20616d6f756e74206578636565647320616c6c6f77616e636545524332303a206275726e2066726f6d20746865207a65726f206164647265737345524332303a207472616e736665722066726f6d20746865207a65726f206164647265737345524332303a20617070726f76652066726f6d20746865207a65726f206164647265737357544f4e3a206f6e6c792061636365707420544f4e20617070726f76652063616c6c6261636b5361666545524332303a204552433230206f7065726174696f6e20646964206e6f74207375636365656445524332303a2064656372656173656420616c6c6f77616e63652062656c6f77207a65726fa265627a7a72315820c2095ae11158869a1fe09d7976a7b8fb8a2f0b9caa74625357a373a0dc742ab764736f6c634300050c00326f6e417070726f766528616464726573732c616464726573732c75696e743235362c627974657329526f6c65733a206163636f756e7420697320746865207a65726f2061646472657373",
  "source": "pragma solidity ^0.5.12;\n\nimport { Ownable } from \"../../../node_modules/openzeppelin-solidity/contracts/ownership/Ownable.sol\";\nimport { SafeMath } from \"../../../node_modules/openzeppelin-solidity/contracts/math/SafeMath.sol\";\n\nimport { IERC20 } from \"../../../node_modules/openzeppelin-solidity/contracts/token/ERC20/IERC20.sol\";\nimport { ERC20 } from \"../../../node_modules/openzeppelin-solidity/contracts/token/ERC20/ERC20.sol\";\nimport { ERC20Mintable } from \"../../../node_modules/openzeppelin-solidity/contracts/token/ERC20/ERC20Mintable.sol\";\nimport { ERC20Burnable } from \"../../../node_modules/openzeppelin-solidity/contracts/token/ERC20/ERC20Burnable.sol\";\nimport { ERC20Detailed } from \"../../../node_modules/openzeppelin-solidity/contracts/token/ERC20/ERC20Detailed.sol\";\nimport { SafeERC20 } from \"../../../node_modules/openzeppelin-solidity/contracts/token/ERC20/SafeERC20.sol\";\n\nimport { ReentrancyGuard } from \"../../../node_modules/openzeppelin-solidity/contracts/utils/ReentrancyGuard.sol\";\nimport { ERC165 } from \"../../../node_modules/openzeppelin-solidity/contracts/introspection/ERC165.sol\";\nimport { ERC165Checker } from \"../../../node_modules/openzeppelin-solidity/contracts/introspection/ERC165Checker.sol\";\n\nimport { DSMath } from \"../../../node_modules/coinage-token/contracts/lib/DSMath.sol\";\n\nimport { SeigManagerI } from \"../interfaces/SeigManagerI.sol\";\n\nimport { SeigToken } from \"./SeigToken.sol\";\nimport { OnApprove } from \"./OnApprove.sol\";\nimport { OnApproveConstant } from \"./OnApproveConstant.sol\";\n\n\ncontract WTON is DSMath, ReentrancyGuard, Ownable, ERC20Mintable, ERC20Burnable, ERC20Detailed, SeigToken, OnApprove {\n  using SafeERC20 for ERC20Mintable;\n\n  ERC20Mintable public ton;\n\n  constructor (\n    ERC20Mintable _ton\n  )\n    public\n    ERC20Detailed(\"Wrapped TON\", \"WTON\", 27)\n  {\n    require(ERC20Detailed(address(_ton)).decimals() == 18, \"WTON: decimals of TON must be 18\");\n    ton = _ton;\n  }\n\n  //////////////////////\n  // TON Approve callback\n  //////////////////////\n\n  function onApprove(\n    address owner,\n    address spender,\n    uint256 tonAmount,\n    bytes calldata data\n  ) external returns (bool) {\n    require(msg.sender == address(ton), \"WTON: only accept TON approve callback\");\n\n    // swap owner's TON to WTON\n    _swapFromTON(owner, owner, tonAmount);\n\n    uint256 wtonAmount = _toRAY(tonAmount);\n    (address depositManager, address rootchain) = _decodeTONApproveData(data);\n\n    // approve WTON to DepositManager\n    _approve(owner, depositManager, wtonAmount);\n\n    // call DepositManager.onApprove to deposit WTON\n    bytes memory depositManagerOnApproveData = _encodeDepositManagerOnApproveData(rootchain);\n    _callOnApprove(owner, depositManager, wtonAmount, depositManagerOnApproveData);\n\n    return true;\n  }\n\n  /**\n   * @dev data is 64 bytes of 2 addresses in left-padded 32 bytes\n   */\n  function _decodeTONApproveData(\n    bytes memory data\n  ) internal pure returns (address depositManager, address rootchain) {\n    require(data.length == 0x40);\n\n    assembly {\n      depositManager := mload(add(data, 0x20))\n      rootchain := mload(add(data, 0x40))\n    }\n  }\n\n  function _encodeDepositManagerOnApproveData(\n    address rootchain\n  ) internal pure returns (bytes memory data) {\n    data = new bytes(0x20);\n\n    assembly {\n      mstore(add(data, 0x20), rootchain)\n    }\n  }\n\n\n  //////////////////////\n  // Override ERC20 functions\n  //////////////////////\n\n  function burnFrom(address account, uint256 amount) public {\n    if (isMinter(msg.sender)) {\n      _burn(account, amount);\n      return;\n    }\n\n    super.burnFrom(account, amount);\n  }\n\n  //////////////////////\n  // Swap functions\n  //////////////////////\n\n  /**\n   * @dev swap WTON to TON\n   */\n  function swapToTON(uint256 wtonAmount) public nonReentrant returns (bool) {\n    return _swapToTON(msg.sender, msg.sender, wtonAmount);\n  }\n\n  /**\n   * @dev swap TON to WTON\n   */\n  function swapFromTON(uint256 tonAmount) public nonReentrant returns (bool) {\n    return _swapFromTON(msg.sender, msg.sender, tonAmount);\n  }\n\n  /**\n   * @dev swap WTON to TON, and transfer TON\n   * NOTE: TON's transfer event's `from` argument is not `msg.sender` but `WTON` address.\n   */\n  function swapToTONAndTransfer(address to, uint256 wtonAmount) public nonReentrant returns (bool) {\n    return _swapToTON(to, msg.sender, wtonAmount);\n  }\n\n  /**\n   * @dev swap TON to WTON, and transfer WTON\n   */\n  function swapFromTONAndTransfer(address to, uint256 tonAmount) public nonReentrant returns (bool) {\n    return _swapFromTON(msg.sender, to, tonAmount);\n  }\n\n\n  //////////////////////\n  // Internal functions\n  //////////////////////\n\n  function _swapToTON(address tonAccount, address wtonAccount, uint256 wtonAmount) internal returns (bool) {\n    _burn(wtonAccount, wtonAmount);\n\n    // mint TON if WTON contract has not enough TON to transfer\n    uint256 tonAmount = _toWAD(wtonAmount);\n    uint256 tonBalance = ton.balanceOf(address(this));\n    if (tonBalance < tonAmount) {\n      ton.mint(address(this), tonAmount.sub(tonBalance));\n    }\n\n    ton.safeTransfer(tonAccount, tonAmount);\n    return true;\n  }\n\n  function _swapFromTON(address tonAccount, address wtonAccount, uint256 tonAmount) internal returns (bool) {\n    _mint(wtonAccount, _toRAY(tonAmount));\n    ton.safeTransferFrom(tonAccount, address(this), tonAmount);\n    return true;\n  }\n\n  /**\n   * @dev transform WAD to RAY\n   */\n  function _toRAY(uint256 v) internal pure returns (uint256) {\n    return v * 10 ** 9;\n  }\n\n  /**\n   * @dev transform RAY to WAD\n   */\n  function _toWAD(uint256 v) internal pure returns (uint256) {\n    return v / 10 ** 9;\n  }\n}",
  "sourcePath": "/Users/thomashin/Workspace/plasma-evm-contracts/contracts/stake/tokens/WTON.sol",
  "compiler": {
    "name": "solc",
    "version": "0.5.12+commit.7709ece9.Emscripten.clang"
  },
  "schemaVersion": "3.0.23",
  "updatedAt": "2020-04-03T10:22:38.401Z",
  "devdoc": {
    "methods": {
      "allowance(address,address)": {
        "details": "See {IERC20-allowance}."
      },
      "approve(address,uint256)": {
        "details": "See {IERC20-approve}.     * Requirements:     * - `spender` cannot be the zero address."
      },
      "balanceOf(address)": {
        "details": "See {IERC20-balanceOf}."
      },
      "burn(uint256)": {
        "details": "Destroys `amount` tokens from the caller.     * See {ERC20-_burn}."
      },
      "decimals()": {
        "details": "Returns the number of decimals used to get its user representation. For example, if `decimals` equals `2`, a balance of `505` tokens should be displayed to a user as `5,05` (`505 / 10 ** 2`).     * Tokens usually opt for a value of 18, imitating the relationship between Ether and Wei.     * NOTE: This information is only used for _display_ purposes: it in no way affects any of the arithmetic of the contract, including {IERC20-balanceOf} and {IERC20-transfer}."
      },
      "decreaseAllowance(address,uint256)": {
        "details": "Atomically decreases the allowance granted to `spender` by the caller.     * This is an alternative to {approve} that can be used as a mitigation for problems described in {IERC20-approve}.     * Emits an {Approval} event indicating the updated allowance.     * Requirements:     * - `spender` cannot be the zero address. - `spender` must have allowance for the caller of at least `subtractedValue`."
      },
      "increaseAllowance(address,uint256)": {
        "details": "Atomically increases the allowance granted to `spender` by the caller.     * This is an alternative to {approve} that can be used as a mitigation for problems described in {IERC20-approve}.     * Emits an {Approval} event indicating the updated allowance.     * Requirements:     * - `spender` cannot be the zero address."
      },
      "isOwner()": {
        "details": "Returns true if the caller is the current owner."
      },
      "mint(address,uint256)": {
        "details": "See {ERC20-_mint}.     * Requirements:     * - the caller must have the {MinterRole}."
      },
      "name()": {
        "details": "Returns the name of the token."
      },
      "owner()": {
        "details": "Returns the address of the current owner."
      },
      "renounceOwnership()": {
        "details": "Leaves the contract without owner. It will not be possible to call `onlyOwner` functions anymore. Can only be called by the current owner.     * NOTE: Renouncing ownership will leave the contract without an owner, thereby removing any functionality that is only available to the owner."
      },
      "supportsInterface(bytes4)": {
        "details": "See {IERC165-supportsInterface}.     * Time complexity O(1), guaranteed to always use less than 30 000 gas."
      },
      "swapFromTON(uint256)": {
        "details": "swap TON to WTON"
      },
      "swapFromTONAndTransfer(address,uint256)": {
        "details": "swap TON to WTON, and transfer WTON"
      },
      "swapToTON(uint256)": {
        "details": "swap WTON to TON"
      },
      "swapToTONAndTransfer(address,uint256)": {
        "details": "swap WTON to TON, and transfer TON NOTE: TON's transfer event's `from` argument is not `msg.sender` but `WTON` address."
      },
      "symbol()": {
        "details": "Returns the symbol of the token, usually a shorter version of the name."
      },
      "totalSupply()": {
        "details": "See {IERC20-totalSupply}."
      },
      "transfer(address,uint256)": {
        "details": "See {IERC20-transfer}.     * Requirements:     * - `recipient` cannot be the zero address. - the caller must have a balance of at least `amount`."
      },
      "transferFrom(address,address,uint256)": {
        "details": "See {IERC20-transferFrom}.     * Emits an {Approval} event indicating the updated allowance. This is not required by the EIP. See the note at the beginning of {ERC20};     * Requirements: - `sender` and `recipient` cannot be the zero address. - `sender` must have a balance of at least `amount`. - the caller must have allowance for `sender`'s tokens of at least `amount`."
      },
      "transferOwnership(address)": {
        "details": "Transfers ownership of the contract to a new account (`newOwner`). Can only be called by the current owner."
      }
    }
  },
  "userdoc": {
    "methods": {
      "burnFrom(address,uint256)": {
        "notice": "///////////////////"
      },
      "onApprove(address,address,uint256,bytes)": {
        "notice": "///////////////////"
      }
    }
  }
}